

Microchip Technology PIC18 LITE Macro Assembler V1.35 build -356382666 
                                                                                               Wed Feb 03 15:19:04 2016

Microchip Technology Omniscient Code Generator v1.35 (Free mode) build 201507080246
     1                           	processor	18F25K80
     2                           	fnconf	rparam,??,?,0
     3                           	opt	pw 120
     4                           	opt	lm
     5                           	psect	idataCOMRAM,global,class=CODE,delta=1
     6                           	psect	cinit,global,reloc=2,class=CODE,delta=1
     7                           	psect	bssCOMRAM,global,class=COMRAM,space=1,delta=1
     8                           	psect	dataCOMRAM,global,class=COMRAM,space=1,delta=1
     9                           	psect	cstackBANK0,global,class=BANK0,space=1,delta=1
    10                           	psect	cstackCOMRAM,global,class=COMRAM,space=1,delta=1
    11                           	psect	text0,global,reloc=2,class=CODE,delta=1
    12                           	psect	text1,global,reloc=2,class=CODE,delta=1
    13                           	psect	text2,global,reloc=2,class=CODE,delta=1
    14                           	psect	text3,global,reloc=2,class=CODE,delta=1
    15                           	psect	text4,global,reloc=2,class=CODE,delta=1
    16                           	psect	text5,global,reloc=2,class=CODE,delta=1
    17                           	psect	text6,global,reloc=2,class=CODE,delta=1
    18                           	psect	text7,global,reloc=2,class=CODE,delta=1
    19                           	psect	text8,global,reloc=2,class=CODE,delta=1
    20                           	psect	text9,global,reloc=2,class=CODE,delta=1
    21                           	psect	text10,global,reloc=2,class=CODE,delta=1
    22                           	psect	intcode,global,reloc=2,class=CODE,delta=1
    23                           	psect	text12,global,reloc=2,class=CODE,delta=1
    24                           	psect	text13,global,reloc=2,class=CODE,delta=1
    25                           	psect	text14,global,reloc=2,class=CODE,delta=1
    26                           	psect	text15,global,reloc=2,class=CODE,delta=1
    27                           	psect	text16,global,reloc=2,class=CODE,delta=1
    28                           	psect	intsave_regs,global,class=BIGRAM,space=1,delta=1
    29                           	psect	rparam,global,class=COMRAM,space=1,delta=1
    30                           	psect	temp,global,ovrld,common,class=COMRAM,space=1,delta=1
    31  0000                     
    32                           	psect	idataCOMRAM
    33  000A12                     __pidataCOMRAM:
    34                           	opt stack 0
    35                           
    36                           ;initializer for _inputs
    37  000A12  00                 	db	0
    38  000A13  01                 	db	1
    39  000A14  02                 	db	2
    40  000A15  03                 	db	3
    41  000A16  04                 	db	4
    42  0000                     _BRGCON1	set	3651
    43  0000                     _BRGCON2	set	3652
    44  0000                     _BRGCON2bits	set	3652
    45  0000                     _BRGCON3	set	3653
    46  0000                     _BRGCON3bits	set	3653
    47  0000                     _RXF0SIDH	set	3808
    48  0000                     _RXF1SIDH	set	3812
    49  0000                     _RXF2SIDH	set	3816
    50  0000                     _RXF3SIDH	set	3820
    51  0000                     _RXF4SIDH	set	3824
    52  0000                     _RXF5SIDH	set	3828
    53  0000                     _RXM0SIDH	set	3832
    54  0000                     _RXM1SIDH	set	3836
    55  0000                     _RXB1CON	set	3888
    56  0000                     _RXB1CONbits	set	3888
    57  0000                     _TXB0CONbits	set	3872
    58  0000                     _TXB1CONbits	set	3856
    59  0000                     _TXB2CONbits	set	3840
    60  0000                     _ADCON0	set	4034
    61  0000                     _ADCON0bits	set	4034
    62  0000                     _ADCON1bits	set	4033
    63  0000                     _ADCON2bits	set	4032
    64  0000                     _ADRESH	set	4036
    65  0000                     _ADRESL	set	4035
    66  0000                     _CANCON	set	3951
    67  0000                     _CANSTAT	set	3950
    68  0000                     _CIOCON	set	3952
    69  0000                     _COMSTATbits	set	3953
    70  0000                     _INTCONbits	set	4082
    71  0000                     _OSCCONbits	set	4051
    72  0000                     _OSCTUNEbits	set	3995
    73  0000                     _PIR5bits	set	3959
    74  0000                     _PORTA	set	3968
    75  0000                     _PORTB	set	3969
    76  0000                     _RXB0CON	set	3936
    77  0000                     _RXB0CONbits	set	3936
    78  0000                     _RXB0DLC	set	3941
    79  0000                     _RXB0DLCbits	set	3941
    80  0000                     _RXB0SIDLbits	set	3938
    81  0000                     _T0CON	set	4053
    82  0000                     _T0CONbits	set	4053
    83  0000                     _TMR0H	set	4055
    84  0000                     _TMR0L	set	4054
    85  0000                     _TRISAbits	set	3986
    86  0000                     _TRISBbits	set	3987
    87  0000                     _TRISC	set	3988
    88  0000                     _RXB0D0	set	3942
    89  0000                     _RXB0SIDH	set	3937
    90                           
    91                           ; #config settings
    92  0000                     
    93                           	psect	cinit
    94  0008EC                     __pcinit:
    95                           	opt stack 0
    96  0008EC                     start_initialization:
    97                           	opt stack 0
    98  0008EC                     __initialization:
    99                           	opt stack 0
   100                           
   101                           ; Clear objects allocated to COMRAM (12 bytes)
   102  0008EC  EE00  F031         	lfsr	0,__pbssCOMRAM
   103  0008F0  0E0C               	movlw	12
   104  0008F2                     clear_0:
   105  0008F2  6AEE               	clrf	postinc0,c
   106  0008F4  06E8               	decf	wreg,f,c
   107  0008F6  E1FD               	bnz	clear_0
   108                           
   109                           ; Initialize objects allocated to COMRAM (5 bytes)
   110                           ; load TBLPTR registers with __pidataCOMRAM
   111  0008F8  0E12               	movlw	low __pidataCOMRAM
   112  0008FA  6EF6               	movwf	tblptrl,c
   113  0008FC  0E0A               	movlw	high __pidataCOMRAM
   114  0008FE  6EF7               	movwf	tblptrh,c
   115  000900  0E00               	movlw	low (__pidataCOMRAM shr (0+16))
   116  000902  6EF8               	movwf	tblptru,c
   117  000904  EE00  F03D         	lfsr	0,__pdataCOMRAM
   118  000908  EE10 F005          	lfsr	1,5
   119  00090C                     copy_data0:
   120  00090C  0009               	tblrd		*+
   121  00090E  CFF5 FFEE          	movff	tablat,postinc0
   122  000912  50E5               	movf	postdec1,w,c
   123  000914  50E1               	movf	fsr1l,w,c
   124  000916  E1FA               	bnz	copy_data0
   125  000918                     end_of_initialization:
   126                           	opt stack 0
   127  000918                     __end_of__initialization:
   128                           	opt stack 0
   129  000918  9042               	bcf	int$flags,0,c	;clear compiler interrupt flag (level 1)
   130  00091A  9242               	bcf	int$flags,1,c	;clear compiler interrupt flag (level 2)
   131  00091C  0E00               	movlw	low (__Lmediumconst shr (0+16))
   132  00091E  6EF8               	movwf	tblptru,c
   133  000920  0100               	movlb	0
   134  000922  EFEA  F004         	goto	_main	;jump to C main() function
   135                           tblptru	equ	0xFF8
   136                           tblptrh	equ	0xFF7
   137                           tblptrl	equ	0xFF6
   138                           tablat	equ	0xFF5
   139                           postinc0	equ	0xFEE
   140                           wreg	equ	0xFE8
   141                           postdec1	equ	0xFE5
   142                           fsr1l	equ	0xFE1
   143                           
   144                           	psect	bssCOMRAM
   145  000031                     __pbssCOMRAM:
   146                           	opt stack 0
   147  000031                     _results:
   148                           	opt stack 0
   149  000031                     	ds	10
   150  00003B                     _CAN_timer:
   151                           	opt stack 0
   152  00003B                     	ds	2
   153                           tblptru	equ	0xFF8
   154                           tblptrh	equ	0xFF7
   155                           tblptrl	equ	0xFF6
   156                           tablat	equ	0xFF5
   157                           postinc0	equ	0xFEE
   158                           wreg	equ	0xFE8
   159                           postdec1	equ	0xFE5
   160                           fsr1l	equ	0xFE1
   161                           
   162                           	psect	dataCOMRAM
   163  00003D                     __pdataCOMRAM:
   164                           	opt stack 0
   165  00003D                     _inputs:
   166                           	opt stack 0
   167  00003D                     	ds	5
   168                           tblptru	equ	0xFF8
   169                           tblptrh	equ	0xFF7
   170                           tblptrl	equ	0xFF6
   171                           tablat	equ	0xFF5
   172                           postinc0	equ	0xFEE
   173                           wreg	equ	0xFE8
   174                           postdec1	equ	0xFE5
   175                           fsr1l	equ	0xFE1
   176                           
   177                           	psect	cstackBANK0
   178  000060                     __pcstackBANK0:
   179                           	opt stack 0
   180  000060                     CANSetOperationMode@mode:
   181                           	opt stack 0
   182  000060                     CANSetBaudRate@BRP:
   183                           	opt stack 0
   184  000060                     CANIDToRegs@ptr:
   185                           	opt stack 0
   186                           
   187                           ; 2 bytes @ 0x0
   188  000060                     	ds	1
   189  000061                     CANSetBaudRate@PHSEG1:
   190                           	opt stack 0
   191                           
   192                           ; 1 bytes @ 0x1
   193  000061                     	ds	1
   194  000062                     CANSetBaudRate@PHSEG2:
   195                           	opt stack 0
   196  000062                     CANIDToRegs@val:
   197                           	opt stack 0
   198                           
   199                           ; 4 bytes @ 0x2
   200  000062                     	ds	1
   201  000063                     CANSetBaudRate@PROPSEG:
   202                           	opt stack 0
   203                           
   204                           ; 1 bytes @ 0x3
   205  000063                     	ds	1
   206  000064                     CANSetBaudRate@flags:
   207                           	opt stack 0
   208                           
   209                           ; 1 bytes @ 0x4
   210  000064                     	ds	1
   211  000065                     CANSetBaudRate@SJW:
   212                           	opt stack 0
   213                           
   214                           ; 1 bytes @ 0x5
   215  000065                     	ds	1
   216  000066                     CANIDToRegs@type:
   217                           	opt stack 0
   218                           
   219                           ; 1 bytes @ 0x6
   220  000066                     	ds	1
   221  000067                     ??_CANIDToRegs:
   222                           
   223                           ; 0 bytes @ 0x7
   224  000067                     	ds	2
   225  000069                     CANIDToRegs@Value:
   226                           	opt stack 0
   227                           
   228                           ; 2 bytes @ 0x9
   229  000069                     	ds	2
   230  00006B                     CANSetMask@val:
   231                           	opt stack 0
   232  00006B                     CANSetFilter@val:
   233                           	opt stack 0
   234                           
   235                           ; 4 bytes @ 0xB
   236  00006B                     	ds	4
   237  00006F                     CANSetMask@type:
   238                           	opt stack 0
   239  00006F                     CANSetFilter@type:
   240                           	opt stack 0
   241                           
   242                           ; 1 bytes @ 0xF
   243  00006F                     	ds	1
   244  000070                     CANSetMask@code:
   245                           	opt stack 0
   246  000070                     CANSetFilter@code:
   247                           	opt stack 0
   248                           
   249                           ; 1 bytes @ 0x10
   250  000070                     	ds	1
   251  000071                     CANSetMask@ptr:
   252                           	opt stack 0
   253  000071                     CANSetFilter@ptr:
   254                           	opt stack 0
   255                           
   256                           ; 2 bytes @ 0x11
   257  000071                     	ds	2
   258  000073                     CANInitialize@BRP:
   259                           	opt stack 0
   260                           
   261                           ; 1 bytes @ 0x13
   262  000073                     	ds	1
   263  000074                     CANInitialize@PHSEG1:
   264                           	opt stack 0
   265                           
   266                           ; 1 bytes @ 0x14
   267  000074                     	ds	1
   268  000075                     CANInitialize@PHSEG2:
   269                           	opt stack 0
   270                           
   271                           ; 1 bytes @ 0x15
   272  000075                     	ds	1
   273  000076                     CANInitialize@PROPSEG:
   274                           	opt stack 0
   275                           
   276                           ; 1 bytes @ 0x16
   277  000076                     	ds	1
   278  000077                     CANInitialize@config:
   279                           	opt stack 0
   280                           
   281                           ; 1 bytes @ 0x17
   282  000077                     	ds	1
   283  000078                     ??_CANInitialize:
   284                           
   285                           ; 0 bytes @ 0x18
   286  000078                     	ds	4
   287  00007C                     CANInitialize@SJW:
   288                           	opt stack 0
   289                           
   290                           ; 1 bytes @ 0x1C
   291  00007C                     	ds	1
   292  00007D                     CANInitialize@FilterConfig1:
   293                           	opt stack 0
   294                           
   295                           ; 1 bytes @ 0x1D
   296  00007D                     	ds	1
   297  00007E                     CANInitialize@FilterConfig2:
   298                           	opt stack 0
   299                           
   300                           ; 1 bytes @ 0x1E
   301  00007E                     	ds	1
   302  00007F                     initCAN@init_flag:
   303                           	opt stack 0
   304                           
   305                           ; 2 bytes @ 0x1F
   306  00007F                     	ds	2
   307  000081                     
   308                           ; 2 bytes @ 0x21
   309  000081                     	ds	2
   310  000083                     
   311                           ; 3 bytes @ 0x23
   312  000083                     	ds	3
   313  000086                     tblptru	equ	0xFF8
   314                           tblptrh	equ	0xFF7
   315                           tblptrl	equ	0xFF6
   316                           tablat	equ	0xFF5
   317                           postinc0	equ	0xFEE
   318                           wreg	equ	0xFE8
   319                           postdec1	equ	0xFE5
   320                           fsr1l	equ	0xFE1
   321                           
   322                           ; 0 bytes @ 0x26
   323                           
   324                           	psect	cstackCOMRAM
   325  000001                     __pcstackCOMRAM:
   326                           	opt stack 0
   327  000001                     ?___wmul:
   328                           	opt stack 0
   329  000001                     ___wmul@multiplier:
   330                           	opt stack 0
   331  000001                     i2CANIDToRegs@ptr:
   332                           	opt stack 0
   333                           
   334                           ; 2 bytes @ 0x0
   335  000001                     	ds	2
   336  000003                     ___wmul@multiplicand:
   337                           	opt stack 0
   338  000003                     i2CANIDToRegs@val:
   339                           	opt stack 0
   340                           
   341                           ; 4 bytes @ 0x2
   342  000003                     	ds	2
   343  000005                     ___wmul@product:
   344                           	opt stack 0
   345                           
   346                           ; 2 bytes @ 0x4
   347  000005                     	ds	2
   348  000007                     ??_getAnalog:
   349  000007                     i2CANIDToRegs@type:
   350                           	opt stack 0
   351                           
   352                           ; 1 bytes @ 0x6
   353  000007                     	ds	1
   354  000008                     ??i2_CANIDToRegs:
   355                           
   356                           ; 0 bytes @ 0x7
   357  000008                     	ds	2
   358  00000A                     getAnalog@i:
   359                           	opt stack 0
   360  00000A                     i2CANIDToRegs@Value:
   361                           	opt stack 0
   362                           
   363                           ; 2 bytes @ 0x9
   364  00000A                     	ds	2
   365  00000C                     CANSendMessage@id:
   366                           	opt stack 0
   367                           
   368                           ; 4 bytes @ 0xB
   369  00000C                     	ds	4
   370  000010                     CANSendMessage@Data:
   371                           	opt stack 0
   372                           
   373                           ; 2 bytes @ 0xF
   374  000010                     	ds	2
   375  000012                     CANSendMessage@DataLen:
   376                           	opt stack 0
   377                           
   378                           ; 1 bytes @ 0x11
   379  000012                     	ds	1
   380  000013                     CANSendMessage@MsgFlags:
   381                           	opt stack 0
   382                           
   383                           ; 1 bytes @ 0x12
   384  000013                     	ds	1
   385  000014                     CANSendMessage@ptr:
   386                           	opt stack 0
   387                           
   388                           ; 2 bytes @ 0x13
   389  000014                     	ds	2
   390  000016                     CANSendMessage@i:
   391                           	opt stack 0
   392                           
   393                           ; 1 bytes @ 0x15
   394  000016                     	ds	1
   395  000017                     ??_sendCANMain:
   396                           
   397                           ; 0 bytes @ 0x16
   398  000017                     	ds	2
   399  000019                     sendCANMain@MessageData:
   400                           	opt stack 0
   401                           
   402                           ; 8 bytes @ 0x18
   403  000019                     	ds	8
   404  000021                     sendCANMain@i:
   405                           	opt stack 0
   406                           
   407                           ; 2 bytes @ 0x20
   408  000021                     	ds	2
   409  000023                     ??_ISR:
   410                           
   411                           ; 0 bytes @ 0x22
   412  000023                     	ds	14
   413                           tblptru	equ	0xFF8
   414                           tblptrh	equ	0xFF7
   415                           tblptrl	equ	0xFF6
   416                           tablat	equ	0xFF5
   417                           postinc0	equ	0xFEE
   418                           wreg	equ	0xFE8
   419                           postdec1	equ	0xFE5
   420                           fsr1l	equ	0xFE1
   421                           
   422 ;;
   423 ;;Main: autosize = 0, tempsize = 0, incstack = 0, save=0
   424 ;;
   425 ;; *************** function _main *****************
   426 ;; Defined at:
   427 ;;		line 133 in file "main.c"
   428 ;; Parameters:    Size  Location     Type
   429 ;;  argc            2   33[BANK0 ] int 
   430 ;;  argv            3   35[BANK0 ] PTR PTR unsigned char 
   431 ;; Auto vars:     Size  Location     Type
   432 ;;		None
   433 ;; Return value:  Size  Location     Type
   434 ;;                  2   33[BANK0 ] int 
   435 ;; Registers used:
   436 ;;		wreg, fsr1l, fsr1h, fsr2l, fsr2h, status,2, status,0, cstack
   437 ;; Tracked objects:
   438 ;;		On entry : 0/0
   439 ;;		On exit  : 0/0
   440 ;;		Unchanged: 0/0
   441 ;; Data sizes:     COMRAM   BANK0   BANK1   BANK2   BANK3   BANK4   BANK5   BANK6   BANK7   BANK8   BANK9  BANK10  BANK1
      +1  BANK12  BANK13  BANK14
   442 ;;      Params:         0       5       0       0       0       0       0       0       0       0       0       0       
      +0       0       0       0
   443 ;;      Locals:         0       0       0       0       0       0       0       0       0       0       0       0       
      +0       0       0       0
   444 ;;      Temps:          0       0       0       0       0       0       0       0       0       0       0       0       
      +0       0       0       0
   445 ;;      Totals:         0       5       0       0       0       0       0       0       0       0       0       0       
      +0       0       0       0
   446 ;;Total ram usage:        5 bytes
   447 ;; Hardware stack levels required when called:    8
   448 ;; This function calls:
   449 ;;		_initAnalog
   450 ;;		_initCAN
   451 ;;		_initConfig
   452 ;;		_initTimers
   453 ;; This function is called by:
   454 ;;		Startup code after reset
   455 ;; This function uses a non-reentrant model
   456 ;;
   457                           
   458                           	psect	text0
   459  0009D4                     __ptext0:
   460                           	opt stack 0
   461  0009D4                     _main:
   462                           	opt stack 23
   463                           
   464                           ;main.c: 134: initConfig();
   465                           
   466                           ;incstack = 0
   467  0009D4  EC00  F005         	call	_initConfig	;wreg free
   468                           
   469                           ;main.c: 135: initAnalog();
   470  0009D8  ECB0  F004         	call	_initAnalog	;wreg free
   471                           
   472                           ;main.c: 136: initTimers();
   473  0009DC  ECDC  F004         	call	_initTimers	;wreg free
   474                           
   475                           ;main.c: 137: initCAN();
   476  0009E0  EC93  F004         	call	_initCAN	;wreg free
   477                           
   478                           ;main.c: 138: TRISC = 0x00;
   479  0009E4  0E00               	movlw	0
   480  0009E6  6E94               	movwf	3988,c	;volatile
   481  0009E8  D7FF               	goto	l92
   482  0009EA                     __end_of_main:
   483                           	opt stack 0
   484                           tblptru	equ	0xFF8
   485                           tblptrh	equ	0xFF7
   486                           tblptrl	equ	0xFF6
   487                           tablat	equ	0xFF5
   488                           postinc0	equ	0xFEE
   489                           wreg	equ	0xFE8
   490                           postdec1	equ	0xFE5
   491                           fsr1l	equ	0xFE1
   492                           
   493 ;; *************** function _initTimers *****************
   494 ;; Defined at:
   495 ;;		line 52 in file "main.c"
   496 ;; Parameters:    Size  Location     Type
   497 ;;		None
   498 ;; Auto vars:     Size  Location     Type
   499 ;;		None
   500 ;; Return value:  Size  Location     Type
   501 ;;		None               void
   502 ;; Registers used:
   503 ;;		wreg, status,2
   504 ;; Tracked objects:
   505 ;;		On entry : 0/0
   506 ;;		On exit  : 0/0
   507 ;;		Unchanged: 0/0
   508 ;; Data sizes:     COMRAM   BANK0   BANK1   BANK2   BANK3   BANK4   BANK5   BANK6   BANK7   BANK8   BANK9  BANK10  BANK1
      +1  BANK12  BANK13  BANK14
   509 ;;      Params:         0       0       0       0       0       0       0       0       0       0       0       0       
      +0       0       0       0
   510 ;;      Locals:         0       0       0       0       0       0       0       0       0       0       0       0       
      +0       0       0       0
   511 ;;      Temps:          0       0       0       0       0       0       0       0       0       0       0       0       
      +0       0       0       0
   512 ;;      Totals:         0       0       0       0       0       0       0       0       0       0       0       0       
      +0       0       0       0
   513 ;;Total ram usage:        0 bytes
   514 ;; Hardware stack levels used:    1
   515 ;; Hardware stack levels required when called:    4
   516 ;; This function calls:
   517 ;;		Nothing
   518 ;; This function is called by:
   519 ;;		_main
   520 ;; This function uses a non-reentrant model
   521 ;;
   522                           
   523                           	psect	text1
   524  0009B8                     __ptext1:
   525                           	opt stack 0
   526  0009B8                     _initTimers:
   527                           	opt stack 26
   528                           
   529                           ;main.c: 54: T0CON = 0x00;
   530                           
   531                           ;incstack = 0
   532  0009B8  0E00               	movlw	0
   533  0009BA  6ED5               	movwf	4053,c	;volatile
   534                           
   535                           ;main.c: 55: T0CONbits.T0PS = 0b111;
   536  0009BC  80D5               	bsf	4053,0,c	;volatile
   537  0009BE  82D5               	bsf	4053,1,c	;volatile
   538  0009C0  84D5               	bsf	4053,2,c	;volatile
   539                           
   540                           ;main.c: 56: TMR0H = 0xFD;
   541  0009C2  0EFD               	movlw	253
   542  0009C4  6ED7               	movwf	4055,c	;volatile
   543                           
   544                           ;main.c: 57: TMR0L = 0x8E;
   545  0009C6  0E8E               	movlw	142
   546  0009C8  6ED6               	movwf	4054,c	;volatile
   547                           
   548                           ;main.c: 58: T0CONbits.TMR0ON = 0b1;
   549  0009CA  8ED5               	bsf	4053,7,c	;volatile
   550                           
   551                           ;main.c: 60: INTCONbits.GIE = 0b1;
   552  0009CC  8EF2               	bsf	intcon,7,c	;volatile
   553                           
   554                           ;main.c: 61: INTCONbits.TMR0IF = 0b0;
   555  0009CE  94F2               	bcf	intcon,2,c	;volatile
   556                           
   557                           ;main.c: 62: INTCONbits.TMR0IE = 0b1;
   558  0009D0  8AF2               	bsf	intcon,5,c	;volatile
   559  0009D2  0012               	return		;funcret
   560  0009D4                     __end_of_initTimers:
   561                           	opt stack 0
   562                           tblptru	equ	0xFF8
   563                           tblptrh	equ	0xFF7
   564                           tblptrl	equ	0xFF6
   565                           tablat	equ	0xFF5
   566                           intcon	equ	0xFF2
   567                           postinc0	equ	0xFEE
   568                           wreg	equ	0xFE8
   569                           postdec1	equ	0xFE5
   570                           fsr1l	equ	0xFE1
   571                           
   572 ;; *************** function _initConfig *****************
   573 ;; Defined at:
   574 ;;		line 45 in file "main.c"
   575 ;; Parameters:    Size  Location     Type
   576 ;;		None
   577 ;; Auto vars:     Size  Location     Type
   578 ;;		None
   579 ;; Return value:  Size  Location     Type
   580 ;;		None               void
   581 ;; Registers used:
   582 ;;		wreg, status,2
   583 ;; Tracked objects:
   584 ;;		On entry : 0/0
   585 ;;		On exit  : 0/0
   586 ;;		Unchanged: 0/0
   587 ;; Data sizes:     COMRAM   BANK0   BANK1   BANK2   BANK3   BANK4   BANK5   BANK6   BANK7   BANK8   BANK9  BANK10  BANK1
      +1  BANK12  BANK13  BANK14
   588 ;;      Params:         0       0       0       0       0       0       0       0       0       0       0       0       
      +0       0       0       0
   589 ;;      Locals:         0       0       0       0       0       0       0       0       0       0       0       0       
      +0       0       0       0
   590 ;;      Temps:          0       0       0       0       0       0       0       0       0       0       0       0       
      +0       0       0       0
   591 ;;      Totals:         0       0       0       0       0       0       0       0       0       0       0       0       
      +0       0       0       0
   592 ;;Total ram usage:        0 bytes
   593 ;; Hardware stack levels used:    1
   594 ;; Hardware stack levels required when called:    4
   595 ;; This function calls:
   596 ;;		Nothing
   597 ;; This function is called by:
   598 ;;		_main
   599 ;; This function uses a non-reentrant model
   600 ;;
   601                           
   602                           	psect	text2
   603  000A00                     __ptext2:
   604                           	opt stack 0
   605  000A00                     _initConfig:
   606                           	opt stack 26
   607                           
   608                           ;main.c: 47: OSCCONbits.SCS = 0b10;
   609                           
   610                           ;incstack = 0
   611  000A00  50D3               	movf	4051,w,c	;volatile
   612  000A02  0BFC               	andlw	-4
   613  000A04  0902               	iorlw	2
   614  000A06  6ED3               	movwf	4051,c	;volatile
   615                           
   616                           ;main.c: 48: OSCCONbits.IRCF = 0b111;
   617  000A08  88D3               	bsf	4051,4,c	;volatile
   618  000A0A  8AD3               	bsf	4051,5,c	;volatile
   619  000A0C  8CD3               	bsf	4051,6,c	;volatile
   620                           
   621                           ;main.c: 49: OSCTUNEbits.PLLEN = 0b1;
   622  000A0E  8C9B               	bsf	3995,6,c	;volatile
   623  000A10  0012               	return		;funcret
   624  000A12                     __end_of_initConfig:
   625                           	opt stack 0
   626                           tblptru	equ	0xFF8
   627                           tblptrh	equ	0xFF7
   628                           tblptrl	equ	0xFF6
   629                           tablat	equ	0xFF5
   630                           intcon	equ	0xFF2
   631                           postinc0	equ	0xFEE
   632                           wreg	equ	0xFE8
   633                           postdec1	equ	0xFE5
   634                           fsr1l	equ	0xFE1
   635                           
   636 ;; *************** function _initCAN *****************
   637 ;; Defined at:
   638 ;;		line 83 in file "main.c"
   639 ;; Parameters:    Size  Location     Type
   640 ;;		None
   641 ;; Auto vars:     Size  Location     Type
   642 ;;  init_flag       2   31[BANK0 ] short 
   643 ;; Return value:  Size  Location     Type
   644 ;;		None               void
   645 ;; Registers used:
   646 ;;		wreg, fsr1l, fsr1h, fsr2l, fsr2h, status,2, status,0, cstack
   647 ;; Tracked objects:
   648 ;;		On entry : 0/0
   649 ;;		On exit  : 0/0
   650 ;;		Unchanged: 0/0
   651 ;; Data sizes:     COMRAM   BANK0   BANK1   BANK2   BANK3   BANK4   BANK5   BANK6   BANK7   BANK8   BANK9  BANK10  BANK1
      +1  BANK12  BANK13  BANK14
   652 ;;      Params:         0       0       0       0       0       0       0       0       0       0       0       0       
      +0       0       0       0
   653 ;;      Locals:         0       2       0       0       0       0       0       0       0       0       0       0       
      +0       0       0       0
   654 ;;      Temps:          0       0       0       0       0       0       0       0       0       0       0       0       
      +0       0       0       0
   655 ;;      Totals:         0       2       0       0       0       0       0       0       0       0       0       0       
      +0       0       0       0
   656 ;;Total ram usage:        2 bytes
   657 ;; Hardware stack levels used:    1
   658 ;; Hardware stack levels required when called:    7
   659 ;; This function calls:
   660 ;;		_CANInitialize
   661 ;; This function is called by:
   662 ;;		_main
   663 ;; This function uses a non-reentrant model
   664 ;;
   665                           
   666                           	psect	text3
   667  000926                     __ptext3:
   668                           	opt stack 0
   669  000926                     _initCAN:
   670                           	opt stack 23
   671                           
   672                           ;main.c: 84: PORTB = 0x00;
   673                           
   674                           ;incstack = 0
   675  000926  0E00               	movlw	0
   676  000928  6E81               	movwf	3969,c	;volatile
   677                           
   678                           ;main.c: 85: TRISBbits.TRISB2 = 0b0;
   679  00092A  9493               	bcf	3987,2,c	;volatile
   680                           
   681                           ;main.c: 86: TRISBbits.TRISB1 = 0b1;
   682  00092C  8293               	bsf	3987,1,c	;volatile
   683                           
   684                           ;main.c: 87: short init_flag = CAN_CONFIG_SAMPLE_ONCE & CAN_CONFIG_PHSEG2_PRG_ON &
   685                           ;main.c: 88: CAN_CONFIG_DBL_BUFFER_ON &CAN_CONFIG_ALL_MSG & CAN_CONFIG_LINE_FILTER_OFF;
   686  00092E  0E00               	movlw	0
   687  000930  0100               	movlb	0	; () banked
   688  000932  6F80               	movwf	(initCAN@init_flag+1)& (0+255),b
   689  000934  0EFD               	movlw	253
   690  000936  6F7F               	movwf	initCAN@init_flag& (0+255),b
   691                           
   692                           ; BSR set to: 0
   693                           ;main.c: 89: CANInitialize(1, 1, 3, 2, 2,init_flag);
   694  000938  0E01               	movlw	1
   695  00093A  0100               	movlb	0	; () banked
   696  00093C  6F73               	movwf	CANInitialize@BRP& (0+255),b
   697  00093E  0E03               	movlw	3
   698  000940  0100               	movlb	0	; () banked
   699  000942  6F74               	movwf	CANInitialize@PHSEG1& (0+255),b
   700  000944  0E02               	movlw	2
   701  000946  0100               	movlb	0	; () banked
   702  000948  6F75               	movwf	CANInitialize@PHSEG2& (0+255),b
   703  00094A  0E02               	movlw	2
   704  00094C  0100               	movlb	0	; () banked
   705  00094E  6F76               	movwf	CANInitialize@PROPSEG& (0+255),b
   706  000950  C07F  F077         	movff	initCAN@init_flag,CANInitialize@config
   707  000954  0E01               	movlw	1
   708  000956  EC2A  F001         	call	_CANInitialize
   709                           
   710                           ;main.c: 90: CIOCON = 0b00100000;
   711  00095A  0E20               	movlw	32
   712  00095C  6E70               	movwf	3952,c	;volatile
   713  00095E  0012               	return		;funcret
   714  000960                     __end_of_initCAN:
   715                           	opt stack 0
   716                           tblptru	equ	0xFF8
   717                           tblptrh	equ	0xFF7
   718                           tblptrl	equ	0xFF6
   719                           tablat	equ	0xFF5
   720                           intcon	equ	0xFF2
   721                           postinc0	equ	0xFEE
   722                           wreg	equ	0xFE8
   723                           postdec1	equ	0xFE5
   724                           fsr1l	equ	0xFE1
   725                           
   726 ;; *************** function _CANInitialize *****************
   727 ;; Defined at:
   728 ;;		line 151 in file "can18xx8.c"
   729 ;; Parameters:    Size  Location     Type
   730 ;;  SJW             1    wreg     unsigned char 
   731 ;;  BRP             1   19[BANK0 ] unsigned char 
   732 ;;  PHSEG1          1   20[BANK0 ] unsigned char 
   733 ;;  PHSEG2          1   21[BANK0 ] unsigned char 
   734 ;;  PROPSEG         1   22[BANK0 ] unsigned char 
   735 ;;  config          1   23[BANK0 ] enum E454
   736 ;; Auto vars:     Size  Location     Type
   737 ;;  SJW             1   28[BANK0 ] unsigned char 
   738 ;;  FilterConfig    1   30[BANK0 ] unsigned char 
   739 ;;  FilterConfig    1   29[BANK0 ] unsigned char 
   740 ;; Return value:  Size  Location     Type
   741 ;;		None               void
   742 ;; Registers used:
   743 ;;		wreg, fsr1l, fsr1h, fsr2l, fsr2h, status,2, status,0, cstack
   744 ;; Tracked objects:
   745 ;;		On entry : 0/0
   746 ;;		On exit  : 0/0
   747 ;;		Unchanged: 0/0
   748 ;; Data sizes:     COMRAM   BANK0   BANK1   BANK2   BANK3   BANK4   BANK5   BANK6   BANK7   BANK8   BANK9  BANK10  BANK1
      +1  BANK12  BANK13  BANK14
   749 ;;      Params:         0       5       0       0       0       0       0       0       0       0       0       0       
      +0       0       0       0
   750 ;;      Locals:         0       3       0       0       0       0       0       0       0       0       0       0       
      +0       0       0       0
   751 ;;      Temps:          0       4       0       0       0       0       0       0       0       0       0       0       
      +0       0       0       0
   752 ;;      Totals:         0      12       0       0       0       0       0       0       0       0       0       0       
      +0       0       0       0
   753 ;;Total ram usage:       12 bytes
   754 ;; Hardware stack levels used:    1
   755 ;; Hardware stack levels required when called:    6
   756 ;; This function calls:
   757 ;;		_CANSetBaudRate
   758 ;;		_CANSetFilter
   759 ;;		_CANSetMask
   760 ;;		_CANSetOperationMode
   761 ;; This function is called by:
   762 ;;		_initCAN
   763 ;; This function uses a non-reentrant model
   764 ;;
   765                           
   766                           	psect	text4
   767  000254                     __ptext4:
   768                           	opt stack 0
   769  000254                     _CANInitialize:
   770                           	opt stack 23
   771                           
   772                           ;incstack = 0
   773                           ;CANInitialize@SJW stored from wreg
   774  000254  0100               	movlb	0	; () banked
   775  000256  6F7C               	movwf	CANInitialize@SJW& (0+255),b
   776                           
   777                           ;can18xx8.c: 158: BYTE FilterConfig1;
   778                           ;can18xx8.c: 159: BYTE FilterConfig2;
   779                           ;can18xx8.c: 163: CANSetOperationMode(CAN_OP_MODE_CONFIG);
   780  000258  0E80               	movlw	128
   781  00025A  ECF5  F004         	call	_CANSetOperationMode
   782                           
   783                           ;can18xx8.c: 166: CANSetBaudRate(SJW,
   784                           ;can18xx8.c: 167: BRP,
   785                           ;can18xx8.c: 168: PHSEG1,
   786                           ;can18xx8.c: 169: PHSEG2,
   787                           ;can18xx8.c: 170: PROPSEG,
   788                           ;can18xx8.c: 171: config);
   789  00025E  C073  F060         	movff	CANInitialize@BRP,CANSetBaudRate@BRP
   790  000262  C074  F061         	movff	CANInitialize@PHSEG1,CANSetBaudRate@PHSEG1
   791  000266  C075  F062         	movff	CANInitialize@PHSEG2,CANSetBaudRate@PHSEG2
   792  00026A  C076  F063         	movff	CANInitialize@PROPSEG,CANSetBaudRate@PROPSEG
   793  00026E  C077  F064         	movff	CANInitialize@config,CANSetBaudRate@flags
   794  000272  0100               	movlb	0	; () banked
   795  000274  517C               	movf	CANInitialize@SJW& (0+255),w,b
   796  000276  EC24  F004         	call	_CANSetBaudRate
   797                           
   798                           ;can18xx8.c: 173: RXB0CON = config & CAN_CONFIG_MSG_BITS;
   799  00027A  0100               	movlb	0	; () banked
   800  00027C  5177               	movf	CANInitialize@config& (0+255),w,b
   801  00027E  0B60               	andlw	96
   802  000280  6E60               	movwf	3936,c	;volatile
   803                           
   804                           ; BSR set to: 0
   805                           ;can18xx8.c: 174: if ( (config & CAN_CONFIG_DBL_BUFFER_BIT)
   806                           ;can18xx8.c: 175: == CAN_CONFIG_DBL_BUFFER_ON )
   807  000282  0100               	movlb	0	; () banked
   808  000284  5177               	movf	CANInitialize@config& (0+255),w,b
   809  000286  0B10               	andlw	16
   810  000288  0AFF               	xorlw	255
   811  00028A  B4D8               	btfsc	status,2,c
   812                           
   813                           ; BSR set to: 0
   814                           ;can18xx8.c: 176: RXB0CONbits.RB0DBEN = 1;
   815  00028C  8460               	bsf	3936,2,c	;volatile
   816                           
   817                           ; BSR set to: 0
   818                           ;can18xx8.c: 179: RXB1CON = RXB0CON;
   819  00028E  CF60 FF30          	movff	3936,3888	;volatile
   820                           
   821                           ; BSR set to: 0
   822                           ;can18xx8.c: 182: CANSetMask(CAN_MASK_B1, 0, CAN_CONFIG_XTD_MSG);
   823  000292  0E00               	movlw	0
   824  000294  0100               	movlb	0	; () banked
   825  000296  6F6B               	movwf	CANSetMask@val& (0+255),b
   826  000298  0E00               	movlw	0
   827  00029A  6F6C               	movwf	(CANSetMask@val+1)& (0+255),b
   828  00029C  0E00               	movlw	0
   829  00029E  6F6D               	movwf	(CANSetMask@val+2)& (0+255),b
   830  0002A0  0E00               	movlw	0
   831  0002A2  6F6E               	movwf	(CANSetMask@val+3)& (0+255),b
   832  0002A4  0EF7               	movlw	247
   833  0002A6  0100               	movlb	0	; () banked
   834  0002A8  6F6F               	movwf	CANSetMask@type& (0+255),b
   835  0002AA  0E00               	movlw	0
   836  0002AC  EC56  F004         	call	_CANSetMask
   837                           
   838                           ;can18xx8.c: 183: CANSetMask(CAN_MASK_B2, 0, CAN_CONFIG_XTD_MSG);
   839  0002B0  0E00               	movlw	0
   840  0002B2  0100               	movlb	0	; () banked
   841  0002B4  6F6B               	movwf	CANSetMask@val& (0+255),b
   842  0002B6  0E00               	movlw	0
   843  0002B8  6F6C               	movwf	(CANSetMask@val+1)& (0+255),b
   844  0002BA  0E00               	movlw	0
   845  0002BC  6F6D               	movwf	(CANSetMask@val+2)& (0+255),b
   846  0002BE  0E00               	movlw	0
   847  0002C0  6F6E               	movwf	(CANSetMask@val+3)& (0+255),b
   848  0002C2  0EF7               	movlw	247
   849  0002C4  0100               	movlb	0	; () banked
   850  0002C6  6F6F               	movwf	CANSetMask@type& (0+255),b
   851  0002C8  0E01               	movlw	1
   852  0002CA  EC56  F004         	call	_CANSetMask
   853                           
   854                           ;can18xx8.c: 185: switch( (config & CAN_CONFIG_MSG_BITS) | ~CAN_CONFIG_MSG_BITS )
   855  0002CE  D00F               	goto	l1350
   856  0002D0                     l1344:
   857                           
   858                           ;can18xx8.c: 188: FilterConfig1 = CAN_CONFIG_XTD_MSG;
   859  0002D0  0EF7               	movlw	247
   860  0002D2  0100               	movlb	0	; () banked
   861  0002D4  6F7D               	movwf	CANInitialize@FilterConfig1& (0+255),b
   862  0002D6  D007               	goto	l1346
   863  0002D8                     l171:
   864                           
   865                           ; BSR set to: 0
   866                           ;can18xx8.c: 193: FilterConfig1 = CAN_CONFIG_STD_MSG;
   867  0002D8  0100               	movlb	0	; () banked
   868  0002DA  697D               	setf	CANInitialize@FilterConfig1& (0+255),b
   869                           
   870                           ;can18xx8.c: 194: FilterConfig2 = CAN_CONFIG_STD_MSG;
   871  0002DC  0100               	movlb	0	; () banked
   872  0002DE  697E               	setf	CANInitialize@FilterConfig2& (0+255),b
   873                           
   874                           ;can18xx8.c: 195: break;
   875  0002E0  D028               	goto	l1352
   876  0002E2                     l172:
   877                           
   878                           ; BSR set to: 0
   879                           ;can18xx8.c: 197: FilterConfig1 = CAN_CONFIG_STD_MSG;
   880  0002E2  0100               	movlb	0	; () banked
   881  0002E4  697D               	setf	CANInitialize@FilterConfig1& (0+255),b
   882  0002E6                     l1346:
   883                           
   884                           ; BSR set to: 0
   885                           ;can18xx8.c: 198: FilterConfig2 = CAN_CONFIG_XTD_MSG;
   886  0002E6  0EF7               	movlw	247
   887  0002E8  0100               	movlb	0	; () banked
   888  0002EA  6F7E               	movwf	CANInitialize@FilterConfig2& (0+255),b
   889                           
   890                           ; BSR set to: 0
   891                           ;can18xx8.c: 200: }
   892                           
   893                           ;can18xx8.c: 199: break;
   894  0002EC  D022               	goto	l1352
   895  0002EE                     l1350:
   896  0002EE  0E9F               	movlw	159
   897  0002F0  0100               	movlb	0	; () banked
   898  0002F2  6F78               	movwf	??_CANInitialize& (0+255),b
   899  0002F4  0EFF               	movlw	255
   900  0002F6  0100               	movlb	0	; () banked
   901  0002F8  6F79               	movwf	(??_CANInitialize+1)& (0+255),b
   902  0002FA  0100               	movlb	0	; () banked
   903  0002FC  5177               	movf	CANInitialize@config& (0+255),w,b
   904  0002FE  0B60               	andlw	96
   905  000300  0100               	movlb	0	; () banked
   906  000302  6F7A               	movwf	(??_CANInitialize+2)& (0+255),b
   907  000304  6B7B               	clrf	(??_CANInitialize+3)& (0+255),b
   908  000306  0100               	movlb	0	; () banked
   909  000308  5178               	movf	??_CANInitialize& (0+255),w,b
   910  00030A  0100               	movlb	0	; () banked
   911  00030C  137A               	iorwf	(??_CANInitialize+2)& (0+255),f,b
   912  00030E  0100               	movlb	0	; () banked
   913  000310  5179               	movf	(??_CANInitialize+1)& (0+255),w,b
   914  000312  0100               	movlb	0	; () banked
   915  000314  137B               	iorwf	(??_CANInitialize+3)& (0+255),f,b
   916                           
   917                           ; Switch on 2 bytes has been partitioned into a top level switch of size 1, and 1 sub-sw
      +                          itches
   918                           ; Switch size 1, requested type "space"
   919                           ; Number of cases is 1, Range of values is 0 to 0
   920                           ; switch strategies available:
   921                           ; Name         Instructions Cycles
   922                           ; simple_byte            4     3 (average)
   923                           ;	Chosen strategy is simple_byte
   924  000316  0100               	movlb	0	; () banked
   925  000318  517B               	movf	(??_CANInitialize+3)& (0+255),w,b
   926  00031A  0A00               	xorlw	0	; case 0
   927  00031C  A4D8               	btfss	status,2,c
   928  00031E  D7E1               	goto	l172
   929                           
   930                           ; BSR set to: 0
   931                           ; Switch size 1, requested type "space"
   932                           ; Number of cases is 2, Range of values is 191 to 223
   933                           ; switch strategies available:
   934                           ; Name         Instructions Cycles
   935                           ; simple_byte            7     4 (average)
   936                           ;	Chosen strategy is simple_byte
   937  000320  0100               	movlb	0	; () banked
   938  000322  517A               	movf	(??_CANInitialize+2)& (0+255),w,b
   939  000324  0ABF               	xorlw	191	; case 191
   940  000326  B4D8               	btfsc	status,2,c
   941  000328  D7D7               	goto	l171
   942  00032A  0A60               	xorlw	96	; case 223
   943  00032C  B4D8               	btfsc	status,2,c
   944  00032E  D7D0               	goto	l1344
   945  000330  D7D8               	goto	l172
   946  000332                     l1352:
   947                           
   948                           ; BSR set to: 0
   949                           ;can18xx8.c: 204: CANSetFilter(CAN_FILTER_B1_F1, 0, FilterConfig1);
   950  000332  0E00               	movlw	0
   951  000334  0100               	movlb	0	; () banked
   952  000336  6F6B               	movwf	CANSetFilter@val& (0+255),b
   953  000338  0E00               	movlw	0
   954  00033A  6F6C               	movwf	(CANSetFilter@val+1)& (0+255),b
   955  00033C  0E00               	movlw	0
   956  00033E  6F6D               	movwf	(CANSetFilter@val+2)& (0+255),b
   957  000340  0E00               	movlw	0
   958  000342  6F6E               	movwf	(CANSetFilter@val+3)& (0+255),b
   959  000344  C07D  F06F         	movff	CANInitialize@FilterConfig1,CANSetFilter@type
   960  000348  0E00               	movlw	0
   961  00034A  ECED  F003         	call	_CANSetFilter
   962                           
   963                           ;can18xx8.c: 205: CANSetFilter(CAN_FILTER_B1_F2, 0, FilterConfig1);
   964  00034E  0E00               	movlw	0
   965  000350  0100               	movlb	0	; () banked
   966  000352  6F6B               	movwf	CANSetFilter@val& (0+255),b
   967  000354  0E00               	movlw	0
   968  000356  6F6C               	movwf	(CANSetFilter@val+1)& (0+255),b
   969  000358  0E00               	movlw	0
   970  00035A  6F6D               	movwf	(CANSetFilter@val+2)& (0+255),b
   971  00035C  0E00               	movlw	0
   972  00035E  6F6E               	movwf	(CANSetFilter@val+3)& (0+255),b
   973  000360  C07D  F06F         	movff	CANInitialize@FilterConfig1,CANSetFilter@type
   974  000364  0E01               	movlw	1
   975  000366  ECED  F003         	call	_CANSetFilter
   976                           
   977                           ;can18xx8.c: 206: CANSetFilter(CAN_FILTER_B2_F1, 0, FilterConfig2);
   978  00036A  0E00               	movlw	0
   979  00036C  0100               	movlb	0	; () banked
   980  00036E  6F6B               	movwf	CANSetFilter@val& (0+255),b
   981  000370  0E00               	movlw	0
   982  000372  6F6C               	movwf	(CANSetFilter@val+1)& (0+255),b
   983  000374  0E00               	movlw	0
   984  000376  6F6D               	movwf	(CANSetFilter@val+2)& (0+255),b
   985  000378  0E00               	movlw	0
   986  00037A  6F6E               	movwf	(CANSetFilter@val+3)& (0+255),b
   987  00037C  C07E  F06F         	movff	CANInitialize@FilterConfig2,CANSetFilter@type
   988  000380  0E02               	movlw	2
   989  000382  ECED  F003         	call	_CANSetFilter
   990                           
   991                           ;can18xx8.c: 207: CANSetFilter(CAN_FILTER_B2_F2, 0, FilterConfig2);
   992  000386  0E00               	movlw	0
   993  000388  0100               	movlb	0	; () banked
   994  00038A  6F6B               	movwf	CANSetFilter@val& (0+255),b
   995  00038C  0E00               	movlw	0
   996  00038E  6F6C               	movwf	(CANSetFilter@val+1)& (0+255),b
   997  000390  0E00               	movlw	0
   998  000392  6F6D               	movwf	(CANSetFilter@val+2)& (0+255),b
   999  000394  0E00               	movlw	0
  1000  000396  6F6E               	movwf	(CANSetFilter@val+3)& (0+255),b
  1001  000398  C07E  F06F         	movff	CANInitialize@FilterConfig2,CANSetFilter@type
  1002  00039C  0E03               	movlw	3
  1003  00039E  ECED  F003         	call	_CANSetFilter
  1004                           
  1005                           ;can18xx8.c: 208: CANSetFilter(CAN_FILTER_B2_F3, 0, FilterConfig2);
  1006  0003A2  0E00               	movlw	0
  1007  0003A4  0100               	movlb	0	; () banked
  1008  0003A6  6F6B               	movwf	CANSetFilter@val& (0+255),b
  1009  0003A8  0E00               	movlw	0
  1010  0003AA  6F6C               	movwf	(CANSetFilter@val+1)& (0+255),b
  1011  0003AC  0E00               	movlw	0
  1012  0003AE  6F6D               	movwf	(CANSetFilter@val+2)& (0+255),b
  1013  0003B0  0E00               	movlw	0
  1014  0003B2  6F6E               	movwf	(CANSetFilter@val+3)& (0+255),b
  1015  0003B4  C07E  F06F         	movff	CANInitialize@FilterConfig2,CANSetFilter@type
  1016  0003B8  0E04               	movlw	4
  1017  0003BA  ECED  F003         	call	_CANSetFilter
  1018                           
  1019                           ;can18xx8.c: 209: CANSetFilter(CAN_FILTER_B2_F4, 0, FilterConfig2);
  1020  0003BE  0E00               	movlw	0
  1021  0003C0  0100               	movlb	0	; () banked
  1022  0003C2  6F6B               	movwf	CANSetFilter@val& (0+255),b
  1023  0003C4  0E00               	movlw	0
  1024  0003C6  6F6C               	movwf	(CANSetFilter@val+1)& (0+255),b
  1025  0003C8  0E00               	movlw	0
  1026  0003CA  6F6D               	movwf	(CANSetFilter@val+2)& (0+255),b
  1027  0003CC  0E00               	movlw	0
  1028  0003CE  6F6E               	movwf	(CANSetFilter@val+3)& (0+255),b
  1029  0003D0  C07E  F06F         	movff	CANInitialize@FilterConfig2,CANSetFilter@type
  1030  0003D4  0E05               	movlw	5
  1031  0003D6  ECED  F003         	call	_CANSetFilter
  1032                           
  1033                           ;can18xx8.c: 212: CANSetOperationMode(CAN_OP_MODE_NORMAL);
  1034  0003DA  0E00               	movlw	0
  1035  0003DC  ECF5  F004         	call	_CANSetOperationMode
  1036  0003E0  0012               	return		;funcret
  1037  0003E2                     __end_of_CANInitialize:
  1038                           	opt stack 0
  1039                           tblptru	equ	0xFF8
  1040                           tblptrh	equ	0xFF7
  1041                           tblptrl	equ	0xFF6
  1042                           tablat	equ	0xFF5
  1043                           intcon	equ	0xFF2
  1044                           postinc0	equ	0xFEE
  1045                           wreg	equ	0xFE8
  1046                           postdec1	equ	0xFE5
  1047                           fsr1l	equ	0xFE1
  1048                           status	equ	0xFD8
  1049                           
  1050 ;; *************** function _CANSetOperationMode *****************
  1051 ;; Defined at:
  1052 ;;		line 235 in file "can18xx8.c"
  1053 ;; Parameters:    Size  Location     Type
  1054 ;;  mode            1    wreg     enum E447
  1055 ;; Auto vars:     Size  Location     Type
  1056 ;;  mode            1    0[BANK0 ] enum E447
  1057 ;; Return value:  Size  Location     Type
  1058 ;;		None               void
  1059 ;; Registers used:
  1060 ;;		wreg, status,2, status,0
  1061 ;; Tracked objects:
  1062 ;;		On entry : 0/0
  1063 ;;		On exit  : 0/0
  1064 ;;		Unchanged: 0/0
  1065 ;; Data sizes:     COMRAM   BANK0   BANK1   BANK2   BANK3   BANK4   BANK5   BANK6   BANK7   BANK8   BANK9  BANK10  BANK1
      +1  BANK12  BANK13  BANK14
  1066 ;;      Params:         0       0       0       0       0       0       0       0       0       0       0       0       
      +0       0       0       0
  1067 ;;      Locals:         0       1       0       0       0       0       0       0       0       0       0       0       
      +0       0       0       0
  1068 ;;      Temps:          0       0       0       0       0       0       0       0       0       0       0       0       
      +0       0       0       0
  1069 ;;      Totals:         0       1       0       0       0       0       0       0       0       0       0       0       
      +0       0       0       0
  1070 ;;Total ram usage:        1 bytes
  1071 ;; Hardware stack levels used:    1
  1072 ;; Hardware stack levels required when called:    4
  1073 ;; This function calls:
  1074 ;;		Nothing
  1075 ;; This function is called by:
  1076 ;;		_CANInitialize
  1077 ;; This function uses a non-reentrant model
  1078 ;;
  1079                           
  1080                           	psect	text5
  1081  0009EA                     __ptext5:
  1082                           	opt stack 0
  1083  0009EA                     _CANSetOperationMode:
  1084                           	opt stack 24
  1085                           
  1086                           ;incstack = 0
  1087                           ;CANSetOperationMode@mode stored from wreg
  1088  0009EA  0100               	movlb	0	; () banked
  1089  0009EC  6F60               	movwf	CANSetOperationMode@mode& (0+255),b
  1090                           
  1091                           ;can18xx8.c: 238: CANCON = mode;
  1092  0009EE  C060  FF6F         	movff	CANSetOperationMode@mode,3951	;volatile
  1093  0009F2                     l1260:
  1094  0009F2  506E               	movf	3950,w,c	;volatile
  1095  0009F4  0BE0               	andlw	224
  1096  0009F6  0100               	movlb	0	; () banked
  1097  0009F8  1960               	xorwf	CANSetOperationMode@mode& (0+255),w,b
  1098  0009FA  B4D8               	btfsc	status,2,c
  1099  0009FC  0012               	return	
  1100  0009FE  D7F9               	goto	l1260
  1101  000A00                     __end_of_CANSetOperationMode:
  1102                           	opt stack 0
  1103                           tblptru	equ	0xFF8
  1104                           tblptrh	equ	0xFF7
  1105                           tblptrl	equ	0xFF6
  1106                           tablat	equ	0xFF5
  1107                           intcon	equ	0xFF2
  1108                           postinc0	equ	0xFEE
  1109                           wreg	equ	0xFE8
  1110                           postdec1	equ	0xFE5
  1111                           fsr1l	equ	0xFE1
  1112                           status	equ	0xFD8
  1113                           
  1114 ;; *************** function _CANSetMask *****************
  1115 ;; Defined at:
  1116 ;;		line 453 in file "can18xx8.c"
  1117 ;; Parameters:    Size  Location     Type
  1118 ;;  code            1    wreg     enum E437
  1119 ;;  val             4   11[BANK0 ] unsigned long 
  1120 ;;  type            1   15[BANK0 ] enum E454
  1121 ;; Auto vars:     Size  Location     Type
  1122 ;;  code            1   16[BANK0 ] enum E437
  1123 ;;  ptr             2   17[BANK0 ] PTR unsigned char 
  1124 ;;		 -> RXM1SIDH(1), RXM0SIDH(1), 
  1125 ;; Return value:  Size  Location     Type
  1126 ;;		None               void
  1127 ;; Registers used:
  1128 ;;		wreg, fsr1l, fsr1h, fsr2l, fsr2h, status,2, status,0, cstack
  1129 ;; Tracked objects:
  1130 ;;		On entry : 0/0
  1131 ;;		On exit  : 0/0
  1132 ;;		Unchanged: 0/0
  1133 ;; Data sizes:     COMRAM   BANK0   BANK1   BANK2   BANK3   BANK4   BANK5   BANK6   BANK7   BANK8   BANK9  BANK10  BANK1
      +1  BANK12  BANK13  BANK14
  1134 ;;      Params:         0       5       0       0       0       0       0       0       0       0       0       0       
      +0       0       0       0
  1135 ;;      Locals:         0       3       0       0       0       0       0       0       0       0       0       0       
      +0       0       0       0
  1136 ;;      Temps:          0       0       0       0       0       0       0       0       0       0       0       0       
      +0       0       0       0
  1137 ;;      Totals:         0       8       0       0       0       0       0       0       0       0       0       0       
      +0       0       0       0
  1138 ;;Total ram usage:        8 bytes
  1139 ;; Hardware stack levels used:    1
  1140 ;; Hardware stack levels required when called:    5
  1141 ;; This function calls:
  1142 ;;		_CANIDToRegs
  1143 ;; This function is called by:
  1144 ;;		_CANInitialize
  1145 ;; This function uses a non-reentrant model
  1146 ;;
  1147                           
  1148                           	psect	text6
  1149  0008AC                     __ptext6:
  1150                           	opt stack 0
  1151  0008AC                     _CANSetMask:
  1152                           	opt stack 23
  1153                           
  1154                           ; BSR set to: 0
  1155                           ;incstack = 0
  1156                           ;CANSetMask@code stored from wreg
  1157  0008AC  0100               	movlb	0	; () banked
  1158  0008AE  6F70               	movwf	CANSetMask@code& (0+255),b
  1159                           
  1160                           ;can18xx8.c: 457: BYTE *ptr;
  1161                           ;can18xx8.c: 461: if ( code == CAN_MASK_B1 )
  1162  0008B0  0100               	movlb	0	; () banked
  1163  0008B2  5170               	movf	CANSetMask@code& (0+255),w,b
  1164  0008B4  0100               	movlb	0	; () banked
  1165  0008B6  A4D8               	btfss	status,2,c
  1166  0008B8  D002               	goto	l1284
  1167                           
  1168                           ; BSR set to: 0
  1169                           ;can18xx8.c: 462: ptr = (BYTE*)&RXM0SIDH;
  1170  0008BA  0EF8               	movlw	248
  1171  0008BC  D001               	goto	L1
  1172  0008BE                     l1284:
  1173                           
  1174                           ; BSR set to: 0
  1175                           ;can18xx8.c: 463: else
  1176                           ;can18xx8.c: 464: ptr = (BYTE*)&RXM1SIDH;
  1177  0008BE  0EFC               	movlw	252
  1178  0008C0                     L1:
  1179  0008C0  0100               	movlb	0	; () banked
  1180  0008C2  6F71               	movwf	CANSetMask@ptr& (0+255),b
  1181  0008C4  0E0E               	movlw	14
  1182  0008C6  0100               	movlb	0	; () banked
  1183  0008C8  6F72               	movwf	(CANSetMask@ptr+1)& (0+255),b
  1184                           
  1185                           ; BSR set to: 0
  1186                           ;can18xx8.c: 467: CANIDToRegs(ptr, val, type);
  1187                           
  1188                           ; BSR set to: 0
  1189  0008CA  C071  F060         	movff	CANSetMask@ptr,CANIDToRegs@ptr
  1190  0008CE  C072  F061         	movff	CANSetMask@ptr+1,CANIDToRegs@ptr+1
  1191  0008D2  C06B  F062         	movff	CANSetMask@val,CANIDToRegs@val
  1192  0008D6  C06C  F063         	movff	CANSetMask@val+1,CANIDToRegs@val+1
  1193  0008DA  C06D  F064         	movff	CANSetMask@val+2,CANIDToRegs@val+2
  1194  0008DE  C06E  F065         	movff	CANSetMask@val+3,CANIDToRegs@val+3
  1195  0008E2  C06F  F066         	movff	CANSetMask@type,CANIDToRegs@type
  1196  0008E6  EC4F  F000         	call	_CANIDToRegs	;wreg free
  1197  0008EA  0012               	return		;funcret
  1198  0008EC                     __end_of_CANSetMask:
  1199                           	opt stack 0
  1200                           tblptru	equ	0xFF8
  1201                           tblptrh	equ	0xFF7
  1202                           tblptrl	equ	0xFF6
  1203                           tablat	equ	0xFF5
  1204                           intcon	equ	0xFF2
  1205                           postinc0	equ	0xFEE
  1206                           wreg	equ	0xFE8
  1207                           postdec1	equ	0xFE5
  1208                           fsr1l	equ	0xFE1
  1209                           status	equ	0xFD8
  1210                           
  1211 ;; *************** function _CANSetFilter *****************
  1212 ;; Defined at:
  1213 ;;		line 491 in file "can18xx8.c"
  1214 ;; Parameters:    Size  Location     Type
  1215 ;;  code            1    wreg     enum E440
  1216 ;;  val             4   11[BANK0 ] unsigned long 
  1217 ;;  type            1   15[BANK0 ] enum E454
  1218 ;; Auto vars:     Size  Location     Type
  1219 ;;  code            1   16[BANK0 ] enum E440
  1220 ;;  ptr             2   17[BANK0 ] PTR unsigned char 
  1221 ;;		 -> RXF5SIDH(1), RXF4SIDH(1), RXF3SIDH(1), RXF2SIDH(1), 
  1222 ;;		 -> RXF1SIDH(1), RXF0SIDH(1), 
  1223 ;; Return value:  Size  Location     Type
  1224 ;;		None               void
  1225 ;; Registers used:
  1226 ;;		wreg, fsr1l, fsr1h, fsr2l, fsr2h, status,2, status,0, cstack
  1227 ;; Tracked objects:
  1228 ;;		On entry : 0/0
  1229 ;;		On exit  : 0/0
  1230 ;;		Unchanged: 0/0
  1231 ;; Data sizes:     COMRAM   BANK0   BANK1   BANK2   BANK3   BANK4   BANK5   BANK6   BANK7   BANK8   BANK9  BANK10  BANK1
      +1  BANK12  BANK13  BANK14
  1232 ;;      Params:         0       5       0       0       0       0       0       0       0       0       0       0       
      +0       0       0       0
  1233 ;;      Locals:         0       3       0       0       0       0       0       0       0       0       0       0       
      +0       0       0       0
  1234 ;;      Temps:          0       0       0       0       0       0       0       0       0       0       0       0       
      +0       0       0       0
  1235 ;;      Totals:         0       8       0       0       0       0       0       0       0       0       0       0       
      +0       0       0       0
  1236 ;;Total ram usage:        8 bytes
  1237 ;; Hardware stack levels used:    1
  1238 ;; Hardware stack levels required when called:    5
  1239 ;; This function calls:
  1240 ;;		_CANIDToRegs
  1241 ;; This function is called by:
  1242 ;;		_CANInitialize
  1243 ;; This function uses a non-reentrant model
  1244 ;;
  1245                           
  1246                           	psect	text7
  1247  0007DA                     __ptext7:
  1248                           	opt stack 0
  1249  0007DA                     _CANSetFilter:
  1250                           	opt stack 23
  1251                           
  1252                           ;incstack = 0
  1253                           ;CANSetFilter@code stored from wreg
  1254  0007DA  0100               	movlb	0	; () banked
  1255  0007DC  6F70               	movwf	CANSetFilter@code& (0+255),b
  1256                           
  1257                           ;can18xx8.c: 495: BYTE *ptr;
  1258                           ;can18xx8.c: 499: switch(code)
  1259  0007DE  D011               	goto	l1304
  1260  0007E0                     l1290:
  1261                           
  1262                           ;can18xx8.c: 502: ptr = (BYTE*)&RXF0SIDH;
  1263  0007E0  0EE0               	movlw	224
  1264  0007E2  D009               	goto	L6
  1265  0007E4                     l1292:
  1266                           
  1267                           ; BSR set to: 0
  1268                           ;can18xx8.c: 506: ptr = (BYTE*)&RXF1SIDH;
  1269  0007E4  0EE4               	movlw	228
  1270  0007E6  D007               	goto	L6
  1271  0007E8                     l1294:
  1272                           
  1273                           ; BSR set to: 0
  1274                           ;can18xx8.c: 510: ptr = (BYTE*)&RXF2SIDH;
  1275  0007E8  0EE8               	movlw	232
  1276  0007EA  D005               	goto	L6
  1277  0007EC                     l1296:
  1278                           
  1279                           ; BSR set to: 0
  1280                           ;can18xx8.c: 514: ptr = (BYTE*)&RXF3SIDH;
  1281  0007EC  0EEC               	movlw	236
  1282  0007EE  D003               	goto	L6
  1283  0007F0                     l1298:
  1284                           
  1285                           ; BSR set to: 0
  1286                           ;can18xx8.c: 518: ptr = (BYTE*)&RXF4SIDH;
  1287  0007F0  0EF0               	movlw	240
  1288  0007F2  D001               	goto	L6
  1289  0007F4                     l1300:
  1290                           
  1291                           ; BSR set to: 0
  1292                           ;can18xx8.c: 522: ptr = (BYTE*)&RXF5SIDH;
  1293  0007F4  0EF4               	movlw	244
  1294  0007F6                     L6:
  1295  0007F6  0100               	movlb	0	; () banked
  1296  0007F8  6F71               	movwf	CANSetFilter@ptr& (0+255),b
  1297  0007FA  0E0E               	movlw	14
  1298  0007FC  0100               	movlb	0	; () banked
  1299  0007FE  6F72               	movwf	(CANSetFilter@ptr+1)& (0+255),b
  1300                           
  1301                           ; BSR set to: 0
  1302                           ;can18xx8.c: 524: }
  1303                           
  1304                           ;can18xx8.c: 523: break;
  1305  000800  D012               	goto	l1306
  1306  000802                     l1304:
  1307  000802  0100               	movlb	0	; () banked
  1308  000804  5170               	movf	CANSetFilter@code& (0+255),w,b
  1309                           
  1310                           ; Switch size 1, requested type "space"
  1311                           ; Number of cases is 5, Range of values is 0 to 4
  1312                           ; switch strategies available:
  1313                           ; Name         Instructions Cycles
  1314                           ; simple_byte           16     9 (average)
  1315                           ;	Chosen strategy is simple_byte
  1316  000806  0A00               	xorlw	0	; case 0
  1317  000808  B4D8               	btfsc	status,2,c
  1318  00080A  D7EA               	goto	l1290
  1319  00080C  0A01               	xorlw	1	; case 1
  1320  00080E  B4D8               	btfsc	status,2,c
  1321  000810  D7E9               	goto	l1292
  1322  000812  0A03               	xorlw	3	; case 2
  1323  000814  B4D8               	btfsc	status,2,c
  1324  000816  D7E8               	goto	l1294
  1325  000818  0A01               	xorlw	1	; case 3
  1326  00081A  B4D8               	btfsc	status,2,c
  1327  00081C  D7E7               	goto	l1296
  1328  00081E  0A07               	xorlw	7	; case 4
  1329  000820  B4D8               	btfsc	status,2,c
  1330  000822  D7E6               	goto	l1298
  1331  000824  D7E7               	goto	l1300
  1332  000826                     l1306:
  1333                           
  1334                           ; BSR set to: 0
  1335                           ;can18xx8.c: 527: CANIDToRegs(ptr, val, type);
  1336  000826  C071  F060         	movff	CANSetFilter@ptr,CANIDToRegs@ptr
  1337  00082A  C072  F061         	movff	CANSetFilter@ptr+1,CANIDToRegs@ptr+1
  1338  00082E  C06B  F062         	movff	CANSetFilter@val,CANIDToRegs@val
  1339  000832  C06C  F063         	movff	CANSetFilter@val+1,CANIDToRegs@val+1
  1340  000836  C06D  F064         	movff	CANSetFilter@val+2,CANIDToRegs@val+2
  1341  00083A  C06E  F065         	movff	CANSetFilter@val+3,CANIDToRegs@val+3
  1342  00083E  C06F  F066         	movff	CANSetFilter@type,CANIDToRegs@type
  1343  000842  EC4F  F000         	call	_CANIDToRegs	;wreg free
  1344  000846  0012               	return		;funcret
  1345  000848                     __end_of_CANSetFilter:
  1346                           	opt stack 0
  1347                           tblptru	equ	0xFF8
  1348                           tblptrh	equ	0xFF7
  1349                           tblptrl	equ	0xFF6
  1350                           tablat	equ	0xFF5
  1351                           intcon	equ	0xFF2
  1352                           postinc0	equ	0xFEE
  1353                           wreg	equ	0xFE8
  1354                           postdec1	equ	0xFE5
  1355                           fsr1l	equ	0xFE1
  1356                           status	equ	0xFD8
  1357                           
  1358 ;; *************** function _CANIDToRegs *****************
  1359 ;; Defined at:
  1360 ;;		line 340 in file "can18xx8.c"
  1361 ;; Parameters:    Size  Location     Type
  1362 ;;  ptr             2    0[BANK0 ] PTR unsigned char 
  1363 ;;		 -> RXB0SIDH(1), RXF5SIDH(1), RXF4SIDH(1), RXF3SIDH(1), 
  1364 ;;		 -> RXF2SIDH(1), RXF1SIDH(1), RXF0SIDH(1), RXM1SIDH(1), 
  1365 ;;		 -> RXM0SIDH(1), 
  1366 ;;  val             4    2[BANK0 ] unsigned long 
  1367 ;;  type            1    6[BANK0 ] enum E454
  1368 ;; Auto vars:     Size  Location     Type
  1369 ;;  Value           2    9[BANK0 ] PTR struct _CAN_MESSAGE_
  1370 ;;		 -> CANIDToRegs@val(4), 
  1371 ;; Return value:  Size  Location     Type
  1372 ;;		None               void
  1373 ;; Registers used:
  1374 ;;		wreg, fsr1l, fsr1h, fsr2l, fsr2h, status,2, status,0
  1375 ;; Tracked objects:
  1376 ;;		On entry : 0/0
  1377 ;;		On exit  : 0/0
  1378 ;;		Unchanged: 0/0
  1379 ;; Data sizes:     COMRAM   BANK0   BANK1   BANK2   BANK3   BANK4   BANK5   BANK6   BANK7   BANK8   BANK9  BANK10  BANK1
      +1  BANK12  BANK13  BANK14
  1380 ;;      Params:         0       7       0       0       0       0       0       0       0       0       0       0       
      +0       0       0       0
  1381 ;;      Locals:         0       2       0       0       0       0       0       0       0       0       0       0       
      +0       0       0       0
  1382 ;;      Temps:          0       2       0       0       0       0       0       0       0       0       0       0       
      +0       0       0       0
  1383 ;;      Totals:         0      11       0       0       0       0       0       0       0       0       0       0       
      +0       0       0       0
  1384 ;;Total ram usage:       11 bytes
  1385 ;; Hardware stack levels used:    1
  1386 ;; Hardware stack levels required when called:    4
  1387 ;; This function calls:
  1388 ;;		Nothing
  1389 ;; This function is called by:
  1390 ;;		_CANSetMask
  1391 ;;		_CANSetFilter
  1392 ;; This function uses a non-reentrant model
  1393 ;;
  1394                           
  1395                           	psect	text8
  1396  00009E                     __ptext8:
  1397                           	opt stack 0
  1398  00009E                     _CANIDToRegs:
  1399                           	opt stack 23
  1400                           
  1401                           ;can18xx8.c: 344: CAN_MESSAGE_ID *Value;
  1402                           ;can18xx8.c: 346: Value = (CAN_MESSAGE_ID*)&val;
  1403                           
  1404                           ;incstack = 0
  1405  00009E  0E62               	movlw	low CANIDToRegs@val
  1406  0000A0  0100               	movlb	0	; () banked
  1407  0000A2  6F69               	movwf	CANIDToRegs@Value& (0+255),b
  1408  0000A4  0E00               	movlw	high CANIDToRegs@val
  1409  0000A6  0100               	movlb	0	; () banked
  1410  0000A8  6F6A               	movwf	(CANIDToRegs@Value+1)& (0+255),b
  1411                           
  1412                           ; BSR set to: 0
  1413                           ;can18xx8.c: 348: if ( type & CAN_CONFIG_MSG_TYPE_BIT )
  1414  0000AA  0100               	movlb	0	; () banked
  1415  0000AC  A766               	btfss	CANIDToRegs@type& (0+255),3,b
  1416  0000AE  D04A               	goto	l1242
  1417                           
  1418                           ; BSR set to: 0
  1419                           ;can18xx8.c: 349: {
  1420                           ;can18xx8.c: 351: *ptr = Value->BYTES.BYTE_1 >> 3;
  1421  0000B0  C069  FFD9         	movff	CANIDToRegs@Value,fsr2l
  1422  0000B4  C06A  FFDA         	movff	CANIDToRegs@Value+1,fsr2h
  1423  0000B8  50DF               	movf	indf2,w,c
  1424  0000BA  0100               	movlb	0	; () banked
  1425  0000BC  6F67               	movwf	??_CANIDToRegs& (0+255),b
  1426  0000BE  0100               	movlb	0	; () banked
  1427  0000C0  90D8               	bcf	status,0,c
  1428  0000C2  3367               	rrcf	??_CANIDToRegs& (0+255),f,b
  1429  0000C4  0100               	movlb	0	; () banked
  1430  0000C6  90D8               	bcf	status,0,c
  1431  0000C8  3367               	rrcf	??_CANIDToRegs& (0+255),f,b
  1432  0000CA  0100               	movlb	0	; () banked
  1433  0000CC  90D8               	bcf	status,0,c
  1434  0000CE  3167               	rrcf	??_CANIDToRegs& (0+255),w,b
  1435  0000D0  C060  FFD9         	movff	CANIDToRegs@ptr,fsr2l
  1436  0000D4  C061  FFDA         	movff	CANIDToRegs@ptr+1,fsr2h
  1437  0000D8  6EDF               	movwf	indf2,c
  1438                           
  1439                           ;can18xx8.c: 352: *ptr |= (Value->BYTES.BYTE_2 << 5);
  1440  0000DA  0100               	movlb	0	; () banked
  1441  0000DC  EE20 F001          	lfsr	2,1
  1442  0000E0  5169               	movf	CANIDToRegs@Value& (0+255),w,b
  1443  0000E2  26D9               	addwf	fsr2l,f,c
  1444  0000E4  516A               	movf	(CANIDToRegs@Value+1)& (0+255),w,b
  1445  0000E6  22DA               	addwfc	fsr2h,f,c
  1446  0000E8  50DF               	movf	indf2,w,c
  1447  0000EA  0100               	movlb	0	; () banked
  1448  0000EC  6F67               	movwf	??_CANIDToRegs& (0+255),b
  1449  0000EE  0E05               	movlw	5
  1450  0000F0  0100               	movlb	0	; () banked
  1451  0000F2  6F68               	movwf	(??_CANIDToRegs+1)& (0+255),b
  1452  0000F4                     u455:
  1453  0000F4  0100               	movlb	0	; () banked
  1454  0000F6  90D8               	bcf	status,0,c
  1455  0000F8  3767               	rlcf	??_CANIDToRegs& (0+255),f,b
  1456  0000FA  0100               	movlb	0	; () banked
  1457  0000FC  2F68               	decfsz	(??_CANIDToRegs+1)& (0+255),f,b
  1458  0000FE  D7FA               	goto	u455
  1459  000100  C060  FFD9         	movff	CANIDToRegs@ptr,fsr2l
  1460  000104  C061  FFDA         	movff	CANIDToRegs@ptr+1,fsr2h
  1461  000108  0100               	movlb	0	; () banked
  1462  00010A  5167               	movf	??_CANIDToRegs& (0+255),w,b
  1463  00010C  12DF               	iorwf	indf2,f,c
  1464                           
  1465                           ; BSR set to: 0
  1466                           ;can18xx8.c: 353: ptr++;
  1467  00010E  0100               	movlb	0	; () banked
  1468  000110  4B60               	infsnz	CANIDToRegs@ptr& (0+255),f,b
  1469  000112  2B61               	incf	(CANIDToRegs@ptr+1)& (0+255),f,b
  1470                           
  1471                           ; BSR set to: 0
  1472                           ;can18xx8.c: 354: *ptr = Value->BYTES.BYTE_1 << 5;
  1473  000114  C069  FFD9         	movff	CANIDToRegs@Value,fsr2l
  1474  000118  C06A  FFDA         	movff	CANIDToRegs@Value+1,fsr2h
  1475  00011C  50DF               	movf	indf2,w,c
  1476  00011E  0100               	movlb	0	; () banked
  1477  000120  6F67               	movwf	??_CANIDToRegs& (0+255),b
  1478  000122  0E05               	movlw	5
  1479  000124  0100               	movlb	0	; () banked
  1480  000126  6F68               	movwf	(??_CANIDToRegs+1)& (0+255),b
  1481  000128                     u465:
  1482  000128  0100               	movlb	0	; () banked
  1483  00012A  90D8               	bcf	status,0,c
  1484  00012C  3767               	rlcf	??_CANIDToRegs& (0+255),f,b
  1485  00012E  0100               	movlb	0	; () banked
  1486  000130  2F68               	decfsz	(??_CANIDToRegs+1)& (0+255),f,b
  1487  000132  D7FA               	goto	u465
  1488  000134  0100               	movlb	0	; () banked
  1489  000136  5167               	movf	??_CANIDToRegs& (0+255),w,b
  1490  000138  C060  FFD9         	movff	CANIDToRegs@ptr,fsr2l
  1491  00013C  C061  FFDA         	movff	CANIDToRegs@ptr+1,fsr2h
  1492  000140  6EDF               	movwf	indf2,c
  1493                           
  1494                           ;can18xx8.c: 355: }
  1495  000142  0012               	return	
  1496  000144                     l1242:
  1497                           
  1498                           ; BSR set to: 0
  1499                           ;can18xx8.c: 356: else
  1500                           ;can18xx8.c: 357: {
  1501                           ;can18xx8.c: 359: *ptr = Value->BYTES.BYTE_3 >> 5;
  1502  000144  0100               	movlb	0	; () banked
  1503  000146  EE20 F002          	lfsr	2,2
  1504  00014A  5169               	movf	CANIDToRegs@Value& (0+255),w,b
  1505  00014C  26D9               	addwf	fsr2l,f,c
  1506  00014E  516A               	movf	(CANIDToRegs@Value+1)& (0+255),w,b
  1507  000150  22DA               	addwfc	fsr2h,f,c
  1508  000152  50DF               	movf	indf2,w,c
  1509  000154  0100               	movlb	0	; () banked
  1510  000156  6F67               	movwf	??_CANIDToRegs& (0+255),b
  1511  000158  0E05               	movlw	5
  1512  00015A  0100               	movlb	0	; () banked
  1513  00015C  6F68               	movwf	(??_CANIDToRegs+1)& (0+255),b
  1514  00015E                     u475:
  1515  00015E  0100               	movlb	0	; () banked
  1516  000160  90D8               	bcf	status,0,c
  1517  000162  3367               	rrcf	??_CANIDToRegs& (0+255),f,b
  1518  000164  0100               	movlb	0	; () banked
  1519  000166  2F68               	decfsz	(??_CANIDToRegs+1)& (0+255),f,b
  1520  000168  D7FA               	goto	u475
  1521  00016A  0100               	movlb	0	; () banked
  1522  00016C  5167               	movf	??_CANIDToRegs& (0+255),w,b
  1523  00016E  C060  FFD9         	movff	CANIDToRegs@ptr,fsr2l
  1524  000172  C061  FFDA         	movff	CANIDToRegs@ptr+1,fsr2h
  1525  000176  6EDF               	movwf	indf2,c
  1526                           
  1527                           ;can18xx8.c: 360: *ptr |= Value->BYTES.BYTE_4 << 3;
  1528  000178  0100               	movlb	0	; () banked
  1529  00017A  EE20 F003          	lfsr	2,3
  1530  00017E  5169               	movf	CANIDToRegs@Value& (0+255),w,b
  1531  000180  26D9               	addwf	fsr2l,f,c
  1532  000182  516A               	movf	(CANIDToRegs@Value+1)& (0+255),w,b
  1533  000184  22DA               	addwfc	fsr2h,f,c
  1534  000186  50DF               	movf	indf2,w,c
  1535  000188  0100               	movlb	0	; () banked
  1536  00018A  6F67               	movwf	??_CANIDToRegs& (0+255),b
  1537  00018C  0100               	movlb	0	; () banked
  1538  00018E  90D8               	bcf	status,0,c
  1539  000190  3767               	rlcf	??_CANIDToRegs& (0+255),f,b
  1540  000192  0100               	movlb	0	; () banked
  1541  000194  90D8               	bcf	status,0,c
  1542  000196  3767               	rlcf	??_CANIDToRegs& (0+255),f,b
  1543  000198  0100               	movlb	0	; () banked
  1544  00019A  90D8               	bcf	status,0,c
  1545  00019C  3767               	rlcf	??_CANIDToRegs& (0+255),f,b
  1546  00019E  C060  FFD9         	movff	CANIDToRegs@ptr,fsr2l
  1547  0001A2  C061  FFDA         	movff	CANIDToRegs@ptr+1,fsr2h
  1548  0001A6  0100               	movlb	0	; () banked
  1549  0001A8  5167               	movf	??_CANIDToRegs& (0+255),w,b
  1550  0001AA  12DF               	iorwf	indf2,f,c
  1551                           
  1552                           ; BSR set to: 0
  1553                           ;can18xx8.c: 361: ptr++;
  1554  0001AC  0100               	movlb	0	; () banked
  1555  0001AE  4B60               	infsnz	CANIDToRegs@ptr& (0+255),f,b
  1556  0001B0  2B61               	incf	(CANIDToRegs@ptr+1)& (0+255),f,b
  1557                           
  1558                           ; BSR set to: 0
  1559                           ;can18xx8.c: 362: *ptr = (Value->BYTES.BYTE_3 << 3) & 0xE0;
  1560  0001B2  0100               	movlb	0	; () banked
  1561  0001B4  EE20 F002          	lfsr	2,2
  1562  0001B8  5169               	movf	CANIDToRegs@Value& (0+255),w,b
  1563  0001BA  26D9               	addwf	fsr2l,f,c
  1564  0001BC  516A               	movf	(CANIDToRegs@Value+1)& (0+255),w,b
  1565  0001BE  22DA               	addwfc	fsr2h,f,c
  1566  0001C0  50DF               	movf	indf2,w,c
  1567  0001C2  0100               	movlb	0	; () banked
  1568  0001C4  6F67               	movwf	??_CANIDToRegs& (0+255),b
  1569  0001C6  0100               	movlb	0	; () banked
  1570  0001C8  90D8               	bcf	status,0,c
  1571  0001CA  3767               	rlcf	??_CANIDToRegs& (0+255),f,b
  1572  0001CC  0100               	movlb	0	; () banked
  1573  0001CE  90D8               	bcf	status,0,c
  1574  0001D0  3767               	rlcf	??_CANIDToRegs& (0+255),f,b
  1575  0001D2  0100               	movlb	0	; () banked
  1576  0001D4  90D8               	bcf	status,0,c
  1577  0001D6  3567               	rlcf	??_CANIDToRegs& (0+255),w,b
  1578  0001D8  0BE0               	andlw	224
  1579  0001DA  C060  FFD9         	movff	CANIDToRegs@ptr,fsr2l
  1580  0001DE  C061  FFDA         	movff	CANIDToRegs@ptr+1,fsr2h
  1581  0001E2  6EDF               	movwf	indf2,c
  1582                           
  1583                           ; BSR set to: 0
  1584                           ;can18xx8.c: 364: *ptr |= 0b00001000;
  1585  0001E4  C060  FFD9         	movff	CANIDToRegs@ptr,fsr2l
  1586  0001E8  C061  FFDA         	movff	CANIDToRegs@ptr+1,fsr2h
  1587  0001EC  0E00               	movlw	0
  1588  0001EE  86DB               	bsf	plusw2,3,c
  1589                           
  1590                           ; BSR set to: 0
  1591                           ;can18xx8.c: 365: *ptr |= Value->BYTES.BYTE_3 & 0x03;
  1592  0001F0  0100               	movlb	0	; () banked
  1593  0001F2  EE20 F002          	lfsr	2,2
  1594  0001F6  5169               	movf	CANIDToRegs@Value& (0+255),w,b
  1595  0001F8  26D9               	addwf	fsr2l,f,c
  1596  0001FA  516A               	movf	(CANIDToRegs@Value+1)& (0+255),w,b
  1597  0001FC  22DA               	addwfc	fsr2h,f,c
  1598  0001FE  50DF               	movf	indf2,w,c
  1599  000200  0100               	movlb	0	; () banked
  1600  000202  6F67               	movwf	??_CANIDToRegs& (0+255),b
  1601  000204  0E03               	movlw	3
  1602  000206  0100               	movlb	0	; () banked
  1603  000208  1767               	andwf	??_CANIDToRegs& (0+255),f,b
  1604  00020A  C060  FFD9         	movff	CANIDToRegs@ptr,fsr2l
  1605  00020E  C061  FFDA         	movff	CANIDToRegs@ptr+1,fsr2h
  1606  000212  0100               	movlb	0	; () banked
  1607  000214  5167               	movf	??_CANIDToRegs& (0+255),w,b
  1608  000216  12DF               	iorwf	indf2,f,c
  1609                           
  1610                           ;can18xx8.c: 366: ptr++;
  1611  000218  0100               	movlb	0	; () banked
  1612  00021A  4B60               	infsnz	CANIDToRegs@ptr& (0+255),f,b
  1613  00021C  2B61               	incf	(CANIDToRegs@ptr+1)& (0+255),f,b
  1614                           
  1615                           ; BSR set to: 0
  1616                           ;can18xx8.c: 367: *ptr = Value->BYTES.BYTE_2;
  1617  00021E  0100               	movlb	0	; () banked
  1618  000220  EE20 F001          	lfsr	2,1
  1619  000224  5169               	movf	CANIDToRegs@Value& (0+255),w,b
  1620  000226  26D9               	addwf	fsr2l,f,c
  1621  000228  516A               	movf	(CANIDToRegs@Value+1)& (0+255),w,b
  1622  00022A  22DA               	addwfc	fsr2h,f,c
  1623  00022C  C060  FFE1         	movff	CANIDToRegs@ptr,fsr1l
  1624  000230  C061  FFE2         	movff	CANIDToRegs@ptr+1,fsr1h
  1625  000234  CFDF FFE7          	movff	indf2,indf1
  1626                           
  1627                           ; BSR set to: 0
  1628                           ;can18xx8.c: 368: ptr++;
  1629  000238  0100               	movlb	0	; () banked
  1630  00023A  4B60               	infsnz	CANIDToRegs@ptr& (0+255),f,b
  1631  00023C  2B61               	incf	(CANIDToRegs@ptr+1)& (0+255),f,b
  1632                           
  1633                           ; BSR set to: 0
  1634                           ;can18xx8.c: 369: *ptr = Value->BYTES.BYTE_1;
  1635  00023E  C069  FFD9         	movff	CANIDToRegs@Value,fsr2l
  1636  000242  C06A  FFDA         	movff	CANIDToRegs@Value+1,fsr2h
  1637  000246  C060  FFE1         	movff	CANIDToRegs@ptr,fsr1l
  1638  00024A  C061  FFE2         	movff	CANIDToRegs@ptr+1,fsr1h
  1639  00024E  CFDF FFE7          	movff	indf2,indf1
  1640  000252  0012               	return	
  1641  000254                     __end_of_CANIDToRegs:
  1642                           	opt stack 0
  1643                           tblptru	equ	0xFF8
  1644                           tblptrh	equ	0xFF7
  1645                           tblptrl	equ	0xFF6
  1646                           tablat	equ	0xFF5
  1647                           intcon	equ	0xFF2
  1648                           postinc0	equ	0xFEE
  1649                           wreg	equ	0xFE8
  1650                           indf1	equ	0xFE7
  1651                           postdec1	equ	0xFE5
  1652                           fsr1h	equ	0xFE2
  1653                           fsr1l	equ	0xFE1
  1654                           indf2	equ	0xFDF
  1655                           plusw2	equ	0xFDB
  1656                           fsr2h	equ	0xFDA
  1657                           fsr2l	equ	0xFD9
  1658                           status	equ	0xFD8
  1659                           
  1660 ;; *************** function _CANSetBaudRate *****************
  1661 ;; Defined at:
  1662 ;;		line 280 in file "can18xx8.c"
  1663 ;; Parameters:    Size  Location     Type
  1664 ;;  SJW             1    wreg     unsigned char 
  1665 ;;  BRP             1    0[BANK0 ] unsigned char 
  1666 ;;  PHSEG1          1    1[BANK0 ] unsigned char 
  1667 ;;  PHSEG2          1    2[BANK0 ] unsigned char 
  1668 ;;  PROPSEG         1    3[BANK0 ] unsigned char 
  1669 ;;  flags           1    4[BANK0 ] enum E454
  1670 ;; Auto vars:     Size  Location     Type
  1671 ;;  SJW             1    5[BANK0 ] unsigned char 
  1672 ;; Return value:  Size  Location     Type
  1673 ;;		None               void
  1674 ;; Registers used:
  1675 ;;		wreg, status,2, status,0
  1676 ;; Tracked objects:
  1677 ;;		On entry : 0/0
  1678 ;;		On exit  : 0/0
  1679 ;;		Unchanged: 0/0
  1680 ;; Data sizes:     COMRAM   BANK0   BANK1   BANK2   BANK3   BANK4   BANK5   BANK6   BANK7   BANK8   BANK9  BANK10  BANK1
      +1  BANK12  BANK13  BANK14
  1681 ;;      Params:         0       5       0       0       0       0       0       0       0       0       0       0       
      +0       0       0       0
  1682 ;;      Locals:         0       1       0       0       0       0       0       0       0       0       0       0       
      +0       0       0       0
  1683 ;;      Temps:          0       0       0       0       0       0       0       0       0       0       0       0       
      +0       0       0       0
  1684 ;;      Totals:         0       6       0       0       0       0       0       0       0       0       0       0       
      +0       0       0       0
  1685 ;;Total ram usage:        6 bytes
  1686 ;; Hardware stack levels used:    1
  1687 ;; Hardware stack levels required when called:    4
  1688 ;; This function calls:
  1689 ;;		Nothing
  1690 ;; This function is called by:
  1691 ;;		_CANInitialize
  1692 ;; This function uses a non-reentrant model
  1693 ;;
  1694                           
  1695                           	psect	text9
  1696  000848                     __ptext9:
  1697                           	opt stack 0
  1698  000848                     _CANSetBaudRate:
  1699                           	opt stack 24
  1700                           
  1701                           ; BSR set to: 0
  1702                           ;incstack = 0
  1703                           ;CANSetBaudRate@SJW stored from wreg
  1704  000848  0100               	movlb	0	; () banked
  1705  00084A  6F65               	movwf	CANSetBaudRate@SJW& (0+255),b
  1706                           
  1707                           ;can18xx8.c: 289: SJW--;
  1708  00084C  0100               	movlb	0	; () banked
  1709  00084E  0765               	decf	CANSetBaudRate@SJW& (0+255),f,b
  1710                           
  1711                           ; BSR set to: 0
  1712                           ;can18xx8.c: 290: BRP--;
  1713  000850  0100               	movlb	0	; () banked
  1714  000852  0760               	decf	CANSetBaudRate@BRP& (0+255),f,b
  1715                           
  1716                           ; BSR set to: 0
  1717                           ;can18xx8.c: 291: PHSEG1--;
  1718  000854  0100               	movlb	0	; () banked
  1719  000856  0761               	decf	CANSetBaudRate@PHSEG1& (0+255),f,b
  1720                           
  1721                           ; BSR set to: 0
  1722                           ;can18xx8.c: 292: PHSEG2--;
  1723  000858  0100               	movlb	0	; () banked
  1724  00085A  0762               	decf	CANSetBaudRate@PHSEG2& (0+255),f,b
  1725                           
  1726                           ; BSR set to: 0
  1727                           ;can18xx8.c: 293: PROPSEG--;
  1728  00085C  0100               	movlb	0	; () banked
  1729  00085E  0763               	decf	CANSetBaudRate@PROPSEG& (0+255),f,b
  1730                           
  1731                           ;can18xx8.c: 296: BRGCON1 = SJW << 6;
  1732  000860  0100               	movlb	0	; () banked
  1733  000862  4165               	rrncf	CANSetBaudRate@SJW& (0+255),w,b
  1734  000864  42E8               	rrncf	wreg,f,c
  1735  000866  0BC0               	andlw	192
  1736  000868  010E               	movlb	14	; () banked
  1737  00086A  6F43               	movwf	67,b	;volatile
  1738                           
  1739                           ;can18xx8.c: 297: BRGCON1 |= BRP;
  1740  00086C  0100               	movlb	0	; () banked
  1741  00086E  5160               	movf	CANSetBaudRate@BRP& (0+255),w,b
  1742  000870  010E               	movlb	14	; () banked
  1743  000872  1343               	iorwf	67,f,b	;volatile
  1744                           
  1745                           ;can18xx8.c: 299: BRGCON2 = PHSEG1 << 3;
  1746  000874  0100               	movlb	0	; () banked
  1747  000876  3961               	swapf	CANSetBaudRate@PHSEG1& (0+255),w,b
  1748  000878  42E8               	rrncf	wreg,f,c
  1749  00087A  0BF8               	andlw	248
  1750  00087C  010E               	movlb	14	; () banked
  1751  00087E  6F44               	movwf	68,b	;volatile
  1752                           
  1753                           ;can18xx8.c: 300: BRGCON2 |= PROPSEG;
  1754  000880  0100               	movlb	0	; () banked
  1755  000882  5163               	movf	CANSetBaudRate@PROPSEG& (0+255),w,b
  1756  000884  010E               	movlb	14	; () banked
  1757  000886  1344               	iorwf	68,f,b	;volatile
  1758                           
  1759                           ; BSR set to: 14
  1760                           ;can18xx8.c: 302: if ( !(flags & CAN_CONFIG_SAMPLE_BIT) )
  1761  000888  0100               	movlb	0	; () banked
  1762  00088A  B564               	btfsc	CANSetBaudRate@flags& (0+255),2,b
  1763  00088C  D002               	goto	l182
  1764                           
  1765                           ; BSR set to: 0
  1766                           ;can18xx8.c: 303: BRGCON2bits.SAM = 1;
  1767  00088E  010E               	movlb	14	; () banked
  1768  000890  8D44               	bsf	68,6,b	;volatile
  1769  000892                     l182:
  1770                           
  1771                           ;can18xx8.c: 305: if ( flags & CAN_CONFIG_PHSEG2_PRG_BIT )
  1772  000892  0100               	movlb	0	; () banked
  1773  000894  A164               	btfss	CANSetBaudRate@flags& (0+255),0,b
  1774  000896  D002               	goto	l183
  1775                           
  1776                           ; BSR set to: 0
  1777                           ;can18xx8.c: 306: BRGCON2bits.SEG2PHTS = 1;
  1778  000898  010E               	movlb	14	; () banked
  1779  00089A  8F44               	bsf	68,7,b	;volatile
  1780  00089C                     l183:
  1781                           
  1782                           ;can18xx8.c: 309: BRGCON3 = PHSEG2;
  1783  00089C  C062  FE45         	movff	CANSetBaudRate@PHSEG2,3653	;volatile
  1784                           
  1785                           ;can18xx8.c: 310: if ( flags & CAN_CONFIG_LINE_FILTER_BIT )
  1786  0008A0  0100               	movlb	0	; () banked
  1787  0008A2  A364               	btfss	CANSetBaudRate@flags& (0+255),1,b
  1788  0008A4  0012               	return	
  1789                           
  1790                           ; BSR set to: 0
  1791                           ;can18xx8.c: 311: BRGCON3bits.WAKFIL = 1;
  1792  0008A6  010E               	movlb	14	; () banked
  1793  0008A8  8D45               	bsf	69,6,b	;volatile
  1794  0008AA  0012               	return	
  1795  0008AC                     __end_of_CANSetBaudRate:
  1796                           	opt stack 0
  1797                           tblptru	equ	0xFF8
  1798                           tblptrh	equ	0xFF7
  1799                           tblptrl	equ	0xFF6
  1800                           tablat	equ	0xFF5
  1801                           intcon	equ	0xFF2
  1802                           postinc0	equ	0xFEE
  1803                           wreg	equ	0xFE8
  1804                           indf1	equ	0xFE7
  1805                           postdec1	equ	0xFE5
  1806                           fsr1h	equ	0xFE2
  1807                           fsr1l	equ	0xFE1
  1808                           indf2	equ	0xFDF
  1809                           plusw2	equ	0xFDB
  1810                           fsr2h	equ	0xFDA
  1811                           fsr2l	equ	0xFD9
  1812                           status	equ	0xFD8
  1813                           
  1814 ;; *************** function _initAnalog *****************
  1815 ;; Defined at:
  1816 ;;		line 65 in file "main.c"
  1817 ;; Parameters:    Size  Location     Type
  1818 ;;		None
  1819 ;; Auto vars:     Size  Location     Type
  1820 ;;		None
  1821 ;; Return value:  Size  Location     Type
  1822 ;;		None               void
  1823 ;; Registers used:
  1824 ;;		wreg, status,2
  1825 ;; Tracked objects:
  1826 ;;		On entry : 0/0
  1827 ;;		On exit  : 0/0
  1828 ;;		Unchanged: 0/0
  1829 ;; Data sizes:     COMRAM   BANK0   BANK1   BANK2   BANK3   BANK4   BANK5   BANK6   BANK7   BANK8   BANK9  BANK10  BANK1
      +1  BANK12  BANK13  BANK14
  1830 ;;      Params:         0       0       0       0       0       0       0       0       0       0       0       0       
      +0       0       0       0
  1831 ;;      Locals:         0       0       0       0       0       0       0       0       0       0       0       0       
      +0       0       0       0
  1832 ;;      Temps:          0       0       0       0       0       0       0       0       0       0       0       0       
      +0       0       0       0
  1833 ;;      Totals:         0       0       0       0       0       0       0       0       0       0       0       0       
      +0       0       0       0
  1834 ;;Total ram usage:        0 bytes
  1835 ;; Hardware stack levels used:    1
  1836 ;; Hardware stack levels required when called:    4
  1837 ;; This function calls:
  1838 ;;		Nothing
  1839 ;; This function is called by:
  1840 ;;		_main
  1841 ;; This function uses a non-reentrant model
  1842 ;;
  1843                           
  1844                           	psect	text10
  1845  000960                     __ptext10:
  1846                           	opt stack 0
  1847  000960                     _initAnalog:
  1848                           	opt stack 26
  1849                           
  1850                           ;main.c: 66: PORTA = 0x00;
  1851                           
  1852                           ;incstack = 0
  1853  000960  0E00               	movlw	0
  1854  000962  6E80               	movwf	3968,c	;volatile
  1855                           
  1856                           ;main.c: 68: TRISAbits.TRISA0 = 0b1;
  1857  000964  8092               	bsf	3986,0,c	;volatile
  1858                           
  1859                           ;main.c: 69: TRISAbits.TRISA1 = 0b1;
  1860  000966  8292               	bsf	3986,1,c	;volatile
  1861                           
  1862                           ;main.c: 70: TRISAbits.TRISA2 = 0b1;
  1863  000968  8492               	bsf	3986,2,c	;volatile
  1864                           
  1865                           ;main.c: 71: TRISAbits.TRISA3 = 0b1;
  1866  00096A  8692               	bsf	3986,3,c	;volatile
  1867                           
  1868                           ;main.c: 73: ADCON0 = 0x00;
  1869  00096C  0E00               	movlw	0
  1870  00096E  6EC2               	movwf	4034,c	;volatile
  1871                           
  1872                           ;main.c: 74: ADCON0bits.CHS = 0b00000;
  1873  000970  94C2               	bcf	4034,2,c	;volatile
  1874  000972  96C2               	bcf	4034,3,c	;volatile
  1875  000974  98C2               	bcf	4034,4,c	;volatile
  1876  000976  9AC2               	bcf	4034,5,c	;volatile
  1877  000978  9CC2               	bcf	4034,6,c	;volatile
  1878                           
  1879                           ;main.c: 75: ADCON1bits.VCFG = 0b00;
  1880  00097A  0ECF               	movlw	-49
  1881  00097C  16C1               	andwf	4033,f,c	;volatile
  1882                           
  1883                           ;main.c: 76: ADCON2bits.ADFM = 0b0;
  1884  00097E  9EC0               	bcf	4032,7,c	;volatile
  1885                           
  1886                           ;main.c: 77: ADCON2bits.ACQT = 0b111;
  1887  000980  86C0               	bsf	4032,3,c	;volatile
  1888  000982  88C0               	bsf	4032,4,c	;volatile
  1889  000984  8AC0               	bsf	4032,5,c	;volatile
  1890                           
  1891                           ;main.c: 78: ADCON2bits.ADCS = 0b101;
  1892  000986  50C0               	movf	4032,w,c	;volatile
  1893  000988  0BF8               	andlw	-8
  1894  00098A  0905               	iorlw	5
  1895  00098C  6EC0               	movwf	4032,c	;volatile
  1896                           
  1897                           ;main.c: 79: ADCON0bits.ADON = 0b1;
  1898  00098E  80C2               	bsf	4034,0,c	;volatile
  1899  000990  0012               	return		;funcret
  1900  000992                     __end_of_initAnalog:
  1901                           	opt stack 0
  1902                           tblptru	equ	0xFF8
  1903                           tblptrh	equ	0xFF7
  1904                           tblptrl	equ	0xFF6
  1905                           tablat	equ	0xFF5
  1906                           intcon	equ	0xFF2
  1907                           postinc0	equ	0xFEE
  1908                           wreg	equ	0xFE8
  1909                           indf1	equ	0xFE7
  1910                           postdec1	equ	0xFE5
  1911                           fsr1h	equ	0xFE2
  1912                           fsr1l	equ	0xFE1
  1913                           indf2	equ	0xFDF
  1914                           plusw2	equ	0xFDB
  1915                           fsr2h	equ	0xFDA
  1916                           fsr2l	equ	0xFD9
  1917                           status	equ	0xFD8
  1918                           
  1919 ;; *************** function _ISR *****************
  1920 ;; Defined at:
  1921 ;;		line 146 in file "main.c"
  1922 ;; Parameters:    Size  Location     Type
  1923 ;;		None
  1924 ;; Auto vars:     Size  Location     Type
  1925 ;;		None
  1926 ;; Return value:  Size  Location     Type
  1927 ;;		None               void
  1928 ;; Registers used:
  1929 ;;		wreg, fsr1l, fsr1h, fsr2l, fsr2h, status,2, status,0, prodl, prodh, cstack
  1930 ;; Tracked objects:
  1931 ;;		On entry : 0/0
  1932 ;;		On exit  : 0/0
  1933 ;;		Unchanged: 0/0
  1934 ;; Data sizes:     COMRAM   BANK0   BANK1   BANK2   BANK3   BANK4   BANK5   BANK6   BANK7   BANK8   BANK9  BANK10  BANK1
      +1  BANK12  BANK13  BANK14
  1935 ;;      Params:         0       0       0       0       0       0       0       0       0       0       0       0       
      +0       0       0       0
  1936 ;;      Locals:         0       0       0       0       0       0       0       0       0       0       0       0       
      +0       0       0       0
  1937 ;;      Temps:         14       0       0       0       0       0       0       0       0       0       0       0       
      +0       0       0       0
  1938 ;;      Totals:        14       0       0       0       0       0       0       0       0       0       0       0       
      +0       0       0       0
  1939 ;;Total ram usage:       14 bytes
  1940 ;; Hardware stack levels used:    1
  1941 ;; Hardware stack levels required when called:    3
  1942 ;; This function calls:
  1943 ;;		_getAnalog
  1944 ;;		_sendCANMain
  1945 ;; This function is called by:
  1946 ;;		Interrupt level 2
  1947 ;; This function uses a non-reentrant model
  1948 ;;
  1949                           
  1950                           	psect	intcode
  1951  000008                     __pintcode:
  1952                           	opt stack 0
  1953  000008                     _ISR:
  1954                           	opt stack 23
  1955                           
  1956                           ;incstack = 0
  1957  000008  8242               	bsf	btemp,1,c	;set compiler interrupt flag (level 2)
  1958  00000A  CFFA F023          	movff	pclath,??_ISR
  1959  00000E  CFFB F024          	movff	pclatu,??_ISR+1
  1960  000012  CFE9 F025          	movff	fsr0l,??_ISR+2
  1961  000016  CFEA F026          	movff	fsr0h,??_ISR+3
  1962  00001A  CFE1 F027          	movff	fsr1l,??_ISR+4
  1963  00001E  CFE2 F028          	movff	fsr1h,??_ISR+5
  1964  000022  CFD9 F029          	movff	fsr2l,??_ISR+6
  1965  000026  CFDA F02A          	movff	fsr2h,??_ISR+7
  1966  00002A  CFF3 F02B          	movff	prodl,??_ISR+8
  1967  00002E  CFF4 F02C          	movff	prodh,??_ISR+9
  1968  000032  CFF6 F02D          	movff	tblptrl,??_ISR+10
  1969  000036  CFF7 F02E          	movff	tblptrh,??_ISR+11
  1970  00003A  CFF8 F02F          	movff	tblptru,??_ISR+12
  1971  00003E  CFF5 F030          	movff	tablat,??_ISR+13
  1972                           
  1973                           ;main.c: 147: if(INTCONbits.TMR0IF && INTCONbits.TMR0IE) {
  1974  000042  B4F2               	btfsc	intcon,2,c	;volatile
  1975  000044  AAF2               	btfss	intcon,5,c	;volatile
  1976  000046  D00B               	goto	i2l98
  1977                           
  1978                           ;main.c: 148: INTCONbits.TMR0IF = 0b0;
  1979  000048  94F2               	bcf	intcon,2,c	;volatile
  1980                           
  1981                           ;main.c: 149: T0CONbits.TMR0ON = 0b0;
  1982  00004A  9ED5               	bcf	4053,7,c	;volatile
  1983                           
  1984                           ;main.c: 151: TMR0H = 0xFD;
  1985  00004C  0EFD               	movlw	253
  1986  00004E  6ED7               	movwf	4055,c	;volatile
  1987                           
  1988                           ;main.c: 152: TMR0L = 0x8E;
  1989  000050  0E8E               	movlw	142
  1990  000052  6ED6               	movwf	4054,c	;volatile
  1991                           
  1992                           ;main.c: 153: T0CONbits.TMR0ON = 0b1;
  1993  000054  8ED5               	bsf	4053,7,c	;volatile
  1994                           
  1995                           ;main.c: 154: getAnalog();
  1996  000056  ECA0  F002         	call	_getAnalog	;wreg free
  1997                           
  1998                           ;main.c: 155: sendCANMain();
  1999  00005A  EC24  F003         	call	_sendCANMain	;wreg free
  2000  00005E                     i2l98:
  2001  00005E  C030  FFF5         	movff	??_ISR+13,tablat
  2002  000062  C02F  FFF8         	movff	??_ISR+12,tblptru
  2003  000066  C02E  FFF7         	movff	??_ISR+11,tblptrh
  2004  00006A  C02D  FFF6         	movff	??_ISR+10,tblptrl
  2005  00006E  C02C  FFF4         	movff	??_ISR+9,prodh
  2006  000072  C02B  FFF3         	movff	??_ISR+8,prodl
  2007  000076  C02A  FFDA         	movff	??_ISR+7,fsr2h
  2008  00007A  C029  FFD9         	movff	??_ISR+6,fsr2l
  2009  00007E  C028  FFE2         	movff	??_ISR+5,fsr1h
  2010  000082  C027  FFE1         	movff	??_ISR+4,fsr1l
  2011  000086  C026  FFEA         	movff	??_ISR+3,fsr0h
  2012  00008A  C025  FFE9         	movff	??_ISR+2,fsr0l
  2013  00008E  C024  FFFB         	movff	??_ISR+1,pclatu
  2014  000092  C023  FFFA         	movff	??_ISR,pclath
  2015  000096  9242               	bcf	btemp,1,c	;clear compiler interrupt flag (level 2)
  2016  000098  0011               	retfie		f
  2017  00009A                     __end_of_ISR:
  2018                           	opt stack 0
  2019                           pclatu	equ	0xFFB
  2020                           pclath	equ	0xFFA
  2021                           tblptru	equ	0xFF8
  2022                           tblptrh	equ	0xFF7
  2023                           tblptrl	equ	0xFF6
  2024                           tablat	equ	0xFF5
  2025                           prodh	equ	0xFF4
  2026                           prodl	equ	0xFF3
  2027                           intcon	equ	0xFF2
  2028                           postinc0	equ	0xFEE
  2029                           fsr0h	equ	0xFEA
  2030                           fsr0l	equ	0xFE9
  2031                           wreg	equ	0xFE8
  2032                           indf1	equ	0xFE7
  2033                           postdec1	equ	0xFE5
  2034                           fsr1h	equ	0xFE2
  2035                           fsr1l	equ	0xFE1
  2036                           indf2	equ	0xFDF
  2037                           plusw2	equ	0xFDB
  2038                           fsr2h	equ	0xFDA
  2039                           fsr2l	equ	0xFD9
  2040                           status	equ	0xFD8
  2041                           
  2042 ;; *************** function _sendCANMain *****************
  2043 ;; Defined at:
  2044 ;;		line 93 in file "main.c"
  2045 ;; Parameters:    Size  Location     Type
  2046 ;;		None
  2047 ;; Auto vars:     Size  Location     Type
  2048 ;;  i               2   32[COMRAM] int 
  2049 ;;  MessageData     8   24[COMRAM] unsigned char [8]
  2050 ;; Return value:  Size  Location     Type
  2051 ;;		None               void
  2052 ;; Registers used:
  2053 ;;		wreg, fsr1l, fsr1h, fsr2l, fsr2h, status,2, status,0, prodl, prodh, cstack
  2054 ;; Tracked objects:
  2055 ;;		On entry : 0/0
  2056 ;;		On exit  : 0/0
  2057 ;;		Unchanged: 0/0
  2058 ;; Data sizes:     COMRAM   BANK0   BANK1   BANK2   BANK3   BANK4   BANK5   BANK6   BANK7   BANK8   BANK9  BANK10  BANK1
      +1  BANK12  BANK13  BANK14
  2059 ;;      Params:         0       0       0       0       0       0       0       0       0       0       0       0       
      +0       0       0       0
  2060 ;;      Locals:        10       0       0       0       0       0       0       0       0       0       0       0       
      +0       0       0       0
  2061 ;;      Temps:          2       0       0       0       0       0       0       0       0       0       0       0       
      +0       0       0       0
  2062 ;;      Totals:        12       0       0       0       0       0       0       0       0       0       0       0       
      +0       0       0       0
  2063 ;;Total ram usage:       12 bytes
  2064 ;; Hardware stack levels used:    1
  2065 ;; Hardware stack levels required when called:    2
  2066 ;; This function calls:
  2067 ;;		_CANSendMessage
  2068 ;; This function is called by:
  2069 ;;		_ISR
  2070 ;; This function uses a non-reentrant model
  2071 ;;
  2072                           
  2073                           	psect	text12
  2074  000648                     __ptext12:
  2075                           	opt stack 0
  2076  000648                     _sendCANMain:
  2077                           	opt stack 23
  2078                           
  2079                           ;main.c: 94: BYTE MessageData[8];
  2080                           ;main.c: 95: for (int i = 0; i<4; i++){
  2081                           
  2082                           ;incstack = 0
  2083  000648  0E00               	movlw	0
  2084  00064A  6E22               	movwf	sendCANMain@i+1,c
  2085  00064C  0E00               	movlw	0
  2086  00064E  6E21               	movwf	sendCANMain@i,c
  2087  000650  BE22               	btfsc	sendCANMain@i+1,7,c
  2088  000652  D006               	goto	i2l1460
  2089  000654  5022               	movf	sendCANMain@i+1,w,c
  2090  000656  E144               	bnz	i2l70
  2091  000658  0E04               	movlw	4
  2092  00065A  5C21               	subwf	sendCANMain@i,w,c
  2093  00065C  B0D8               	btfsc	status,0,c
  2094  00065E  D040               	goto	i2l70
  2095  000660                     i2l1460:
  2096                           
  2097                           ;main.c: 96: MessageData[i*2+1] = results[i] & 0xFF;
  2098  000660  90D8               	bcf	status,0,c
  2099  000662  3421               	rlcf	sendCANMain@i,w,c
  2100  000664  6ED9               	movwf	fsr2l,c
  2101  000666  3422               	rlcf	sendCANMain@i+1,w,c
  2102  000668  6EDA               	movwf	fsr2h,c
  2103  00066A  0E31               	movlw	low _results
  2104  00066C  26D9               	addwf	fsr2l,f,c
  2105  00066E  0E00               	movlw	high _results
  2106  000670  22DA               	addwfc	fsr2h,f,c
  2107  000672  C021  F017         	movff	sendCANMain@i,??_sendCANMain
  2108  000676  C022  F018         	movff	sendCANMain@i+1,??_sendCANMain+1
  2109  00067A  90D8               	bcf	status,0,c
  2110  00067C  3617               	rlcf	??_sendCANMain,f,c
  2111  00067E  3618               	rlcf	??_sendCANMain+1,f,c
  2112  000680  0E01               	movlw	1
  2113  000682  2617               	addwf	??_sendCANMain,f,c
  2114  000684  0E00               	movlw	0
  2115  000686  2218               	addwfc	??_sendCANMain+1,f,c
  2116  000688  0E19               	movlw	low sendCANMain@MessageData
  2117  00068A  2417               	addwf	??_sendCANMain,w,c
  2118  00068C  6EE1               	movwf	fsr1l,c
  2119  00068E  0E00               	movlw	high sendCANMain@MessageData
  2120  000690  2018               	addwfc	??_sendCANMain+1,w,c
  2121  000692  6EE2               	movwf	fsr1h,c
  2122  000694  CFDF FFE7          	movff	indf2,indf1
  2123                           
  2124                           ;main.c: 97: MessageData[i*2] = (results[i] >> 8);
  2125  000698  90D8               	bcf	status,0,c
  2126  00069A  3421               	rlcf	sendCANMain@i,w,c
  2127  00069C  6ED9               	movwf	fsr2l,c
  2128  00069E  3422               	rlcf	sendCANMain@i+1,w,c
  2129  0006A0  6EDA               	movwf	fsr2h,c
  2130  0006A2  0E31               	movlw	low _results
  2131  0006A4  26D9               	addwf	fsr2l,f,c
  2132  0006A6  0E00               	movlw	high _results
  2133  0006A8  22DA               	addwfc	fsr2h,f,c
  2134  0006AA  CFDE F017          	movff	postinc2,??_sendCANMain
  2135  0006AE  CFDD F018          	movff	postdec2,??_sendCANMain+1
  2136  0006B2  C018  F017         	movff	??_sendCANMain+1,??_sendCANMain
  2137  0006B6  6A18               	clrf	??_sendCANMain+1,c
  2138  0006B8  BE17               	btfsc	??_sendCANMain,7,c
  2139  0006BA  6818               	setf	??_sendCANMain+1,c
  2140  0006BC  5017               	movf	??_sendCANMain,w,c
  2141  0006BE  90D8               	bcf	status,0,c
  2142  0006C0  3421               	rlcf	sendCANMain@i,w,c
  2143  0006C2  6ED9               	movwf	fsr2l,c
  2144  0006C4  3422               	rlcf	sendCANMain@i+1,w,c
  2145  0006C6  6EDA               	movwf	fsr2h,c
  2146  0006C8  0E19               	movlw	low sendCANMain@MessageData
  2147  0006CA  26D9               	addwf	fsr2l,f,c
  2148  0006CC  0E00               	movlw	high sendCANMain@MessageData
  2149  0006CE  22DA               	addwfc	fsr2h,f,c
  2150  0006D0  6EDF               	movwf	indf2,c
  2151  0006D2  4A21               	infsnz	sendCANMain@i,f,c
  2152  0006D4  2A22               	incf	sendCANMain@i+1,f,c
  2153  0006D6  BE22               	btfsc	sendCANMain@i+1,7,c
  2154  0006D8  D7C3               	goto	i2l1460
  2155  0006DA  5022               	movf	sendCANMain@i+1,w,c
  2156  0006DC  E101               	bnz	i2u65_40
  2157  0006DE  D7BC               	goto	L7
  2158  0006E0                     i2u65_40:
  2159  0006E0                     i2l70:
  2160                           
  2161                           ;main.c: 99: }
  2162                           ;main.c: 101: if((!TXB0CONbits.TXREQ || !TXB1CONbits.TXREQ || !TXB2CONbits.TXREQ )){
  2163  0006E0  010F               	movlb	15	; () banked
  2164  0006E2  A720               	btfss	32,3,b	;volatile
  2165  0006E4  D006               	goto	i2l1472
  2166                           
  2167                           ; BSR set to: 15
  2168  0006E6  010F               	movlb	15	; () banked
  2169  0006E8  A710               	btfss	16,3,b	;volatile
  2170  0006EA  D003               	goto	i2l1472
  2171                           
  2172                           ; BSR set to: 15
  2173  0006EC  010F               	movlb	15	; () banked
  2174  0006EE  B700               	btfsc	0,3,b	;volatile
  2175  0006F0  0012               	return	
  2176  0006F2                     i2l1472:
  2177                           
  2178                           ; BSR set to: 15
  2179                           ;main.c: 102: CANSendMessage(0x007,MessageData,8,
  2180                           ;main.c: 103: CAN_TX_PRIORITY_0 & CAN_TX_STD_FRAME & CAN_TX_NO_RTR_FRAME);
  2181  0006F2  0E07               	movlw	7
  2182  0006F4  6E0C               	movwf	CANSendMessage@id,c
  2183  0006F6  0E00               	movlw	0
  2184  0006F8  6E0D               	movwf	CANSendMessage@id+1,c
  2185  0006FA  0E00               	movlw	0
  2186  0006FC  6E0E               	movwf	CANSendMessage@id+2,c
  2187  0006FE  0E00               	movlw	0
  2188  000700  6E0F               	movwf	CANSendMessage@id+3,c
  2189  000702  0E19               	movlw	low sendCANMain@MessageData
  2190  000704  6E10               	movwf	CANSendMessage@Data,c
  2191  000706  0E00               	movlw	high sendCANMain@MessageData
  2192  000708  6E11               	movwf	CANSendMessage@Data+1,c
  2193  00070A  0E08               	movlw	8
  2194  00070C  6E12               	movwf	CANSendMessage@DataLen,c
  2195  00070E  0EFC               	movlw	252
  2196  000710  6E13               	movwf	CANSendMessage@MsgFlags,c
  2197  000712  EC8C  F003         	call	_CANSendMessage	;wreg free
  2198  000716  0012               	return	
  2199  000718                     __end_of_sendCANMain:
  2200                           	opt stack 0
  2201                           pclatu	equ	0xFFB
  2202                           pclath	equ	0xFFA
  2203                           tblptru	equ	0xFF8
  2204                           tblptrh	equ	0xFF7
  2205                           tblptrl	equ	0xFF6
  2206                           tablat	equ	0xFF5
  2207                           prodh	equ	0xFF4
  2208                           prodl	equ	0xFF3
  2209                           intcon	equ	0xFF2
  2210                           postinc0	equ	0xFEE
  2211                           fsr0h	equ	0xFEA
  2212                           fsr0l	equ	0xFE9
  2213                           wreg	equ	0xFE8
  2214                           indf1	equ	0xFE7
  2215                           postdec1	equ	0xFE5
  2216                           fsr1h	equ	0xFE2
  2217                           fsr1l	equ	0xFE1
  2218                           indf2	equ	0xFDF
  2219                           postinc2	equ	0xFDE
  2220                           postdec2	equ	0xFDD
  2221                           plusw2	equ	0xFDB
  2222                           fsr2h	equ	0xFDA
  2223                           fsr2l	equ	0xFD9
  2224                           status	equ	0xFD8
  2225                           
  2226 ;; *************** function _CANSendMessage *****************
  2227 ;; Defined at:
  2228 ;;		line 557 in file "can18xx8.c"
  2229 ;; Parameters:    Size  Location     Type
  2230 ;;  id              4   11[COMRAM] unsigned long 
  2231 ;;  Data            2   15[COMRAM] PTR unsigned char 
  2232 ;;		 -> sendCANBatt@MessageData(2), sendCANMain@MessageData(8), 
  2233 ;;  DataLen         1   17[COMRAM] unsigned char 
  2234 ;;  MsgFlags        1   18[COMRAM] enum E412
  2235 ;; Auto vars:     Size  Location     Type
  2236 ;;  ptr             2   19[COMRAM] PTR unsigned char 
  2237 ;;		 -> RXB0D0(1), 
  2238 ;;  i               1   21[COMRAM] unsigned char 
  2239 ;; Return value:  Size  Location     Type
  2240 ;;                  1    wreg      enum E18203
  2241 ;; Registers used:
  2242 ;;		wreg, fsr1l, fsr1h, fsr2l, fsr2h, status,2, status,0, prodl, prodh, cstack
  2243 ;; Tracked objects:
  2244 ;;		On entry : 0/0
  2245 ;;		On exit  : 0/0
  2246 ;;		Unchanged: 0/0
  2247 ;; Data sizes:     COMRAM   BANK0   BANK1   BANK2   BANK3   BANK4   BANK5   BANK6   BANK7   BANK8   BANK9  BANK10  BANK1
      +1  BANK12  BANK13  BANK14
  2248 ;;      Params:         8       0       0       0       0       0       0       0       0       0       0       0       
      +0       0       0       0
  2249 ;;      Locals:         3       0       0       0       0       0       0       0       0       0       0       0       
      +0       0       0       0
  2250 ;;      Temps:          0       0       0       0       0       0       0       0       0       0       0       0       
      +0       0       0       0
  2251 ;;      Totals:        11       0       0       0       0       0       0       0       0       0       0       0       
      +0       0       0       0
  2252 ;;Total ram usage:       11 bytes
  2253 ;; Hardware stack levels used:    1
  2254 ;; Hardware stack levels required when called:    1
  2255 ;; This function calls:
  2256 ;;		i2_CANIDToRegs
  2257 ;; This function is called by:
  2258 ;;		_sendCANMain
  2259 ;;		_sendCANBatt
  2260 ;; This function uses a non-reentrant model
  2261 ;;
  2262                           
  2263                           	psect	text13
  2264  000718                     __ptext13:
  2265                           	opt stack 0
  2266  000718                     _CANSendMessage:
  2267                           	opt stack 23
  2268                           
  2269                           ;can18xx8.c: 562: BYTE i;
  2270                           ;can18xx8.c: 563: BYTE *ptr;
  2271                           ;can18xx8.c: 566: if ( TXB0CONbits.TXREQ == 0 )
  2272                           
  2273                           ;incstack = 0
  2274  000718  010F               	movlb	15	; () banked
  2275  00071A  B720               	btfsc	32,3,b	;volatile
  2276  00071C  D004               	goto	i2l214
  2277                           
  2278                           ; BSR set to: 15
  2279                           ;can18xx8.c: 567: {
  2280                           ;can18xx8.c: 569: CANCON &= 0b11110001;
  2281  00071E  0EF1               	movlw	241
  2282  000720  166F               	andwf	3951,f,c	;volatile
  2283                           
  2284                           ; BSR set to: 15
  2285                           ;can18xx8.c: 570: CANCON |= 0b00001000;
  2286  000722  866F               	bsf	3951,3,c	;volatile
  2287                           
  2288                           ;can18xx8.c: 571: }
  2289  000724  D00E               	goto	i2l1372
  2290  000726                     i2l214:
  2291                           
  2292                           ; BSR set to: 15
  2293                           ;can18xx8.c: 572: else if ( TXB1CONbits.TXREQ == 0 )
  2294  000726  010F               	movlb	15	; () banked
  2295  000728  B710               	btfsc	16,3,b	;volatile
  2296  00072A  D005               	goto	i2l216
  2297                           
  2298                           ; BSR set to: 15
  2299                           ;can18xx8.c: 573: {
  2300                           ;can18xx8.c: 575: CANCON &= 0b11110001;
  2301  00072C  0EF1               	movlw	241
  2302  00072E  166F               	andwf	3951,f,c	;volatile
  2303                           
  2304                           ;can18xx8.c: 576: CANCON |= 0b00000110;
  2305  000730  0E06               	movlw	6
  2306  000732  126F               	iorwf	3951,f,c	;volatile
  2307                           
  2308                           ;can18xx8.c: 577: }
  2309  000734  D006               	goto	i2l1372
  2310  000736                     i2l216:
  2311                           
  2312                           ; BSR set to: 15
  2313                           ;can18xx8.c: 578: else if ( TXB2CONbits.TXREQ == 0 )
  2314  000736  010F               	movlb	15	; () banked
  2315  000738  B700               	btfsc	0,3,b	;volatile
  2316  00073A  0012               	return	
  2317                           
  2318                           ; BSR set to: 15
  2319                           ;can18xx8.c: 579: {
  2320                           ;can18xx8.c: 581: CANCON &= 0b11110001;
  2321  00073C  0EF1               	movlw	241
  2322  00073E  166F               	andwf	3951,f,c	;volatile
  2323                           
  2324                           ; BSR set to: 15
  2325                           ;can18xx8.c: 582: CANCON |= 0b00000100;
  2326  000740  846F               	bsf	3951,2,c	;volatile
  2327  000742                     i2l1372:
  2328                           
  2329                           ; BSR set to: 15
  2330                           ;can18xx8.c: 588: }
  2331                           ;can18xx8.c: 595: RXB0CON = MsgFlags & CAN_TX_PRIORITY_BITS;
  2332  000742  5013               	movf	CANSendMessage@MsgFlags,w,c
  2333  000744  0B03               	andlw	3
  2334  000746  6E60               	movwf	3936,c	;volatile
  2335                           
  2336                           ; BSR set to: 15
  2337                           ;can18xx8.c: 599: if ( !(MsgFlags & CAN_TX_FRAME_BIT) ){
  2338  000748  B613               	btfsc	CANSendMessage@MsgFlags,3,c
  2339  00074A  D011               	goto	i2l1378
  2340                           
  2341                           ; BSR set to: 15
  2342                           ;can18xx8.c: 600: CANIDToRegs((BYTE*)&RXB0SIDH, id, CAN_CONFIG_XTD_MSG);
  2343  00074C  0E61               	movlw	97
  2344  00074E  6E01               	movwf	i2CANIDToRegs@ptr,c
  2345  000750  0E0F               	movlw	15
  2346  000752  6E02               	movwf	i2CANIDToRegs@ptr+1,c
  2347  000754  C00C  F003         	movff	CANSendMessage@id,i2CANIDToRegs@val
  2348  000758  C00D  F004         	movff	CANSendMessage@id+1,i2CANIDToRegs@val+1
  2349  00075C  C00E  F005         	movff	CANSendMessage@id+2,i2CANIDToRegs@val+2
  2350  000760  C00F  F006         	movff	CANSendMessage@id+3,i2CANIDToRegs@val+3
  2351  000764  0EF7               	movlw	247
  2352  000766  6E07               	movwf	i2CANIDToRegs@type,c
  2353  000768  ECF1  F001         	call	i2_CANIDToRegs	;wreg free
  2354                           
  2355                           ;can18xx8.c: 601: }
  2356  00076C  D010               	goto	i2l1380
  2357  00076E                     i2l1378:
  2358                           
  2359                           ;can18xx8.c: 602: else {
  2360                           ;can18xx8.c: 603: CANIDToRegs((BYTE*)&RXB0SIDH, id, CAN_CONFIG_STD_MSG);
  2361  00076E  0E61               	movlw	97
  2362  000770  6E01               	movwf	i2CANIDToRegs@ptr,c
  2363  000772  0E0F               	movlw	15
  2364  000774  6E02               	movwf	i2CANIDToRegs@ptr+1,c
  2365  000776  C00C  F003         	movff	CANSendMessage@id,i2CANIDToRegs@val
  2366  00077A  C00D  F004         	movff	CANSendMessage@id+1,i2CANIDToRegs@val+1
  2367  00077E  C00E  F005         	movff	CANSendMessage@id+2,i2CANIDToRegs@val+2
  2368  000782  C00F  F006         	movff	CANSendMessage@id+3,i2CANIDToRegs@val+3
  2369  000786  0EFF               	movlw	255
  2370  000788  6E07               	movwf	i2CANIDToRegs@type,c
  2371  00078A  ECF1  F001         	call	i2_CANIDToRegs	;wreg free
  2372  00078E                     i2l1380:
  2373                           
  2374                           ;can18xx8.c: 604: }
  2375                           ;can18xx8.c: 606: RXB0DLC = DataLen;
  2376  00078E  C012  FF65         	movff	CANSendMessage@DataLen,3941	;volatile
  2377                           
  2378                           ;can18xx8.c: 608: if ( !(MsgFlags & CAN_TX_RTR_BIT) )
  2379  000792  AC13               	btfss	CANSendMessage@MsgFlags,6,c
  2380                           
  2381                           ;can18xx8.c: 609: RXB0DLC |= 0b01000000;
  2382  000794  8C65               	bsf	3941,6,c	;volatile
  2383                           
  2384                           ;can18xx8.c: 612: ptr = (BYTE*)&RXB0D0;
  2385  000796  0E66               	movlw	102
  2386  000798  6E14               	movwf	CANSendMessage@ptr,c
  2387  00079A  0E0F               	movlw	15
  2388  00079C  6E15               	movwf	CANSendMessage@ptr+1,c
  2389                           
  2390                           ;can18xx8.c: 613: for ( i = 0; i < DataLen; i++ )
  2391  00079E  0E00               	movlw	0
  2392  0007A0  6E16               	movwf	CANSendMessage@i,c
  2393  0007A2  D013               	goto	i2l1394
  2394  0007A4                     i2l1390:
  2395                           
  2396                           ;can18xx8.c: 614: ptr[i] = Data[i];
  2397  0007A4  5016               	movf	CANSendMessage@i,w,c
  2398  0007A6  0D01               	mullw	1
  2399  0007A8  50F3               	movf	prodl,w,c
  2400  0007AA  2410               	addwf	CANSendMessage@Data,w,c
  2401  0007AC  6ED9               	movwf	fsr2l,c
  2402  0007AE  50F4               	movf	prodh,w,c
  2403  0007B0  2011               	addwfc	CANSendMessage@Data+1,w,c
  2404  0007B2  6EDA               	movwf	fsr2h,c
  2405  0007B4  5016               	movf	CANSendMessage@i,w,c
  2406  0007B6  0D01               	mullw	1
  2407  0007B8  50F3               	movf	prodl,w,c
  2408  0007BA  2414               	addwf	CANSendMessage@ptr,w,c
  2409  0007BC  6EE1               	movwf	fsr1l,c
  2410  0007BE  50F4               	movf	prodh,w,c
  2411  0007C0  2015               	addwfc	CANSendMessage@ptr+1,w,c
  2412  0007C2  6EE2               	movwf	fsr1h,c
  2413  0007C4  CFDF FFE7          	movff	indf2,indf1
  2414  0007C8  2A16               	incf	CANSendMessage@i,f,c
  2415  0007CA                     i2l1394:
  2416  0007CA  5012               	movf	CANSendMessage@DataLen,w,c
  2417  0007CC  5C16               	subwf	CANSendMessage@i,w,c
  2418  0007CE  A0D8               	btfss	status,0,c
  2419  0007D0  D7E9               	goto	i2l1390
  2420                           
  2421                           ;can18xx8.c: 630: RXB0CON |= 0x08;
  2422  0007D2  8660               	bsf	3936,3,c	;volatile
  2423                           
  2424                           ;can18xx8.c: 637: CANCON &= 0b11110001;
  2425  0007D4  0EF1               	movlw	241
  2426  0007D6  166F               	andwf	3951,f,c	;volatile
  2427  0007D8  0012               	return	
  2428  0007DA                     __end_of_CANSendMessage:
  2429                           	opt stack 0
  2430                           pclatu	equ	0xFFB
  2431                           pclath	equ	0xFFA
  2432                           tblptru	equ	0xFF8
  2433                           tblptrh	equ	0xFF7
  2434                           tblptrl	equ	0xFF6
  2435                           tablat	equ	0xFF5
  2436                           prodh	equ	0xFF4
  2437                           prodl	equ	0xFF3
  2438                           intcon	equ	0xFF2
  2439                           postinc0	equ	0xFEE
  2440                           fsr0h	equ	0xFEA
  2441                           fsr0l	equ	0xFE9
  2442                           wreg	equ	0xFE8
  2443                           indf1	equ	0xFE7
  2444                           postdec1	equ	0xFE5
  2445                           fsr1h	equ	0xFE2
  2446                           fsr1l	equ	0xFE1
  2447                           indf2	equ	0xFDF
  2448                           postinc2	equ	0xFDE
  2449                           postdec2	equ	0xFDD
  2450                           plusw2	equ	0xFDB
  2451                           fsr2h	equ	0xFDA
  2452                           fsr2l	equ	0xFD9
  2453                           status	equ	0xFD8
  2454                           
  2455 ;; *************** function i2_CANIDToRegs *****************
  2456 ;; Defined at:
  2457 ;;		line 340 in file "can18xx8.c"
  2458 ;; Parameters:    Size  Location     Type
  2459 ;;  ptr             2    0[COMRAM] PTR unsigned char 
  2460 ;;		 -> RXB0SIDH(1), RXF5SIDH(1), RXF4SIDH(1), RXF3SIDH(1), 
  2461 ;;		 -> RXF2SIDH(1), RXF1SIDH(1), RXF0SIDH(1), RXM1SIDH(1), 
  2462 ;;		 -> RXM0SIDH(1), 
  2463 ;;  val             4    2[COMRAM] unsigned long 
  2464 ;;  type            1    6[COMRAM] enum E454
  2465 ;; Auto vars:     Size  Location     Type
  2466 ;;  CANIDToRegs     2    9[COMRAM] PTR struct _CAN_MESSAGE_
  2467 ;;		 -> CANIDToRegs@val(4), 
  2468 ;; Return value:  Size  Location     Type
  2469 ;;		None               void
  2470 ;; Registers used:
  2471 ;;		wreg, fsr1l, fsr1h, fsr2l, fsr2h, status,2, status,0
  2472 ;; Tracked objects:
  2473 ;;		On entry : 0/0
  2474 ;;		On exit  : 0/0
  2475 ;;		Unchanged: 0/0
  2476 ;; Data sizes:     COMRAM   BANK0   BANK1   BANK2   BANK3   BANK4   BANK5   BANK6   BANK7   BANK8   BANK9  BANK10  BANK1
      +1  BANK12  BANK13  BANK14
  2477 ;;      Params:         7       0       0       0       0       0       0       0       0       0       0       0       
      +0       0       0       0
  2478 ;;      Locals:         2       0       0       0       0       0       0       0       0       0       0       0       
      +0       0       0       0
  2479 ;;      Temps:          2       0       0       0       0       0       0       0       0       0       0       0       
      +0       0       0       0
  2480 ;;      Totals:        11       0       0       0       0       0       0       0       0       0       0       0       
      +0       0       0       0
  2481 ;;Total ram usage:       11 bytes
  2482 ;; Hardware stack levels used:    1
  2483 ;; This function calls:
  2484 ;;		Nothing
  2485 ;; This function is called by:
  2486 ;;		_CANSendMessage
  2487 ;; This function uses a non-reentrant model
  2488 ;;
  2489                           
  2490                           	psect	text14
  2491  0003E2                     __ptext14:
  2492                           	opt stack 0
  2493  0003E2                     i2_CANIDToRegs:
  2494                           	opt stack 23
  2495                           
  2496                           ;can18xx8.c: 344: CAN_MESSAGE_ID *Value;
  2497                           ;can18xx8.c: 346: Value = (CAN_MESSAGE_ID*)&val;
  2498                           
  2499                           ;incstack = 0
  2500  0003E2  0E03               	movlw	low i2CANIDToRegs@val
  2501  0003E4  6E0A               	movwf	i2CANIDToRegs@Value,c
  2502  0003E6  0E00               	movlw	high i2CANIDToRegs@val
  2503  0003E8  6E0B               	movwf	i2CANIDToRegs@Value+1,c
  2504                           
  2505                           ;can18xx8.c: 348: if ( type & CAN_CONFIG_MSG_TYPE_BIT )
  2506  0003EA  A607               	btfss	i2CANIDToRegs@type,3,c
  2507  0003EC  D03A               	goto	i2l1318
  2508                           
  2509                           ;can18xx8.c: 349: {
  2510                           ;can18xx8.c: 351: *ptr = Value->BYTES.BYTE_1 >> 3;
  2511  0003EE  C00A  FFD9         	movff	i2CANIDToRegs@Value,fsr2l
  2512  0003F2  C00B  FFDA         	movff	i2CANIDToRegs@Value+1,fsr2h
  2513  0003F6  50DF               	movf	indf2,w,c
  2514  0003F8  6E08               	movwf	??i2_CANIDToRegs& (0+255),c
  2515  0003FA  90D8               	bcf	status,0,c
  2516  0003FC  3208               	rrcf	??i2_CANIDToRegs,f,c
  2517  0003FE  90D8               	bcf	status,0,c
  2518  000400  3208               	rrcf	??i2_CANIDToRegs,f,c
  2519  000402  90D8               	bcf	status,0,c
  2520  000404  3008               	rrcf	??i2_CANIDToRegs,w,c
  2521  000406  C001  FFD9         	movff	i2CANIDToRegs@ptr,fsr2l
  2522  00040A  C002  FFDA         	movff	i2CANIDToRegs@ptr+1,fsr2h
  2523  00040E  6EDF               	movwf	indf2,c
  2524                           
  2525                           ;can18xx8.c: 352: *ptr |= (Value->BYTES.BYTE_2 << 5);
  2526  000410  EE20 F001          	lfsr	2,1
  2527  000414  500A               	movf	i2CANIDToRegs@Value,w,c
  2528  000416  26D9               	addwf	fsr2l,f,c
  2529  000418  500B               	movf	i2CANIDToRegs@Value+1,w,c
  2530  00041A  22DA               	addwfc	fsr2h,f,c
  2531  00041C  50DF               	movf	indf2,w,c
  2532  00041E  6E08               	movwf	??i2_CANIDToRegs& (0+255),c
  2533  000420  0E05               	movlw	5
  2534  000422  6E09               	movwf	(??i2_CANIDToRegs+1)& (0+255),c
  2535  000424                     i2u54_45:
  2536  000424  90D8               	bcf	status,0,c
  2537  000426  3608               	rlcf	??i2_CANIDToRegs,f,c
  2538  000428  2E09               	decfsz	(??i2_CANIDToRegs+1)& (0+255),f,c
  2539  00042A  D7FC               	goto	i2u54_45
  2540  00042C  C001  FFD9         	movff	i2CANIDToRegs@ptr,fsr2l
  2541  000430  C002  FFDA         	movff	i2CANIDToRegs@ptr+1,fsr2h
  2542  000434  5008               	movf	??i2_CANIDToRegs,w,c
  2543  000436  12DF               	iorwf	indf2,f,c
  2544                           
  2545                           ;can18xx8.c: 353: ptr++;
  2546  000438  4A01               	infsnz	i2CANIDToRegs@ptr,f,c
  2547  00043A  2A02               	incf	i2CANIDToRegs@ptr+1,f,c
  2548                           
  2549                           ;can18xx8.c: 354: *ptr = Value->BYTES.BYTE_1 << 5;
  2550  00043C  C00A  FFD9         	movff	i2CANIDToRegs@Value,fsr2l
  2551  000440  C00B  FFDA         	movff	i2CANIDToRegs@Value+1,fsr2h
  2552  000444  50DF               	movf	indf2,w,c
  2553  000446  6E08               	movwf	??i2_CANIDToRegs& (0+255),c
  2554  000448  0E05               	movlw	5
  2555  00044A  6E09               	movwf	(??i2_CANIDToRegs+1)& (0+255),c
  2556  00044C                     i2u55_45:
  2557  00044C  90D8               	bcf	status,0,c
  2558  00044E  3608               	rlcf	??i2_CANIDToRegs,f,c
  2559  000450  2E09               	decfsz	(??i2_CANIDToRegs+1)& (0+255),f,c
  2560  000452  D7FC               	goto	i2u55_45
  2561  000454  5008               	movf	??i2_CANIDToRegs,w,c
  2562  000456  C001  FFD9         	movff	i2CANIDToRegs@ptr,fsr2l
  2563  00045A  C002  FFDA         	movff	i2CANIDToRegs@ptr+1,fsr2h
  2564  00045E  6EDF               	movwf	indf2,c
  2565                           
  2566                           ;can18xx8.c: 355: }
  2567  000460  0012               	return	
  2568  000462                     i2l1318:
  2569                           
  2570                           ;can18xx8.c: 356: else
  2571                           ;can18xx8.c: 357: {
  2572                           ;can18xx8.c: 359: *ptr = Value->BYTES.BYTE_3 >> 5;
  2573  000462  EE20 F002          	lfsr	2,2
  2574  000466  500A               	movf	i2CANIDToRegs@Value,w,c
  2575  000468  26D9               	addwf	fsr2l,f,c
  2576  00046A  500B               	movf	i2CANIDToRegs@Value+1,w,c
  2577  00046C  22DA               	addwfc	fsr2h,f,c
  2578  00046E  50DF               	movf	indf2,w,c
  2579  000470  6E08               	movwf	??i2_CANIDToRegs& (0+255),c
  2580  000472  0E05               	movlw	5
  2581  000474  6E09               	movwf	(??i2_CANIDToRegs+1)& (0+255),c
  2582  000476                     i2u56_45:
  2583  000476  90D8               	bcf	status,0,c
  2584  000478  3208               	rrcf	??i2_CANIDToRegs,f,c
  2585  00047A  2E09               	decfsz	(??i2_CANIDToRegs+1)& (0+255),f,c
  2586  00047C  D7FC               	goto	i2u56_45
  2587  00047E  5008               	movf	??i2_CANIDToRegs,w,c
  2588  000480  C001  FFD9         	movff	i2CANIDToRegs@ptr,fsr2l
  2589  000484  C002  FFDA         	movff	i2CANIDToRegs@ptr+1,fsr2h
  2590  000488  6EDF               	movwf	indf2,c
  2591                           
  2592                           ;can18xx8.c: 360: *ptr |= Value->BYTES.BYTE_4 << 3;
  2593  00048A  EE20 F003          	lfsr	2,3
  2594  00048E  500A               	movf	i2CANIDToRegs@Value,w,c
  2595  000490  26D9               	addwf	fsr2l,f,c
  2596  000492  500B               	movf	i2CANIDToRegs@Value+1,w,c
  2597  000494  22DA               	addwfc	fsr2h,f,c
  2598  000496  50DF               	movf	indf2,w,c
  2599  000498  6E08               	movwf	??i2_CANIDToRegs& (0+255),c
  2600  00049A  90D8               	bcf	status,0,c
  2601  00049C  3608               	rlcf	??i2_CANIDToRegs,f,c
  2602  00049E  90D8               	bcf	status,0,c
  2603  0004A0  3608               	rlcf	??i2_CANIDToRegs,f,c
  2604  0004A2  90D8               	bcf	status,0,c
  2605  0004A4  3608               	rlcf	??i2_CANIDToRegs,f,c
  2606  0004A6  C001  FFD9         	movff	i2CANIDToRegs@ptr,fsr2l
  2607  0004AA  C002  FFDA         	movff	i2CANIDToRegs@ptr+1,fsr2h
  2608  0004AE  5008               	movf	??i2_CANIDToRegs,w,c
  2609  0004B0  12DF               	iorwf	indf2,f,c
  2610                           
  2611                           ;can18xx8.c: 361: ptr++;
  2612  0004B2  4A01               	infsnz	i2CANIDToRegs@ptr,f,c
  2613  0004B4  2A02               	incf	i2CANIDToRegs@ptr+1,f,c
  2614                           
  2615                           ;can18xx8.c: 362: *ptr = (Value->BYTES.BYTE_3 << 3) & 0xE0;
  2616  0004B6  EE20 F002          	lfsr	2,2
  2617  0004BA  500A               	movf	i2CANIDToRegs@Value,w,c
  2618  0004BC  26D9               	addwf	fsr2l,f,c
  2619  0004BE  500B               	movf	i2CANIDToRegs@Value+1,w,c
  2620  0004C0  22DA               	addwfc	fsr2h,f,c
  2621  0004C2  50DF               	movf	indf2,w,c
  2622  0004C4  6E08               	movwf	??i2_CANIDToRegs& (0+255),c
  2623  0004C6  90D8               	bcf	status,0,c
  2624  0004C8  3608               	rlcf	??i2_CANIDToRegs,f,c
  2625  0004CA  90D8               	bcf	status,0,c
  2626  0004CC  3608               	rlcf	??i2_CANIDToRegs,f,c
  2627  0004CE  90D8               	bcf	status,0,c
  2628  0004D0  3408               	rlcf	??i2_CANIDToRegs,w,c
  2629  0004D2  0BE0               	andlw	224
  2630  0004D4  C001  FFD9         	movff	i2CANIDToRegs@ptr,fsr2l
  2631  0004D8  C002  FFDA         	movff	i2CANIDToRegs@ptr+1,fsr2h
  2632  0004DC  6EDF               	movwf	indf2,c
  2633                           
  2634                           ;can18xx8.c: 364: *ptr |= 0b00001000;
  2635  0004DE  C001  FFD9         	movff	i2CANIDToRegs@ptr,fsr2l
  2636  0004E2  C002  FFDA         	movff	i2CANIDToRegs@ptr+1,fsr2h
  2637  0004E6  0E00               	movlw	0
  2638  0004E8  86DB               	bsf	plusw2,3,c
  2639                           
  2640                           ;can18xx8.c: 365: *ptr |= Value->BYTES.BYTE_3 & 0x03;
  2641  0004EA  EE20 F002          	lfsr	2,2
  2642  0004EE  500A               	movf	i2CANIDToRegs@Value,w,c
  2643  0004F0  26D9               	addwf	fsr2l,f,c
  2644  0004F2  500B               	movf	i2CANIDToRegs@Value+1,w,c
  2645  0004F4  22DA               	addwfc	fsr2h,f,c
  2646  0004F6  50DF               	movf	indf2,w,c
  2647  0004F8  6E08               	movwf	??i2_CANIDToRegs& (0+255),c
  2648  0004FA  0E03               	movlw	3
  2649  0004FC  1608               	andwf	??i2_CANIDToRegs,f,c
  2650  0004FE  C001  FFD9         	movff	i2CANIDToRegs@ptr,fsr2l
  2651  000502  C002  FFDA         	movff	i2CANIDToRegs@ptr+1,fsr2h
  2652  000506  5008               	movf	??i2_CANIDToRegs,w,c
  2653  000508  12DF               	iorwf	indf2,f,c
  2654                           
  2655                           ;can18xx8.c: 366: ptr++;
  2656  00050A  4A01               	infsnz	i2CANIDToRegs@ptr,f,c
  2657  00050C  2A02               	incf	i2CANIDToRegs@ptr+1,f,c
  2658                           
  2659                           ;can18xx8.c: 367: *ptr = Value->BYTES.BYTE_2;
  2660  00050E  EE20 F001          	lfsr	2,1
  2661  000512  500A               	movf	i2CANIDToRegs@Value,w,c
  2662  000514  26D9               	addwf	fsr2l,f,c
  2663  000516  500B               	movf	i2CANIDToRegs@Value+1,w,c
  2664  000518  22DA               	addwfc	fsr2h,f,c
  2665  00051A  C001  FFE1         	movff	i2CANIDToRegs@ptr,fsr1l
  2666  00051E  C002  FFE2         	movff	i2CANIDToRegs@ptr+1,fsr1h
  2667  000522  CFDF FFE7          	movff	indf2,indf1
  2668                           
  2669                           ;can18xx8.c: 368: ptr++;
  2670  000526  4A01               	infsnz	i2CANIDToRegs@ptr,f,c
  2671  000528  2A02               	incf	i2CANIDToRegs@ptr+1,f,c
  2672                           
  2673                           ;can18xx8.c: 369: *ptr = Value->BYTES.BYTE_1;
  2674  00052A  C00A  FFD9         	movff	i2CANIDToRegs@Value,fsr2l
  2675  00052E  C00B  FFDA         	movff	i2CANIDToRegs@Value+1,fsr2h
  2676  000532  C001  FFE1         	movff	i2CANIDToRegs@ptr,fsr1l
  2677  000536  C002  FFE2         	movff	i2CANIDToRegs@ptr+1,fsr1h
  2678  00053A  CFDF FFE7          	movff	indf2,indf1
  2679  00053E  0012               	return	
  2680  000540                     __end_ofi2_CANIDToRegs:
  2681                           	opt stack 0
  2682                           pclatu	equ	0xFFB
  2683                           pclath	equ	0xFFA
  2684                           tblptru	equ	0xFF8
  2685                           tblptrh	equ	0xFF7
  2686                           tblptrl	equ	0xFF6
  2687                           tablat	equ	0xFF5
  2688                           prodh	equ	0xFF4
  2689                           prodl	equ	0xFF3
  2690                           intcon	equ	0xFF2
  2691                           postinc0	equ	0xFEE
  2692                           fsr0h	equ	0xFEA
  2693                           fsr0l	equ	0xFE9
  2694                           wreg	equ	0xFE8
  2695                           indf1	equ	0xFE7
  2696                           postdec1	equ	0xFE5
  2697                           fsr1h	equ	0xFE2
  2698                           fsr1l	equ	0xFE1
  2699                           indf2	equ	0xFDF
  2700                           postinc2	equ	0xFDE
  2701                           postdec2	equ	0xFDD
  2702                           plusw2	equ	0xFDB
  2703                           fsr2h	equ	0xFDA
  2704                           fsr2l	equ	0xFD9
  2705                           status	equ	0xFD8
  2706                           
  2707 ;; *************** function _getAnalog *****************
  2708 ;; Defined at:
  2709 ;;		line 119 in file "main.c"
  2710 ;; Parameters:    Size  Location     Type
  2711 ;;		None
  2712 ;; Auto vars:     Size  Location     Type
  2713 ;;  i               2    9[COMRAM] int 
  2714 ;; Return value:  Size  Location     Type
  2715 ;;		None               void
  2716 ;; Registers used:
  2717 ;;		wreg, fsr2l, fsr2h, status,2, status,0, prodl, prodh, cstack
  2718 ;; Tracked objects:
  2719 ;;		On entry : 0/0
  2720 ;;		On exit  : 0/0
  2721 ;;		Unchanged: 0/0
  2722 ;; Data sizes:     COMRAM   BANK0   BANK1   BANK2   BANK3   BANK4   BANK5   BANK6   BANK7   BANK8   BANK9  BANK10  BANK1
      +1  BANK12  BANK13  BANK14
  2723 ;;      Params:         0       0       0       0       0       0       0       0       0       0       0       0       
      +0       0       0       0
  2724 ;;      Locals:         2       0       0       0       0       0       0       0       0       0       0       0       
      +0       0       0       0
  2725 ;;      Temps:          3       0       0       0       0       0       0       0       0       0       0       0       
      +0       0       0       0
  2726 ;;      Totals:         5       0       0       0       0       0       0       0       0       0       0       0       
      +0       0       0       0
  2727 ;;Total ram usage:        5 bytes
  2728 ;; Hardware stack levels used:    1
  2729 ;; Hardware stack levels required when called:    1
  2730 ;; This function calls:
  2731 ;;		___wmul
  2732 ;; This function is called by:
  2733 ;;		_ISR
  2734 ;; This function uses a non-reentrant model
  2735 ;;
  2736                           
  2737                           	psect	text15
  2738  000540                     __ptext15:
  2739                           	opt stack 0
  2740  000540                     _getAnalog:
  2741                           	opt stack 24
  2742                           
  2743                           ;main.c: 120: for(int i = 0; i < 5; i++) {
  2744                           
  2745                           ;incstack = 0
  2746  000540  0E00               	movlw	0
  2747  000542  6E0B               	movwf	getAnalog@i+1,c
  2748  000544  0E00               	movlw	0
  2749  000546  6E0A               	movwf	getAnalog@i,c
  2750  000548                     i2l1476:
  2751  000548  BE0B               	btfsc	getAnalog@i+1,7,c
  2752  00054A  D006               	goto	i2l1480
  2753  00054C  500B               	movf	getAnalog@i+1,w,c
  2754  00054E  E13B               	bnz	i2l1490
  2755  000550  0E05               	movlw	5
  2756  000552  5C0A               	subwf	getAnalog@i,w,c
  2757  000554  B0D8               	btfsc	status,0,c
  2758  000556  D037               	goto	i2l1490
  2759  000558                     i2l1480:
  2760                           
  2761                           ;main.c: 121: ADCON0bits.CHS = inputs[i];
  2762  000558  0E3D               	movlw	low _inputs
  2763  00055A  240A               	addwf	getAnalog@i,w,c
  2764  00055C  6ED9               	movwf	fsr2l,c
  2765  00055E  0E00               	movlw	high _inputs
  2766  000560  200B               	addwfc	getAnalog@i+1,w,c
  2767  000562  6EDA               	movwf	fsr2h,c
  2768  000564  50DF               	movf	indf2,w,c
  2769  000566  6E07               	movwf	??_getAnalog& (0+255),c
  2770  000568  4607               	rlncf	??_getAnalog,f,c
  2771  00056A  4607               	rlncf	??_getAnalog,f,c
  2772  00056C  50C2               	movf	4034,w,c	;volatile
  2773  00056E  1807               	xorwf	??_getAnalog,w,c
  2774  000570  0B83               	andlw	-125
  2775  000572  1807               	xorwf	??_getAnalog,w,c
  2776  000574  6EC2               	movwf	4034,c	;volatile
  2777                           
  2778                           ;main.c: 122: ADCON0bits.GODONE = 0b1;
  2779  000576  82C2               	bsf	4034,1,c	;volatile
  2780  000578                     i2l85:
  2781  000578  B2C2               	btfsc	4034,1,c	;volatile
  2782  00057A  D7FE               	goto	i2l85
  2783                           
  2784                           ;main.c: 124: results[i] = (ADRESH<<4) + (ADRESL>>4);
  2785  00057C  50C4               	movf	4036,w,c	;volatile
  2786  00057E  6E07               	movwf	??_getAnalog& (0+255),c
  2787  000580  6A08               	clrf	(??_getAnalog+1)& (0+255),c
  2788  000582  3A07               	swapf	??_getAnalog,f,c
  2789  000584  3A08               	swapf	??_getAnalog+1,f,c
  2790  000586  0EF0               	movlw	240
  2791  000588  1608               	andwf	??_getAnalog+1,f,c
  2792  00058A  5007               	movf	??_getAnalog,w,c
  2793  00058C  0B0F               	andlw	15
  2794  00058E  1208               	iorwf	??_getAnalog+1,f,c
  2795  000590  0EF0               	movlw	240
  2796  000592  1607               	andwf	??_getAnalog,f,c
  2797  000594  CFC3 F009          	movff	4035,??_getAnalog+2	;volatile
  2798  000598  3A09               	swapf	??_getAnalog+2,f,c
  2799  00059A  0E0F               	movlw	15
  2800  00059C  1609               	andwf	??_getAnalog+2,f,c
  2801  00059E  5009               	movf	??_getAnalog+2,w,c
  2802  0005A0  2607               	addwf	??_getAnalog,f,c
  2803  0005A2  0E00               	movlw	0
  2804  0005A4  2208               	addwfc	??_getAnalog+1,f,c
  2805  0005A6  90D8               	bcf	status,0,c
  2806  0005A8  340A               	rlcf	getAnalog@i,w,c
  2807  0005AA  6ED9               	movwf	fsr2l,c
  2808  0005AC  340B               	rlcf	getAnalog@i+1,w,c
  2809  0005AE  6EDA               	movwf	fsr2h,c
  2810  0005B0  0E31               	movlw	low _results
  2811  0005B2  26D9               	addwf	fsr2l,f,c
  2812  0005B4  0E00               	movlw	high _results
  2813  0005B6  22DA               	addwfc	fsr2h,f,c
  2814  0005B8  C007  FFDE         	movff	??_getAnalog,postinc2
  2815  0005BC  C008  FFDD         	movff	??_getAnalog+1,postdec2
  2816  0005C0  4A0A               	infsnz	getAnalog@i,f,c
  2817  0005C2  2A0B               	incf	getAnalog@i+1,f,c
  2818  0005C4  D7C1               	goto	i2l1476
  2819  0005C6                     i2l1490:
  2820                           
  2821                           ;main.c: 125: }
  2822                           ;main.c: 126: results[0] = (results[0] - 2080)*102;
  2823  0005C6  0EE0               	movlw	224
  2824  0005C8  2431               	addwf	_results,w,c
  2825  0005CA  6E01               	movwf	___wmul@multiplier,c
  2826  0005CC  0EF7               	movlw	247
  2827  0005CE  2032               	addwfc	_results+1,w,c
  2828  0005D0  6E02               	movwf	___wmul@multiplier+1,c
  2829  0005D2  0E00               	movlw	0
  2830  0005D4  6E04               	movwf	___wmul@multiplicand+1,c
  2831  0005D6  0E66               	movlw	102
  2832  0005D8  6E03               	movwf	___wmul@multiplicand,c
  2833  0005DA  ECC9  F004         	call	___wmul	;wreg free
  2834  0005DE  C001  F031         	movff	?___wmul,_results
  2835  0005E2  C002  F032         	movff	?___wmul+1,_results+1
  2836                           
  2837                           ;main.c: 127: results[1] = (results[1] - 2056)*-98;
  2838  0005E6  0EF8               	movlw	248
  2839  0005E8  2433               	addwf	_results+2,w,c
  2840  0005EA  6E01               	movwf	___wmul@multiplier,c
  2841  0005EC  0EF7               	movlw	247
  2842  0005EE  2034               	addwfc	_results+3,w,c
  2843  0005F0  6E02               	movwf	___wmul@multiplier+1,c
  2844  0005F2  0EFF               	movlw	255
  2845  0005F4  6E04               	movwf	___wmul@multiplicand+1,c
  2846  0005F6  0E9E               	movlw	158
  2847  0005F8  6E03               	movwf	___wmul@multiplicand,c
  2848  0005FA  ECC9  F004         	call	___wmul	;wreg free
  2849  0005FE  C001  F033         	movff	?___wmul,_results+2
  2850  000602  C002  F034         	movff	?___wmul+1,_results+3
  2851                           
  2852                           ;main.c: 128: results[2] = (results[2] - 2043)*-104;
  2853  000606  0E05               	movlw	5
  2854  000608  2435               	addwf	_results+4,w,c
  2855  00060A  6E01               	movwf	___wmul@multiplier,c
  2856  00060C  0EF8               	movlw	248
  2857  00060E  2036               	addwfc	_results+5,w,c
  2858  000610  6E02               	movwf	___wmul@multiplier+1,c
  2859  000612  0EFF               	movlw	255
  2860  000614  6E04               	movwf	___wmul@multiplicand+1,c
  2861  000616  0E98               	movlw	152
  2862  000618  6E03               	movwf	___wmul@multiplicand,c
  2863  00061A  ECC9  F004         	call	___wmul	;wreg free
  2864  00061E  C001  F035         	movff	?___wmul,_results+4
  2865  000622  C002  F036         	movff	?___wmul+1,_results+5
  2866                           
  2867                           ;main.c: 129: results[3] = (results[3] - 2040)*-103;
  2868  000626  0E08               	movlw	8
  2869  000628  2437               	addwf	_results+6,w,c
  2870  00062A  6E01               	movwf	___wmul@multiplier,c
  2871  00062C  0EF8               	movlw	248
  2872  00062E  2038               	addwfc	_results+7,w,c
  2873  000630  6E02               	movwf	___wmul@multiplier+1,c
  2874  000632  0EFF               	movlw	255
  2875  000634  6E04               	movwf	___wmul@multiplicand+1,c
  2876  000636  0E99               	movlw	153
  2877  000638  6E03               	movwf	___wmul@multiplicand,c
  2878  00063A  ECC9  F004         	call	___wmul	;wreg free
  2879  00063E  C001  F037         	movff	?___wmul,_results+6
  2880  000642  C002  F038         	movff	?___wmul+1,_results+7
  2881  000646  0012               	return		;funcret
  2882  000648                     __end_of_getAnalog:
  2883                           	opt stack 0
  2884                           pclatu	equ	0xFFB
  2885                           pclath	equ	0xFFA
  2886                           tblptru	equ	0xFF8
  2887                           tblptrh	equ	0xFF7
  2888                           tblptrl	equ	0xFF6
  2889                           tablat	equ	0xFF5
  2890                           prodh	equ	0xFF4
  2891                           prodl	equ	0xFF3
  2892                           intcon	equ	0xFF2
  2893                           postinc0	equ	0xFEE
  2894                           fsr0h	equ	0xFEA
  2895                           fsr0l	equ	0xFE9
  2896                           wreg	equ	0xFE8
  2897                           indf1	equ	0xFE7
  2898                           postdec1	equ	0xFE5
  2899                           fsr1h	equ	0xFE2
  2900                           fsr1l	equ	0xFE1
  2901                           indf2	equ	0xFDF
  2902                           postinc2	equ	0xFDE
  2903                           postdec2	equ	0xFDD
  2904                           plusw2	equ	0xFDB
  2905                           fsr2h	equ	0xFDA
  2906                           fsr2l	equ	0xFD9
  2907                           status	equ	0xFD8
  2908                           
  2909 ;; *************** function ___wmul *****************
  2910 ;; Defined at:
  2911 ;;		line 15 in file "C:\Program Files (x86)\Microchip\xc8\v1.35\sources\common\Umul16.c"
  2912 ;; Parameters:    Size  Location     Type
  2913 ;;  multiplier      2    0[COMRAM] unsigned int 
  2914 ;;  multiplicand    2    2[COMRAM] unsigned int 
  2915 ;; Auto vars:     Size  Location     Type
  2916 ;;  product         2    4[COMRAM] unsigned int 
  2917 ;; Return value:  Size  Location     Type
  2918 ;;                  2    0[COMRAM] unsigned int 
  2919 ;; Registers used:
  2920 ;;		wreg, status,2, status,0, prodl, prodh
  2921 ;; Tracked objects:
  2922 ;;		On entry : 0/0
  2923 ;;		On exit  : 0/0
  2924 ;;		Unchanged: 0/0
  2925 ;; Data sizes:     COMRAM   BANK0   BANK1   BANK2   BANK3   BANK4   BANK5   BANK6   BANK7   BANK8   BANK9  BANK10  BANK1
      +1  BANK12  BANK13  BANK14
  2926 ;;      Params:         4       0       0       0       0       0       0       0       0       0       0       0       
      +0       0       0       0
  2927 ;;      Locals:         2       0       0       0       0       0       0       0       0       0       0       0       
      +0       0       0       0
  2928 ;;      Temps:          0       0       0       0       0       0       0       0       0       0       0       0       
      +0       0       0       0
  2929 ;;      Totals:         6       0       0       0       0       0       0       0       0       0       0       0       
      +0       0       0       0
  2930 ;;Total ram usage:        6 bytes
  2931 ;; Hardware stack levels used:    1
  2932 ;; This function calls:
  2933 ;;		Nothing
  2934 ;; This function is called by:
  2935 ;;		_getAnalog
  2936 ;; This function uses a non-reentrant model
  2937 ;;
  2938                           
  2939                           	psect	text16
  2940  000992                     __ptext16:
  2941                           	opt stack 0
  2942  000992                     ___wmul:
  2943                           	opt stack 24
  2944                           
  2945                           ;incstack = 0
  2946  000992  5001               	movf	___wmul@multiplier,w,c
  2947  000994  0203               	mulwf	___wmul@multiplicand,c
  2948  000996  CFF3 F005          	movff	prodl,___wmul@product
  2949  00099A  CFF4 F006          	movff	prodh,___wmul@product+1
  2950  00099E  5001               	movf	___wmul@multiplier,w,c
  2951  0009A0  0204               	mulwf	___wmul@multiplicand+1,c
  2952  0009A2  50F3               	movf	prodl,w,c
  2953  0009A4  2606               	addwf	___wmul@product+1,f,c
  2954  0009A6  5002               	movf	___wmul@multiplier+1,w,c
  2955  0009A8  0203               	mulwf	___wmul@multiplicand,c
  2956  0009AA  50F3               	movf	prodl,w,c
  2957  0009AC  2606               	addwf	___wmul@product+1,f,c
  2958  0009AE  C005  F001         	movff	___wmul@product,?___wmul
  2959  0009B2  C006  F002         	movff	___wmul@product+1,?___wmul+1
  2960  0009B6  0012               	return	
  2961  0009B8                     __end_of___wmul:
  2962                           	opt stack 0
  2963  0000                     pclatu	equ	0xFFB
  2964                           pclath	equ	0xFFA
  2965                           tblptru	equ	0xFF8
  2966                           tblptrh	equ	0xFF7
  2967                           tblptrl	equ	0xFF6
  2968                           tablat	equ	0xFF5
  2969                           prodh	equ	0xFF4
  2970                           prodl	equ	0xFF3
  2971                           intcon	equ	0xFF2
  2972                           postinc0	equ	0xFEE
  2973                           fsr0h	equ	0xFEA
  2974                           fsr0l	equ	0xFE9
  2975                           wreg	equ	0xFE8
  2976                           indf1	equ	0xFE7
  2977                           postdec1	equ	0xFE5
  2978                           fsr1h	equ	0xFE2
  2979                           fsr1l	equ	0xFE1
  2980                           indf2	equ	0xFDF
  2981                           postinc2	equ	0xFDE
  2982                           postdec2	equ	0xFDD
  2983                           plusw2	equ	0xFDB
  2984                           fsr2h	equ	0xFDA
  2985                           fsr2l	equ	0xFD9
  2986                           status	equ	0xFD8
  2987                           pclatu	equ	0xFFB
  2988                           pclath	equ	0xFFA
  2989                           tblptru	equ	0xFF8
  2990                           tblptrh	equ	0xFF7
  2991                           tblptrl	equ	0xFF6
  2992                           tablat	equ	0xFF5
  2993                           prodh	equ	0xFF4
  2994                           prodl	equ	0xFF3
  2995                           intcon	equ	0xFF2
  2996                           postinc0	equ	0xFEE
  2997                           fsr0h	equ	0xFEA
  2998                           fsr0l	equ	0xFE9
  2999                           wreg	equ	0xFE8
  3000                           indf1	equ	0xFE7
  3001                           postdec1	equ	0xFE5
  3002                           fsr1h	equ	0xFE2
  3003                           fsr1l	equ	0xFE1
  3004                           indf2	equ	0xFDF
  3005                           postinc2	equ	0xFDE
  3006                           postdec2	equ	0xFDD
  3007                           plusw2	equ	0xFDB
  3008                           fsr2h	equ	0xFDA
  3009                           fsr2l	equ	0xFD9
  3010                           status	equ	0xFD8
  3011                           
  3012                           	psect	rparam
  3013  0000                     pclatu	equ	0xFFB
  3014                           pclath	equ	0xFFA
  3015                           tblptru	equ	0xFF8
  3016                           tblptrh	equ	0xFF7
  3017                           tblptrl	equ	0xFF6
  3018                           tablat	equ	0xFF5
  3019                           prodh	equ	0xFF4
  3020                           prodl	equ	0xFF3
  3021                           intcon	equ	0xFF2
  3022                           postinc0	equ	0xFEE
  3023                           fsr0h	equ	0xFEA
  3024                           fsr0l	equ	0xFE9
  3025                           wreg	equ	0xFE8
  3026                           indf1	equ	0xFE7
  3027                           postdec1	equ	0xFE5
  3028                           fsr1h	equ	0xFE2
  3029                           fsr1l	equ	0xFE1
  3030                           indf2	equ	0xFDF
  3031                           postinc2	equ	0xFDE
  3032                           postdec2	equ	0xFDD
  3033                           plusw2	equ	0xFDB
  3034                           fsr2h	equ	0xFDA
  3035                           fsr2l	equ	0xFD9
  3036                           status	equ	0xFD8
  3037                           
  3038                           	psect	temp
  3039  000042                     btemp:
  3040                           	opt stack 0
  3041  000042                     	ds	1
  3042  0000                     int$flags	set	btemp
  3043                           pclatu	equ	0xFFB
  3044                           pclath	equ	0xFFA
  3045                           tblptru	equ	0xFF8
  3046                           tblptrh	equ	0xFF7
  3047                           tblptrl	equ	0xFF6
  3048                           tablat	equ	0xFF5
  3049                           prodh	equ	0xFF4
  3050                           prodl	equ	0xFF3
  3051                           intcon	equ	0xFF2
  3052                           postinc0	equ	0xFEE
  3053                           fsr0h	equ	0xFEA
  3054                           fsr0l	equ	0xFE9
  3055                           wreg	equ	0xFE8
  3056                           indf1	equ	0xFE7
  3057                           postdec1	equ	0xFE5
  3058                           fsr1h	equ	0xFE2
  3059                           fsr1l	equ	0xFE1
  3060                           indf2	equ	0xFDF
  3061                           postinc2	equ	0xFDE
  3062                           postdec2	equ	0xFDD
  3063                           plusw2	equ	0xFDB
  3064                           fsr2h	equ	0xFDA
  3065                           fsr2l	equ	0xFD9
  3066                           status	equ	0xFD8


Data Sizes:
    Strings     0
    Constant    0
    Data        5
    BSS         12
    Persistent  0
    Stack       0

Auto Spaces:
    Space          Size  Autos    Used
    COMRAM           94     48      65
    BANK0           160     38      38
    BANK1           256      0       0
    BANK2           256      0       0
    BANK3           256      0       0
    BANK4           256      0       0
    BANK5           256      0       0
    BANK6           256      0       0
    BANK7           256      0       0
    BANK8           256      0       0
    BANK9           256      0       0
    BANK10          256      0       0
    BANK11          256      0       0
    BANK12          256      0       0
    BANK13          256      0       0
    BANK14           65      0       0

Pointer List with Targets:

    CANSendMessage@Data	PTR unsigned char  size(2) Largest target is 8
		 -> sendCANBatt@MessageData(COMRAM[2]), sendCANMain@MessageData(COMRAM[8]), 

    CANSendMessage@ptr	PTR unsigned char  size(2) Largest target is 1
		 -> RXB0D0(SFR_2[1]), 

    CANSetFilter@ptr	PTR unsigned char  size(2) Largest target is 1
		 -> RXF5SIDH(SFR[1]), RXF4SIDH(SFR[1]), RXF3SIDH(SFR[1]), RXF2SIDH(SFR[1]), 
		 -> RXF1SIDH(SFR[1]), RXF0SIDH(SFR[1]), 

    CANSetMask@ptr	PTR unsigned char  size(2) Largest target is 1
		 -> RXM1SIDH(SFR[1]), RXM0SIDH(SFR[1]), 

    CANIDToRegs@ptr	PTR unsigned char  size(2) Largest target is 1
		 -> RXB0SIDH(SFR_2[1]), RXF5SIDH(SFR[1]), RXF4SIDH(SFR[1]), RXF3SIDH(SFR[1]), 
		 -> RXF2SIDH(SFR[1]), RXF1SIDH(SFR[1]), RXF0SIDH(SFR[1]), RXM1SIDH(SFR[1]), 
		 -> RXM0SIDH(SFR[1]), 

    CANIDToRegs@Value	PTR struct _CAN_MESSAGE_ID size(2) Largest target is 4
		 -> CANIDToRegs@val(BANK0[4]), 


Critical Paths under _main in COMRAM

    None.

Critical Paths under _ISR in COMRAM

    _ISR->_sendCANMain
    _sendCANMain->_CANSendMessage
    _CANSendMessage->i2_CANIDToRegs
    _getAnalog->___wmul

Critical Paths under _main in BANK0

    _main->_initCAN
    _initCAN->_CANInitialize
    _CANInitialize->_CANSetFilter
    _CANInitialize->_CANSetMask
    _CANSetMask->_CANIDToRegs
    _CANSetFilter->_CANIDToRegs

Critical Paths under _ISR in BANK0

    None.

Critical Paths under _main in BANK1

    None.

Critical Paths under _ISR in BANK1

    None.

Critical Paths under _main in BANK2

    None.

Critical Paths under _ISR in BANK2

    None.

Critical Paths under _main in BANK3

    None.

Critical Paths under _ISR in BANK3

    None.

Critical Paths under _main in BANK4

    None.

Critical Paths under _ISR in BANK4

    None.

Critical Paths under _main in BANK5

    None.

Critical Paths under _ISR in BANK5

    None.

Critical Paths under _main in BANK6

    None.

Critical Paths under _ISR in BANK6

    None.

Critical Paths under _main in BANK7

    None.

Critical Paths under _ISR in BANK7

    None.

Critical Paths under _main in BANK8

    None.

Critical Paths under _ISR in BANK8

    None.

Critical Paths under _main in BANK9

    None.

Critical Paths under _ISR in BANK9

    None.

Critical Paths under _main in BANK10

    None.

Critical Paths under _ISR in BANK10

    None.

Critical Paths under _main in BANK11

    None.

Critical Paths under _ISR in BANK11

    None.

Critical Paths under _main in BANK12

    None.

Critical Paths under _ISR in BANK12

    None.

Critical Paths under _main in BANK13

    None.

Critical Paths under _ISR in BANK13

    None.

Critical Paths under _main in BANK14

    None.

Critical Paths under _ISR in BANK14

    None.

Call Graph Tables:

 ---------------------------------------------------------------------------------
 (Depth) Function   	        Calls       Base Space   Used Autos Params    Refs
 ---------------------------------------------------------------------------------
 (0) _main                                                 5     0      5    4626
                                             33 BANK0      5     0      5
                         _initAnalog
                            _initCAN
                         _initConfig
                         _initTimers
 ---------------------------------------------------------------------------------
 (1) _initTimers                                           0     0      0       0
 ---------------------------------------------------------------------------------
 (1) _initConfig                                           0     0      0       0
 ---------------------------------------------------------------------------------
 (1) _initCAN                                              2     2      0    4626
                                             31 BANK0      2     2      0
                      _CANInitialize
 ---------------------------------------------------------------------------------
 (2) _CANInitialize                                       12     7      5    4603
                                             19 BANK0     12     7      5
                     _CANSetBaudRate
                       _CANSetFilter
                         _CANSetMask
                _CANSetOperationMode
 ---------------------------------------------------------------------------------
 (3) _CANSetOperationMode                                  1     1      0      44
                                              0 BANK0      1     1      0
 ---------------------------------------------------------------------------------
 (3) _CANSetMask                                           8     3      5    1443
                                             11 BANK0      8     3      5
                        _CANIDToRegs
 ---------------------------------------------------------------------------------
 (3) _CANSetFilter                                         8     3      5    1959
                                             11 BANK0      8     3      5
                        _CANIDToRegs
 ---------------------------------------------------------------------------------
 (4) _CANIDToRegs                                         11     4      7    1097
                                              0 BANK0     11     4      7
 ---------------------------------------------------------------------------------
 (3) _CANSetBaudRate                                       6     1      5     501
                                              0 BANK0      6     1      5
 ---------------------------------------------------------------------------------
 (1) _initAnalog                                           0     0      0       0
 ---------------------------------------------------------------------------------
 Estimated maximum stack depth 4
 ---------------------------------------------------------------------------------
 (Depth) Function   	        Calls       Base Space   Used Autos Params    Refs
 ---------------------------------------------------------------------------------
 (5) _ISR                                                 14    14      0    2368
                                             34 COMRAM    14    14      0
                          _getAnalog
                        _sendCANMain
 ---------------------------------------------------------------------------------
 (6) _sendCANMain                                         12    12      0    1607
                                             22 COMRAM    12    12      0
                     _CANSendMessage
 ---------------------------------------------------------------------------------
 (7) _CANSendMessage                                      11     3      8    1402
                                             11 COMRAM    11     3      8
                      i2_CANIDToRegs
 ---------------------------------------------------------------------------------
 (8) i2_CANIDToRegs                                       11     4      7     623
                                              0 COMRAM    11     4      7
 ---------------------------------------------------------------------------------
 (6) _getAnalog                                            5     5      0     761
                                              6 COMRAM     5     5      0
                             ___wmul
 ---------------------------------------------------------------------------------
 (7) ___wmul                                               6     2      4     671
                                              0 COMRAM     6     2      4
 ---------------------------------------------------------------------------------
 Estimated maximum stack depth 8
 ---------------------------------------------------------------------------------

 Call Graph Graphs:

 _main (ROOT)
   _initAnalog
   _initCAN
     _CANInitialize
       _CANSetBaudRate
       _CANSetFilter
         _CANIDToRegs
       _CANSetMask
         _CANIDToRegs
       _CANSetOperationMode
   _initConfig
   _initTimers

 _ISR (ROOT)
   _getAnalog
     ___wmul
   _sendCANMain
     _CANSendMessage
       i2_CANIDToRegs

 Address spaces:
Name               Size   Autos  Total    Cost      Usage
BIGRAM             E40      0       0      35        0.0%
EEDATA             400      0       0       0        0.0%
BITBANK13          100      0       0      31        0.0%
BANK13             100      0       0      32        0.0%
BITBANK12          100      0       0      29        0.0%
BANK12             100      0       0      30        0.0%
BITBANK11          100      0       0      27        0.0%
BANK11             100      0       0      28        0.0%
BITBANK10          100      0       0      25        0.0%
BANK10             100      0       0      26        0.0%
BITBANK9           100      0       0      23        0.0%
BANK9              100      0       0      24        0.0%
BITBANK8           100      0       0      21        0.0%
BANK8              100      0       0      22        0.0%
BITBANK7           100      0       0      19        0.0%
BANK7              100      0       0      20        0.0%
BITBANK6           100      0       0      17        0.0%
BANK6              100      0       0      18        0.0%
BITBANK5           100      0       0      15        0.0%
BANK5              100      0       0      16        0.0%
BITBANK4           100      0       0      13        0.0%
BANK4              100      0       0      14        0.0%
BITBANK3           100      0       0      11        0.0%
BANK3              100      0       0      12        0.0%
BITBANK2           100      0       0       9        0.0%
BANK2              100      0       0      10        0.0%
BITBANK1           100      0       0       7        0.0%
BANK1              100      0       0       8        0.0%
BITBANK0            A0      0       0       4        0.0%
BANK0               A0     26      26       5       23.8%
BITCOMRAM           5E      0       0       0        0.0%
COMRAM              5E     30      41       1       69.1%
BITBANK14           41      0       0      33        0.0%
BANK14              41      0       0      34        0.0%
BITSFR_2             0      0       0      40        0.0%
SFR_2                0      0       0      40        0.0%
BITSFR_1             0      0       0      40        0.0%
SFR_1                0      0       0      40        0.0%
BITSFR               0      0       0      40        0.0%
SFR                  0      0       0      40        0.0%
STACK                0      0       0       2        0.0%
NULL                 0      0       0       0        0.0%
ABS                  0      0      67       6        0.0%
DATA                 0      0      67       3        0.0%
CODE                 0      0       0       0        0.0%


Microchip Technology PIC18 Macro Assembler V1.35 build -356382666 
Symbol Table                                                                                   Wed Feb 03 15:19:04 2016

        __end_of_CANSetFilter 0848        sendCANMain@MessageData 0019        __end_of_CANSetBaudRate 08AC  
                          l92 09E8           ___wmul@multiplicand 0003                           l171 02D8  
                         l172 02E2                           l182 0892                           l183 089C  
                         _ISR 0008                           u455 00F4                           u465 0128  
                         u475 015E            i2CANIDToRegs@Value 000A                           wreg 000FE8  
        __size_of_CANIDToRegs 01B6        __end_of_CANSendMessage 07DA                          ?_ISR 0001  
                        l1300 07F4                          l1304 0802                          l1242 0144  
                        l1306 0826                          l1260 09F2                          l1350 02EE  
                        l1352 0332                          l1344 02D0                          l1290 07E0  
                        l1346 02E6                          l1292 07E4                          l1284 08BE  
                        l1294 07E8                          l1296 07EC                          l1298 07F0  
                        i2l70 06E0                          i2l85 0578                          i2l98 005E  
         __size_of_CANSetMask 0040                          _main 09D4                          fsr0h 000FEA  
                        fsr1h 000FE2                          fsr0l 000FE9                          fsr2h 000FDA  
                        indf1 000FE7                          fsr1l 000FE1                          indf2 000FDF  
                        fsr2l 000FD9                          btemp 0042                          pclat 000FFA  
                        prodh 000FF4                          prodl 000FF3                          start 009A  
      __size_ofi2_CANIDToRegs 015E                  ___param_bank 000010                         ??_ISR 0023  
             ?_CANSetBaudRate 0060                         ?_main 0081                         _T0CON 000FD5  
                       i2l214 0726                         i2l216 0736                         _TMR0H 000FD7  
                       _TMR0L 000FD6                         _PORTA 000F80                         _PORTB 000F81  
                       _TRISC 000F94               ?_CANSendMessage 000C               __end_of_initCAN 0960  
                ?_sendCANMain 0001                         tablat 000FF5           CANSetBaudRate@flags 0064  
                       plusw2 000FDB                         status 000FD8               __initialization 08EC  
                __end_of_main 09EA                        ??_main 0086                 __activetblptr 000002  
               i2_CANIDToRegs 03E2           CANInitialize@PHSEG1 0074           CANInitialize@PHSEG2 0075  
 __end_of_CANSetOperationMode 0A00                        _ADCON0 000FC2                        _CANCON 000F6F  
                      _ADRESH 000FC4                        _ADRESL 000FC3                        _CIOCON 000F70  
                      i2l1318 0462                        i2l1380 078E                        i2l1372 0742  
                      i2l1460 0660                        i2l1390 07A4                        i2l1480 0558  
                      i2l1472 06F2                        i2l1490 05C6                        i2l1394 07CA  
                      i2l1378 076E                        i2l1476 0548                        _RXB0D0 000F66  
       __size_of_CANSetFilter 006E                __CFG_PWRTEN$ON 000000                __CFG_XINST$OFF 000000  
         CANInitialize@config 0077          CANSetBaudRate@PHSEG1 0061          CANSetBaudRate@PHSEG2 0062  
                      ___wmul 0992                  ??_CANSetMask 0070                        clear_0 08F2  
                      _inputs 003D                     ??_initCAN 007F                ?i2_CANIDToRegs 0001  
                __pdataCOMRAM 003D                        tblptrh 000FF7                        tblptrl 000FF6  
                      tblptru 000FF8                  _CANSetFilter 07DA                 CANSetMask@val 006B  
               CANSetMask@ptr 0071                    __accesstop 0060       __end_of__initialization 0918  
          __end_of_CANSetMask 08EC                 ___rparam_used 000001              i2CANIDToRegs@val 0003  
            i2CANIDToRegs@ptr 0001                __pcstackCOMRAM 0001            __size_of_getAnalog 0108  
        __size_of_sendCANMain 00D0              ??_CANSetBaudRate 0065                       ?___wmul 0001  
                     _CANSTAT 000F6E               ??i2_CANIDToRegs 0008          CANInitialize@PROPSEG 0076  
                     _BRGCON1 000E43                       _BRGCON2 000E44                       _BRGCON3 000E45  
               ??_CANIDToRegs 0067              ??_CANSendMessage 0014        __size_of_CANInitialize 018E  
                     _RXB0DLC 000F65                       _RXB0CON 000F60                       _RXB1CON 000F30  
                     i2u54_45 0424                       i2u55_45 044C                       i2u56_45 0476  
                     i2u65_40 06E0             __end_of_getAnalog 0648                       __Hparam 0000  
                  _initAnalog 0960                       __Lparam 0000                    _initConfig 0A00  
                  _initTimers 09B8               __size_of___wmul 0026         CANSetBaudRate@PROPSEG 0063  
                     __pcinit 08EC                     _CAN_timer 003B                       __ramtop 0F00  
                     __ptext0 09D4                       __ptext1 09B8                       __ptext2 0A00  
                     __ptext3 0926                       __ptext4 0254                       __ptext5 09EA  
                     __ptext6 08AC                       __ptext7 07DA                       __ptext8 009E  
                     __ptext9 0848                CANIDToRegs@val 0062                     _T0CONbits 000FD5  
              CANIDToRegs@ptr 0060                       _initCAN 0926                  __size_of_ISR 0092  
                     _results 0031           __end_of_CANIDToRegs 0254          end_of_initialization 0918  
                  getAnalog@i 000A                 __Lmediumconst 0000                 _CANInitialize 0254  
                     postdec1 000FE5                       postdec2 000FDD                       postinc0 000FEE  
                     postinc2 000FDE                CANSetMask@code 0070                CANSetMask@type 006F  
            __CFG_FOSC$INTIO2 000000                     _TRISAbits 000F92                     _TRISBbits 000F93  
                sendCANMain@i 0021             i2CANIDToRegs@type 0007              CANInitialize@BRP 0073  
            CANInitialize@SJW 007C  __size_of_CANSetOperationMode 0016                ?_CANInitialize 0073  
           CANSetBaudRate@BRP 0060             CANSetBaudRate@SJW 0065                   ?_initAnalog 0001  
                 ?_initConfig 0001                   ?_initTimers 0001                __end_of___wmul 09B8  
               __pidataCOMRAM 0A12                   _CANIDToRegs 009E           start_initialization 08EC  
                 __end_of_ISR 009A        CANSendMessage@MsgFlags 0013    CANInitialize@FilterConfig1 007D  
  CANInitialize@FilterConfig2 007E                      ??___wmul 0005                   __pbssCOMRAM 0031  
               __pcstackBANK0 0060                   _BRGCON2bits 000E44                   _BRGCON3bits 000E45  
         __size_of_initAnalog 0032           __size_of_initConfig 0012                 ??_sendCANMain 0017  
         __size_of_initTimers 001C               ??_CANInitialize 0078                     _getAnalog 0540  
                   __pintcode 0008              CANIDToRegs@Value 0069         __end_ofi2_CANIDToRegs 0540  
                    ?_initCAN 0001                   _COMSTATbits 000F71                ___wmul@product 0005  
         __end_of_sendCANMain 0718                      _PIR5bits 000F77                    ?_getAnalog 0001  
                    _RXB0SIDH 000F61                      _RXF0SIDH 000EE0                      _RXF1SIDH 000EE4  
                    _RXF2SIDH 000EE8                      _RXF3SIDH 000EEC                      _RXF4SIDH 000EF0  
                    _RXF5SIDH 000EF4                      _RXM0SIDH 000EF8                      _RXM1SIDH 000EFC  
                  _ADCON0bits 000FC2                    _ADCON1bits 000FC1                    _ADCON2bits 000FC0  
     __size_of_CANSetBaudRate 0064             ___wmul@multiplier 0001           _CANSetOperationMode 09EA  
               ?_CANSetFilter 006B                     copy_data0 090C         CANSendMessage@DataLen 0012  
     __size_of_CANSendMessage 00C2       CANSetOperationMode@mode 0060          ?_CANSetOperationMode 0001  
                    __Hrparam 0000                  _RXB0SIDLbits 000F62                  ??_initAnalog 0060  
                ??_initConfig 0060                      __Lrparam 0000                  ??_initTimers 0060  
                  _CANSetMask 08AC                  ?_CANIDToRegs 0060              __size_of_initCAN 003A  
              ??_CANSetFilter 0070                      __ptext10 0960                      __ptext12 0648  
                    __ptext13 0718                      __ptext14 03E2                      __ptext15 0540  
                    __ptext16 0992            __end_of_initAnalog 0992            __end_of_initConfig 0A12  
                 _sendCANMain 0648               CANIDToRegs@type 0066            CANSendMessage@Data 0010  
          __end_of_initTimers 09D4         ??_CANSetOperationMode 0060                 __size_of_main 0016  
                 ??_getAnalog 0007                      int$flags 0042                      main@argc 0081  
                    main@argv 0083                   _RXB0DLCbits 000F65                   _RXB0CONbits 000F60  
                 _RXB1CONbits 000F30                   _OSCTUNEbits 000F9B                    _INTCONbits 000FF2  
                    intlevel2 0000              CANSetFilter@code 0070              CANSetFilter@type 006F  
                 _TXB0CONbits 000F20                   _TXB1CONbits 000F10             CANSendMessage@ptr 0014  
                 _TXB2CONbits 000F00                    _OSCCONbits 000FD3                   ?_CANSetMask 006B  
              _CANSetBaudRate 0848               CANSetFilter@val 006B               CANSetFilter@ptr 0071  
            CANSendMessage@id 000C                _CANSendMessage 0718               CANSendMessage@i 0016  
            initCAN@init_flag 007F         __end_of_CANInitialize 03E2  
