

Microchip Technology PIC18 LITE Macro Assembler V1.30 build 55553 
                                                                                               Fri Jan 23 17:20:32 2015

Microchip Technology Omniscient Code Generator (Lite mode) build 55553
     1                           	processor	18F2585
     2                           	fnconf	rparam,??,?,0
     3                           	opt	pw 120
     4                           	opt	lm
     5                           	psect	idataBANK0,global,class=CODE,delta=1
     6                           	psect	nvCOMRAM,global,class=COMRAM,space=1,delta=1
     7                           	psect	nvBANK0,global,class=BANK0,space=1,delta=1
     8                           	psect	cinit,global,reloc=2,class=CODE,delta=1
     9                           	psect	bssCOMRAM,global,class=COMRAM,space=1,delta=1
    10                           	psect	bssBANK0,global,class=BANK0,space=1,delta=1
    11                           	psect	dataBANK0,global,class=BANK0,space=1,delta=1
    12                           	psect	cstackBANK0,global,class=BANK0,space=1,delta=1
    13                           	psect	cstackCOMRAM,global,class=COMRAM,space=1,delta=1
    14                           	psect	text0,global,reloc=2,class=CODE,delta=1
    15                           	psect	text1,global,reloc=2,class=CODE,delta=1
    16                           	psect	text2,global,reloc=2,class=CODE,delta=1
    17                           	psect	text3,global,reloc=2,class=CODE,delta=1
    18                           	psect	text4,global,reloc=2,class=CODE,delta=1
    19                           	psect	text5,global,reloc=2,class=CODE,delta=1
    20                           	psect	text6,global,reloc=2,class=CODE,delta=1
    21                           	psect	text7,global,reloc=2,class=CODE,delta=1
    22                           	psect	text8,global,reloc=2,class=CODE,delta=1
    23                           	psect	text9,global,reloc=2,class=CODE,delta=1
    24                           	psect	text10,global,reloc=2,class=CODE,delta=1
    25                           	psect	text11,global,reloc=2,class=CODE,delta=1
    26                           	psect	text12,global,reloc=2,class=CODE,delta=1
    27                           	psect	text13,global,reloc=2,class=CODE,delta=1
    28                           	psect	text14,global,reloc=2,class=CODE,delta=1
    29                           	psect	text15,global,reloc=2,class=CODE,delta=1
    30                           	psect	text16,global,reloc=2,class=CODE,delta=1
    31                           	psect	text17,global,reloc=2,class=CODE,delta=1
    32                           	psect	text18,global,reloc=2,class=CODE,delta=1
    33                           	psect	text19,global,reloc=2,class=CODE,delta=1
    34                           	psect	text20,global,reloc=2,class=CODE,delta=1
    35                           	psect	text21,global,reloc=2,class=CODE,delta=1
    36                           	psect	text22,global,reloc=2,class=CODE,delta=1
    37                           	psect	text23,global,reloc=2,class=CODE,delta=1
    38                           	psect	text24,global,reloc=2,class=CODE,delta=1
    39                           	psect	text25,global,reloc=2,class=CODE,delta=1
    40                           	psect	text26,global,reloc=2,class=CODE,delta=1
    41                           	psect	text27,global,reloc=2,class=CODE,delta=1
    42                           	psect	text28,global,reloc=2,class=CODE,delta=1
    43                           	psect	text29,global,reloc=2,class=CODE,delta=1
    44                           	psect	text30,global,reloc=2,class=CODE,delta=1
    45                           	psect	text31,global,reloc=2,class=CODE,delta=1
    46                           	psect	text32,global,reloc=2,class=CODE,delta=1
    47                           	psect	text33,global,reloc=2,class=CODE,delta=1
    48                           	psect	text34,global,reloc=2,class=CODE,delta=1
    49                           	psect	intcode,global,reloc=2,class=CODE,delta=1
    50                           	psect	intcode_body,global,reloc=2,class=CODE,delta=1
    51                           	psect	intsave_regs,global,class=BIGRAM,space=1,delta=1
    52                           	psect	rparam,global,class=COMRAM,space=1,delta=1
    53  0000                     
    54                           	psect	idataBANK0
    55  0015CC                     __pidataBANK0:
    56                           	opt stack 0
    57                           
    58                           ;initializer for _SGID
    59  0015CC  0004               	dw	4
    60  0015CE  0005               	dw	5
    61  0015D0  0006               	dw	6
    62                           
    63                           ;initializer for _tireID
    64  0015D2  000D               	dw	13
    65  0015D4  0001               	dw	1
    66  0015D6  0002               	dw	2
    67                           
    68                           ;initializer for _inputs
    69  0015D8  00                 	db	0
    70  0015D9  01                 	db	1
    71  0015DA  03                 	db	3
    72  0000                     _ADCON0	set	4034
    73  0000                     _ADCON0bits	set	4034
    74  0000                     _ADCON1bits	set	4033
    75  0000                     _ADCON2bits	set	4032
    76  0000                     _ADRESH	set	4036
    77  0000                     _ADRESL	set	4035
    78  0000                     _BRGCON1	set	3952
    79  0000                     _BRGCON2	set	3953
    80  0000                     _BRGCON2bits	set	3953
    81  0000                     _BRGCON3	set	3954
    82  0000                     _BRGCON3bits	set	3954
    83  0000                     _CANCON	set	3951
    84  0000                     _CANSTAT	set	3950
    85  0000                     _CIOCON	set	3955
    86  0000                     _COMSTATbits	set	3956
    87  0000                     _INTCON	set	4082
    88  0000                     _INTCONbits	set	4082
    89  0000                     _LATCbits	set	3979
    90  0000                     _PIR3bits	set	4004
    91  0000                     _PORTA	set	3968
    92  0000                     _PORTCbits	set	3970
    93  0000                     _RXB0CON	set	3936
    94  0000                     _RXB0CONbits	set	3936
    95  0000                     _RXB0DLC	set	3941
    96  0000                     _RXB0DLCbits	set	3941
    97  0000                     _RXB0SIDLbits	set	3938
    98  0000                     _RXB1CON	set	3920
    99  0000                     _RXB1CONbits	set	3920
   100  0000                     _SSPADD	set	4040
   101  0000                     _SSPCON1	set	4038
   102  0000                     _SSPCON2	set	4037
   103  0000                     _SSPSTAT	set	4039
   104  0000                     _T0CONbits	set	4053
   105  0000                     _TMR0L	set	4054
   106  0000                     _TRISAbits	set	3986
   107  0000                     _TRISBbits	set	3987
   108  0000                     _TRISC	set	3988
   109  0000                     _TRISCbits	set	3988
   110  0000                     _TXB0CONbits	set	3904
   111  0000                     _TXB1CONbits	set	3888
   112  0000                     _TXB2CONbits	set	3872
   113  0000                     _RXB0D0	set	3942
   114  0000                     _RXB0SIDH	set	3937
   115  0000                     _RXF0SIDH	set	3840
   116  0000                     _RXF1SIDH	set	3844
   117  0000                     _RXF2SIDH	set	3848
   118  0000                     _RXF3SIDH	set	3852
   119  0000                     _RXF4SIDH	set	3856
   120  0000                     _RXF5SIDH	set	3860
   121  0000                     _RXM0SIDH	set	3864
   122  0000                     _RXM1SIDH	set	3868
   123                           
   124                           	psect	nvCOMRAM
   125  00004D                     __pnvCOMRAM:
   126                           	opt stack 0
   127  00004D                     ___DCByte:
   128                           	opt stack 0
   129  00004D                     	ds	1
   130                           
   131                           	psect	nvBANK0
   132  0000B6                     __pnvBANK0:
   133                           	opt stack 0
   134  0000B6                     ___DCDelay:
   135                           	opt stack 0
   136  0000B6                     	ds	1
   137                           
   138                           ; #config settings
   139  0000                     
   140                           	psect	cinit
   141  0012EA                     __pcinit:
   142                           	opt stack 0
   143  0012EA                     start_initialization:
   144                           	opt stack 0
   145  0012EA                     __initialization:
   146                           	opt stack 0
   147                           
   148                           ; Clear objects allocated to BANK0 (52 bytes)
   149  0012EA  EE00  F060         	lfsr	0,__pbssBANK0
   150  0012EE  0E34               	movlw	52
   151  0012F0                     clear_0:
   152  0012F0  6AEE               	clrf	postinc0,c
   153  0012F2  06E8               	decf	wreg,f,c
   154  0012F4  E1FD               	bnz	clear_0
   155                           
   156                           ; Clear objects allocated to COMRAM (19 bytes)
   157  0012F6  EE00  F03A         	lfsr	0,__pbssCOMRAM
   158  0012FA  0E13               	movlw	19
   159  0012FC                     clear_1:
   160  0012FC  6AEE               	clrf	postinc0,c
   161  0012FE  06E8               	decf	wreg,f,c
   162  001300  E1FD               	bnz	clear_1
   163                           
   164                           ; Initialize objects allocated to BANK0 (15 bytes)
   165                           ; load TBLPTR registers with __pidataBANK0
   166  001302  0ECC               	movlw	low __pidataBANK0
   167  001304  6EF6               	movwf	tblptrl,c
   168  001306  0E15               	movlw	high __pidataBANK0
   169  001308  6EF7               	movwf	tblptrh,c
   170  00130A  0E00               	movlw	low (__pidataBANK0 shr (0+16))
   171  00130C  6EF8               	movwf	tblptru,c
   172  00130E  EE00  F0A7         	lfsr	0,__pdataBANK0
   173  001312  EE10 F00F          	lfsr	1,15
   174  001316                     copy_data0:
   175  001316  0009               	tblrd		*+
   176  001318  CFF5 FFEE          	movff	tablat,postinc0
   177  00131C  50E5               	movf	postdec1,w,c
   178  00131E  50E1               	movf	fsr1l,w,c
   179  001320  E1FA               	bnz	copy_data0
   180  001322                     end_of_initialization:
   181                           	opt stack 0
   182  001322                     __end_of__initialization:
   183                           	opt stack 0
   184  001322  0E00               	movlw	low (__Lmediumconst shr (0+16))
   185  001324  6EF8               	movwf	tblptru,c
   186  001326  0100               	movlb	0
   187  001328  EF5B  F00A         	goto	_main	;jump to C main() function
   188                           tblptru	equ	0xFF8
   189                           tblptrh	equ	0xFF7
   190                           tblptrl	equ	0xFF6
   191                           tablat	equ	0xFF5
   192                           postinc0	equ	0xFEE
   193                           wreg	equ	0xFE8
   194                           postdec1	equ	0xFE5
   195                           fsr1l	equ	0xFE1
   196                           
   197                           	psect	bssCOMRAM
   198  00003A                     __pbssCOMRAM:
   199                           	opt stack 0
   200  00003A                     __IT_DATA:
   201                           	opt stack 0
   202  00003A                     	ds	1
   203  00003B                     __IT_ID:
   204                           	opt stack 0
   205  00003B                     	ds	1
   206  00003C                     __IT_INT_MASK:
   207                           	opt stack 0
   208  00003C                     	ds	1
   209  00003D                     __IT_SAVE_BSR:
   210                           	opt stack 0
   211  00003D                     	ds	1
   212  00003E                     __IT_SAVE_STATUS:
   213                           	opt stack 0
   214  00003E                     	ds	1
   215  00003F                     __IT_SAVE_WREG:
   216                           	opt stack 0
   217  00003F                     	ds	1
   218  000040                     _accel_x_lower:
   219                           	opt stack 0
   220  000040                     	ds	1
   221  000041                     _accel_x_upper:
   222                           	opt stack 0
   223  000041                     	ds	1
   224  000042                     _accel_y_lower:
   225                           	opt stack 0
   226  000042                     	ds	1
   227  000043                     _accel_y_upper:
   228                           	opt stack 0
   229  000043                     	ds	1
   230  000044                     _accel_z_lower:
   231                           	opt stack 0
   232  000044                     	ds	1
   233  000045                     _accel_z_upper:
   234                           	opt stack 0
   235  000045                     	ds	1
   236  000046                     _data_ready:
   237                           	opt stack 0
   238  000046                     	ds	1
   239  000047                     _gyro_x_lower:
   240                           	opt stack 0
   241  000047                     	ds	1
   242  000048                     _gyro_x_upper:
   243                           	opt stack 0
   244  000048                     	ds	1
   245  000049                     _gyro_y_lower:
   246                           	opt stack 0
   247  000049                     	ds	1
   248  00004A                     _gyro_y_upper:
   249                           	opt stack 0
   250  00004A                     	ds	1
   251  00004B                     _gyro_z_lower:
   252                           	opt stack 0
   253  00004B                     	ds	1
   254  00004C                     _gyro_z_upper:
   255                           	opt stack 0
   256  00004C                     	ds	1
   257                           tblptru	equ	0xFF8
   258                           tblptrh	equ	0xFF7
   259                           tblptrl	equ	0xFF6
   260                           tablat	equ	0xFF5
   261                           postinc0	equ	0xFEE
   262                           wreg	equ	0xFE8
   263                           postdec1	equ	0xFE5
   264                           fsr1l	equ	0xFE1
   265                           
   266                           	psect	bssBANK0
   267  000060                     __pbssBANK0:
   268                           	opt stack 0
   269  000060                     _timers:
   270                           	opt stack 0
   271  000060                     	ds	8
   272  000068                     _accel_x:
   273                           	opt stack 0
   274  000068                     	ds	3
   275  00006B                     _accel_y:
   276                           	opt stack 0
   277  00006B                     	ds	3
   278  00006E                     _accel_z:
   279                           	opt stack 0
   280  00006E                     	ds	3
   281  000071                     _gyro_x:
   282                           	opt stack 0
   283  000071                     	ds	3
   284  000074                     _gyro_y:
   285                           	opt stack 0
   286  000074                     	ds	3
   287  000077                     _gyro_z:
   288                           	opt stack 0
   289  000077                     	ds	3
   290  00007A                     _x_angle:
   291                           	opt stack 0
   292  00007A                     	ds	3
   293  00007D                     _y_angle:
   294                           	opt stack 0
   295  00007D                     	ds	3
   296  000080                     _accel_x_raw:
   297                           	opt stack 0
   298  000080                     	ds	2
   299  000082                     _accel_y_raw:
   300                           	opt stack 0
   301  000082                     	ds	2
   302  000084                     _accel_z_raw:
   303                           	opt stack 0
   304  000084                     	ds	2
   305  000086                     _errno:
   306                           	opt stack 0
   307  000086                     	ds	2
   308  000088                     _gyro_x_offset:
   309                           	opt stack 0
   310  000088                     	ds	2
   311  00008A                     _gyro_x_raw:
   312                           	opt stack 0
   313  00008A                     	ds	2
   314  00008C                     _gyro_y_offset:
   315                           	opt stack 0
   316  00008C                     	ds	2
   317  00008E                     _gyro_y_raw:
   318                           	opt stack 0
   319  00008E                     	ds	2
   320  000090                     _gyro_z_offset:
   321                           	opt stack 0
   322  000090                     	ds	2
   323  000092                     _gyro_z_raw:
   324                           	opt stack 0
   325  000092                     	ds	2
   326                           tblptru	equ	0xFF8
   327                           tblptrh	equ	0xFF7
   328                           tblptrl	equ	0xFF6
   329                           tablat	equ	0xFF5
   330                           postinc0	equ	0xFEE
   331                           wreg	equ	0xFE8
   332                           postdec1	equ	0xFE5
   333                           fsr1l	equ	0xFE1
   334                           
   335                           	psect	dataBANK0
   336  0000A7                     __pdataBANK0:
   337                           	opt stack 0
   338  0000A7                     _SGID:
   339                           	opt stack 0
   340  0000A7                     	ds	6
   341  0000AD                     _tireID:
   342                           	opt stack 0
   343  0000AD                     	ds	6
   344  0000B3                     _inputs:
   345                           	opt stack 0
   346  0000B3                     	ds	3
   347                           tblptru	equ	0xFF8
   348                           tblptrh	equ	0xFF7
   349                           tblptrl	equ	0xFF6
   350                           tablat	equ	0xFF5
   351                           postinc0	equ	0xFEE
   352                           wreg	equ	0xFE8
   353                           postdec1	equ	0xFE5
   354                           fsr1l	equ	0xFE1
   355                           
   356                           	psect	cstackBANK0
   357  000094                     __pcstackBANK0:
   358                           	opt stack 0
   359  000094                     mpu_init@sleep:
   360                           	opt stack 0
   361  000094                     CANsendData@value:
   362                           	opt stack 0
   363                           
   364                           ; 2 bytes @ 0x0
   365  000094                     	ds	1
   366  000095                     mpu_init@AFS_SEL:
   367                           	opt stack 0
   368                           
   369                           ; 1 bytes @ 0x1
   370  000095                     	ds	1
   371  000096                     CANsendData@id:
   372                           	opt stack 0
   373  000096                     mpu_init@i:
   374                           	opt stack 0
   375                           
   376                           ; 2 bytes @ 0x2
   377  000096                     	ds	2
   378  000098                     ??_CANsendData:
   379  000098                     mpu_init@i_2235:
   380                           	opt stack 0
   381                           
   382                           ; 2 bytes @ 0x4
   383  000098                     	ds	2
   384  00009A                     initConfig@init_flag:
   385                           	opt stack 0
   386                           
   387                           ; 2 bytes @ 0x6
   388  00009A                     	ds	1
   389  00009B                     CANsendData@MessageData:
   390                           	opt stack 0
   391                           
   392                           ; 2 bytes @ 0x7
   393  00009B                     	ds	2
   394  00009D                     ??_getAccelGyro:
   395                           
   396                           ; 0 bytes @ 0x9
   397  00009D                     	ds	4
   398  0000A1                     getAccelGyro@data_ready:
   399                           	opt stack 0
   400                           
   401                           ; 1 bytes @ 0xD
   402  0000A1                     	ds	1
   403  0000A2                     
   404                           ; 2 bytes @ 0xE
   405  0000A2                     	ds	2
   406  0000A4                     
   407                           ; 3 bytes @ 0x10
   408  0000A4                     	ds	3
   409                           tblptru	equ	0xFF8
   410                           tblptrh	equ	0xFF7
   411                           tblptrl	equ	0xFF6
   412                           tablat	equ	0xFF5
   413                           postinc0	equ	0xFEE
   414                           wreg	equ	0xFE8
   415                           postdec1	equ	0xFE5
   416                           fsr1l	equ	0xFE1
   417                           
   418                           	psect	cstackCOMRAM
   419  000001                     __pcstackCOMRAM:
   420                           	opt stack 0
   421  000001                     ??_ISR:
   422  000001                     
   423                           ; 1 bytes @ 0x0
   424  000001                     	ds	16
   425  000011                     ISR@i:
   426                           	opt stack 0
   427                           
   428                           ; 2 bytes @ 0x10
   429  000011                     	ds	2
   430  000013                     ??_Receive_bit:
   431  000013                     ??_SendRequest:
   432  000013                     ?_combine:
   433                           	opt stack 0
   434  000013                     ?___ftpack:
   435                           	opt stack 0
   436  000013                     CANSetOperationMode@mode:
   437                           	opt stack 0
   438  000013                     CANSetBaudRate@BRP:
   439                           	opt stack 0
   440  000013                     send_bit@bit_out:
   441                           	opt stack 0
   442  000013                     combine@lower:
   443                           	opt stack 0
   444  000013                     OpenI2C@slew:
   445                           	opt stack 0
   446  000013                     CANIDToRegs@ptr:
   447                           	opt stack 0
   448  000013                     PEC_calculation@pec:
   449                           	opt stack 0
   450  000013                     ___ftpack@arg:
   451                           	opt stack 0
   452                           
   453                           ; 3 bytes @ 0x12
   454  000013                     	ds	1
   455  000014                     CANSetBaudRate@PHSEG1:
   456                           	opt stack 0
   457  000014                     Receive_bit@Ack_bit:
   458                           	opt stack 0
   459  000014                     OpenI2C@sync_mode:
   460                           	opt stack 0
   461                           
   462                           ; 1 bytes @ 0x13
   463  000014                     	ds	1
   464  000015                     ??_PEC_calculation:
   465  000015                     ??_TX_byte:
   466  000015                     ??_RX_byte:
   467  000015                     ??_combine:
   468  000015                     CANSetBaudRate@PHSEG2:
   469                           	opt stack 0
   470  000015                     CANIDToRegs@val:
   471                           	opt stack 0
   472                           
   473                           ; 4 bytes @ 0x14
   474  000015                     	ds	1
   475  000016                     CANSetBaudRate@PROPSEG:
   476                           	opt stack 0
   477  000016                     TX_byte@Tx_buffer:
   478                           	opt stack 0
   479  000016                     RX_byte@ack_nack:
   480                           	opt stack 0
   481  000016                     ___ftpack@exp:
   482                           	opt stack 0
   483                           
   484                           ; 1 bytes @ 0x15
   485  000016                     	ds	1
   486  000017                     CANSetBaudRate@flags:
   487                           	opt stack 0
   488  000017                     TX_byte@Ack_bit:
   489                           	opt stack 0
   490  000017                     RX_byte@Bit_Counter:
   491                           	opt stack 0
   492  000017                     combine@upper:
   493                           	opt stack 0
   494  000017                     ___ftpack@sign:
   495                           	opt stack 0
   496                           
   497                           ; 1 bytes @ 0x16
   498  000017                     	ds	1
   499  000018                     ??___ftpack:
   500  000018                     CANSetBaudRate@SJW:
   501                           	opt stack 0
   502  000018                     TX_byte@Bit_counter:
   503                           	opt stack 0
   504  000018                     RX_byte@RX_buffer:
   505                           	opt stack 0
   506  000018                     combine@result:
   507                           	opt stack 0
   508                           
   509                           ; 2 bytes @ 0x17
   510  000018                     	ds	1
   511  000019                     CANIDToRegs@type:
   512                           	opt stack 0
   513  000019                     TX_byte@bit_out:
   514                           	opt stack 0
   515                           
   516                           ; 1 bytes @ 0x18
   517  000019                     	ds	1
   518  00001A                     ??_CANIDToRegs:
   519  00001A                     DummyCommand@byte:
   520                           	opt stack 0
   521  00001A                     PEC_calculation@temp:
   522                           	opt stack 0
   523  00001A                     mpu_write@reg:
   524                           	opt stack 0
   525                           
   526                           ; 1 bytes @ 0x19
   527  00001A                     	ds	1
   528  00001B                     ?___ftmul:
   529                           	opt stack 0
   530  00001B                     ?___awtoft:
   531                           	opt stack 0
   532  00001B                     PEC_calculation@shift:
   533                           	opt stack 0
   534  00001B                     mpu_write@command:
   535                           	opt stack 0
   536  00001B                     ___awtoft@c:
   537                           	opt stack 0
   538  00001B                     ___ftmul@f1:
   539                           	opt stack 0
   540                           
   541                           ; 3 bytes @ 0x1A
   542  00001B                     	ds	1
   543  00001C                     CANIDToRegs@Value:
   544                           	opt stack 0
   545  00001C                     PEC_calculation@crc:
   546                           	opt stack 0
   547                           
   548                           ; 6 bytes @ 0x1B
   549  00001C                     	ds	1
   550  00001D                     ??_mpu_write:
   551                           
   552                           ; 0 bytes @ 0x1C
   553  00001D                     	ds	1
   554  00001E                     ??___awtoft:
   555  00001E                     mpu_write@ErrorCounter:
   556                           	opt stack 0
   557  00001E                     ___ftmul@f2:
   558                           	opt stack 0
   559  00001E                     CANSetMask@val:
   560                           	opt stack 0
   561  00001E                     CANSetFilter@val:
   562                           	opt stack 0
   563  00001E                     CANSendMessage@id:
   564                           	opt stack 0
   565                           
   566                           ; 4 bytes @ 0x1D
   567  00001E                     	ds	1
   568  00001F                     mpu_write@SlaveAddress:
   569                           	opt stack 0
   570  00001F                     ___awtoft@sign:
   571                           	opt stack 0
   572                           
   573                           ; 1 bytes @ 0x1E
   574  00001F                     	ds	1
   575  000020                     ?___ftdiv:
   576                           	opt stack 0
   577  000020                     ___ftdiv@f1:
   578                           	opt stack 0
   579                           
   580                           ; 3 bytes @ 0x1F
   581  000020                     	ds	1
   582  000021                     ??___ftmul:
   583                           
   584                           ; 0 bytes @ 0x20
   585  000021                     	ds	1
   586  000022                     CANSetMask@type:
   587                           	opt stack 0
   588  000022                     CANSetFilter@type:
   589                           	opt stack 0
   590  000022                     PEC_calculation@BitPosition:
   591                           	opt stack 0
   592  000022                     CANSendMessage@Data:
   593                           	opt stack 0
   594                           
   595                           ; 2 bytes @ 0x21
   596  000022                     	ds	1
   597  000023                     CANSetMask@code:
   598                           	opt stack 0
   599  000023                     CANSetFilter@code:
   600                           	opt stack 0
   601  000023                     PEC_calculation@j:
   602                           	opt stack 0
   603  000023                     ___ftdiv@f2:
   604                           	opt stack 0
   605                           
   606                           ; 3 bytes @ 0x22
   607  000023                     	ds	1
   608  000024                     CANSendMessage@DataLen:
   609                           	opt stack 0
   610  000024                     PEC_calculation@i:
   611                           	opt stack 0
   612  000024                     ___ftmul@exp:
   613                           	opt stack 0
   614  000024                     CANSetMask@ptr:
   615                           	opt stack 0
   616  000024                     CANSetFilter@ptr:
   617                           	opt stack 0
   618                           
   619                           ; 2 bytes @ 0x23
   620  000024                     	ds	1
   621  000025                     ?_mpu_read:
   622                           	opt stack 0
   623  000025                     CANSendMessage@MsgFlags:
   624                           	opt stack 0
   625  000025                     mpu_read@reg:
   626                           	opt stack 0
   627  000025                     ___ftmul@f3_as_product:
   628                           	opt stack 0
   629                           
   630                           ; 3 bytes @ 0x24
   631  000025                     	ds	1
   632  000026                     ??_CANSendMessage:
   633  000026                     ??___ftdiv:
   634  000026                     CANInitialize@BRP:
   635                           	opt stack 0
   636                           
   637                           ; 1 bytes @ 0x25
   638  000026                     	ds	1
   639  000027                     ??_mpu_read:
   640  000027                     CANInitialize@PHSEG1:
   641                           	opt stack 0
   642  000027                     CANSendMessage@ptr:
   643                           	opt stack 0
   644                           
   645                           ; 2 bytes @ 0x26
   646  000027                     	ds	1
   647  000028                     CANInitialize@PHSEG2:
   648                           	opt stack 0
   649  000028                     mpu_read@Pec:
   650                           	opt stack 0
   651  000028                     ___ftmul@cntr:
   652                           	opt stack 0
   653                           
   654                           ; 1 bytes @ 0x27
   655  000028                     	ds	1
   656  000029                     CANInitialize@PROPSEG:
   657                           	opt stack 0
   658  000029                     CANSendMessage@i:
   659                           	opt stack 0
   660  000029                     ___ftdiv@cntr:
   661                           	opt stack 0
   662  000029                     ___ftmul@sign:
   663                           	opt stack 0
   664  000029                     mpu_read@arr:
   665                           	opt stack 0
   666                           
   667                           ; 6 bytes @ 0x28
   668  000029                     	ds	1
   669  00002A                     ?___fttol:
   670                           	opt stack 0
   671  00002A                     CANInitialize@config:
   672                           	opt stack 0
   673  00002A                     ___ftdiv@f3:
   674                           	opt stack 0
   675  00002A                     ___fttol@f1:
   676                           	opt stack 0
   677                           
   678                           ; 3 bytes @ 0x29
   679  00002A                     	ds	1
   680  00002B                     ??_CANInitialize:
   681                           
   682                           ; 0 bytes @ 0x2A
   683  00002B                     	ds	2
   684  00002D                     ___ftdiv@exp:
   685                           	opt stack 0
   686                           
   687                           ; 1 bytes @ 0x2C
   688  00002D                     	ds	1
   689  00002E                     ??___fttol:
   690  00002E                     ___ftdiv@sign:
   691                           	opt stack 0
   692                           
   693                           ; 1 bytes @ 0x2D
   694  00002E                     	ds	1
   695  00002F                     CANInitialize@SJW:
   696                           	opt stack 0
   697  00002F                     mpu_read@ErrorCounter:
   698                           	opt stack 0
   699                           
   700                           ; 1 bytes @ 0x2E
   701  00002F                     	ds	1
   702  000030                     CANInitialize@FilterConfig1:
   703                           	opt stack 0
   704  000030                     mpu_read@DataH:
   705                           	opt stack 0
   706                           
   707                           ; 1 bytes @ 0x2F
   708  000030                     	ds	1
   709  000031                     CANInitialize@FilterConfig2:
   710                           	opt stack 0
   711  000031                     mpu_read@PecReg:
   712                           	opt stack 0
   713                           
   714                           ; 1 bytes @ 0x30
   715  000031                     	ds	1
   716  000032                     mpu_read@SlaveAddress:
   717                           	opt stack 0
   718                           
   719                           ; 1 bytes @ 0x31
   720  000032                     	ds	1
   721  000033                     ??_readRawGyroData:
   722  000033                     ??_readRawAccelData:
   723  000033                     ??_convertGyroData:
   724  000033                     ___fttol@sign1:
   725                           	opt stack 0
   726                           
   727                           ; 1 bytes @ 0x32
   728  000033                     	ds	1
   729  000034                     ??_mpu_init:
   730  000034                     ___fttol@lval:
   731                           	opt stack 0
   732                           
   733                           ; 4 bytes @ 0x33
   734  000034                     	ds	1
   735  000035                     ??_initConfig:
   736                           
   737                           ; 0 bytes @ 0x34
   738  000035                     	ds	1
   739  000036                     convertGyroData@FS_SEL:
   740                           	opt stack 0
   741                           
   742                           ; 1 bytes @ 0x35
   743  000036                     	ds	1
   744  000037                     convertGyroData@factor:
   745                           	opt stack 0
   746                           
   747                           ; 3 bytes @ 0x36
   748  000037                     	ds	1
   749  000038                     ___fttol@exp1:
   750                           	opt stack 0
   751                           
   752                           ; 1 bytes @ 0x37
   753  000038                     	ds	2
   754  00003A                     tblptru	equ	0xFF8
   755                           tblptrh	equ	0xFF7
   756                           tblptrl	equ	0xFF6
   757                           tablat	equ	0xFF5
   758                           postinc0	equ	0xFEE
   759                           wreg	equ	0xFE8
   760                           postdec1	equ	0xFE5
   761                           fsr1l	equ	0xFE1
   762                           
   763                           ; 0 bytes @ 0x39
   764 ;;
   765 ;;Main: autosize = 0, tempsize = 0, incstack = 0, save=0
   766 ;;
   767 ;; *************** function _main *****************
   768 ;; Defined at:
   769 ;;		line 217 in file "main.c"
   770 ;; Parameters:    Size  Location     Type
   771 ;;  argc            2   14[BANK0 ] int 
   772 ;;  argv            3   16[BANK0 ] PTR PTR unsigned char 
   773 ;; Auto vars:     Size  Location     Type
   774 ;;		None
   775 ;; Return value:  Size  Location     Type
   776 ;;                  2   14[BANK0 ] int 
   777 ;; Registers used:
   778 ;;		wreg, fsr0l, fsr0h, fsr1l, fsr1h, fsr1l, fsr1h, fsr2l, fsr2h, status,2, status,0, pclat, btemp, btemp+1, btemp+2, bt
      +emp+3, btemp+4, btemp+5, btemp+6, btemp+7, btemp+8, btemp+9, btemp+10, btemp+11, tosl, structret, tblptrl, tblptrh, tblp
      +tru, prodl, prodh, bsr, cstack
   779 ;; Tracked objects:
   780 ;;		On entry : 0/0
   781 ;;		On exit  : 0/0
   782 ;;		Unchanged: 0/0
   783 ;; Data sizes:     COMRAM   BANK0   BANK1   BANK2   BANK3   BANK4   BANK5   BANK6   BANK7   BANK8   BANK9  BANK10  BANK1
      +1  BANK12
   784 ;;      Params:         0       5       0       0       0       0       0       0       0       0       0       0       
      +0       0
   785 ;;      Locals:         0       0       0       0       0       0       0       0       0       0       0       0       
      +0       0
   786 ;;      Temps:          0       0       0       0       0       0       0       0       0       0       0       0       
      +0       0
   787 ;;      Totals:         0       5       0       0       0       0       0       0       0       0       0       0       
      +0       0
   788 ;;Total ram usage:        5 bytes
   789 ;; Hardware stack levels required when called:    7
   790 ;; This function calls:
   791 ;;		_getAccelGyro
   792 ;;		_initConfig
   793 ;;		_init_timers
   794 ;; This function is called by:
   795 ;;		Startup code after reset
   796 ;; This function uses a non-reentrant model
   797 ;;
   798                           
   799                           	psect	text0
   800  0014B6                     __ptext0:
   801                           	opt stack 0
   802  0014B6                     _main:
   803                           	opt stack 23
   804                           
   805                           ;main.c: 218: initConfig();
   806                           
   807                           ;incstack = 0
   808  0014B6  ECD2  F006         	call	_initConfig	;wreg free
   809                           
   810                           ;main.c: 219: init_timers();
   811  0014BA  ECBA  F00A         	call	_init_timers	;wreg free
   812  0014BE                     l5332:
   813                           
   814                           ;main.c: 234: if(timers[3] == 0) {
   815  0014BE  0100               	movlb	0	; () banked
   816  0014C0  0100               	movlb	0	; () banked
   817  0014C2  5167               	movf	(_timers+7)& (0+255),w,b
   818  0014C4  1166               	iorwf	(_timers+6)& (0+255),w,b
   819  0014C6  A4D8               	btfss	status,2,c
   820  0014C8  D7FA               	goto	l5332
   821                           
   822                           ; BSR set to: 0
   823                           ;main.c: 236: timers[3] = 5;
   824  0014CA  0E00               	movlw	0
   825  0014CC  0100               	movlb	0	; () banked
   826  0014CE  0100               	movlb	0	; () banked
   827  0014D0  6F67               	movwf	(_timers+7)& (0+255),b
   828  0014D2  0E05               	movlw	5
   829  0014D4  0100               	movlb	0	; () banked
   830  0014D6  6F66               	movwf	(_timers+6)& (0+255),b
   831                           
   832                           ; BSR set to: 0
   833                           ;main.c: 237: getAccelGyro();
   834  0014D8  EC0C  F000         	call	_getAccelGyro	;wreg free
   835  0014DC  D7F0               	goto	l5332
   836  0014DE                     __end_of_main:
   837                           	opt stack 0
   838                           tblptru	equ	0xFF8
   839                           tblptrh	equ	0xFF7
   840                           tblptrl	equ	0xFF6
   841                           tablat	equ	0xFF5
   842                           postinc0	equ	0xFEE
   843                           wreg	equ	0xFE8
   844                           postdec1	equ	0xFE5
   845                           fsr1l	equ	0xFE1
   846                           status	equ	0xFD8
   847                           
   848 ;; *************** function _init_timers *****************
   849 ;; Defined at:
   850 ;;		line 153 in file "main.c"
   851 ;; Parameters:    Size  Location     Type
   852 ;;		None
   853 ;; Auto vars:     Size  Location     Type
   854 ;;		None
   855 ;; Return value:  Size  Location     Type
   856 ;;		None               void
   857 ;; Registers used:
   858 ;;		wreg, status,2
   859 ;; Tracked objects:
   860 ;;		On entry : 0/0
   861 ;;		On exit  : 0/0
   862 ;;		Unchanged: 0/0
   863 ;; Data sizes:     COMRAM   BANK0   BANK1   BANK2   BANK3   BANK4   BANK5   BANK6   BANK7   BANK8   BANK9  BANK10  BANK1
      +1  BANK12
   864 ;;      Params:         0       0       0       0       0       0       0       0       0       0       0       0       
      +0       0
   865 ;;      Locals:         0       0       0       0       0       0       0       0       0       0       0       0       
      +0       0
   866 ;;      Temps:          0       0       0       0       0       0       0       0       0       0       0       0       
      +0       0
   867 ;;      Totals:         0       0       0       0       0       0       0       0       0       0       0       0       
      +0       0
   868 ;;Total ram usage:        0 bytes
   869 ;; Hardware stack levels used:    1
   870 ;; Hardware stack levels required when called:    1
   871 ;; This function calls:
   872 ;;		Nothing
   873 ;; This function is called by:
   874 ;;		_main
   875 ;; This function uses a non-reentrant model
   876 ;;
   877                           
   878                           	psect	text1
   879  001574                     __ptext1:
   880                           	opt stack 0
   881  001574                     _init_timers:
   882                           	opt stack 28
   883                           
   884                           ;main.c: 155: INTCONbits.TMR0IF = 0x0;
   885                           
   886                           ;incstack = 0
   887  001574  94F2               	bcf	intcon,2,c	;volatile
   888                           
   889                           ;main.c: 156: INTCONbits.TMR0IE = 1;
   890  001576  8AF2               	bsf	intcon,5,c	;volatile
   891                           
   892                           ;main.c: 158: T0CONbits.T08BIT = 1;
   893  001578  8CD5               	bsf	4053,6,c	;volatile
   894                           
   895                           ;main.c: 159: T0CONbits.T0CS = 0;
   896  00157A  9AD5               	bcf	4053,5,c	;volatile
   897                           
   898                           ;main.c: 160: T0CONbits.PSA = 0;
   899  00157C  96D5               	bcf	4053,3,c	;volatile
   900                           
   901                           ;main.c: 161: T0CONbits.T0PS2 = 0;
   902  00157E  94D5               	bcf	4053,2,c	;volatile
   903                           
   904                           ;main.c: 162: T0CONbits.T0PS1 = 1;
   905  001580  82D5               	bsf	4053,1,c	;volatile
   906                           
   907                           ;main.c: 163: T0CONbits.T0PS0 = 1;
   908  001582  80D5               	bsf	4053,0,c	;volatile
   909                           
   910                           ;main.c: 165: TMR0L = 0x05;
   911  001584  0E05               	movlw	5
   912  001586  6ED6               	movwf	4054,c	;volatile
   913                           
   914                           ;main.c: 166: T0CONbits.TMR0ON = 1;
   915  001588  8ED5               	bsf	4053,7,c	;volatile
   916                           
   917                           ;main.c: 167: INTCONbits.GIE=1;
   918  00158A  8EF2               	bsf	intcon,7,c	;volatile
   919  00158C  0012               	return	
   920  00158E                     __end_of_init_timers:
   921                           	opt stack 0
   922                           tblptru	equ	0xFF8
   923                           tblptrh	equ	0xFF7
   924                           tblptrl	equ	0xFF6
   925                           tablat	equ	0xFF5
   926                           intcon	equ	0xFF2
   927                           postinc0	equ	0xFEE
   928                           wreg	equ	0xFE8
   929                           postdec1	equ	0xFE5
   930                           fsr1l	equ	0xFE1
   931                           status	equ	0xFD8
   932                           
   933 ;; *************** function _initConfig *****************
   934 ;; Defined at:
   935 ;;		line 171 in file "main.c"
   936 ;; Parameters:    Size  Location     Type
   937 ;;		None
   938 ;; Auto vars:     Size  Location     Type
   939 ;;  init_flag       2    6[BANK0 ] short 
   940 ;;  SlaveAddress    1    0        unsigned char 
   941 ;; Return value:  Size  Location     Type
   942 ;;		None               void
   943 ;; Registers used:
   944 ;;		wreg, fsr0l, fsr0h, fsr1l, fsr1h, fsr1l, fsr1h, fsr2l, fsr2h, status,2, status,0, pclat, btemp, btemp+1, btemp+2, bt
      +emp+3, btemp+4, btemp+5, btemp+6, btemp+7, btemp+8, btemp+9, btemp+10, btemp+11, tosl, structret, tblptrl, tblptrh, tblp
      +tru, prodl, prodh, bsr, cstack
   945 ;; Tracked objects:
   946 ;;		On entry : 0/0
   947 ;;		On exit  : 0/0
   948 ;;		Unchanged: 0/0
   949 ;; Data sizes:     COMRAM   BANK0   BANK1   BANK2   BANK3   BANK4   BANK5   BANK6   BANK7   BANK8   BANK9  BANK10  BANK1
      +1  BANK12
   950 ;;      Params:         0       0       0       0       0       0       0       0       0       0       0       0       
      +0       0
   951 ;;      Locals:         0       2       0       0       0       0       0       0       0       0       0       0       
      +0       0
   952 ;;      Temps:          4       0       0       0       0       0       0       0       0       0       0       0       
      +0       0
   953 ;;      Totals:         4       2       0       0       0       0       0       0       0       0       0       0       
      +0       0
   954 ;;Total ram usage:        6 bytes
   955 ;; Hardware stack levels used:    1
   956 ;; Hardware stack levels required when called:    6
   957 ;; This function calls:
   958 ;;		_CANInitialize
   959 ;;		_OpenI2C
   960 ;;		_mpu_init
   961 ;; This function is called by:
   962 ;;		_main
   963 ;; This function uses a non-reentrant model
   964 ;;
   965                           
   966                           	psect	text2
   967  000DA4                     __ptext2:
   968                           	opt stack 0
   969  000DA4                     _initConfig:
   970                           	opt stack 23
   971                           
   972                           ;main.c: 172: UINT8 SlaveAddress;
   973                           ;main.c: 174: INTCON = 0x00;
   974                           
   975                           ;incstack = 0
   976  000DA4  0E00               	movlw	0
   977  000DA6  6EF2               	movwf	intcon,c	;volatile
   978                           
   979                           ;main.c: 175: PORTA = 0x00;
   980  000DA8  0E00               	movlw	0
   981  000DAA  6E80               	movwf	3968,c	;volatile
   982                           
   983                           ;main.c: 176: TRISAbits.TRISA0 = 0b1;
   984  000DAC  8092               	bsf	3986,0,c	;volatile
   985                           
   986                           ;main.c: 177: TRISAbits.TRISA1 = 0b1;
   987  000DAE  8292               	bsf	3986,1,c	;volatile
   988                           
   989                           ;main.c: 178: TRISAbits.TRISA3 = 0b1;
   990  000DB0  8692               	bsf	3986,3,c	;volatile
   991                           
   992                           ;main.c: 179: TRISBbits.TRISB4 = 0b1;
   993  000DB2  8893               	bsf	3987,4,c	;volatile
   994                           
   995                           ;main.c: 180: ADCON0 = 0x00;
   996  000DB4  0E00               	movlw	0
   997  000DB6  6EC2               	movwf	4034,c	;volatile
   998                           
   999                           ;main.c: 181: ADCON0bits.CHS = 0b00000;
  1000  000DB8  94C2               	bcf	4034,2,c	;volatile
  1001  000DBA  96C2               	bcf	4034,3,c	;volatile
  1002  000DBC  98C2               	bcf	4034,4,c	;volatile
  1003  000DBE  9AC2               	bcf	4034,5,c	;volatile
  1004                           
  1005                           ;main.c: 182: ADCON1bits.VCFG = 0b00;
  1006  000DC0  0ECF               	movlw	-49
  1007  000DC2  16C1               	andwf	4033,f,c	;volatile
  1008                           
  1009                           ;main.c: 183: ADCON2bits.ADFM = 0b0;
  1010  000DC4  9EC0               	bcf	4032,7,c	;volatile
  1011                           
  1012                           ;main.c: 184: ADCON2bits.ACQT = 0b111;
  1013  000DC6  86C0               	bsf	4032,3,c	;volatile
  1014  000DC8  88C0               	bsf	4032,4,c	;volatile
  1015  000DCA  8AC0               	bsf	4032,5,c	;volatile
  1016                           
  1017                           ;main.c: 185: ADCON2bits.ADCS = 0b101;
  1018  000DCC  50C0               	movf	4032,w,c	;volatile
  1019  000DCE  0BF8               	andlw	-8
  1020  000DD0  0905               	iorlw	5
  1021  000DD2  6EC0               	movwf	4032,c	;volatile
  1022                           
  1023                           ;main.c: 186: ADCON0bits.ADON = 0b1;
  1024  000DD4  80C2               	bsf	4034,0,c	;volatile
  1025                           
  1026                           ;main.c: 187: TRISC = 0x00;
  1027  000DD6  0E00               	movlw	0
  1028  000DD8  6E94               	movwf	3988,c	;volatile
  1029                           
  1030                           ;main.c: 190: TRISCbits.TRISC4=1;;
  1031  000DDA  8894               	bsf	3988,4,c	;volatile
  1032                           
  1033                           ;main.c: 191: TRISCbits.TRISC3=1;;
  1034  000DDC  8694               	bsf	3988,3,c	;volatile
  1035                           
  1036                           ;main.c: 192: OpenI2C(0b00001000, 0b10000000);
  1037  000DDE  6E35               	movwf	??_initConfig& (0+255),c
  1038  000DE0  0E80               	movlw	128
  1039  000DE2  6E13               	movwf	OpenI2C@slew,c
  1040  000DE4  5035               	movf	??_initConfig& (0+255),w,c
  1041  000DE6  0E08               	movlw	8
  1042  000DE8  ECAA  F00A         	call	_OpenI2C
  1043                           
  1044                           ;main.c: 193: SSPADD = 0x09;
  1045  000DEC  0E09               	movlw	9
  1046  000DEE  6EC8               	movwf	4040,c	;volatile
  1047                           
  1048                           ;main.c: 202: mpu_init();
  1049  000DF0  EC0B  F004         	call	_mpu_init	;wreg free
  1050                           
  1051                           ;main.c: 204: short init_flag = CAN_CONFIG_SAMPLE_ONCE & CAN_CONFIG_PHSEG2_PRG_ON &
  1052                           ;main.c: 205: CAN_CONFIG_DBL_BUFFER_ON &CAN_CONFIG_ALL_MSG & CAN_CONFIG_LINE_FILTER_OFF;
  1053  000DF4  0E00               	movlw	0
  1054  000DF6  0100               	movlb	0	; () banked
  1055  000DF8  0100               	movlb	0	; () banked
  1056  000DFA  6F9B               	movwf	(initConfig@init_flag+1)& (0+255),b
  1057  000DFC  0EFD               	movlw	253
  1058  000DFE  0100               	movlb	0	; () banked
  1059  000E00  6F9A               	movwf	initConfig@init_flag& (0+255),b
  1060                           
  1061                           ; BSR set to: 0
  1062                           ;main.c: 206: CANInitialize(1, 1, 3, 2, 2,init_flag);
  1063  000E02  6E35               	movwf	??_initConfig& (0+255),c
  1064  000E04  0E01               	movlw	1
  1065  000E06  6E26               	movwf	CANInitialize@BRP,c
  1066  000E08  5035               	movf	??_initConfig& (0+255),w,c
  1067  000E0A  6E36               	movwf	(??_initConfig+1)& (0+255),c
  1068  000E0C  0E03               	movlw	3
  1069  000E0E  6E27               	movwf	CANInitialize@PHSEG1,c
  1070  000E10  5036               	movf	(??_initConfig+1)& (0+255),w,c
  1071  000E12  6E37               	movwf	(??_initConfig+2)& (0+255),c
  1072  000E14  0E02               	movlw	2
  1073  000E16  6E28               	movwf	CANInitialize@PHSEG2,c
  1074  000E18  5037               	movf	(??_initConfig+2)& (0+255),w,c
  1075  000E1A  6E38               	movwf	(??_initConfig+3)& (0+255),c
  1076  000E1C  0E02               	movlw	2
  1077  000E1E  6E29               	movwf	CANInitialize@PROPSEG,c
  1078  000E20  5038               	movf	(??_initConfig+3)& (0+255),w,c
  1079  000E22  C09A  F02A         	movff	initConfig@init_flag,CANInitialize@config
  1080  000E26  0E01               	movlw	1
  1081  000E28  ECA6  F002         	call	_CANInitialize
  1082                           
  1083                           ;main.c: 207: CIOCON = 0x20;
  1084  000E2C  0E20               	movlw	32
  1085  000E2E  6E73               	movwf	3955,c	;volatile
  1086                           
  1087                           ;main.c: 209: timers[0] = 200;
  1088  000E30  0E00               	movlw	0
  1089  000E32  0100               	movlb	0	; () banked
  1090  000E34  0100               	movlb	0	; () banked
  1091  000E36  6F61               	movwf	(_timers+1)& (0+255),b
  1092  000E38  0EC8               	movlw	200
  1093  000E3A  0100               	movlb	0	; () banked
  1094  000E3C  6F60               	movwf	_timers& (0+255),b
  1095                           
  1096                           ; BSR set to: 0
  1097                           ;main.c: 210: timers[1] = 200;
  1098  000E3E  0E00               	movlw	0
  1099  000E40  0100               	movlb	0	; () banked
  1100  000E42  0100               	movlb	0	; () banked
  1101  000E44  6F63               	movwf	(_timers+3)& (0+255),b
  1102  000E46  0EC8               	movlw	200
  1103  000E48  0100               	movlb	0	; () banked
  1104  000E4A  6F62               	movwf	(_timers+2)& (0+255),b
  1105                           
  1106                           ; BSR set to: 0
  1107                           ;main.c: 211: timers[2] = 5;
  1108  000E4C  0E00               	movlw	0
  1109  000E4E  0100               	movlb	0	; () banked
  1110  000E50  0100               	movlb	0	; () banked
  1111  000E52  6F65               	movwf	(_timers+5)& (0+255),b
  1112  000E54  0E05               	movlw	5
  1113  000E56  0100               	movlb	0	; () banked
  1114  000E58  6F64               	movwf	(_timers+4)& (0+255),b
  1115                           
  1116                           ; BSR set to: 0
  1117                           ;main.c: 212: timers[3] = 5;
  1118  000E5A  0E00               	movlw	0
  1119  000E5C  0100               	movlb	0	; () banked
  1120  000E5E  0100               	movlb	0	; () banked
  1121  000E60  6F67               	movwf	(_timers+7)& (0+255),b
  1122  000E62  0E05               	movlw	5
  1123  000E64  0100               	movlb	0	; () banked
  1124  000E66  6F66               	movwf	(_timers+6)& (0+255),b
  1125                           
  1126                           ; BSR set to: 0
  1127                           ;main.c: 214: LATCbits.LC0 = 0b0;
  1128  000E68  908B               	bcf	3979,0,c	;volatile
  1129                           
  1130                           ; BSR set to: 0
  1131  000E6A  0012               	return	
  1132  000E6C                     __end_of_initConfig:
  1133                           	opt stack 0
  1134                           tblptru	equ	0xFF8
  1135                           tblptrh	equ	0xFF7
  1136                           tblptrl	equ	0xFF6
  1137                           tablat	equ	0xFF5
  1138                           intcon	equ	0xFF2
  1139                           postinc0	equ	0xFEE
  1140                           wreg	equ	0xFE8
  1141                           postdec1	equ	0xFE5
  1142                           fsr1l	equ	0xFE1
  1143                           status	equ	0xFD8
  1144                           
  1145 ;; *************** function _mpu_init *****************
  1146 ;; Defined at:
  1147 ;;		line 270 in file "accelgyro.c"
  1148 ;; Parameters:    Size  Location     Type
  1149 ;;		None
  1150 ;; Auto vars:     Size  Location     Type
  1151 ;;  i               2    4[BANK0 ] int 
  1152 ;;  i               2    2[BANK0 ] int 
  1153 ;;  AFS_SEL         1    1[BANK0 ] unsigned char 
  1154 ;;  sleep           1    0[BANK0 ] unsigned char 
  1155 ;; Return value:  Size  Location     Type
  1156 ;;		None               void
  1157 ;; Registers used:
  1158 ;;		wreg, fsr2l, fsr2h, status,2, status,0, prodl, prodh, cstack
  1159 ;; Tracked objects:
  1160 ;;		On entry : 0/0
  1161 ;;		On exit  : 0/0
  1162 ;;		Unchanged: 0/0
  1163 ;; Data sizes:     COMRAM   BANK0   BANK1   BANK2   BANK3   BANK4   BANK5   BANK6   BANK7   BANK8   BANK9  BANK10  BANK1
      +1  BANK12
  1164 ;;      Params:         0       0       0       0       0       0       0       0       0       0       0       0       
      +0       0
  1165 ;;      Locals:         0       6       0       0       0       0       0       0       0       0       0       0       
      +0       0
  1166 ;;      Temps:          1       0       0       0       0       0       0       0       0       0       0       0       
      +0       0
  1167 ;;      Totals:         1       6       0       0       0       0       0       0       0       0       0       0       
      +0       0
  1168 ;;Total ram usage:        7 bytes
  1169 ;; Hardware stack levels used:    1
  1170 ;; Hardware stack levels required when called:    5
  1171 ;; This function calls:
  1172 ;;		_DummyCommand
  1173 ;;		_SendRequest
  1174 ;;		_mpu_read
  1175 ;;		_mpu_write
  1176 ;;		_readRawGyroData
  1177 ;; This function is called by:
  1178 ;;		_initConfig
  1179 ;; This function uses a non-reentrant model
  1180 ;;
  1181                           
  1182                           	psect	text3
  1183  000816                     __ptext3:
  1184                           	opt stack 0
  1185  000816                     _mpu_init:
  1186                           	opt stack 23
  1187                           
  1188                           ;accelgyro.c: 271: unsigned char sleep;
  1189                           ;accelgyro.c: 272: unsigned char AFS_SEL;
  1190                           ;accelgyro.c: 275: SendRequest();
  1191                           
  1192                           ; BSR set to: 0
  1193                           ;incstack = 0
  1194  000816  ECC7  F00A         	call	_SendRequest	;wreg free
  1195                           
  1196                           ;accelgyro.c: 276: DummyCommand((0x68<<1));
  1197  00081A  0ED0               	movlw	208
  1198  00081C  ECD2  F00A         	call	_DummyCommand
  1199                           
  1200                           ;accelgyro.c: 277: mpu_write((0x68<<1), 0x6B, 0b10000000);
  1201  000820  6E34               	movwf	??_mpu_init& (0+255),c
  1202  000822  0E6B               	movlw	107
  1203  000824  6E1A               	movwf	mpu_write@reg,c
  1204  000826  5034               	movf	??_mpu_init& (0+255),w,c
  1205  000828  0E00               	movlw	0
  1206  00082A  6E1C               	movwf	mpu_write@command+1,c
  1207  00082C  0E80               	movlw	128
  1208  00082E  6E1B               	movwf	mpu_write@command,c
  1209  000830  0ED0               	movlw	208
  1210  000832  ECB7  F009         	call	_mpu_write
  1211                           
  1212                           ;accelgyro.c: 279: for(int i=0;i<10;i++)
  1213  000836  0E00               	movlw	0
  1214  000838  0100               	movlb	0	; () banked
  1215  00083A  0100               	movlb	0	; () banked
  1216  00083C  6F97               	movwf	(mpu_init@i+1)& (0+255),b
  1217  00083E  0E00               	movlw	0
  1218  000840  0100               	movlb	0	; () banked
  1219  000842  6F96               	movwf	mpu_init@i& (0+255),b
  1220  000844                     
  1221                           ; BSR set to: 0
  1222  000844  0100               	movlb	0	; () banked
  1223  000846  0100               	movlb	0	; () banked
  1224  000848  5197               	movf	(mpu_init@i+1)& (0+255),w,b
  1225  00084A  0A80               	xorlw	128
  1226  00084C  0F80               	addlw	-128
  1227  00084E  0E0A               	movlw	10
  1228  000850  B4D8               	btfsc	status,2,c
  1229  000852  5D96               	subwf	mpu_init@i& (0+255),w,b
  1230  000854  B0D8               	btfsc	status,0,c
  1231  000856  D00C               	goto	l5270
  1232                           
  1233                           ; BSR set to: 0
  1234                           ;accelgyro.c: 280: {
  1235                           ;accelgyro.c: 281: _delay((unsigned long)((10)*(16000000/4000.0)));
  1236                           
  1237                           ; BSR set to: 0
  1238                           
  1239                           ; BSR set to: 0
  1240  000858  0E34               	movlw	52
  1241  00085A  6E34               	movwf	??_mpu_init& (0+255),c
  1242  00085C  0EF2               	movlw	242
  1243  00085E                     u3577:
  1244  00085E  2EE8               	decfsz	wreg,f,c
  1245  000860  D7FE               	goto	u3577
  1246  000862  2E34               	decfsz	??_mpu_init& (0+255),f,c
  1247  000864  D7FC               	goto	u3577
  1248  000866  0100               	movlb	0	; () banked
  1249  000868  0100               	movlb	0	; () banked
  1250  00086A  4B96               	infsnz	mpu_init@i& (0+255),f,b
  1251  00086C  2B97               	incf	(mpu_init@i+1)& (0+255),f,b
  1252  00086E  D7EA               	goto	L1
  1253  000870                     l5270:
  1254                           
  1255                           ; BSR set to: 0
  1256                           ;accelgyro.c: 282: }
  1257                           ;accelgyro.c: 285: mpu_write((0x68<<1), 0x38, 0b1);
  1258  000870  6E34               	movwf	??_mpu_init& (0+255),c
  1259  000872  0E38               	movlw	56
  1260  000874  6E1A               	movwf	mpu_write@reg,c
  1261  000876  5034               	movf	??_mpu_init& (0+255),w,c
  1262  000878  0E00               	movlw	0
  1263  00087A  6E1C               	movwf	mpu_write@command+1,c
  1264  00087C  0E01               	movlw	1
  1265  00087E  6E1B               	movwf	mpu_write@command,c
  1266  000880  0ED0               	movlw	208
  1267  000882  ECB7  F009         	call	_mpu_write
  1268                           
  1269                           ;accelgyro.c: 288: mpu_write((0x68<<1), 0x6B, 0);
  1270  000886  6E34               	movwf	??_mpu_init& (0+255),c
  1271  000888  0E6B               	movlw	107
  1272  00088A  6E1A               	movwf	mpu_write@reg,c
  1273  00088C  5034               	movf	??_mpu_init& (0+255),w,c
  1274  00088E  0E00               	movlw	0
  1275  000890  6E1C               	movwf	mpu_write@command+1,c
  1276  000892  0E00               	movlw	0
  1277  000894  6E1B               	movwf	mpu_write@command,c
  1278  000896  0ED0               	movlw	208
  1279  000898  ECB7  F009         	call	_mpu_write
  1280                           
  1281                           ;accelgyro.c: 291: sleep = mpu_read((0x68<<1), 0x6B);
  1282  00089C  6E34               	movwf	??_mpu_init& (0+255),c
  1283  00089E  0E6B               	movlw	107
  1284  0008A0  6E25               	movwf	mpu_read@reg,c
  1285  0008A2  5034               	movf	??_mpu_init& (0+255),w,c
  1286  0008A4  0ED0               	movlw	208
  1287  0008A6  EC7D  F008         	call	_mpu_read
  1288  0008AA  5025               	movf	?_mpu_read,w,c
  1289  0008AC  0100               	movlb	0	; () banked
  1290  0008AE  0100               	movlb	0	; () banked
  1291  0008B0  6F94               	movwf	mpu_init@sleep& (0+255),b
  1292                           
  1293                           ; BSR set to: 0
  1294                           ;accelgyro.c: 294: for(int i=0;i<10;i++)
  1295  0008B2  0E00               	movlw	0
  1296  0008B4  0100               	movlb	0	; () banked
  1297  0008B6  0100               	movlb	0	; () banked
  1298  0008B8  6F99               	movwf	(mpu_init@i_2235+1)& (0+255),b
  1299  0008BA  0E00               	movlw	0
  1300  0008BC  0100               	movlb	0	; () banked
  1301  0008BE  6F98               	movwf	mpu_init@i_2235& (0+255),b
  1302  0008C0                     
  1303                           ; BSR set to: 0
  1304  0008C0  0100               	movlb	0	; () banked
  1305  0008C2  0100               	movlb	0	; () banked
  1306  0008C4  5199               	movf	(mpu_init@i_2235+1)& (0+255),w,b
  1307  0008C6  0A80               	xorlw	128
  1308  0008C8  0F80               	addlw	-128
  1309  0008CA  0E0A               	movlw	10
  1310  0008CC  B4D8               	btfsc	status,2,c
  1311  0008CE  5D98               	subwf	mpu_init@i_2235& (0+255),w,b
  1312  0008D0  B0D8               	btfsc	status,0,c
  1313  0008D2  D015               	goto	l5286
  1314                           
  1315                           ; BSR set to: 0
  1316                           ;accelgyro.c: 295: {
  1317                           ;accelgyro.c: 296: _delay((unsigned long)((10)*(16000000/4000.0)));
  1318                           
  1319                           ; BSR set to: 0
  1320                           
  1321                           ; BSR set to: 0
  1322  0008D4  0E34               	movlw	52
  1323  0008D6  6E34               	movwf	??_mpu_init& (0+255),c
  1324  0008D8  0EF2               	movlw	242
  1325  0008DA                     u3587:
  1326  0008DA  2EE8               	decfsz	wreg,f,c
  1327  0008DC  D7FE               	goto	u3587
  1328  0008DE  2E34               	decfsz	??_mpu_init& (0+255),f,c
  1329  0008E0  D7FC               	goto	u3587
  1330  0008E2  0100               	movlb	0	; () banked
  1331  0008E4  0100               	movlb	0	; () banked
  1332  0008E6  4B98               	infsnz	mpu_init@i_2235& (0+255),f,b
  1333  0008E8  2B99               	incf	(mpu_init@i_2235+1)& (0+255),f,b
  1334  0008EA  D7EA               	goto	L2
  1335  0008EC                     l5284:
  1336                           
  1337                           ;accelgyro.c: 301: data_ready = mpu_read((0x68<<1), 0x3A);
  1338  0008EC  6E34               	movwf	??_mpu_init& (0+255),c
  1339  0008EE  0E3A               	movlw	58
  1340  0008F0  6E25               	movwf	mpu_read@reg,c
  1341  0008F2  5034               	movf	??_mpu_init& (0+255),w,c
  1342  0008F4  0ED0               	movlw	208
  1343  0008F6  EC7D  F008         	call	_mpu_read
  1344  0008FA  5025               	movf	?_mpu_read,w,c
  1345  0008FC  6E46               	movwf	_data_ready,c
  1346  0008FE                     l5286:
  1347  0008FE  A046               	btfss	_data_ready,0,c
  1348  000900  D7F5               	goto	l5284
  1349                           
  1350                           ;accelgyro.c: 302: }
  1351                           ;accelgyro.c: 305: readRawGyroData();
  1352  000902  EC8A  F007         	call	_readRawGyroData	;wreg free
  1353                           
  1354                           ;accelgyro.c: 309: gyro_x_offset = gyro_x_raw;
  1355  000906  C08A  F088         	movff	_gyro_x_raw,_gyro_x_offset
  1356  00090A  C08B  F089         	movff	_gyro_x_raw+1,_gyro_x_offset+1
  1357                           
  1358                           ;accelgyro.c: 310: gyro_y_offset = gyro_y_raw;
  1359  00090E  C08E  F08C         	movff	_gyro_y_raw,_gyro_y_offset
  1360  000912  C08F  F08D         	movff	_gyro_y_raw+1,_gyro_y_offset+1
  1361                           
  1362                           ;accelgyro.c: 311: gyro_z_offset = gyro_z_raw;
  1363  000916  C092  F090         	movff	_gyro_z_raw,_gyro_z_offset
  1364  00091A  C093  F091         	movff	_gyro_z_raw+1,_gyro_z_offset+1
  1365                           
  1366                           ;accelgyro.c: 313: AFS_SEL = mpu_read((0x68<<1), 0x1C);
  1367  00091E  6E34               	movwf	??_mpu_init& (0+255),c
  1368  000920  0E1C               	movlw	28
  1369  000922  6E25               	movwf	mpu_read@reg,c
  1370  000924  5034               	movf	??_mpu_init& (0+255),w,c
  1371  000926  0ED0               	movlw	208
  1372  000928  EC7D  F008         	call	_mpu_read
  1373  00092C  5025               	movf	?_mpu_read,w,c
  1374  00092E  0100               	movlb	0	; () banked
  1375  000930  0100               	movlb	0	; () banked
  1376  000932  6F95               	movwf	mpu_init@AFS_SEL& (0+255),b
  1377                           
  1378                           ; BSR set to: 0
  1379                           ;accelgyro.c: 314: AFS_SEL |= 0b00010000;
  1380  000934  0100               	movlb	0	; () banked
  1381  000936  0100               	movlb	0	; () banked
  1382  000938  8995               	bsf	mpu_init@AFS_SEL& (0+255),4,b
  1383                           
  1384                           ; BSR set to: 0
  1385                           ;accelgyro.c: 315: AFS_SEL &= 0b11110111;
  1386  00093A  0100               	movlb	0	; () banked
  1387  00093C  0100               	movlb	0	; () banked
  1388  00093E  9795               	bcf	mpu_init@AFS_SEL& (0+255),3,b
  1389                           
  1390                           ; BSR set to: 0
  1391                           ;accelgyro.c: 316: mpu_write((0x68<<1), 0x1C, AFS_SEL);
  1392  000940  6E34               	movwf	??_mpu_init& (0+255),c
  1393  000942  0E1C               	movlw	28
  1394  000944  6E1A               	movwf	mpu_write@reg,c
  1395  000946  5034               	movf	??_mpu_init& (0+255),w,c
  1396  000948  0100               	movlb	0	; () banked
  1397  00094A  C095  F01B         	movff	mpu_init@AFS_SEL,mpu_write@command
  1398  00094E  6A1C               	clrf	mpu_write@command+1,c
  1399  000950  0ED0               	movlw	208
  1400  000952  ECB7  F009         	call	_mpu_write
  1401  000956  0012               	return	
  1402  000958                     __end_of_mpu_init:
  1403                           	opt stack 0
  1404                           tblptru	equ	0xFF8
  1405                           tblptrh	equ	0xFF7
  1406                           tblptrl	equ	0xFF6
  1407                           tablat	equ	0xFF5
  1408                           intcon	equ	0xFF2
  1409                           postinc0	equ	0xFEE
  1410                           wreg	equ	0xFE8
  1411                           postdec1	equ	0xFE5
  1412                           fsr1l	equ	0xFE1
  1413                           status	equ	0xFD8
  1414                           
  1415 ;; *************** function _mpu_write *****************
  1416 ;; Defined at:
  1417 ;;		line 149 in file "accelgyro.c"
  1418 ;; Parameters:    Size  Location     Type
  1419 ;;  SlaveAddress    1    wreg     unsigned char 
  1420 ;;  reg             1   25[COMRAM] unsigned char 
  1421 ;;  command         2   26[COMRAM] unsigned short 
  1422 ;; Auto vars:     Size  Location     Type
  1423 ;;  SlaveAddress    1   30[COMRAM] unsigned char 
  1424 ;;  ErrorCounter    1   29[COMRAM] unsigned char 
  1425 ;; Return value:  Size  Location     Type
  1426 ;;		None               void
  1427 ;; Registers used:
  1428 ;;		wreg, status,2, status,0, cstack
  1429 ;; Tracked objects:
  1430 ;;		On entry : 0/0
  1431 ;;		On exit  : 0/0
  1432 ;;		Unchanged: 0/0
  1433 ;; Data sizes:     COMRAM   BANK0   BANK1   BANK2   BANK3   BANK4   BANK5   BANK6   BANK7   BANK8   BANK9  BANK10  BANK1
      +1  BANK12
  1434 ;;      Params:         3       0       0       0       0       0       0       0       0       0       0       0       
      +0       0
  1435 ;;      Locals:         2       0       0       0       0       0       0       0       0       0       0       0       
      +0       0
  1436 ;;      Temps:          1       0       0       0       0       0       0       0       0       0       0       0       
      +0       0
  1437 ;;      Totals:         6       0       0       0       0       0       0       0       0       0       0       0       
      +0       0
  1438 ;;Total ram usage:        6 bytes
  1439 ;; Hardware stack levels used:    1
  1440 ;; Hardware stack levels required when called:    3
  1441 ;; This function calls:
  1442 ;;		_TX_byte
  1443 ;;		_start_bit
  1444 ;;		_stop_bit
  1445 ;; This function is called by:
  1446 ;;		_mpu_init
  1447 ;; This function uses a non-reentrant model
  1448 ;;
  1449                           
  1450                           	psect	text4
  1451  00136E                     __ptext4:
  1452                           	opt stack 0
  1453  00136E                     _mpu_write:
  1454                           	opt stack 24
  1455                           
  1456                           ;incstack = 0
  1457                           ;mpu_write@SlaveAddress stored from wreg
  1458  00136E  CFE8 F01F          	movff	wreg,mpu_write@SlaveAddress
  1459                           
  1460                           ;accelgyro.c: 151: unsigned char ErrorCounter;
  1461                           ;accelgyro.c: 153: ErrorCounter=0x00;
  1462  001372  6E1D               	movwf	??_mpu_write& (0+255),c
  1463  001374  0E00               	movlw	0
  1464  001376  6E1E               	movwf	mpu_write@ErrorCounter,c
  1465  001378  501D               	movf	??_mpu_write& (0+255),w,c
  1466  00137A                     l5726:
  1467                           
  1468                           ;accelgyro.c: 156: stop_bit();
  1469  00137A  EC97  F00A         	call	_stop_bit	;wreg free
  1470                           
  1471                           ;accelgyro.c: 161: start_bit();
  1472  00137E  EC2E  F00A         	call	_start_bit	;wreg free
  1473                           
  1474                           ;accelgyro.c: 163: if(TX_byte(SlaveAddress))
  1475  001382  501F               	movf	mpu_write@SlaveAddress,w,c
  1476  001384  ECF5  F009         	call	_TX_byte
  1477  001388  0900               	iorlw	0
  1478  00138A  A4D8               	btfss	status,2,c
  1479  00138C  D7F6               	goto	l5726
  1480                           
  1481                           ;accelgyro.c: 166: }
  1482                           ;accelgyro.c: 168: if(TX_byte(reg))
  1483                           
  1484                           ;accelgyro.c: 164: {
  1485                           ;accelgyro.c: 165: goto repeat;
  1486  00138E  501A               	movf	mpu_write@reg,w,c
  1487  001390  ECF5  F009         	call	_TX_byte
  1488  001394  0900               	iorlw	0
  1489  001396  A4D8               	btfss	status,2,c
  1490  001398  D7F0               	goto	l5726
  1491                           
  1492                           ;accelgyro.c: 171: }
  1493                           ;accelgyro.c: 172: if(TX_byte(command))
  1494                           
  1495                           ;accelgyro.c: 169: {
  1496                           ;accelgyro.c: 170: goto repeat;
  1497  00139A  501B               	movf	mpu_write@command,w,c
  1498  00139C  ECF5  F009         	call	_TX_byte
  1499  0013A0  0900               	iorlw	0
  1500  0013A2  A4D8               	btfss	status,2,c
  1501  0013A4  D7EA               	goto	l5726
  1502                           
  1503                           ;accelgyro.c: 175: }
  1504                           ;accelgyro.c: 176: stop_bit();
  1505                           
  1506                           ;accelgyro.c: 173: {
  1507                           ;accelgyro.c: 174: goto repeat;
  1508  0013A6  EC97  F00A         	call	_stop_bit	;wreg free
  1509  0013AA  0012               	return	
  1510  0013AC                     __end_of_mpu_write:
  1511                           	opt stack 0
  1512                           tblptru	equ	0xFF8
  1513                           tblptrh	equ	0xFF7
  1514                           tblptrl	equ	0xFF6
  1515                           tablat	equ	0xFF5
  1516                           intcon	equ	0xFF2
  1517                           postinc0	equ	0xFEE
  1518                           wreg	equ	0xFE8
  1519                           postdec1	equ	0xFE5
  1520                           fsr1l	equ	0xFE1
  1521                           status	equ	0xFD8
  1522                           
  1523 ;; *************** function _SendRequest *****************
  1524 ;; Defined at:
  1525 ;;		line 214 in file "tyretemps.c"
  1526 ;; Parameters:    Size  Location     Type
  1527 ;;		None
  1528 ;; Auto vars:     Size  Location     Type
  1529 ;;		None
  1530 ;; Return value:  Size  Location     Type
  1531 ;;		None               void
  1532 ;; Registers used:
  1533 ;;		wreg
  1534 ;; Tracked objects:
  1535 ;;		On entry : 0/0
  1536 ;;		On exit  : 0/0
  1537 ;;		Unchanged: 0/0
  1538 ;; Data sizes:     COMRAM   BANK0   BANK1   BANK2   BANK3   BANK4   BANK5   BANK6   BANK7   BANK8   BANK9  BANK10  BANK1
      +1  BANK12
  1539 ;;      Params:         0       0       0       0       0       0       0       0       0       0       0       0       
      +0       0
  1540 ;;      Locals:         0       0       0       0       0       0       0       0       0       0       0       0       
      +0       0
  1541 ;;      Temps:          1       0       0       0       0       0       0       0       0       0       0       0       
      +0       0
  1542 ;;      Totals:         1       0       0       0       0       0       0       0       0       0       0       0       
      +0       0
  1543 ;;Total ram usage:        1 bytes
  1544 ;; Hardware stack levels used:    1
  1545 ;; Hardware stack levels required when called:    1
  1546 ;; This function calls:
  1547 ;;		Nothing
  1548 ;; This function is called by:
  1549 ;;		_mpu_init
  1550 ;; This function uses a non-reentrant model
  1551 ;;
  1552                           
  1553                           	psect	text5
  1554  00158E                     __ptext5:
  1555                           	opt stack 0
  1556  00158E                     _SendRequest:
  1557                           	opt stack 26
  1558                           
  1559                           ;tyretemps.c: 216: PORTCbits.RC3=0;TRISCbits.TRISC3=0;;
  1560                           
  1561                           ;incstack = 0
  1562  00158E  9682               	bcf	3970,3,c	;volatile
  1563  001590  9694               	bcf	3988,3,c	;volatile
  1564                           
  1565                           ;tyretemps.c: 217: _delay((unsigned long)((10)*(16000000/4000.0)));
  1566  001592  0E34               	movlw	52
  1567  001594  6E13               	movwf	??_SendRequest& (0+255),c
  1568  001596  0EF2               	movlw	242
  1569  001598                     u3597:
  1570  001598  2EE8               	decfsz	wreg,f,c
  1571  00159A  D7FE               	goto	u3597
  1572  00159C  2E13               	decfsz	??_SendRequest& (0+255),f,c
  1573  00159E  D7FC               	goto	u3597
  1574                           
  1575                           ;tyretemps.c: 218: TRISCbits.TRISC3=1;;
  1576  0015A0  8694               	bsf	3988,3,c	;volatile
  1577  0015A2  0012               	return	
  1578  0015A4                     __end_of_SendRequest:
  1579                           	opt stack 0
  1580                           tblptru	equ	0xFF8
  1581                           tblptrh	equ	0xFF7
  1582                           tblptrl	equ	0xFF6
  1583                           tablat	equ	0xFF5
  1584                           intcon	equ	0xFF2
  1585                           postinc0	equ	0xFEE
  1586                           wreg	equ	0xFE8
  1587                           postdec1	equ	0xFE5
  1588                           fsr1l	equ	0xFE1
  1589                           status	equ	0xFD8
  1590                           
  1591 ;; *************** function _DummyCommand *****************
  1592 ;; Defined at:
  1593 ;;		line 223 in file "tyretemps.c"
  1594 ;; Parameters:    Size  Location     Type
  1595 ;;  byte            1    wreg     unsigned char 
  1596 ;; Auto vars:     Size  Location     Type
  1597 ;;  byte            1   25[COMRAM] unsigned char 
  1598 ;; Return value:  Size  Location     Type
  1599 ;;		None               void
  1600 ;; Registers used:
  1601 ;;		wreg, status,2, status,0, cstack
  1602 ;; Tracked objects:
  1603 ;;		On entry : 0/0
  1604 ;;		On exit  : 0/0
  1605 ;;		Unchanged: 0/0
  1606 ;; Data sizes:     COMRAM   BANK0   BANK1   BANK2   BANK3   BANK4   BANK5   BANK6   BANK7   BANK8   BANK9  BANK10  BANK1
      +1  BANK12
  1607 ;;      Params:         0       0       0       0       0       0       0       0       0       0       0       0       
      +0       0
  1608 ;;      Locals:         1       0       0       0       0       0       0       0       0       0       0       0       
      +0       0
  1609 ;;      Temps:          0       0       0       0       0       0       0       0       0       0       0       0       
      +0       0
  1610 ;;      Totals:         1       0       0       0       0       0       0       0       0       0       0       0       
      +0       0
  1611 ;;Total ram usage:        1 bytes
  1612 ;; Hardware stack levels used:    1
  1613 ;; Hardware stack levels required when called:    3
  1614 ;; This function calls:
  1615 ;;		_TX_byte
  1616 ;;		_start_bit
  1617 ;;		_stop_bit
  1618 ;; This function is called by:
  1619 ;;		_mpu_init
  1620 ;; This function uses a non-reentrant model
  1621 ;;
  1622                           
  1623                           	psect	text6
  1624  0015A4                     __ptext6:
  1625                           	opt stack 0
  1626  0015A4                     _DummyCommand:
  1627                           	opt stack 24
  1628                           
  1629                           ;incstack = 0
  1630                           ;DummyCommand@byte stored from wreg
  1631  0015A4  CFE8 F01A          	movff	wreg,DummyCommand@byte
  1632                           
  1633                           ;tyretemps.c: 225: start_bit();
  1634  0015A8  EC2E  F00A         	call	_start_bit	;wreg free
  1635                           
  1636                           ;tyretemps.c: 226: TX_byte(byte);
  1637  0015AC  501A               	movf	DummyCommand@byte,w,c
  1638  0015AE  ECF5  F009         	call	_TX_byte
  1639                           
  1640                           ;tyretemps.c: 227: stop_bit();
  1641  0015B2  EC97  F00A         	call	_stop_bit	;wreg free
  1642  0015B6  0012               	return	
  1643  0015B8                     __end_of_DummyCommand:
  1644                           	opt stack 0
  1645                           tblptru	equ	0xFF8
  1646                           tblptrh	equ	0xFF7
  1647                           tblptrl	equ	0xFF6
  1648                           tablat	equ	0xFF5
  1649                           intcon	equ	0xFF2
  1650                           postinc0	equ	0xFEE
  1651                           wreg	equ	0xFE8
  1652                           postdec1	equ	0xFE5
  1653                           fsr1l	equ	0xFE1
  1654                           status	equ	0xFD8
  1655                           
  1656 ;; *************** function _OpenI2C *****************
  1657 ;; Defined at:
  1658 ;;		line 14 in file "C:\Program Files (x86)\Microchip\xc8\v1.30\sources\pic18\plib\i2c\i2c_open.c"
  1659 ;; Parameters:    Size  Location     Type
  1660 ;;  sync_mode       1    wreg     unsigned char 
  1661 ;;  slew            1   18[COMRAM] unsigned char 
  1662 ;; Auto vars:     Size  Location     Type
  1663 ;;  sync_mode       1   19[COMRAM] unsigned char 
  1664 ;; Return value:  Size  Location     Type
  1665 ;;		None               void
  1666 ;; Registers used:
  1667 ;;		wreg, status,2, status,0
  1668 ;; Tracked objects:
  1669 ;;		On entry : 0/0
  1670 ;;		On exit  : 0/0
  1671 ;;		Unchanged: 0/0
  1672 ;; Data sizes:     COMRAM   BANK0   BANK1   BANK2   BANK3   BANK4   BANK5   BANK6   BANK7   BANK8   BANK9  BANK10  BANK1
      +1  BANK12
  1673 ;;      Params:         1       0       0       0       0       0       0       0       0       0       0       0       
      +0       0
  1674 ;;      Locals:         1       0       0       0       0       0       0       0       0       0       0       0       
      +0       0
  1675 ;;      Temps:          0       0       0       0       0       0       0       0       0       0       0       0       
      +0       0
  1676 ;;      Totals:         2       0       0       0       0       0       0       0       0       0       0       0       
      +0       0
  1677 ;;Total ram usage:        2 bytes
  1678 ;; Hardware stack levels used:    1
  1679 ;; Hardware stack levels required when called:    1
  1680 ;; This function calls:
  1681 ;;		Nothing
  1682 ;; This function is called by:
  1683 ;;		_initConfig
  1684 ;; This function uses a non-reentrant model
  1685 ;;
  1686                           
  1687                           	psect	text7
  1688  001554                     __ptext7:
  1689                           	opt stack 0
  1690  001554                     _OpenI2C:
  1691                           	opt stack 27
  1692                           
  1693                           ;incstack = 0
  1694                           ;OpenI2C@sync_mode stored from wreg
  1695  001554  CFE8 F014          	movff	wreg,OpenI2C@sync_mode
  1696  001558  0E3F               	movlw	63
  1697  00155A  16C7               	andwf	4039,f,c	;volatile
  1698  00155C  0E00               	movlw	0
  1699  00155E  6EC6               	movwf	4038,c	;volatile
  1700  001560  0E00               	movlw	0
  1701  001562  6EC5               	movwf	4037,c	;volatile
  1702  001564  5014               	movf	OpenI2C@sync_mode,w,c
  1703  001566  12C6               	iorwf	4038,f,c	;volatile
  1704  001568  5013               	movf	OpenI2C@slew,w,c
  1705  00156A  12C7               	iorwf	4039,f,c	;volatile
  1706  00156C  8694               	bsf	3988,3,c	;volatile
  1707  00156E  8894               	bsf	3988,4,c	;volatile
  1708  001570  8AC6               	bsf	4038,5,c	;volatile
  1709  001572  0012               	return	
  1710  001574                     __end_of_OpenI2C:
  1711                           	opt stack 0
  1712                           tblptru	equ	0xFF8
  1713                           tblptrh	equ	0xFF7
  1714                           tblptrl	equ	0xFF6
  1715                           tablat	equ	0xFF5
  1716                           intcon	equ	0xFF2
  1717                           postinc0	equ	0xFEE
  1718                           wreg	equ	0xFE8
  1719                           postdec1	equ	0xFE5
  1720                           fsr1l	equ	0xFE1
  1721                           status	equ	0xFD8
  1722                           
  1723 ;; *************** function _CANInitialize *****************
  1724 ;; Defined at:
  1725 ;;		line 152 in file "can18xx8.c"
  1726 ;; Parameters:    Size  Location     Type
  1727 ;;  SJW             1    wreg     unsigned char 
  1728 ;;  BRP             1   37[COMRAM] unsigned char 
  1729 ;;  PHSEG1          1   38[COMRAM] unsigned char 
  1730 ;;  PHSEG2          1   39[COMRAM] unsigned char 
  1731 ;;  PROPSEG         1   40[COMRAM] unsigned char 
  1732 ;;  config          1   41[COMRAM] enum E456
  1733 ;; Auto vars:     Size  Location     Type
  1734 ;;  SJW             1   46[COMRAM] unsigned char 
  1735 ;;  FilterConfig    1   48[COMRAM] unsigned char 
  1736 ;;  FilterConfig    1   47[COMRAM] unsigned char 
  1737 ;; Return value:  Size  Location     Type
  1738 ;;		None               void
  1739 ;; Registers used:
  1740 ;;		wreg, fsr1l, fsr1h, fsr2l, fsr2h, status,2, status,0, cstack
  1741 ;; Tracked objects:
  1742 ;;		On entry : 0/0
  1743 ;;		On exit  : 0/0
  1744 ;;		Unchanged: 0/0
  1745 ;; Data sizes:     COMRAM   BANK0   BANK1   BANK2   BANK3   BANK4   BANK5   BANK6   BANK7   BANK8   BANK9  BANK10  BANK1
      +1  BANK12
  1746 ;;      Params:         5       0       0       0       0       0       0       0       0       0       0       0       
      +0       0
  1747 ;;      Locals:         3       0       0       0       0       0       0       0       0       0       0       0       
      +0       0
  1748 ;;      Temps:          4       0       0       0       0       0       0       0       0       0       0       0       
      +0       0
  1749 ;;      Totals:        12       0       0       0       0       0       0       0       0       0       0       0       
      +0       0
  1750 ;;Total ram usage:       12 bytes
  1751 ;; Hardware stack levels used:    1
  1752 ;; Hardware stack levels required when called:    3
  1753 ;; This function calls:
  1754 ;;		_CANSetBaudRate
  1755 ;;		_CANSetFilter
  1756 ;;		_CANSetMask
  1757 ;;		_CANSetOperationMode
  1758 ;; This function is called by:
  1759 ;;		_initConfig
  1760 ;; This function uses a non-reentrant model
  1761 ;;
  1762                           
  1763                           	psect	text8
  1764  00054C                     __ptext8:
  1765                           	opt stack 0
  1766  00054C                     _CANInitialize:
  1767                           	opt stack 25
  1768                           
  1769                           ;incstack = 0
  1770                           ;CANInitialize@SJW stored from wreg
  1771  00054C  CFE8 F02F          	movff	wreg,CANInitialize@SJW
  1772                           
  1773                           ;can18xx8.c: 159: BYTE FilterConfig1;
  1774                           ;can18xx8.c: 160: BYTE FilterConfig2;
  1775                           ;can18xx8.c: 164: CANSetOperationMode(CAN_OP_MODE_CONFIG);
  1776  000550  0E80               	movlw	128
  1777  000552  ECDC  F00A         	call	_CANSetOperationMode
  1778                           
  1779                           ;can18xx8.c: 167: CANSetBaudRate(SJW,
  1780                           ;can18xx8.c: 168: BRP,
  1781                           ;can18xx8.c: 169: PHSEG1,
  1782                           ;can18xx8.c: 170: PHSEG2,
  1783                           ;can18xx8.c: 171: PROPSEG,
  1784                           ;can18xx8.c: 172: config);
  1785  000556  C026  F013         	movff	CANInitialize@BRP,CANSetBaudRate@BRP
  1786  00055A  C027  F014         	movff	CANInitialize@PHSEG1,CANSetBaudRate@PHSEG1
  1787  00055E  C028  F015         	movff	CANInitialize@PHSEG2,CANSetBaudRate@PHSEG2
  1788  000562  C029  F016         	movff	CANInitialize@PROPSEG,CANSetBaudRate@PROPSEG
  1789  000566  C02A  F017         	movff	CANInitialize@config,CANSetBaudRate@flags
  1790  00056A  502F               	movf	CANInitialize@SJW,w,c
  1791  00056C  EC12  F00A         	call	_CANSetBaudRate
  1792                           
  1793                           ;can18xx8.c: 174: RXB0CON = config & CAN_CONFIG_MSG_BITS;
  1794  000570  502A               	movf	CANInitialize@config,w,c
  1795  000572  0B60               	andlw	96
  1796  000574  6E60               	movwf	3936,c	;volatile
  1797                           
  1798                           ;can18xx8.c: 175: if ( (config & CAN_CONFIG_DBL_BUFFER_BIT)
  1799                           ;can18xx8.c: 176: == CAN_CONFIG_DBL_BUFFER_ON )
  1800  000576  C02A  F02B         	movff	CANInitialize@config,??_CANInitialize
  1801  00057A  0E10               	movlw	16
  1802  00057C  162B               	andwf	??_CANInitialize,f,c
  1803  00057E  502B               	movf	??_CANInitialize,w,c
  1804  000580  0AFF               	xorlw	255
  1805  000582  B4D8               	btfsc	status,2,c
  1806                           
  1807                           ;can18xx8.c: 177: RXB0CONbits.RXB0DBEN = 1;
  1808  000584  8460               	bsf	3936,2,c	;volatile
  1809                           
  1810                           ;can18xx8.c: 180: RXB1CON = RXB0CON;
  1811  000586  CF60 FF50          	movff	3936,3920	;volatile
  1812                           
  1813                           ;can18xx8.c: 183: CANSetMask(CAN_MASK_B1, 0, CAN_CONFIG_XTD_MSG);
  1814  00058A  0E00               	movlw	0
  1815  00058C  6E1E               	movwf	CANSetMask@val,c
  1816  00058E  0E00               	movlw	0
  1817  000590  6E1F               	movwf	CANSetMask@val+1,c
  1818  000592  0E00               	movlw	0
  1819  000594  6E20               	movwf	CANSetMask@val+2,c
  1820  000596  0E00               	movlw	0
  1821  000598  6E21               	movwf	CANSetMask@val+3,c
  1822  00059A  6E2B               	movwf	??_CANInitialize& (0+255),c
  1823  00059C  0EF7               	movlw	247
  1824  00059E  6E22               	movwf	CANSetMask@type,c
  1825  0005A0  502B               	movf	??_CANInitialize& (0+255),w,c
  1826  0005A2  0E00               	movlw	0
  1827  0005A4  EC96  F009         	call	_CANSetMask
  1828                           
  1829                           ;can18xx8.c: 184: CANSetMask(CAN_MASK_B2, 0, CAN_CONFIG_XTD_MSG);
  1830  0005A8  0E00               	movlw	0
  1831  0005AA  6E1E               	movwf	CANSetMask@val,c
  1832  0005AC  0E00               	movlw	0
  1833  0005AE  6E1F               	movwf	CANSetMask@val+1,c
  1834  0005B0  0E00               	movlw	0
  1835  0005B2  6E20               	movwf	CANSetMask@val+2,c
  1836  0005B4  0E00               	movlw	0
  1837  0005B6  6E21               	movwf	CANSetMask@val+3,c
  1838  0005B8  6E2B               	movwf	??_CANInitialize& (0+255),c
  1839  0005BA  0EF7               	movlw	247
  1840  0005BC  6E22               	movwf	CANSetMask@type,c
  1841  0005BE  502B               	movf	??_CANInitialize& (0+255),w,c
  1842  0005C0  0E01               	movlw	1
  1843  0005C2  EC96  F009         	call	_CANSetMask
  1844                           
  1845                           ;can18xx8.c: 186: switch( (config & CAN_CONFIG_MSG_BITS) | ~CAN_CONFIG_MSG_BITS )
  1846  0005C6  D00E               	goto	l5318
  1847  0005C8                     l5312:
  1848                           
  1849                           ;can18xx8.c: 189: FilterConfig1 = CAN_CONFIG_XTD_MSG;
  1850  0005C8  6E2B               	movwf	??_CANInitialize& (0+255),c
  1851  0005CA  0EF7               	movlw	247
  1852  0005CC  6E30               	movwf	CANInitialize@FilterConfig1,c
  1853  0005CE  502B               	movf	??_CANInitialize& (0+255),w,c
  1854  0005D0  D004               	goto	L3
  1855  0005D2                     l204:
  1856                           
  1857                           ;can18xx8.c: 194: FilterConfig1 = CAN_CONFIG_STD_MSG;
  1858  0005D2  6830               	setf	CANInitialize@FilterConfig1,c
  1859                           
  1860                           ;can18xx8.c: 195: FilterConfig2 = CAN_CONFIG_STD_MSG;
  1861  0005D4  6831               	setf	CANInitialize@FilterConfig2,c
  1862                           
  1863                           ;can18xx8.c: 196: break;
  1864  0005D6  D01E               	goto	l5320
  1865  0005D8                     l205:
  1866                           
  1867                           ;can18xx8.c: 198: FilterConfig1 = CAN_CONFIG_STD_MSG;
  1868  0005D8  6830               	setf	CANInitialize@FilterConfig1,c
  1869  0005DA                     L3:
  1870                           
  1871                           ;can18xx8.c: 199: FilterConfig2 = CAN_CONFIG_XTD_MSG;
  1872  0005DA  6E2B               	movwf	??_CANInitialize& (0+255),c
  1873  0005DC  0EF7               	movlw	247
  1874  0005DE  6E31               	movwf	CANInitialize@FilterConfig2,c
  1875  0005E0  502B               	movf	??_CANInitialize& (0+255),w,c
  1876                           
  1877                           ;can18xx8.c: 200: break;
  1878  0005E2  D018               	goto	l5320
  1879  0005E4                     l5318:
  1880  0005E4  0E9F               	movlw	159
  1881  0005E6  6E2B               	movwf	??_CANInitialize& (0+255),c
  1882  0005E8  0EFF               	movlw	255
  1883  0005EA  6E2C               	movwf	(??_CANInitialize+1)& (0+255),c
  1884  0005EC  502A               	movf	CANInitialize@config,w,c
  1885  0005EE  0B60               	andlw	96
  1886  0005F0  6E2D               	movwf	(??_CANInitialize+2)& (0+255),c
  1887  0005F2  6A2E               	clrf	(??_CANInitialize+3)& (0+255),c
  1888  0005F4  502B               	movf	??_CANInitialize,w,c
  1889  0005F6  122D               	iorwf	??_CANInitialize+2,f,c
  1890  0005F8  502C               	movf	??_CANInitialize+1,w,c
  1891  0005FA  122E               	iorwf	??_CANInitialize+3,f,c
  1892                           
  1893                           ; Switch on 2 bytes has been partitioned into a top level switch of size 1, and 1 sub-sw
      +                          itches
  1894                           ; Switch size 1, requested type "space"
  1895                           ; Number of cases is 1, Range of values is 0 to 0
  1896                           ; switch strategies available:
  1897                           ; Name         Instructions Cycles
  1898                           ; simple_byte            4     3 (average)
  1899                           ;	Chosen strategy is simple_byte
  1900  0005FC  502E               	movf	??_CANInitialize+3,w,c
  1901  0005FE  0A00               	xorlw	0	; case 0
  1902  000600  A4D8               	btfss	status,2,c
  1903  000602  D7EA               	goto	l205
  1904                           
  1905                           ; Switch size 1, requested type "space"
  1906                           ; Number of cases is 2, Range of values is 191 to 223
  1907                           ; switch strategies available:
  1908                           ; Name         Instructions Cycles
  1909                           ; simple_byte            7     4 (average)
  1910                           ;	Chosen strategy is simple_byte
  1911  000604  502D               	movf	??_CANInitialize+2,w,c
  1912  000606  0ABF               	xorlw	191	; case 191
  1913  000608  B4D8               	btfsc	status,2,c
  1914  00060A  D7E3               	goto	l204
  1915  00060C  0A60               	xorlw	96	; case 223
  1916  00060E  B4D8               	btfsc	status,2,c
  1917  000610  D7DB               	goto	l5312
  1918  000612  D7E2               	goto	l205
  1919  000614                     l5320:
  1920                           
  1921                           ;can18xx8.c: 205: CANSetFilter(CAN_FILTER_B1_F1, 0, FilterConfig1);
  1922  000614  0E00               	movlw	0
  1923  000616  6E1E               	movwf	CANSetFilter@val,c
  1924  000618  0E00               	movlw	0
  1925  00061A  6E1F               	movwf	CANSetFilter@val+1,c
  1926  00061C  0E00               	movlw	0
  1927  00061E  6E20               	movwf	CANSetFilter@val+2,c
  1928  000620  0E00               	movlw	0
  1929  000622  6E21               	movwf	CANSetFilter@val+3,c
  1930  000624  C030  F022         	movff	CANInitialize@FilterConfig1,CANSetFilter@type
  1931  000628  0E00               	movlw	0
  1932  00062A  ECCA  F008         	call	_CANSetFilter
  1933                           
  1934                           ;can18xx8.c: 206: CANSetFilter(CAN_FILTER_B1_F2, 0, FilterConfig1);
  1935  00062E  0E00               	movlw	0
  1936  000630  6E1E               	movwf	CANSetFilter@val,c
  1937  000632  0E00               	movlw	0
  1938  000634  6E1F               	movwf	CANSetFilter@val+1,c
  1939  000636  0E00               	movlw	0
  1940  000638  6E20               	movwf	CANSetFilter@val+2,c
  1941  00063A  0E00               	movlw	0
  1942  00063C  6E21               	movwf	CANSetFilter@val+3,c
  1943  00063E  C030  F022         	movff	CANInitialize@FilterConfig1,CANSetFilter@type
  1944  000642  0E01               	movlw	1
  1945  000644  ECCA  F008         	call	_CANSetFilter
  1946                           
  1947                           ;can18xx8.c: 207: CANSetFilter(CAN_FILTER_B2_F1, 0, FilterConfig2);
  1948  000648  0E00               	movlw	0
  1949  00064A  6E1E               	movwf	CANSetFilter@val,c
  1950  00064C  0E00               	movlw	0
  1951  00064E  6E1F               	movwf	CANSetFilter@val+1,c
  1952  000650  0E00               	movlw	0
  1953  000652  6E20               	movwf	CANSetFilter@val+2,c
  1954  000654  0E00               	movlw	0
  1955  000656  6E21               	movwf	CANSetFilter@val+3,c
  1956  000658  C031  F022         	movff	CANInitialize@FilterConfig2,CANSetFilter@type
  1957  00065C  0E02               	movlw	2
  1958  00065E  ECCA  F008         	call	_CANSetFilter
  1959                           
  1960                           ;can18xx8.c: 208: CANSetFilter(CAN_FILTER_B2_F2, 0, FilterConfig2);
  1961  000662  0E00               	movlw	0
  1962  000664  6E1E               	movwf	CANSetFilter@val,c
  1963  000666  0E00               	movlw	0
  1964  000668  6E1F               	movwf	CANSetFilter@val+1,c
  1965  00066A  0E00               	movlw	0
  1966  00066C  6E20               	movwf	CANSetFilter@val+2,c
  1967  00066E  0E00               	movlw	0
  1968  000670  6E21               	movwf	CANSetFilter@val+3,c
  1969  000672  C031  F022         	movff	CANInitialize@FilterConfig2,CANSetFilter@type
  1970  000676  0E03               	movlw	3
  1971  000678  ECCA  F008         	call	_CANSetFilter
  1972                           
  1973                           ;can18xx8.c: 209: CANSetFilter(CAN_FILTER_B2_F3, 0, FilterConfig2);
  1974  00067C  0E00               	movlw	0
  1975  00067E  6E1E               	movwf	CANSetFilter@val,c
  1976  000680  0E00               	movlw	0
  1977  000682  6E1F               	movwf	CANSetFilter@val+1,c
  1978  000684  0E00               	movlw	0
  1979  000686  6E20               	movwf	CANSetFilter@val+2,c
  1980  000688  0E00               	movlw	0
  1981  00068A  6E21               	movwf	CANSetFilter@val+3,c
  1982  00068C  C031  F022         	movff	CANInitialize@FilterConfig2,CANSetFilter@type
  1983  000690  0E04               	movlw	4
  1984  000692  ECCA  F008         	call	_CANSetFilter
  1985                           
  1986                           ;can18xx8.c: 210: CANSetFilter(CAN_FILTER_B2_F4, 0, FilterConfig2);
  1987  000696  0E00               	movlw	0
  1988  000698  6E1E               	movwf	CANSetFilter@val,c
  1989  00069A  0E00               	movlw	0
  1990  00069C  6E1F               	movwf	CANSetFilter@val+1,c
  1991  00069E  0E00               	movlw	0
  1992  0006A0  6E20               	movwf	CANSetFilter@val+2,c
  1993  0006A2  0E00               	movlw	0
  1994  0006A4  6E21               	movwf	CANSetFilter@val+3,c
  1995  0006A6  C031  F022         	movff	CANInitialize@FilterConfig2,CANSetFilter@type
  1996  0006AA  0E05               	movlw	5
  1997  0006AC  ECCA  F008         	call	_CANSetFilter
  1998                           
  1999                           ;can18xx8.c: 213: CANSetOperationMode(CAN_OP_MODE_NORMAL);
  2000  0006B0  0E00               	movlw	0
  2001  0006B2  ECDC  F00A         	call	_CANSetOperationMode
  2002  0006B6  0012               	return	
  2003  0006B8                     __end_of_CANInitialize:
  2004                           	opt stack 0
  2005                           tblptru	equ	0xFF8
  2006                           tblptrh	equ	0xFF7
  2007                           tblptrl	equ	0xFF6
  2008                           tablat	equ	0xFF5
  2009                           intcon	equ	0xFF2
  2010                           postinc0	equ	0xFEE
  2011                           wreg	equ	0xFE8
  2012                           postdec1	equ	0xFE5
  2013                           fsr1l	equ	0xFE1
  2014                           status	equ	0xFD8
  2015                           
  2016 ;; *************** function _CANSetOperationMode *****************
  2017 ;; Defined at:
  2018 ;;		line 236 in file "can18xx8.c"
  2019 ;; Parameters:    Size  Location     Type
  2020 ;;  mode            1    wreg     enum E449
  2021 ;; Auto vars:     Size  Location     Type
  2022 ;;  mode            1   18[COMRAM] enum E449
  2023 ;; Return value:  Size  Location     Type
  2024 ;;		None               void
  2025 ;; Registers used:
  2026 ;;		wreg, status,2, status,0
  2027 ;; Tracked objects:
  2028 ;;		On entry : 0/0
  2029 ;;		On exit  : 0/0
  2030 ;;		Unchanged: 0/0
  2031 ;; Data sizes:     COMRAM   BANK0   BANK1   BANK2   BANK3   BANK4   BANK5   BANK6   BANK7   BANK8   BANK9  BANK10  BANK1
      +1  BANK12
  2032 ;;      Params:         0       0       0       0       0       0       0       0       0       0       0       0       
      +0       0
  2033 ;;      Locals:         1       0       0       0       0       0       0       0       0       0       0       0       
      +0       0
  2034 ;;      Temps:          0       0       0       0       0       0       0       0       0       0       0       0       
      +0       0
  2035 ;;      Totals:         1       0       0       0       0       0       0       0       0       0       0       0       
      +0       0
  2036 ;;Total ram usage:        1 bytes
  2037 ;; Hardware stack levels used:    1
  2038 ;; Hardware stack levels required when called:    1
  2039 ;; This function calls:
  2040 ;;		Nothing
  2041 ;; This function is called by:
  2042 ;;		_CANInitialize
  2043 ;; This function uses a non-reentrant model
  2044 ;;
  2045                           
  2046                           	psect	text9
  2047  0015B8                     __ptext9:
  2048                           	opt stack 0
  2049  0015B8                     _CANSetOperationMode:
  2050                           	opt stack 26
  2051                           
  2052                           ;incstack = 0
  2053                           ;CANSetOperationMode@mode stored from wreg
  2054  0015B8  CFE8 F013          	movff	wreg,CANSetOperationMode@mode
  2055                           
  2056                           ;can18xx8.c: 239: CANCON = mode;
  2057  0015BC  C013  FF6F         	movff	CANSetOperationMode@mode,3951	;volatile
  2058  0015C0                     l5340:
  2059  0015C0  506E               	movf	3950,w,c	;volatile
  2060  0015C2  0BE0               	andlw	224
  2061  0015C4  1813               	xorwf	CANSetOperationMode@mode,w,c
  2062  0015C6  B4D8               	btfsc	status,2,c
  2063  0015C8  0012               	return	
  2064  0015CA  D7FA               	goto	l5340
  2065  0015CC                     __end_of_CANSetOperationMode:
  2066                           	opt stack 0
  2067                           tblptru	equ	0xFF8
  2068                           tblptrh	equ	0xFF7
  2069                           tblptrl	equ	0xFF6
  2070                           tablat	equ	0xFF5
  2071                           intcon	equ	0xFF2
  2072                           postinc0	equ	0xFEE
  2073                           wreg	equ	0xFE8
  2074                           postdec1	equ	0xFE5
  2075                           fsr1l	equ	0xFE1
  2076                           status	equ	0xFD8
  2077                           
  2078 ;; *************** function _CANSetMask *****************
  2079 ;; Defined at:
  2080 ;;		line 454 in file "can18xx8.c"
  2081 ;; Parameters:    Size  Location     Type
  2082 ;;  code            1    wreg     enum E439
  2083 ;;  val             4   29[COMRAM] unsigned long 
  2084 ;;  type            1   33[COMRAM] enum E456
  2085 ;; Auto vars:     Size  Location     Type
  2086 ;;  code            1   34[COMRAM] enum E439
  2087 ;;  ptr             2   35[COMRAM] PTR unsigned char 
  2088 ;;		 -> RXM1SIDH(1), RXM0SIDH(1), 
  2089 ;; Return value:  Size  Location     Type
  2090 ;;		None               void
  2091 ;; Registers used:
  2092 ;;		wreg, fsr1l, fsr1h, fsr2l, fsr2h, status,2, status,0, cstack
  2093 ;; Tracked objects:
  2094 ;;		On entry : 0/0
  2095 ;;		On exit  : 0/0
  2096 ;;		Unchanged: 0/0
  2097 ;; Data sizes:     COMRAM   BANK0   BANK1   BANK2   BANK3   BANK4   BANK5   BANK6   BANK7   BANK8   BANK9  BANK10  BANK1
      +1  BANK12
  2098 ;;      Params:         5       0       0       0       0       0       0       0       0       0       0       0       
      +0       0
  2099 ;;      Locals:         3       0       0       0       0       0       0       0       0       0       0       0       
      +0       0
  2100 ;;      Temps:          0       0       0       0       0       0       0       0       0       0       0       0       
      +0       0
  2101 ;;      Totals:         8       0       0       0       0       0       0       0       0       0       0       0       
      +0       0
  2102 ;;Total ram usage:        8 bytes
  2103 ;; Hardware stack levels used:    1
  2104 ;; Hardware stack levels required when called:    2
  2105 ;; This function calls:
  2106 ;;		_CANIDToRegs
  2107 ;; This function is called by:
  2108 ;;		_CANInitialize
  2109 ;; This function uses a non-reentrant model
  2110 ;;
  2111                           
  2112                           	psect	text10
  2113  00132C                     __ptext10:
  2114                           	opt stack 0
  2115  00132C                     _CANSetMask:
  2116                           	opt stack 25
  2117                           
  2118                           ;incstack = 0
  2119                           ;CANSetMask@code stored from wreg
  2120  00132C  CFE8 F023          	movff	wreg,CANSetMask@code
  2121                           
  2122                           ;can18xx8.c: 458: BYTE *ptr;
  2123                           ;can18xx8.c: 462: if ( code == CAN_MASK_B1 )
  2124  001330  6623               	tstfsz	CANSetMask@code,c
  2125  001332  D006               	goto	l5364
  2126                           
  2127                           ;can18xx8.c: 463: ptr = (BYTE*)&RXM0SIDH;
  2128  001334  010F               	movlb	15	; () banked
  2129  001336  0E0F               	movlw	15	;volatile
  2130  001338  6E25               	movwf	CANSetMask@ptr+1,c
  2131  00133A  010F               	movlb	15	; () banked
  2132  00133C  0E18               	movlw	24	;volatile
  2133  00133E  D005               	goto	L4
  2134  001340                     l5364:
  2135                           
  2136                           ;can18xx8.c: 464: else
  2137                           ;can18xx8.c: 465: ptr = (BYTE*)&RXM1SIDH;
  2138  001340  010F               	movlb	15	; () banked
  2139  001342  0E0F               	movlw	15	;volatile
  2140  001344  6E25               	movwf	CANSetMask@ptr+1,c
  2141  001346  010F               	movlb	15	; () banked
  2142  001348  0E1C               	movlw	28	;volatile
  2143  00134A                     L4:
  2144  00134A  6E24               	movwf	CANSetMask@ptr,c
  2145                           
  2146                           ; BSR set to: 15
  2147                           ;can18xx8.c: 468: CANIDToRegs(ptr, val, type);
  2148                           
  2149                           ; BSR set to: 15
  2150  00134C  C025  F014         	movff	CANSetMask@ptr+1,CANIDToRegs@ptr+1
  2151  001350  C024  F013         	movff	CANSetMask@ptr,CANIDToRegs@ptr
  2152  001354  C01E  F015         	movff	CANSetMask@val,CANIDToRegs@val
  2153  001358  C01F  F016         	movff	CANSetMask@val+1,CANIDToRegs@val+1
  2154  00135C  C020  F017         	movff	CANSetMask@val+2,CANIDToRegs@val+2
  2155  001360  C021  F018         	movff	CANSetMask@val+3,CANIDToRegs@val+3
  2156  001364  C022  F019         	movff	CANSetMask@type,CANIDToRegs@type
  2157  001368  EC5C  F003         	call	_CANIDToRegs	;wreg free
  2158  00136C  0012               	return	
  2159  00136E                     __end_of_CANSetMask:
  2160                           	opt stack 0
  2161                           tblptru	equ	0xFF8
  2162                           tblptrh	equ	0xFF7
  2163                           tblptrl	equ	0xFF6
  2164                           tablat	equ	0xFF5
  2165                           intcon	equ	0xFF2
  2166                           postinc0	equ	0xFEE
  2167                           wreg	equ	0xFE8
  2168                           postdec1	equ	0xFE5
  2169                           fsr1l	equ	0xFE1
  2170                           status	equ	0xFD8
  2171                           
  2172 ;; *************** function _CANSetFilter *****************
  2173 ;; Defined at:
  2174 ;;		line 492 in file "can18xx8.c"
  2175 ;; Parameters:    Size  Location     Type
  2176 ;;  code            1    wreg     enum E442
  2177 ;;  val             4   29[COMRAM] unsigned long 
  2178 ;;  type            1   33[COMRAM] enum E456
  2179 ;; Auto vars:     Size  Location     Type
  2180 ;;  code            1   34[COMRAM] enum E442
  2181 ;;  ptr             2   35[COMRAM] PTR unsigned char 
  2182 ;;		 -> RXF5SIDH(1), RXF4SIDH(1), RXF3SIDH(1), RXF2SIDH(1), 
  2183 ;;		 -> RXF1SIDH(1), RXF0SIDH(1), 
  2184 ;; Return value:  Size  Location     Type
  2185 ;;		None               void
  2186 ;; Registers used:
  2187 ;;		wreg, fsr1l, fsr1h, fsr2l, fsr2h, status,2, status,0, cstack
  2188 ;; Tracked objects:
  2189 ;;		On entry : 0/0
  2190 ;;		On exit  : 0/0
  2191 ;;		Unchanged: 0/0
  2192 ;; Data sizes:     COMRAM   BANK0   BANK1   BANK2   BANK3   BANK4   BANK5   BANK6   BANK7   BANK8   BANK9  BANK10  BANK1
      +1  BANK12
  2193 ;;      Params:         5       0       0       0       0       0       0       0       0       0       0       0       
      +0       0
  2194 ;;      Locals:         3       0       0       0       0       0       0       0       0       0       0       0       
      +0       0
  2195 ;;      Temps:          0       0       0       0       0       0       0       0       0       0       0       0       
      +0       0
  2196 ;;      Totals:         8       0       0       0       0       0       0       0       0       0       0       0       
      +0       0
  2197 ;;Total ram usage:        8 bytes
  2198 ;; Hardware stack levels used:    1
  2199 ;; Hardware stack levels required when called:    2
  2200 ;; This function calls:
  2201 ;;		_CANIDToRegs
  2202 ;; This function is called by:
  2203 ;;		_CANInitialize
  2204 ;; This function uses a non-reentrant model
  2205 ;;
  2206                           
  2207                           	psect	text11
  2208  001194                     __ptext11:
  2209                           	opt stack 0
  2210  001194                     _CANSetFilter:
  2211                           	opt stack 25
  2212                           
  2213                           ;incstack = 0
  2214                           ;CANSetFilter@code stored from wreg
  2215  001194  CFE8 F023          	movff	wreg,CANSetFilter@code
  2216                           
  2217                           ;can18xx8.c: 496: BYTE *ptr;
  2218                           ;can18xx8.c: 500: switch(code)
  2219  001198  D025               	goto	l5384
  2220  00119A                     l5370:
  2221                           
  2222                           ;can18xx8.c: 503: ptr = (BYTE*)&RXF0SIDH;
  2223  00119A  010F               	movlb	15	; () banked
  2224  00119C  0E0F               	movlw	15	;volatile
  2225  00119E  6E25               	movwf	CANSetFilter@ptr+1,c
  2226  0011A0  010F               	movlb	15	; () banked
  2227  0011A2  0E00               	movlw	0	;volatile
  2228  0011A4  D01D               	goto	L9
  2229  0011A6                     l5372:
  2230                           
  2231                           ;can18xx8.c: 507: ptr = (BYTE*)&RXF1SIDH;
  2232  0011A6  010F               	movlb	15	; () banked
  2233  0011A8  0E0F               	movlw	15	;volatile
  2234  0011AA  6E25               	movwf	CANSetFilter@ptr+1,c
  2235  0011AC  010F               	movlb	15	; () banked
  2236  0011AE  0E04               	movlw	4	;volatile
  2237  0011B0  D017               	goto	L9
  2238  0011B2                     l5374:
  2239                           
  2240                           ;can18xx8.c: 511: ptr = (BYTE*)&RXF2SIDH;
  2241  0011B2  010F               	movlb	15	; () banked
  2242  0011B4  0E0F               	movlw	15	;volatile
  2243  0011B6  6E25               	movwf	CANSetFilter@ptr+1,c
  2244  0011B8  010F               	movlb	15	; () banked
  2245  0011BA  0E08               	movlw	8	;volatile
  2246  0011BC  D011               	goto	L9
  2247  0011BE                     l5376:
  2248                           
  2249                           ;can18xx8.c: 515: ptr = (BYTE*)&RXF3SIDH;
  2250  0011BE  010F               	movlb	15	; () banked
  2251  0011C0  0E0F               	movlw	15	;volatile
  2252  0011C2  6E25               	movwf	CANSetFilter@ptr+1,c
  2253  0011C4  010F               	movlb	15	; () banked
  2254  0011C6  0E0C               	movlw	12	;volatile
  2255  0011C8  D00B               	goto	L9
  2256  0011CA                     l5378:
  2257                           
  2258                           ;can18xx8.c: 519: ptr = (BYTE*)&RXF4SIDH;
  2259  0011CA  010F               	movlb	15	; () banked
  2260  0011CC  0E0F               	movlw	15	;volatile
  2261  0011CE  6E25               	movwf	CANSetFilter@ptr+1,c
  2262  0011D0  010F               	movlb	15	; () banked
  2263  0011D2  0E10               	movlw	16	;volatile
  2264  0011D4  D005               	goto	L9
  2265  0011D6                     l5380:
  2266                           
  2267                           ;can18xx8.c: 523: ptr = (BYTE*)&RXF5SIDH;
  2268  0011D6  010F               	movlb	15	; () banked
  2269  0011D8  0E0F               	movlw	15	;volatile
  2270  0011DA  6E25               	movwf	CANSetFilter@ptr+1,c
  2271  0011DC  010F               	movlb	15	; () banked
  2272  0011DE  0E14               	movlw	20	;volatile
  2273  0011E0                     L9:
  2274  0011E0  6E24               	movwf	CANSetFilter@ptr,c
  2275                           
  2276                           ;can18xx8.c: 524: break;
  2277  0011E2  D011               	goto	l5386
  2278  0011E4                     l5384:
  2279  0011E4  5023               	movf	CANSetFilter@code,w,c
  2280                           
  2281                           ; Switch size 1, requested type "space"
  2282                           ; Number of cases is 5, Range of values is 0 to 4
  2283                           ; switch strategies available:
  2284                           ; Name         Instructions Cycles
  2285                           ; simple_byte           16     9 (average)
  2286                           ;	Chosen strategy is simple_byte
  2287  0011E6  0A00               	xorlw	0	; case 0
  2288  0011E8  B4D8               	btfsc	status,2,c
  2289  0011EA  D7D7               	goto	l5370
  2290  0011EC  0A01               	xorlw	1	; case 1
  2291  0011EE  B4D8               	btfsc	status,2,c
  2292  0011F0  D7DA               	goto	l5372
  2293  0011F2  0A03               	xorlw	3	; case 2
  2294  0011F4  B4D8               	btfsc	status,2,c
  2295  0011F6  D7DD               	goto	l5374
  2296  0011F8  0A01               	xorlw	1	; case 3
  2297  0011FA  B4D8               	btfsc	status,2,c
  2298  0011FC  D7E0               	goto	l5376
  2299  0011FE  0A07               	xorlw	7	; case 4
  2300  001200  B4D8               	btfsc	status,2,c
  2301  001202  D7E3               	goto	l5378
  2302  001204  D7E8               	goto	l5380
  2303  001206                     l5386:
  2304                           
  2305                           ;can18xx8.c: 528: CANIDToRegs(ptr, val, type);
  2306  001206  C025  F014         	movff	CANSetFilter@ptr+1,CANIDToRegs@ptr+1
  2307  00120A  C024  F013         	movff	CANSetFilter@ptr,CANIDToRegs@ptr
  2308  00120E  C01E  F015         	movff	CANSetFilter@val,CANIDToRegs@val
  2309  001212  C01F  F016         	movff	CANSetFilter@val+1,CANIDToRegs@val+1
  2310  001216  C020  F017         	movff	CANSetFilter@val+2,CANIDToRegs@val+2
  2311  00121A  C021  F018         	movff	CANSetFilter@val+3,CANIDToRegs@val+3
  2312  00121E  C022  F019         	movff	CANSetFilter@type,CANIDToRegs@type
  2313  001222  EC5C  F003         	call	_CANIDToRegs	;wreg free
  2314  001226  0012               	return	
  2315  001228                     __end_of_CANSetFilter:
  2316                           	opt stack 0
  2317                           tblptru	equ	0xFF8
  2318                           tblptrh	equ	0xFF7
  2319                           tblptrl	equ	0xFF6
  2320                           tablat	equ	0xFF5
  2321                           intcon	equ	0xFF2
  2322                           postinc0	equ	0xFEE
  2323                           wreg	equ	0xFE8
  2324                           postdec1	equ	0xFE5
  2325                           fsr1l	equ	0xFE1
  2326                           status	equ	0xFD8
  2327                           
  2328 ;; *************** function _CANSetBaudRate *****************
  2329 ;; Defined at:
  2330 ;;		line 281 in file "can18xx8.c"
  2331 ;; Parameters:    Size  Location     Type
  2332 ;;  SJW             1    wreg     unsigned char 
  2333 ;;  BRP             1   18[COMRAM] unsigned char 
  2334 ;;  PHSEG1          1   19[COMRAM] unsigned char 
  2335 ;;  PHSEG2          1   20[COMRAM] unsigned char 
  2336 ;;  PROPSEG         1   21[COMRAM] unsigned char 
  2337 ;;  flags           1   22[COMRAM] enum E456
  2338 ;; Auto vars:     Size  Location     Type
  2339 ;;  SJW             1   23[COMRAM] unsigned char 
  2340 ;; Return value:  Size  Location     Type
  2341 ;;		None               void
  2342 ;; Registers used:
  2343 ;;		wreg, status,2, status,0
  2344 ;; Tracked objects:
  2345 ;;		On entry : 0/0
  2346 ;;		On exit  : 0/0
  2347 ;;		Unchanged: 0/0
  2348 ;; Data sizes:     COMRAM   BANK0   BANK1   BANK2   BANK3   BANK4   BANK5   BANK6   BANK7   BANK8   BANK9  BANK10  BANK1
      +1  BANK12
  2349 ;;      Params:         5       0       0       0       0       0       0       0       0       0       0       0       
      +0       0
  2350 ;;      Locals:         1       0       0       0       0       0       0       0       0       0       0       0       
      +0       0
  2351 ;;      Temps:          0       0       0       0       0       0       0       0       0       0       0       0       
      +0       0
  2352 ;;      Totals:         6       0       0       0       0       0       0       0       0       0       0       0       
      +0       0
  2353 ;;Total ram usage:        6 bytes
  2354 ;; Hardware stack levels used:    1
  2355 ;; Hardware stack levels required when called:    1
  2356 ;; This function calls:
  2357 ;;		Nothing
  2358 ;; This function is called by:
  2359 ;;		_CANInitialize
  2360 ;; This function uses a non-reentrant model
  2361 ;;
  2362                           
  2363                           	psect	text12
  2364  001424                     __ptext12:
  2365                           	opt stack 0
  2366  001424                     _CANSetBaudRate:
  2367                           	opt stack 26
  2368                           
  2369                           ;incstack = 0
  2370                           ;CANSetBaudRate@SJW stored from wreg
  2371  001424  CFE8 F018          	movff	wreg,CANSetBaudRate@SJW
  2372                           
  2373                           ;can18xx8.c: 290: SJW--;
  2374  001428  0618               	decf	CANSetBaudRate@SJW,f,c
  2375                           
  2376                           ;can18xx8.c: 291: BRP--;
  2377  00142A  0613               	decf	CANSetBaudRate@BRP,f,c
  2378                           
  2379                           ;can18xx8.c: 292: PHSEG1--;
  2380  00142C  0614               	decf	CANSetBaudRate@PHSEG1,f,c
  2381                           
  2382                           ;can18xx8.c: 293: PHSEG2--;
  2383  00142E  0615               	decf	CANSetBaudRate@PHSEG2,f,c
  2384                           
  2385                           ;can18xx8.c: 294: PROPSEG--;
  2386  001430  0616               	decf	CANSetBaudRate@PROPSEG,f,c
  2387                           
  2388                           ;can18xx8.c: 297: BRGCON1 = SJW << 6;
  2389  001432  4018               	rrncf	CANSetBaudRate@SJW,w,c
  2390  001434  42E8               	rrncf	wreg,f,c
  2391  001436  0BC0               	andlw	192
  2392  001438  6E70               	movwf	3952,c	;volatile
  2393                           
  2394                           ;can18xx8.c: 298: BRGCON1 |= BRP;
  2395  00143A  5013               	movf	CANSetBaudRate@BRP,w,c
  2396  00143C  1270               	iorwf	3952,f,c	;volatile
  2397                           
  2398                           ;can18xx8.c: 300: BRGCON2 = PHSEG1 << 3;
  2399  00143E  3814               	swapf	CANSetBaudRate@PHSEG1,w,c
  2400  001440  42E8               	rrncf	wreg,f,c
  2401  001442  0BF8               	andlw	248
  2402  001444  6E71               	movwf	3953,c	;volatile
  2403                           
  2404                           ;can18xx8.c: 301: BRGCON2 |= PROPSEG;
  2405  001446  5016               	movf	CANSetBaudRate@PROPSEG,w,c
  2406  001448  1271               	iorwf	3953,f,c	;volatile
  2407                           
  2408                           ;can18xx8.c: 303: if ( !(flags & CAN_CONFIG_SAMPLE_BIT) )
  2409  00144A  A417               	btfss	CANSetBaudRate@flags,2,c
  2410                           
  2411                           ;can18xx8.c: 304: BRGCON2bits.SAM = 1;
  2412  00144C  8C71               	bsf	3953,6,c	;volatile
  2413                           
  2414                           ;can18xx8.c: 306: if ( flags & CAN_CONFIG_PHSEG2_PRG_BIT )
  2415  00144E  B017               	btfsc	CANSetBaudRate@flags,0,c
  2416                           
  2417                           ;can18xx8.c: 307: BRGCON2bits.SEG2PHTS = 1;
  2418  001450  8E71               	bsf	3953,7,c	;volatile
  2419                           
  2420                           ;can18xx8.c: 310: BRGCON3 = PHSEG2;
  2421  001452  C015  FF72         	movff	CANSetBaudRate@PHSEG2,3954	;volatile
  2422                           
  2423                           ;can18xx8.c: 311: if ( flags & CAN_CONFIG_LINE_FILTER_BIT )
  2424  001456  B217               	btfsc	CANSetBaudRate@flags,1,c
  2425                           
  2426                           ;can18xx8.c: 312: BRGCON3bits.WAKFIL = 1;
  2427  001458  8C72               	bsf	3954,6,c	;volatile
  2428  00145A  0012               	return	
  2429  00145C                     __end_of_CANSetBaudRate:
  2430                           	opt stack 0
  2431                           tblptru	equ	0xFF8
  2432                           tblptrh	equ	0xFF7
  2433                           tblptrl	equ	0xFF6
  2434                           tablat	equ	0xFF5
  2435                           intcon	equ	0xFF2
  2436                           postinc0	equ	0xFEE
  2437                           wreg	equ	0xFE8
  2438                           postdec1	equ	0xFE5
  2439                           fsr1l	equ	0xFE1
  2440                           status	equ	0xFD8
  2441                           
  2442 ;; *************** function _getAccelGyro *****************
  2443 ;; Defined at:
  2444 ;;		line 132 in file "main.c"
  2445 ;; Parameters:    Size  Location     Type
  2446 ;;		None
  2447 ;; Auto vars:     Size  Location     Type
  2448 ;;  data_ready      1   13[BANK0 ] unsigned char 
  2449 ;; Return value:  Size  Location     Type
  2450 ;;		None               void
  2451 ;; Registers used:
  2452 ;;		wreg, fsr0l, fsr0h, fsr1l, fsr1h, fsr1l, fsr1h, fsr2l, fsr2h, status,2, status,0, pclat, btemp, btemp+1, btemp+2, bt
      +emp+3, btemp+4, btemp+5, btemp+6, btemp+7, btemp+8, btemp+9, btemp+10, btemp+11, tosl, structret, tblptrl, tblptrh, tblp
      +tru, prodl, prodh, bsr, cstack
  2453 ;; Tracked objects:
  2454 ;;		On entry : 0/0
  2455 ;;		On exit  : 0/0
  2456 ;;		Unchanged: 0/0
  2457 ;; Data sizes:     COMRAM   BANK0   BANK1   BANK2   BANK3   BANK4   BANK5   BANK6   BANK7   BANK8   BANK9  BANK10  BANK1
      +1  BANK12
  2458 ;;      Params:         0       0       0       0       0       0       0       0       0       0       0       0       
      +0       0
  2459 ;;      Locals:         0       1       0       0       0       0       0       0       0       0       0       0       
      +0       0
  2460 ;;      Temps:          0       4       0       0       0       0       0       0       0       0       0       0       
      +0       0
  2461 ;;      Totals:         0       5       0       0       0       0       0       0       0       0       0       0       
      +0       0
  2462 ;;Total ram usage:        5 bytes
  2463 ;; Hardware stack levels used:    1
  2464 ;; Hardware stack levels required when called:    5
  2465 ;; This function calls:
  2466 ;;		_CANsendData
  2467 ;;		___ftmul
  2468 ;;		___fttol
  2469 ;;		_convertAccelData
  2470 ;;		_convertGyroData
  2471 ;;		_mpu_read
  2472 ;;		_readRawAccelData
  2473 ;;		_readRawGyroData
  2474 ;; This function is called by:
  2475 ;;		_main
  2476 ;; This function uses a non-reentrant model
  2477 ;;
  2478                           
  2479                           	psect	text13
  2480  000018                     __ptext13:
  2481                           	opt stack 0
  2482  000018                     _getAccelGyro:
  2483                           	opt stack 24
  2484                           
  2485                           ;main.c: 133: char data_ready = mpu_read((0x68<<1), 0x3A);
  2486                           
  2487                           ;incstack = 0
  2488  000018  0100               	movlb	0	; () banked
  2489  00001A  6F9D               	movwf	??_getAccelGyro& (0+255),b
  2490  00001C  0E3A               	movlw	58
  2491  00001E  6E25               	movwf	mpu_read@reg,c
  2492  000020  0100               	movlb	0	; () banked
  2493  000022  519D               	movf	??_getAccelGyro& (0+255),w,b
  2494  000024  0ED0               	movlw	208
  2495  000026  EC7D  F008         	call	_mpu_read
  2496  00002A  5025               	movf	?_mpu_read,w,c
  2497  00002C  0100               	movlb	0	; () banked
  2498  00002E  0100               	movlb	0	; () banked
  2499  000030  6FA1               	movwf	getAccelGyro@data_ready& (0+255),b
  2500                           
  2501                           ; BSR set to: 0
  2502                           ;main.c: 134: if ((data_ready & 0b1) == 1) {
  2503  000032  0100               	movlb	0	; () banked
  2504  000034  0100               	movlb	0	; () banked
  2505  000036  A1A1               	btfss	getAccelGyro@data_ready& (0+255),0,b
  2506  000038  D10A               	goto	l118
  2507                           
  2508                           ; BSR set to: 0
  2509                           ;main.c: 135: readRawGyroData();
  2510  00003A  EC8A  F007         	call	_readRawGyroData	;wreg free
  2511                           
  2512                           ;main.c: 136: readRawAccelData();
  2513  00003E  ECDC  F007         	call	_readRawAccelData	;wreg free
  2514                           
  2515                           ;main.c: 139: convertGyroData();
  2516  000042  ECE8  F001         	call	_convertGyroData	;wreg free
  2517                           
  2518                           ;main.c: 140: convertAccelData();
  2519  000046  EC2E  F008         	call	_convertAccelData	;wreg free
  2520                           
  2521                           ;main.c: 142: CANsendData((UINT16)(100*accel_x), 0x07);
  2522  00004A  0E00               	movlw	0
  2523  00004C  6E1E               	movwf	___ftmul@f2,c
  2524  00004E  0EC8               	movlw	200
  2525  000050  6E1F               	movwf	___ftmul@f2+1,c
  2526  000052  0E42               	movlw	66
  2527  000054  6E20               	movwf	___ftmul@f2+2,c
  2528  000056  C068  F01B         	movff	_accel_x,___ftmul@f1
  2529  00005A  C069  F01C         	movff	_accel_x+1,___ftmul@f1+1
  2530  00005E  C06A  F01D         	movff	_accel_x+2,___ftmul@f1+2
  2531  000062  ECAC  F004         	call	___ftmul	;wreg free
  2532  000066  C01B  F02A         	movff	?___ftmul,___fttol@f1
  2533  00006A  C01C  F02B         	movff	?___ftmul+1,___fttol@f1+1
  2534  00006E  C01D  F02C         	movff	?___ftmul+2,___fttol@f1+2
  2535  000072  EC01  F006         	call	___fttol	;wreg free
  2536  000076  C02A  F09D         	movff	?___fttol,??_getAccelGyro
  2537  00007A  C02B  F09E         	movff	?___fttol+1,??_getAccelGyro+1
  2538  00007E  C02C  F09F         	movff	?___fttol+2,??_getAccelGyro+2
  2539  000082  C02D  F0A0         	movff	?___fttol+3,??_getAccelGyro+3
  2540  000086  C09D  F094         	movff	??_getAccelGyro,CANsendData@value
  2541  00008A  C09E  F095         	movff	??_getAccelGyro+1,CANsendData@value+1
  2542  00008E  0E00               	movlw	0
  2543  000090  0100               	movlb	0	; () banked
  2544  000092  0100               	movlb	0	; () banked
  2545  000094  6F97               	movwf	(CANsendData@id+1)& (0+255),b
  2546  000096  0E07               	movlw	7
  2547  000098  0100               	movlb	0	; () banked
  2548  00009A  6F96               	movwf	CANsendData@id& (0+255),b
  2549  00009C  EC14  F009         	call	_CANsendData	;wreg free
  2550                           
  2551                           ;main.c: 143: CANsendData((UINT16)(100*accel_y), 0x08);
  2552  0000A0  0E00               	movlw	0
  2553  0000A2  6E1E               	movwf	___ftmul@f2,c
  2554  0000A4  0EC8               	movlw	200
  2555  0000A6  6E1F               	movwf	___ftmul@f2+1,c
  2556  0000A8  0E42               	movlw	66
  2557  0000AA  6E20               	movwf	___ftmul@f2+2,c
  2558  0000AC  C06B  F01B         	movff	_accel_y,___ftmul@f1
  2559  0000B0  C06C  F01C         	movff	_accel_y+1,___ftmul@f1+1
  2560  0000B4  C06D  F01D         	movff	_accel_y+2,___ftmul@f1+2
  2561  0000B8  ECAC  F004         	call	___ftmul	;wreg free
  2562  0000BC  C01B  F02A         	movff	?___ftmul,___fttol@f1
  2563  0000C0  C01C  F02B         	movff	?___ftmul+1,___fttol@f1+1
  2564  0000C4  C01D  F02C         	movff	?___ftmul+2,___fttol@f1+2
  2565  0000C8  EC01  F006         	call	___fttol	;wreg free
  2566  0000CC  C02A  F09D         	movff	?___fttol,??_getAccelGyro
  2567  0000D0  C02B  F09E         	movff	?___fttol+1,??_getAccelGyro+1
  2568  0000D4  C02C  F09F         	movff	?___fttol+2,??_getAccelGyro+2
  2569  0000D8  C02D  F0A0         	movff	?___fttol+3,??_getAccelGyro+3
  2570  0000DC  C09D  F094         	movff	??_getAccelGyro,CANsendData@value
  2571  0000E0  C09E  F095         	movff	??_getAccelGyro+1,CANsendData@value+1
  2572  0000E4  0E00               	movlw	0
  2573  0000E6  0100               	movlb	0	; () banked
  2574  0000E8  0100               	movlb	0	; () banked
  2575  0000EA  6F97               	movwf	(CANsendData@id+1)& (0+255),b
  2576  0000EC  0E08               	movlw	8
  2577  0000EE  0100               	movlb	0	; () banked
  2578  0000F0  6F96               	movwf	CANsendData@id& (0+255),b
  2579  0000F2  EC14  F009         	call	_CANsendData	;wreg free
  2580                           
  2581                           ;main.c: 144: CANsendData((UINT16)(100*accel_z), 0x09);
  2582  0000F6  0E00               	movlw	0
  2583  0000F8  6E1E               	movwf	___ftmul@f2,c
  2584  0000FA  0EC8               	movlw	200
  2585  0000FC  6E1F               	movwf	___ftmul@f2+1,c
  2586  0000FE  0E42               	movlw	66
  2587  000100  6E20               	movwf	___ftmul@f2+2,c
  2588  000102  C06E  F01B         	movff	_accel_z,___ftmul@f1
  2589  000106  C06F  F01C         	movff	_accel_z+1,___ftmul@f1+1
  2590  00010A  C070  F01D         	movff	_accel_z+2,___ftmul@f1+2
  2591  00010E  ECAC  F004         	call	___ftmul	;wreg free
  2592  000112  C01B  F02A         	movff	?___ftmul,___fttol@f1
  2593  000116  C01C  F02B         	movff	?___ftmul+1,___fttol@f1+1
  2594  00011A  C01D  F02C         	movff	?___ftmul+2,___fttol@f1+2
  2595  00011E  EC01  F006         	call	___fttol	;wreg free
  2596  000122  C02A  F09D         	movff	?___fttol,??_getAccelGyro
  2597  000126  C02B  F09E         	movff	?___fttol+1,??_getAccelGyro+1
  2598  00012A  C02C  F09F         	movff	?___fttol+2,??_getAccelGyro+2
  2599  00012E  C02D  F0A0         	movff	?___fttol+3,??_getAccelGyro+3
  2600  000132  C09D  F094         	movff	??_getAccelGyro,CANsendData@value
  2601  000136  C09E  F095         	movff	??_getAccelGyro+1,CANsendData@value+1
  2602  00013A  0E00               	movlw	0
  2603  00013C  0100               	movlb	0	; () banked
  2604  00013E  0100               	movlb	0	; () banked
  2605  000140  6F97               	movwf	(CANsendData@id+1)& (0+255),b
  2606  000142  0E09               	movlw	9
  2607  000144  0100               	movlb	0	; () banked
  2608  000146  6F96               	movwf	CANsendData@id& (0+255),b
  2609  000148  EC14  F009         	call	_CANsendData	;wreg free
  2610                           
  2611                           ;main.c: 146: CANsendData((UINT16)(100*gyro_x), 0x0A);
  2612  00014C  0E00               	movlw	0
  2613  00014E  6E1E               	movwf	___ftmul@f2,c
  2614  000150  0EC8               	movlw	200
  2615  000152  6E1F               	movwf	___ftmul@f2+1,c
  2616  000154  0E42               	movlw	66
  2617  000156  6E20               	movwf	___ftmul@f2+2,c
  2618  000158  C071  F01B         	movff	_gyro_x,___ftmul@f1
  2619  00015C  C072  F01C         	movff	_gyro_x+1,___ftmul@f1+1
  2620  000160  C073  F01D         	movff	_gyro_x+2,___ftmul@f1+2
  2621  000164  ECAC  F004         	call	___ftmul	;wreg free
  2622  000168  C01B  F02A         	movff	?___ftmul,___fttol@f1
  2623  00016C  C01C  F02B         	movff	?___ftmul+1,___fttol@f1+1
  2624  000170  C01D  F02C         	movff	?___ftmul+2,___fttol@f1+2
  2625  000174  EC01  F006         	call	___fttol	;wreg free
  2626  000178  C02A  F09D         	movff	?___fttol,??_getAccelGyro
  2627  00017C  C02B  F09E         	movff	?___fttol+1,??_getAccelGyro+1
  2628  000180  C02C  F09F         	movff	?___fttol+2,??_getAccelGyro+2
  2629  000184  C02D  F0A0         	movff	?___fttol+3,??_getAccelGyro+3
  2630  000188  C09D  F094         	movff	??_getAccelGyro,CANsendData@value
  2631  00018C  C09E  F095         	movff	??_getAccelGyro+1,CANsendData@value+1
  2632  000190  0E00               	movlw	0
  2633  000192  0100               	movlb	0	; () banked
  2634  000194  0100               	movlb	0	; () banked
  2635  000196  6F97               	movwf	(CANsendData@id+1)& (0+255),b
  2636  000198  0E0A               	movlw	10
  2637  00019A  0100               	movlb	0	; () banked
  2638  00019C  6F96               	movwf	CANsendData@id& (0+255),b
  2639  00019E  EC14  F009         	call	_CANsendData	;wreg free
  2640                           
  2641                           ;main.c: 147: CANsendData((UINT16)(100*gyro_y), 0x0B);
  2642  0001A2  0E00               	movlw	0
  2643  0001A4  6E1E               	movwf	___ftmul@f2,c
  2644  0001A6  0EC8               	movlw	200
  2645  0001A8  6E1F               	movwf	___ftmul@f2+1,c
  2646  0001AA  0E42               	movlw	66
  2647  0001AC  6E20               	movwf	___ftmul@f2+2,c
  2648  0001AE  C074  F01B         	movff	_gyro_y,___ftmul@f1
  2649  0001B2  C075  F01C         	movff	_gyro_y+1,___ftmul@f1+1
  2650  0001B6  C076  F01D         	movff	_gyro_y+2,___ftmul@f1+2
  2651  0001BA  ECAC  F004         	call	___ftmul	;wreg free
  2652  0001BE  C01B  F02A         	movff	?___ftmul,___fttol@f1
  2653  0001C2  C01C  F02B         	movff	?___ftmul+1,___fttol@f1+1
  2654  0001C6  C01D  F02C         	movff	?___ftmul+2,___fttol@f1+2
  2655  0001CA  EC01  F006         	call	___fttol	;wreg free
  2656  0001CE  C02A  F09D         	movff	?___fttol,??_getAccelGyro
  2657  0001D2  C02B  F09E         	movff	?___fttol+1,??_getAccelGyro+1
  2658  0001D6  C02C  F09F         	movff	?___fttol+2,??_getAccelGyro+2
  2659  0001DA  C02D  F0A0         	movff	?___fttol+3,??_getAccelGyro+3
  2660  0001DE  C09D  F094         	movff	??_getAccelGyro,CANsendData@value
  2661  0001E2  C09E  F095         	movff	??_getAccelGyro+1,CANsendData@value+1
  2662  0001E6  0E00               	movlw	0
  2663  0001E8  0100               	movlb	0	; () banked
  2664  0001EA  0100               	movlb	0	; () banked
  2665  0001EC  6F97               	movwf	(CANsendData@id+1)& (0+255),b
  2666  0001EE  0E0B               	movlw	11
  2667  0001F0  0100               	movlb	0	; () banked
  2668  0001F2  6F96               	movwf	CANsendData@id& (0+255),b
  2669  0001F4  EC14  F009         	call	_CANsendData	;wreg free
  2670                           
  2671                           ;main.c: 148: CANsendData((UINT16)(100*gyro_z), 0x0C);
  2672  0001F8  0E00               	movlw	0
  2673  0001FA  6E1E               	movwf	___ftmul@f2,c
  2674  0001FC  0EC8               	movlw	200
  2675  0001FE  6E1F               	movwf	___ftmul@f2+1,c
  2676  000200  0E42               	movlw	66
  2677  000202  6E20               	movwf	___ftmul@f2+2,c
  2678  000204  C077  F01B         	movff	_gyro_z,___ftmul@f1
  2679  000208  C078  F01C         	movff	_gyro_z+1,___ftmul@f1+1
  2680  00020C  C079  F01D         	movff	_gyro_z+2,___ftmul@f1+2
  2681  000210  ECAC  F004         	call	___ftmul	;wreg free
  2682  000214  C01B  F02A         	movff	?___ftmul,___fttol@f1
  2683  000218  C01C  F02B         	movff	?___ftmul+1,___fttol@f1+1
  2684  00021C  C01D  F02C         	movff	?___ftmul+2,___fttol@f1+2
  2685  000220  EC01  F006         	call	___fttol	;wreg free
  2686  000224  C02A  F09D         	movff	?___fttol,??_getAccelGyro
  2687  000228  C02B  F09E         	movff	?___fttol+1,??_getAccelGyro+1
  2688  00022C  C02C  F09F         	movff	?___fttol+2,??_getAccelGyro+2
  2689  000230  C02D  F0A0         	movff	?___fttol+3,??_getAccelGyro+3
  2690  000234  C09D  F094         	movff	??_getAccelGyro,CANsendData@value
  2691  000238  C09E  F095         	movff	??_getAccelGyro+1,CANsendData@value+1
  2692  00023C  0E00               	movlw	0
  2693  00023E  0100               	movlb	0	; () banked
  2694  000240  0100               	movlb	0	; () banked
  2695  000242  6F97               	movwf	(CANsendData@id+1)& (0+255),b
  2696  000244  0E0C               	movlw	12
  2697  000246  0100               	movlb	0	; () banked
  2698  000248  6F96               	movwf	CANsendData@id& (0+255),b
  2699  00024A  EC14  F009         	call	_CANsendData	;wreg free
  2700  00024E                     l118:
  2701  00024E  0012               	return	
  2702  000250                     __end_of_getAccelGyro:
  2703                           	opt stack 0
  2704                           tblptru	equ	0xFF8
  2705                           tblptrh	equ	0xFF7
  2706                           tblptrl	equ	0xFF6
  2707                           tablat	equ	0xFF5
  2708                           intcon	equ	0xFF2
  2709                           postinc0	equ	0xFEE
  2710                           wreg	equ	0xFE8
  2711                           postdec1	equ	0xFE5
  2712                           fsr1l	equ	0xFE1
  2713                           status	equ	0xFD8
  2714                           
  2715 ;; *************** function _readRawGyroData *****************
  2716 ;; Defined at:
  2717 ;;		line 201 in file "accelgyro.c"
  2718 ;; Parameters:    Size  Location     Type
  2719 ;;		None
  2720 ;; Auto vars:     Size  Location     Type
  2721 ;;		None
  2722 ;; Return value:  Size  Location     Type
  2723 ;;		None               void
  2724 ;; Registers used:
  2725 ;;		wreg, fsr2l, fsr2h, status,2, status,0, prodl, prodh, cstack
  2726 ;; Tracked objects:
  2727 ;;		On entry : 0/0
  2728 ;;		On exit  : 0/0
  2729 ;;		Unchanged: 0/0
  2730 ;; Data sizes:     COMRAM   BANK0   BANK1   BANK2   BANK3   BANK4   BANK5   BANK6   BANK7   BANK8   BANK9  BANK10  BANK1
      +1  BANK12
  2731 ;;      Params:         0       0       0       0       0       0       0       0       0       0       0       0       
      +0       0
  2732 ;;      Locals:         0       0       0       0       0       0       0       0       0       0       0       0       
      +0       0
  2733 ;;      Temps:          1       0       0       0       0       0       0       0       0       0       0       0       
      +0       0
  2734 ;;      Totals:         1       0       0       0       0       0       0       0       0       0       0       0       
      +0       0
  2735 ;;Total ram usage:        1 bytes
  2736 ;; Hardware stack levels used:    1
  2737 ;; Hardware stack levels required when called:    4
  2738 ;; This function calls:
  2739 ;;		_combine
  2740 ;;		_mpu_read
  2741 ;; This function is called by:
  2742 ;;		_getAccelGyro
  2743 ;;		_mpu_init
  2744 ;; This function uses a non-reentrant model
  2745 ;;
  2746                           
  2747                           	psect	text14
  2748  000F14                     __ptext14:
  2749                           	opt stack 0
  2750  000F14                     _readRawGyroData:
  2751                           	opt stack 23
  2752                           
  2753                           ;accelgyro.c: 202: gyro_x_upper = mpu_read((0x68<<1), 0x43);
  2754                           
  2755                           ;incstack = 0
  2756  000F14  6E33               	movwf	??_readRawGyroData& (0+255),c
  2757  000F16  0E43               	movlw	67
  2758  000F18  6E25               	movwf	mpu_read@reg,c
  2759  000F1A  5033               	movf	??_readRawGyroData& (0+255),w,c
  2760  000F1C  0ED0               	movlw	208
  2761  000F1E  EC7D  F008         	call	_mpu_read
  2762  000F22  5025               	movf	?_mpu_read,w,c
  2763  000F24  6E48               	movwf	_gyro_x_upper,c
  2764                           
  2765                           ;accelgyro.c: 203: gyro_x_lower = mpu_read((0x68<<1), 0x44);
  2766  000F26  6E33               	movwf	??_readRawGyroData& (0+255),c
  2767  000F28  0E44               	movlw	68
  2768  000F2A  6E25               	movwf	mpu_read@reg,c
  2769  000F2C  5033               	movf	??_readRawGyroData& (0+255),w,c
  2770  000F2E  0ED0               	movlw	208
  2771  000F30  EC7D  F008         	call	_mpu_read
  2772  000F34  5025               	movf	?_mpu_read,w,c
  2773  000F36  6E47               	movwf	_gyro_x_lower,c
  2774                           
  2775                           ;accelgyro.c: 204: gyro_x_raw = combine(gyro_x_upper, gyro_x_lower);
  2776  000F38  C047  F013         	movff	_gyro_x_lower,combine@lower
  2777  000F3C  5048               	movf	_gyro_x_upper,w,c
  2778  000F3E  EC45  F00A         	call	_combine
  2779  000F42  C013  F08A         	movff	?_combine,_gyro_x_raw
  2780  000F46  C014  F08B         	movff	?_combine+1,_gyro_x_raw+1
  2781                           
  2782                           ;accelgyro.c: 206: gyro_y_upper = mpu_read((0x68<<1), 0x45);
  2783  000F4A  6E33               	movwf	??_readRawGyroData& (0+255),c
  2784  000F4C  0E45               	movlw	69
  2785  000F4E  6E25               	movwf	mpu_read@reg,c
  2786  000F50  5033               	movf	??_readRawGyroData& (0+255),w,c
  2787  000F52  0ED0               	movlw	208
  2788  000F54  EC7D  F008         	call	_mpu_read
  2789  000F58  5025               	movf	?_mpu_read,w,c
  2790  000F5A  6E4A               	movwf	_gyro_y_upper,c
  2791                           
  2792                           ;accelgyro.c: 207: gyro_y_lower = mpu_read((0x68<<1), 0x46);
  2793  000F5C  6E33               	movwf	??_readRawGyroData& (0+255),c
  2794  000F5E  0E46               	movlw	70
  2795  000F60  6E25               	movwf	mpu_read@reg,c
  2796  000F62  5033               	movf	??_readRawGyroData& (0+255),w,c
  2797  000F64  0ED0               	movlw	208
  2798  000F66  EC7D  F008         	call	_mpu_read
  2799  000F6A  5025               	movf	?_mpu_read,w,c
  2800  000F6C  6E49               	movwf	_gyro_y_lower,c
  2801                           
  2802                           ;accelgyro.c: 208: gyro_y_raw = combine(gyro_y_upper, gyro_y_lower);
  2803  000F6E  C049  F013         	movff	_gyro_y_lower,combine@lower
  2804  000F72  504A               	movf	_gyro_y_upper,w,c
  2805  000F74  EC45  F00A         	call	_combine
  2806  000F78  C013  F08E         	movff	?_combine,_gyro_y_raw
  2807  000F7C  C014  F08F         	movff	?_combine+1,_gyro_y_raw+1
  2808                           
  2809                           ;accelgyro.c: 210: gyro_z_upper = mpu_read((0x68<<1), 0x47);
  2810  000F80  6E33               	movwf	??_readRawGyroData& (0+255),c
  2811  000F82  0E47               	movlw	71
  2812  000F84  6E25               	movwf	mpu_read@reg,c
  2813  000F86  5033               	movf	??_readRawGyroData& (0+255),w,c
  2814  000F88  0ED0               	movlw	208
  2815  000F8A  EC7D  F008         	call	_mpu_read
  2816  000F8E  5025               	movf	?_mpu_read,w,c
  2817  000F90  6E4C               	movwf	_gyro_z_upper,c
  2818                           
  2819                           ;accelgyro.c: 211: gyro_z_lower = mpu_read((0x68<<1), 0x48);
  2820  000F92  6E33               	movwf	??_readRawGyroData& (0+255),c
  2821  000F94  0E48               	movlw	72
  2822  000F96  6E25               	movwf	mpu_read@reg,c
  2823  000F98  5033               	movf	??_readRawGyroData& (0+255),w,c
  2824  000F9A  0ED0               	movlw	208
  2825  000F9C  EC7D  F008         	call	_mpu_read
  2826  000FA0  5025               	movf	?_mpu_read,w,c
  2827  000FA2  6E4B               	movwf	_gyro_z_lower,c
  2828                           
  2829                           ;accelgyro.c: 212: gyro_z_raw = combine(gyro_z_upper, gyro_z_lower);
  2830  000FA4  C04B  F013         	movff	_gyro_z_lower,combine@lower
  2831  000FA8  504C               	movf	_gyro_z_upper,w,c
  2832  000FAA  EC45  F00A         	call	_combine
  2833  000FAE  C013  F092         	movff	?_combine,_gyro_z_raw
  2834  000FB2  C014  F093         	movff	?_combine+1,_gyro_z_raw+1
  2835  000FB6  0012               	return	
  2836  000FB8                     __end_of_readRawGyroData:
  2837                           	opt stack 0
  2838                           tblptru	equ	0xFF8
  2839                           tblptrh	equ	0xFF7
  2840                           tblptrl	equ	0xFF6
  2841                           tablat	equ	0xFF5
  2842                           intcon	equ	0xFF2
  2843                           postinc0	equ	0xFEE
  2844                           wreg	equ	0xFE8
  2845                           postdec1	equ	0xFE5
  2846                           fsr1l	equ	0xFE1
  2847                           status	equ	0xFD8
  2848                           
  2849 ;; *************** function _readRawAccelData *****************
  2850 ;; Defined at:
  2851 ;;		line 239 in file "accelgyro.c"
  2852 ;; Parameters:    Size  Location     Type
  2853 ;;		None
  2854 ;; Auto vars:     Size  Location     Type
  2855 ;;		None
  2856 ;; Return value:  Size  Location     Type
  2857 ;;		None               void
  2858 ;; Registers used:
  2859 ;;		wreg, fsr2l, fsr2h, status,2, status,0, prodl, prodh, cstack
  2860 ;; Tracked objects:
  2861 ;;		On entry : 0/0
  2862 ;;		On exit  : 0/0
  2863 ;;		Unchanged: 0/0
  2864 ;; Data sizes:     COMRAM   BANK0   BANK1   BANK2   BANK3   BANK4   BANK5   BANK6   BANK7   BANK8   BANK9  BANK10  BANK1
      +1  BANK12
  2865 ;;      Params:         0       0       0       0       0       0       0       0       0       0       0       0       
      +0       0
  2866 ;;      Locals:         0       0       0       0       0       0       0       0       0       0       0       0       
      +0       0
  2867 ;;      Temps:          1       0       0       0       0       0       0       0       0       0       0       0       
      +0       0
  2868 ;;      Totals:         1       0       0       0       0       0       0       0       0       0       0       0       
      +0       0
  2869 ;;Total ram usage:        1 bytes
  2870 ;; Hardware stack levels used:    1
  2871 ;; Hardware stack levels required when called:    4
  2872 ;; This function calls:
  2873 ;;		_combine
  2874 ;;		_mpu_read
  2875 ;; This function is called by:
  2876 ;;		_getAccelGyro
  2877 ;; This function uses a non-reentrant model
  2878 ;;
  2879                           
  2880                           	psect	text15
  2881  000FB8                     __ptext15:
  2882                           	opt stack 0
  2883  000FB8                     _readRawAccelData:
  2884                           	opt stack 24
  2885                           
  2886                           ;accelgyro.c: 240: accel_x_upper = mpu_read((0x68<<1), 0x3B);
  2887                           
  2888                           ;incstack = 0
  2889  000FB8  6E33               	movwf	??_readRawAccelData& (0+255),c
  2890  000FBA  0E3B               	movlw	59
  2891  000FBC  6E25               	movwf	mpu_read@reg,c
  2892  000FBE  5033               	movf	??_readRawAccelData& (0+255),w,c
  2893  000FC0  0ED0               	movlw	208
  2894  000FC2  EC7D  F008         	call	_mpu_read
  2895  000FC6  5025               	movf	?_mpu_read,w,c
  2896  000FC8  6E41               	movwf	_accel_x_upper,c
  2897                           
  2898                           ;accelgyro.c: 241: accel_x_lower = mpu_read((0x68<<1), 0x3C);
  2899  000FCA  6E33               	movwf	??_readRawAccelData& (0+255),c
  2900  000FCC  0E3C               	movlw	60
  2901  000FCE  6E25               	movwf	mpu_read@reg,c
  2902  000FD0  5033               	movf	??_readRawAccelData& (0+255),w,c
  2903  000FD2  0ED0               	movlw	208
  2904  000FD4  EC7D  F008         	call	_mpu_read
  2905  000FD8  5025               	movf	?_mpu_read,w,c
  2906  000FDA  6E40               	movwf	_accel_x_lower,c
  2907                           
  2908                           ;accelgyro.c: 242: accel_x_raw = combine(accel_x_upper, accel_x_lower);
  2909  000FDC  C040  F013         	movff	_accel_x_lower,combine@lower
  2910  000FE0  5041               	movf	_accel_x_upper,w,c
  2911  000FE2  EC45  F00A         	call	_combine
  2912  000FE6  C013  F080         	movff	?_combine,_accel_x_raw
  2913  000FEA  C014  F081         	movff	?_combine+1,_accel_x_raw+1
  2914                           
  2915                           ;accelgyro.c: 244: accel_y_upper = mpu_read((0x68<<1), 0x3D);
  2916  000FEE  6E33               	movwf	??_readRawAccelData& (0+255),c
  2917  000FF0  0E3D               	movlw	61
  2918  000FF2  6E25               	movwf	mpu_read@reg,c
  2919  000FF4  5033               	movf	??_readRawAccelData& (0+255),w,c
  2920  000FF6  0ED0               	movlw	208
  2921  000FF8  EC7D  F008         	call	_mpu_read
  2922  000FFC  5025               	movf	?_mpu_read,w,c
  2923  000FFE  6E43               	movwf	_accel_y_upper,c
  2924                           
  2925                           ;accelgyro.c: 245: accel_y_lower = mpu_read((0x68<<1), 0x3E);
  2926  001000  6E33               	movwf	??_readRawAccelData& (0+255),c
  2927  001002  0E3E               	movlw	62
  2928  001004  6E25               	movwf	mpu_read@reg,c
  2929  001006  5033               	movf	??_readRawAccelData& (0+255),w,c
  2930  001008  0ED0               	movlw	208
  2931  00100A  EC7D  F008         	call	_mpu_read
  2932  00100E  5025               	movf	?_mpu_read,w,c
  2933  001010  6E42               	movwf	_accel_y_lower,c
  2934                           
  2935                           ;accelgyro.c: 246: accel_y_raw = combine(accel_y_upper, accel_y_lower);
  2936  001012  C042  F013         	movff	_accel_y_lower,combine@lower
  2937  001016  5043               	movf	_accel_y_upper,w,c
  2938  001018  EC45  F00A         	call	_combine
  2939  00101C  C013  F082         	movff	?_combine,_accel_y_raw
  2940  001020  C014  F083         	movff	?_combine+1,_accel_y_raw+1
  2941                           
  2942                           ;accelgyro.c: 248: accel_z_upper = mpu_read((0x68<<1), 0x3F);
  2943  001024  6E33               	movwf	??_readRawAccelData& (0+255),c
  2944  001026  0E3F               	movlw	63
  2945  001028  6E25               	movwf	mpu_read@reg,c
  2946  00102A  5033               	movf	??_readRawAccelData& (0+255),w,c
  2947  00102C  0ED0               	movlw	208
  2948  00102E  EC7D  F008         	call	_mpu_read
  2949  001032  5025               	movf	?_mpu_read,w,c
  2950  001034  6E45               	movwf	_accel_z_upper,c
  2951                           
  2952                           ;accelgyro.c: 249: accel_z_lower = mpu_read((0x68<<1), 0x40);
  2953  001036  6E33               	movwf	??_readRawAccelData& (0+255),c
  2954  001038  0E40               	movlw	64
  2955  00103A  6E25               	movwf	mpu_read@reg,c
  2956  00103C  5033               	movf	??_readRawAccelData& (0+255),w,c
  2957  00103E  0ED0               	movlw	208
  2958  001040  EC7D  F008         	call	_mpu_read
  2959  001044  5025               	movf	?_mpu_read,w,c
  2960  001046  6E44               	movwf	_accel_z_lower,c
  2961                           
  2962                           ;accelgyro.c: 250: accel_z_raw = combine(accel_z_upper, accel_z_lower);
  2963  001048  C044  F013         	movff	_accel_z_lower,combine@lower
  2964  00104C  5045               	movf	_accel_z_upper,w,c
  2965  00104E  EC45  F00A         	call	_combine
  2966  001052  C013  F084         	movff	?_combine,_accel_z_raw
  2967  001056  C014  F085         	movff	?_combine+1,_accel_z_raw+1
  2968  00105A  0012               	return	
  2969  00105C                     __end_of_readRawAccelData:
  2970                           	opt stack 0
  2971                           tblptru	equ	0xFF8
  2972                           tblptrh	equ	0xFF7
  2973                           tblptrl	equ	0xFF6
  2974                           tablat	equ	0xFF5
  2975                           intcon	equ	0xFF2
  2976                           postinc0	equ	0xFEE
  2977                           wreg	equ	0xFE8
  2978                           postdec1	equ	0xFE5
  2979                           fsr1l	equ	0xFE1
  2980                           status	equ	0xFD8
  2981                           
  2982 ;; *************** function _combine *****************
  2983 ;; Defined at:
  2984 ;;		line 186 in file "accelgyro.c"
  2985 ;; Parameters:    Size  Location     Type
  2986 ;;  upper           1    wreg     unsigned char 
  2987 ;;  lower           1   18[COMRAM] unsigned char 
  2988 ;; Auto vars:     Size  Location     Type
  2989 ;;  upper           1   22[COMRAM] unsigned char 
  2990 ;;  result          2   23[COMRAM] short 
  2991 ;; Return value:  Size  Location     Type
  2992 ;;                  2   18[COMRAM] short 
  2993 ;; Registers used:
  2994 ;;		wreg, status,2, status,0
  2995 ;; Tracked objects:
  2996 ;;		On entry : 0/0
  2997 ;;		On exit  : 0/0
  2998 ;;		Unchanged: 0/0
  2999 ;; Data sizes:     COMRAM   BANK0   BANK1   BANK2   BANK3   BANK4   BANK5   BANK6   BANK7   BANK8   BANK9  BANK10  BANK1
      +1  BANK12
  3000 ;;      Params:         2       0       0       0       0       0       0       0       0       0       0       0       
      +0       0
  3001 ;;      Locals:         3       0       0       0       0       0       0       0       0       0       0       0       
      +0       0
  3002 ;;      Temps:          2       0       0       0       0       0       0       0       0       0       0       0       
      +0       0
  3003 ;;      Totals:         7       0       0       0       0       0       0       0       0       0       0       0       
      +0       0
  3004 ;;Total ram usage:        7 bytes
  3005 ;; Hardware stack levels used:    1
  3006 ;; Hardware stack levels required when called:    1
  3007 ;; This function calls:
  3008 ;;		Nothing
  3009 ;; This function is called by:
  3010 ;;		_readRawGyroData
  3011 ;;		_readRawAccelData
  3012 ;; This function uses a non-reentrant model
  3013 ;;
  3014                           
  3015                           	psect	text16
  3016  00148A                     __ptext16:
  3017                           	opt stack 0
  3018  00148A                     _combine:
  3019                           	opt stack 25
  3020                           
  3021                           ;incstack = 0
  3022                           ;combine@upper stored from wreg
  3023  00148A  CFE8 F017          	movff	wreg,combine@upper
  3024                           
  3025                           ;accelgyro.c: 187: INT16 result = 0;
  3026  00148E  0E00               	movlw	0
  3027  001490  6E19               	movwf	combine@result+1,c
  3028  001492  0E00               	movlw	0
  3029  001494  6E18               	movwf	combine@result,c
  3030                           
  3031                           ;accelgyro.c: 188: result = ((upper << 8) | lower);
  3032  001496  5013               	movf	combine@lower,w,c
  3033  001498  C017  F015         	movff	combine@upper,??_combine
  3034  00149C  6A16               	clrf	(??_combine+1)& (0+255),c
  3035  00149E  C015  F016         	movff	??_combine,??_combine+1
  3036  0014A2  6A15               	clrf	??_combine,c
  3037  0014A4  1015               	iorwf	??_combine,w,c
  3038  0014A6  6E18               	movwf	combine@result,c
  3039  0014A8  5016               	movf	??_combine+1,w,c
  3040  0014AA  6E19               	movwf	combine@result+1,c
  3041                           
  3042                           ;accelgyro.c: 189: return result;
  3043  0014AC  C018  F013         	movff	combine@result,?_combine
  3044  0014B0  C019  F014         	movff	combine@result+1,?_combine+1
  3045  0014B4  0012               	return	
  3046  0014B6                     __end_of_combine:
  3047                           	opt stack 0
  3048                           tblptru	equ	0xFF8
  3049                           tblptrh	equ	0xFF7
  3050                           tblptrl	equ	0xFF6
  3051                           tablat	equ	0xFF5
  3052                           intcon	equ	0xFF2
  3053                           postinc0	equ	0xFEE
  3054                           wreg	equ	0xFE8
  3055                           postdec1	equ	0xFE5
  3056                           fsr1l	equ	0xFE1
  3057                           status	equ	0xFD8
  3058                           
  3059 ;; *************** function _convertGyroData *****************
  3060 ;; Defined at:
  3061 ;;		line 220 in file "accelgyro.c"
  3062 ;; Parameters:    Size  Location     Type
  3063 ;;		None
  3064 ;; Auto vars:     Size  Location     Type
  3065 ;;  factor          3   54[COMRAM] short 
  3066 ;;  FS_SEL          1   53[COMRAM] unsigned char 
  3067 ;; Return value:  Size  Location     Type
  3068 ;;		None               void
  3069 ;; Registers used:
  3070 ;;		wreg, fsr2l, fsr2h, status,2, status,0, prodl, prodh, cstack
  3071 ;; Tracked objects:
  3072 ;;		On entry : 0/0
  3073 ;;		On exit  : 0/0
  3074 ;;		Unchanged: 0/0
  3075 ;; Data sizes:     COMRAM   BANK0   BANK1   BANK2   BANK3   BANK4   BANK5   BANK6   BANK7   BANK8   BANK9  BANK10  BANK1
      +1  BANK12
  3076 ;;      Params:         0       0       0       0       0       0       0       0       0       0       0       0       
      +0       0
  3077 ;;      Locals:         4       0       0       0       0       0       0       0       0       0       0       0       
      +0       0
  3078 ;;      Temps:          3       0       0       0       0       0       0       0       0       0       0       0       
      +0       0
  3079 ;;      Totals:         7       0       0       0       0       0       0       0       0       0       0       0       
      +0       0
  3080 ;;Total ram usage:        7 bytes
  3081 ;; Hardware stack levels used:    1
  3082 ;; Hardware stack levels required when called:    4
  3083 ;; This function calls:
  3084 ;;		___awtoft
  3085 ;;		___ftdiv
  3086 ;;		_mpu_read
  3087 ;; This function is called by:
  3088 ;;		_getAccelGyro
  3089 ;; This function uses a non-reentrant model
  3090 ;;
  3091                           
  3092                           	psect	text17
  3093  0003D0                     __ptext17:
  3094                           	opt stack 0
  3095  0003D0                     _convertGyroData:
  3096                           	opt stack 24
  3097                           
  3098                           ;accelgyro.c: 221: char FS_SEL = (mpu_read((0x68<<1), 0x1B) >> 3) | 0b11;
  3099                           
  3100                           ;incstack = 0
  3101  0003D0  6E33               	movwf	??_convertGyroData& (0+255),c
  3102  0003D2  0E1B               	movlw	27
  3103  0003D4  6E25               	movwf	mpu_read@reg,c
  3104  0003D6  5033               	movf	??_convertGyroData& (0+255),w,c
  3105  0003D8  0ED0               	movlw	208
  3106  0003DA  EC7D  F008         	call	_mpu_read
  3107  0003DE  90D8               	bcf	status,0,c
  3108  0003E0  3226               	rrcf	?_mpu_read+1,f,c
  3109  0003E2  3225               	rrcf	?_mpu_read,f,c
  3110  0003E4  90D8               	bcf	status,0,c
  3111  0003E6  3226               	rrcf	?_mpu_read+1,f,c
  3112  0003E8  3225               	rrcf	?_mpu_read,f,c
  3113  0003EA  90D8               	bcf	status,0,c
  3114  0003EC  3226               	rrcf	?_mpu_read+1,f,c
  3115  0003EE  3225               	rrcf	?_mpu_read,f,c
  3116  0003F0  5025               	movf	?_mpu_read,w,c
  3117  0003F2  0903               	iorlw	3
  3118  0003F4  6E36               	movwf	convertGyroData@FS_SEL,c
  3119                           
  3120                           ;accelgyro.c: 222: double factor = 1 << FS_SEL;
  3121  0003F6  C036  F033         	movff	convertGyroData@FS_SEL,??_convertGyroData
  3122  0003FA  0E01               	movlw	1
  3123  0003FC  6E34               	movwf	(??_convertGyroData+1)& (0+255),c
  3124  0003FE  6A35               	clrf	(??_convertGyroData+2)& (0+255),c
  3125  000400  2A33               	incf	??_convertGyroData,f,c
  3126  000402  D003               	goto	u2594
  3127  000404                     u2595:
  3128  000404  90D8               	bcf	status,0,c
  3129  000406  3634               	rlcf	??_convertGyroData+1,f,c
  3130  000408  3635               	rlcf	??_convertGyroData+2,f,c
  3131  00040A                     u2594:
  3132  00040A  2E33               	decfsz	??_convertGyroData,f,c
  3133  00040C  D7FB               	goto	u2595
  3134  00040E  C034  F01B         	movff	??_convertGyroData+1,___awtoft@c
  3135  000412  C035  F01C         	movff	??_convertGyroData+2,___awtoft@c+1
  3136  000416  EC4B  F009         	call	___awtoft	;wreg free
  3137  00041A  C01B  F037         	movff	?___awtoft,convertGyroData@factor
  3138  00041E  C01C  F038         	movff	?___awtoft+1,convertGyroData@factor+1
  3139  000422  C01D  F039         	movff	?___awtoft+2,convertGyroData@factor+2
  3140                           
  3141                           ;accelgyro.c: 223: factor = 131/factor;
  3142  000426  0E00               	movlw	0
  3143  000428  6E20               	movwf	___ftdiv@f1,c
  3144  00042A  0E03               	movlw	3
  3145  00042C  6E21               	movwf	___ftdiv@f1+1,c
  3146  00042E  0E43               	movlw	67
  3147  000430  6E22               	movwf	___ftdiv@f1+2,c
  3148  000432  C037  F023         	movff	convertGyroData@factor,___ftdiv@f2
  3149  000436  C038  F024         	movff	convertGyroData@factor+1,___ftdiv@f2+1
  3150  00043A  C039  F025         	movff	convertGyroData@factor+2,___ftdiv@f2+2
  3151  00043E  EC94  F005         	call	___ftdiv	;wreg free
  3152  000442  C020  F037         	movff	?___ftdiv,convertGyroData@factor
  3153  000446  C021  F038         	movff	?___ftdiv+1,convertGyroData@factor+1
  3154  00044A  C022  F039         	movff	?___ftdiv+2,convertGyroData@factor+2
  3155                           
  3156                           ;accelgyro.c: 225: gyro_x = ((double) (gyro_x_raw - gyro_x_offset)) / factor;
  3157  00044E  0100               	movlb	0	; () banked
  3158  000450  C088  F033         	movff	_gyro_x_offset,??_convertGyroData
  3159  000454  0100               	movlb	0	; () banked
  3160  000456  C089  F034         	movff	_gyro_x_offset+1,??_convertGyroData+1
  3161  00045A  1E33               	comf	??_convertGyroData,f,c
  3162  00045C  1E34               	comf	??_convertGyroData+1,f,c
  3163  00045E  4A33               	infsnz	??_convertGyroData,f,c
  3164  000460  2A34               	incf	??_convertGyroData+1,f,c
  3165  000462  0100               	movlb	0	; () banked
  3166  000464  0100               	movlb	0	; () banked
  3167  000466  518A               	movf	_gyro_x_raw& (0+255),w,b
  3168  000468  2433               	addwf	??_convertGyroData,w,c
  3169  00046A  6E1B               	movwf	___awtoft@c,c
  3170  00046C  0100               	movlb	0	; () banked
  3171  00046E  0100               	movlb	0	; () banked
  3172  000470  518B               	movf	(_gyro_x_raw+1)& (0+255),w,b
  3173  000472  2034               	addwfc	??_convertGyroData+1,w,c
  3174  000474  6E1C               	movwf	___awtoft@c+1,c
  3175  000476  EC4B  F009         	call	___awtoft	;wreg free
  3176  00047A  C01B  F020         	movff	?___awtoft,___ftdiv@f1
  3177  00047E  C01C  F021         	movff	?___awtoft+1,___ftdiv@f1+1
  3178  000482  C01D  F022         	movff	?___awtoft+2,___ftdiv@f1+2
  3179  000486  C037  F023         	movff	convertGyroData@factor,___ftdiv@f2
  3180  00048A  C038  F024         	movff	convertGyroData@factor+1,___ftdiv@f2+1
  3181  00048E  C039  F025         	movff	convertGyroData@factor+2,___ftdiv@f2+2
  3182  000492  EC94  F005         	call	___ftdiv	;wreg free
  3183  000496  C020  F071         	movff	?___ftdiv,_gyro_x
  3184  00049A  C021  F072         	movff	?___ftdiv+1,_gyro_x+1
  3185  00049E  C022  F073         	movff	?___ftdiv+2,_gyro_x+2
  3186                           
  3187                           ;accelgyro.c: 226: gyro_y = ((double) (gyro_y_raw - gyro_y_offset)) / factor;
  3188  0004A2  0100               	movlb	0	; () banked
  3189  0004A4  C08C  F033         	movff	_gyro_y_offset,??_convertGyroData
  3190  0004A8  0100               	movlb	0	; () banked
  3191  0004AA  C08D  F034         	movff	_gyro_y_offset+1,??_convertGyroData+1
  3192  0004AE  1E33               	comf	??_convertGyroData,f,c
  3193  0004B0  1E34               	comf	??_convertGyroData+1,f,c
  3194  0004B2  4A33               	infsnz	??_convertGyroData,f,c
  3195  0004B4  2A34               	incf	??_convertGyroData+1,f,c
  3196  0004B6  0100               	movlb	0	; () banked
  3197  0004B8  0100               	movlb	0	; () banked
  3198  0004BA  518E               	movf	_gyro_y_raw& (0+255),w,b
  3199  0004BC  2433               	addwf	??_convertGyroData,w,c
  3200  0004BE  6E1B               	movwf	___awtoft@c,c
  3201  0004C0  0100               	movlb	0	; () banked
  3202  0004C2  0100               	movlb	0	; () banked
  3203  0004C4  518F               	movf	(_gyro_y_raw+1)& (0+255),w,b
  3204  0004C6  2034               	addwfc	??_convertGyroData+1,w,c
  3205  0004C8  6E1C               	movwf	___awtoft@c+1,c
  3206  0004CA  EC4B  F009         	call	___awtoft	;wreg free
  3207  0004CE  C01B  F020         	movff	?___awtoft,___ftdiv@f1
  3208  0004D2  C01C  F021         	movff	?___awtoft+1,___ftdiv@f1+1
  3209  0004D6  C01D  F022         	movff	?___awtoft+2,___ftdiv@f1+2
  3210  0004DA  C037  F023         	movff	convertGyroData@factor,___ftdiv@f2
  3211  0004DE  C038  F024         	movff	convertGyroData@factor+1,___ftdiv@f2+1
  3212  0004E2  C039  F025         	movff	convertGyroData@factor+2,___ftdiv@f2+2
  3213  0004E6  EC94  F005         	call	___ftdiv	;wreg free
  3214  0004EA  C020  F074         	movff	?___ftdiv,_gyro_y
  3215  0004EE  C021  F075         	movff	?___ftdiv+1,_gyro_y+1
  3216  0004F2  C022  F076         	movff	?___ftdiv+2,_gyro_y+2
  3217                           
  3218                           ;accelgyro.c: 227: gyro_z = ((double) (gyro_z_raw - gyro_z_offset)) / factor;
  3219  0004F6  0100               	movlb	0	; () banked
  3220  0004F8  C090  F033         	movff	_gyro_z_offset,??_convertGyroData
  3221  0004FC  0100               	movlb	0	; () banked
  3222  0004FE  C091  F034         	movff	_gyro_z_offset+1,??_convertGyroData+1
  3223  000502  1E33               	comf	??_convertGyroData,f,c
  3224  000504  1E34               	comf	??_convertGyroData+1,f,c
  3225  000506  4A33               	infsnz	??_convertGyroData,f,c
  3226  000508  2A34               	incf	??_convertGyroData+1,f,c
  3227  00050A  0100               	movlb	0	; () banked
  3228  00050C  0100               	movlb	0	; () banked
  3229  00050E  5192               	movf	_gyro_z_raw& (0+255),w,b
  3230  000510  2433               	addwf	??_convertGyroData,w,c
  3231  000512  6E1B               	movwf	___awtoft@c,c
  3232  000514  0100               	movlb	0	; () banked
  3233  000516  0100               	movlb	0	; () banked
  3234  000518  5193               	movf	(_gyro_z_raw+1)& (0+255),w,b
  3235  00051A  2034               	addwfc	??_convertGyroData+1,w,c
  3236  00051C  6E1C               	movwf	___awtoft@c+1,c
  3237  00051E  EC4B  F009         	call	___awtoft	;wreg free
  3238  000522  C01B  F020         	movff	?___awtoft,___ftdiv@f1
  3239  000526  C01C  F021         	movff	?___awtoft+1,___ftdiv@f1+1
  3240  00052A  C01D  F022         	movff	?___awtoft+2,___ftdiv@f1+2
  3241  00052E  C037  F023         	movff	convertGyroData@factor,___ftdiv@f2
  3242  000532  C038  F024         	movff	convertGyroData@factor+1,___ftdiv@f2+1
  3243  000536  C039  F025         	movff	convertGyroData@factor+2,___ftdiv@f2+2
  3244  00053A  EC94  F005         	call	___ftdiv	;wreg free
  3245  00053E  C020  F077         	movff	?___ftdiv,_gyro_z
  3246  000542  C021  F078         	movff	?___ftdiv+1,_gyro_z+1
  3247  000546  C022  F079         	movff	?___ftdiv+2,_gyro_z+2
  3248  00054A  0012               	return	
  3249  00054C                     __end_of_convertGyroData:
  3250                           	opt stack 0
  3251                           tblptru	equ	0xFF8
  3252                           tblptrh	equ	0xFF7
  3253                           tblptrl	equ	0xFF6
  3254                           tablat	equ	0xFF5
  3255                           intcon	equ	0xFF2
  3256                           postinc0	equ	0xFEE
  3257                           wreg	equ	0xFE8
  3258                           postdec1	equ	0xFE5
  3259                           fsr1l	equ	0xFE1
  3260                           status	equ	0xFD8
  3261                           
  3262 ;; *************** function _mpu_read *****************
  3263 ;; Defined at:
  3264 ;;		line 81 in file "accelgyro.c"
  3265 ;; Parameters:    Size  Location     Type
  3266 ;;  SlaveAddress    1    wreg     unsigned char 
  3267 ;;  reg             1   36[COMRAM] unsigned char 
  3268 ;; Auto vars:     Size  Location     Type
  3269 ;;  SlaveAddress    1   49[COMRAM] unsigned char 
  3270 ;;  arr             6   40[COMRAM] unsigned char [6]
  3271 ;;  PecReg          1   48[COMRAM] unsigned char 
  3272 ;;  DataH           1   47[COMRAM] unsigned char 
  3273 ;;  ErrorCounter    1   46[COMRAM] unsigned char 
  3274 ;;  Pec             1   39[COMRAM] unsigned char 
  3275 ;; Return value:  Size  Location     Type
  3276 ;;                  2   36[COMRAM] unsigned short 
  3277 ;; Registers used:
  3278 ;;		wreg, fsr2l, fsr2h, status,2, status,0, prodl, prodh, cstack
  3279 ;; Tracked objects:
  3280 ;;		On entry : 0/0
  3281 ;;		On exit  : 0/0
  3282 ;;		Unchanged: 0/0
  3283 ;; Data sizes:     COMRAM   BANK0   BANK1   BANK2   BANK3   BANK4   BANK5   BANK6   BANK7   BANK8   BANK9  BANK10  BANK1
      +1  BANK12
  3284 ;;      Params:         2       0       0       0       0       0       0       0       0       0       0       0       
      +0       0
  3285 ;;      Locals:        11       0       0       0       0       0       0       0       0       0       0       0       
      +0       0
  3286 ;;      Temps:          1       0       0       0       0       0       0       0       0       0       0       0       
      +0       0
  3287 ;;      Totals:        14       0       0       0       0       0       0       0       0       0       0       0       
      +0       0
  3288 ;;Total ram usage:       14 bytes
  3289 ;; Hardware stack levels used:    1
  3290 ;; Hardware stack levels required when called:    3
  3291 ;; This function calls:
  3292 ;;		_PEC_calculation
  3293 ;;		_RX_byte
  3294 ;;		_TX_byte
  3295 ;;		_start_bit
  3296 ;;		_stop_bit
  3297 ;; This function is called by:
  3298 ;;		_getAccelGyro
  3299 ;;		_readRawGyroData
  3300 ;;		_convertGyroData
  3301 ;;		_readRawAccelData
  3302 ;;		_mpu_init
  3303 ;; This function uses a non-reentrant model
  3304 ;;
  3305                           
  3306                           	psect	text18
  3307  0010FA                     __ptext18:
  3308                           	opt stack 0
  3309  0010FA                     _mpu_read:
  3310                           	opt stack 23
  3311                           
  3312                           ;incstack = 0
  3313                           ;mpu_read@SlaveAddress stored from wreg
  3314  0010FA  CFE8 F032          	movff	wreg,mpu_read@SlaveAddress
  3315                           
  3316                           ;accelgyro.c: 84: unsigned char Pec;
  3317                           ;accelgyro.c: 86: unsigned char DataH;
  3318                           ;accelgyro.c: 87: unsigned char arr[6];
  3319                           ;accelgyro.c: 88: unsigned char PecReg;
  3320                           ;accelgyro.c: 89: unsigned char ErrorCounter;
  3321                           ;accelgyro.c: 91: ErrorCounter=0x00;
  3322  0010FE  6E27               	movwf	??_mpu_read& (0+255),c
  3323  001100  0E00               	movlw	0
  3324  001102  6E2F               	movwf	mpu_read@ErrorCounter,c
  3325  001104  5027               	movf	??_mpu_read& (0+255),w,c
  3326  001106                     l5112:
  3327                           
  3328                           ;accelgyro.c: 96: stop_bit();
  3329  001106  EC97  F00A         	call	_stop_bit	;wreg free
  3330                           
  3331                           ;accelgyro.c: 97: --ErrorCounter;
  3332  00110A  062F               	decf	mpu_read@ErrorCounter,f,c
  3333                           
  3334                           ;accelgyro.c: 98: if(!ErrorCounter)
  3335  00110C  662F               	tstfsz	mpu_read@ErrorCounter,c
  3336  00110E  D001               	goto	l5120
  3337  001110  D03D               	goto	l510
  3338  001112                     l5120:
  3339                           
  3340                           ;accelgyro.c: 101: }
  3341                           ;accelgyro.c: 102: start_bit();
  3342  001112  EC2E  F00A         	call	_start_bit	;wreg free
  3343                           
  3344                           ;accelgyro.c: 104: if(TX_byte(SlaveAddress))
  3345  001116  5032               	movf	mpu_read@SlaveAddress,w,c
  3346  001118  ECF5  F009         	call	_TX_byte
  3347  00111C  0900               	iorlw	0
  3348  00111E  A4D8               	btfss	status,2,c
  3349  001120  D7F2               	goto	l5112
  3350                           
  3351                           ;accelgyro.c: 107: }
  3352                           ;accelgyro.c: 111: if(TX_byte(reg))
  3353                           
  3354                           ;accelgyro.c: 105: {
  3355                           ;accelgyro.c: 106: goto repeat;
  3356  001122  5025               	movf	mpu_read@reg,w,c
  3357  001124  ECF5  F009         	call	_TX_byte
  3358  001128  0900               	iorlw	0
  3359  00112A  A4D8               	btfss	status,2,c
  3360  00112C  D7EC               	goto	l5112
  3361                           
  3362                           ;accelgyro.c: 114: }
  3363                           ;accelgyro.c: 117: _delay((unsigned long)((10)*(16000000/4000000.0)));
  3364                           
  3365                           ;accelgyro.c: 112: {
  3366                           ;accelgyro.c: 113: goto repeat;
  3367  00112E  0E0D               	movlw	13
  3368  001130                     u3607:
  3369  001130  2EE8               	decfsz	wreg,f,c
  3370  001132  D7FE               	goto	u3607
  3371  001134  F000               	nop	
  3372                           
  3373                           ;accelgyro.c: 119: start_bit();
  3374  001136  EC2E  F00A         	call	_start_bit	;wreg free
  3375                           
  3376                           ;accelgyro.c: 121: if(TX_byte(SlaveAddress | 0b1))
  3377  00113A  5032               	movf	mpu_read@SlaveAddress,w,c
  3378  00113C  0901               	iorlw	1
  3379  00113E  ECF5  F009         	call	_TX_byte
  3380  001142  0900               	iorlw	0
  3381  001144  A4D8               	btfss	status,2,c
  3382  001146  D7DF               	goto	l5112
  3383                           
  3384                           ;accelgyro.c: 124: }
  3385                           ;accelgyro.c: 127: DataH=RX_byte(1);
  3386                           
  3387                           ;accelgyro.c: 122: {
  3388                           ;accelgyro.c: 123: goto repeat;
  3389  001148  0E01               	movlw	1
  3390  00114A  ECD6  F009         	call	_RX_byte
  3391  00114E  6E30               	movwf	mpu_read@DataH,c
  3392                           
  3393                           ;accelgyro.c: 129: stop_bit();
  3394  001150  EC97  F00A         	call	_stop_bit	;wreg free
  3395                           
  3396                           ;accelgyro.c: 132: arr[5]=SlaveAddress;
  3397  001154  C032  F02E         	movff	mpu_read@SlaveAddress,mpu_read@arr+5
  3398                           
  3399                           ;accelgyro.c: 133: arr[4]=reg;
  3400  001158  C025  F02D         	movff	mpu_read@reg,mpu_read@arr+4
  3401                           
  3402                           ;accelgyro.c: 134: arr[3]=SlaveAddress;
  3403  00115C  C032  F02C         	movff	mpu_read@SlaveAddress,mpu_read@arr+3
  3404                           
  3405                           ;accelgyro.c: 135: arr[2]=DataH;
  3406  001160  C030  F02B         	movff	mpu_read@DataH,mpu_read@arr+2
  3407                           
  3408                           ;accelgyro.c: 136: arr[1]=0;
  3409  001164  6E27               	movwf	??_mpu_read& (0+255),c
  3410  001166  0E00               	movlw	0
  3411  001168  6E2A               	movwf	mpu_read@arr+1,c
  3412  00116A  5027               	movf	??_mpu_read& (0+255),w,c
  3413                           
  3414                           ;accelgyro.c: 137: arr[0]=0;
  3415  00116C  6E27               	movwf	??_mpu_read& (0+255),c
  3416  00116E  0E00               	movlw	0
  3417  001170  6E29               	movwf	mpu_read@arr,c
  3418  001172  5027               	movf	??_mpu_read& (0+255),w,c
  3419                           
  3420                           ;accelgyro.c: 138: PecReg=PEC_calculation(arr);
  3421  001174  0E00               	movlw	high mpu_read@arr
  3422  001176  6E14               	movwf	PEC_calculation@pec+1,c
  3423  001178  0E29               	movlw	low mpu_read@arr
  3424  00117A  6E13               	movwf	PEC_calculation@pec,c
  3425  00117C  EC28  F001         	call	_PEC_calculation	;wreg free
  3426  001180  6E31               	movwf	mpu_read@PecReg,c
  3427                           
  3428                           ;accelgyro.c: 139: Pec = PecReg;
  3429  001182  C031  F028         	movff	mpu_read@PecReg,mpu_read@Pec
  3430                           
  3431                           ;accelgyro.c: 141: }while(PecReg != Pec);
  3432  001186  5028               	movf	mpu_read@Pec,w,c
  3433  001188  6231               	cpfseq	mpu_read@PecReg,c
  3434  00118A  D7BD               	goto	l5112
  3435  00118C                     l510:
  3436                           
  3437                           ;accelgyro.c: 146: return DataH;
  3438  00118C  C030  F025         	movff	mpu_read@DataH,?_mpu_read
  3439  001190  6A26               	clrf	?_mpu_read+1,c
  3440  001192  0012               	return	
  3441  001194                     __end_of_mpu_read:
  3442                           	opt stack 0
  3443                           tblptru	equ	0xFF8
  3444                           tblptrh	equ	0xFF7
  3445                           tblptrl	equ	0xFF6
  3446                           tablat	equ	0xFF5
  3447                           intcon	equ	0xFF2
  3448                           postinc0	equ	0xFEE
  3449                           wreg	equ	0xFE8
  3450                           postdec1	equ	0xFE5
  3451                           fsr1l	equ	0xFE1
  3452                           status	equ	0xFD8
  3453                           
  3454 ;; *************** function _stop_bit *****************
  3455 ;; Defined at:
  3456 ;;		line 44 in file "SMBus.c"
  3457 ;; Parameters:    Size  Location     Type
  3458 ;;		None
  3459 ;; Auto vars:     Size  Location     Type
  3460 ;;		None
  3461 ;; Return value:  Size  Location     Type
  3462 ;;		None               void
  3463 ;; Registers used:
  3464 ;;		wreg
  3465 ;; Tracked objects:
  3466 ;;		On entry : 0/0
  3467 ;;		On exit  : 0/0
  3468 ;;		Unchanged: 0/0
  3469 ;; Data sizes:     COMRAM   BANK0   BANK1   BANK2   BANK3   BANK4   BANK5   BANK6   BANK7   BANK8   BANK9  BANK10  BANK1
      +1  BANK12
  3470 ;;      Params:         0       0       0       0       0       0       0       0       0       0       0       0       
      +0       0
  3471 ;;      Locals:         0       0       0       0       0       0       0       0       0       0       0       0       
      +0       0
  3472 ;;      Temps:          0       0       0       0       0       0       0       0       0       0       0       0       
      +0       0
  3473 ;;      Totals:         0       0       0       0       0       0       0       0       0       0       0       0       
      +0       0
  3474 ;;Total ram usage:        0 bytes
  3475 ;; Hardware stack levels used:    1
  3476 ;; Hardware stack levels required when called:    1
  3477 ;; This function calls:
  3478 ;;		Nothing
  3479 ;; This function is called by:
  3480 ;;		_DummyCommand
  3481 ;;		_mpu_read
  3482 ;;		_mpu_write
  3483 ;;		_MemRead
  3484 ;;		_MemWrite
  3485 ;; This function uses a non-reentrant model
  3486 ;;
  3487                           
  3488                           	psect	text19
  3489  00152E                     __ptext19:
  3490                           	opt stack 0
  3491  00152E                     _stop_bit:
  3492                           	opt stack 24
  3493                           
  3494                           ;SMBus.c: 46: PORTCbits.RC3=0;TRISCbits.TRISC3=0;;
  3495                           
  3496                           ;incstack = 0
  3497  00152E  9682               	bcf	3970,3,c	;volatile
  3498  001530  9694               	bcf	3988,3,c	;volatile
  3499                           
  3500                           ;SMBus.c: 47: _delay((unsigned long)((2)*(16000000/4000000.0)));
  3501  001532  0E02               	movlw	2
  3502  001534                     u3617:
  3503  001534  2EE8               	decfsz	wreg,f,c
  3504  001536  D7FE               	goto	u3617
  3505  001538  D000               	nop2		;nop
  3506                           
  3507                           ;SMBus.c: 48: PORTCbits.RC4=0;TRISCbits.TRISC4=0;;
  3508  00153A  9882               	bcf	3970,4,c	;volatile
  3509  00153C  9894               	bcf	3988,4,c	;volatile
  3510                           
  3511                           ;SMBus.c: 49: _delay((unsigned long)((2)*(16000000/4000000.0)));
  3512  00153E  0E02               	movlw	2
  3513  001540                     u3627:
  3514  001540  2EE8               	decfsz	wreg,f,c
  3515  001542  D7FE               	goto	u3627
  3516  001544  D000               	nop2		;nop
  3517                           
  3518                           ;SMBus.c: 50: TRISCbits.TRISC3=1;;
  3519  001546  8694               	bsf	3988,3,c	;volatile
  3520                           
  3521                           ;SMBus.c: 51: _delay((unsigned long)((2)*(16000000/4000000.0)));
  3522  001548  0E02               	movlw	2
  3523  00154A                     u3637:
  3524  00154A  2EE8               	decfsz	wreg,f,c
  3525  00154C  D7FE               	goto	u3637
  3526  00154E  D000               	nop2		;nop
  3527                           
  3528                           ;SMBus.c: 52: TRISCbits.TRISC4=1;;
  3529  001550  8894               	bsf	3988,4,c	;volatile
  3530  001552  0012               	return	
  3531  001554                     __end_of_stop_bit:
  3532                           	opt stack 0
  3533                           tblptru	equ	0xFF8
  3534                           tblptrh	equ	0xFF7
  3535                           tblptrl	equ	0xFF6
  3536                           tablat	equ	0xFF5
  3537                           intcon	equ	0xFF2
  3538                           postinc0	equ	0xFEE
  3539                           wreg	equ	0xFE8
  3540                           postdec1	equ	0xFE5
  3541                           fsr1l	equ	0xFE1
  3542                           status	equ	0xFD8
  3543                           
  3544 ;; *************** function _start_bit *****************
  3545 ;; Defined at:
  3546 ;;		line 18 in file "SMBus.c"
  3547 ;; Parameters:    Size  Location     Type
  3548 ;;		None
  3549 ;; Auto vars:     Size  Location     Type
  3550 ;;		None
  3551 ;; Return value:  Size  Location     Type
  3552 ;;		None               void
  3553 ;; Registers used:
  3554 ;;		wreg
  3555 ;; Tracked objects:
  3556 ;;		On entry : 0/0
  3557 ;;		On exit  : 0/0
  3558 ;;		Unchanged: 0/0
  3559 ;; Data sizes:     COMRAM   BANK0   BANK1   BANK2   BANK3   BANK4   BANK5   BANK6   BANK7   BANK8   BANK9  BANK10  BANK1
      +1  BANK12
  3560 ;;      Params:         0       0       0       0       0       0       0       0       0       0       0       0       
      +0       0
  3561 ;;      Locals:         0       0       0       0       0       0       0       0       0       0       0       0       
      +0       0
  3562 ;;      Temps:          0       0       0       0       0       0       0       0       0       0       0       0       
      +0       0
  3563 ;;      Totals:         0       0       0       0       0       0       0       0       0       0       0       0       
      +0       0
  3564 ;;Total ram usage:        0 bytes
  3565 ;; Hardware stack levels used:    1
  3566 ;; Hardware stack levels required when called:    1
  3567 ;; This function calls:
  3568 ;;		Nothing
  3569 ;; This function is called by:
  3570 ;;		_DummyCommand
  3571 ;;		_mpu_read
  3572 ;;		_mpu_write
  3573 ;;		_MemRead
  3574 ;;		_MemWrite
  3575 ;; This function uses a non-reentrant model
  3576 ;;
  3577                           
  3578                           	psect	text20
  3579  00145C                     __ptext20:
  3580                           	opt stack 0
  3581  00145C                     _start_bit:
  3582                           	opt stack 24
  3583                           
  3584                           ;SMBus.c: 20: TRISCbits.TRISC4=1;;
  3585                           
  3586                           ;incstack = 0
  3587  00145C  8894               	bsf	3988,4,c	;volatile
  3588                           
  3589                           ;SMBus.c: 21: _delay((unsigned long)((2)*(16000000/4000000.0)));
  3590  00145E  0E02               	movlw	2
  3591  001460                     u3647:
  3592  001460  2EE8               	decfsz	wreg,f,c
  3593  001462  D7FE               	goto	u3647
  3594  001464  D000               	nop2		;nop
  3595                           
  3596                           ;SMBus.c: 22: TRISCbits.TRISC3=1;;
  3597  001466  8694               	bsf	3988,3,c	;volatile
  3598                           
  3599                           ;SMBus.c: 23: _delay((unsigned long)((2)*(16000000/4000000.0)));
  3600  001468  0E02               	movlw	2
  3601  00146A                     u3657:
  3602  00146A  2EE8               	decfsz	wreg,f,c
  3603  00146C  D7FE               	goto	u3657
  3604  00146E  D000               	nop2		;nop
  3605                           
  3606                           ;SMBus.c: 25: PORTCbits.RC4=0;TRISCbits.TRISC4=0;;
  3607  001470  9882               	bcf	3970,4,c	;volatile
  3608  001472  9894               	bcf	3988,4,c	;volatile
  3609                           
  3610                           ;SMBus.c: 26: _delay((unsigned long)((2)*(16000000/4000000.0)));
  3611  001474  0E02               	movlw	2
  3612  001476                     u3667:
  3613  001476  2EE8               	decfsz	wreg,f,c
  3614  001478  D7FE               	goto	u3667
  3615  00147A  D000               	nop2		;nop
  3616                           
  3617                           ;SMBus.c: 29: PORTCbits.RC3=0;TRISCbits.TRISC3=0;;
  3618  00147C  9682               	bcf	3970,3,c	;volatile
  3619  00147E  9694               	bcf	3988,3,c	;volatile
  3620                           
  3621                           ;SMBus.c: 30: _delay((unsigned long)((2)*(16000000/4000000.0)));
  3622  001480  0E02               	movlw	2
