Microchip MPLAB XC8 Compiler V1.35 ()

Linker command line:

--edf=C:\Program Files (x86)\Microchip\xc8\v1.35\dat\en_msgs.txt -cs \
  -h+dist/default/production\FuseBox.X.production.sym \
  --cmf=dist/default/production\FuseBox.X.production.cmf -z -Q18F2585 \
  -oC:\Users\en-fsae\AppData\Local\Temp\s4kg.2 \
  -Mdist/default/production/FuseBox.X.production.map -E1 -ver=XC8 \
  -ASTACK=086h-0cffh -pstack=STACK -ACODE=00h-0BFFFh -ACONST=00h-0BFFFh \
  -ASMALLCONST=0D00h-0DFFhx179 -AMEDIUMCONST=0D00h-0BFFFh -ACOMRAM=01h-05Fh \
  -AABS1=00h-0CFFh -ABIGRAM=01h-0CFFh -ARAM=060h-0FFh,0100h-01FFhx12 \
  -ABANK0=060h-0FFh -ABANK1=0100h-01FFh -ABANK2=0200h-02FFh \
  -ABANK3=0300h-03FFh -ABANK4=0400h-04FFh -ABANK5=0500h-05FFh \
  -ABANK6=0600h-06FFh -ABANK7=0700h-07FFh -ABANK8=0800h-08FFh \
  -ABANK9=0900h-09FFh -ABANK10=0A00h-0AFFh -ABANK11=0B00h-0BFFh \
  -ABANK12=0C00h-0CFFh -ASFR=0D00h-0DFFhx2,0F00h-0F5Fh,0F60h-0FFFh \
  -preset_vec=00h,intcode=08h,intcodelo,powerup,init,end_init \
  -pramtop=0D00h -psmallconst=SMALLCONST -pmediumconst=MEDIUMCONST \
  -pconst=CONST -AFARRAM=00h-00h -ACONFIG=0300000h-030000Dh -pconfig=CONFIG \
  -AIDLOC=0200000h-0200007h -pidloc=IDLOC -AEEDATA=0F00000h-0F003FFh \
  -peeprom_data=EEDATA \
  -prdata=COMRAM,nvrram=COMRAM,nvbit=COMRAM,rbss=COMRAM,rbit=COMRAM \
  -pfarbss=FARRAM,fardata=FARRAM,nvFARRAM=FARRAM \
  -pintsave_regs=BIGRAM,bigbss=BIGRAM,bigdata=BIGRAM -pbss=RAM \
  -pidata=CODE,irdata=CODE,ibigdata=CODE,ifardata=CODE -prparam=COMRAM \
  C:\Users\en-fsae\AppData\Local\Temp\s4kg.obj \
  dist/default/production\FuseBox.X.production.obj 

Object code version is 3.11

Machine type is 18F2585

Call graph: (short form)




                Name                               Link     Load   Length Selector   Space Scale
C:\Users\en-fsae\AppData\Local\Temp\s4kg.obj
                end_init                             16       16        4        4       0
                reset_vec                             0        0        4        0       0
                idloc                            200000   200000        8   200000       0
                config                           300000   300000        E   300000       0
dist/default/production\FuseBox.X.production.obj
                intcode                               8        8        E        4       0
                temp                                 42       42        1        1       1
                text14                              64E      64E       B8        4       0
                text13                              35E      35E      15E        4       0
                text12                              58C      58C       C2        4       0
                text11                              4BC      4BC       D0        4       0
                intcode_body                        706      706       8A        4       0
                text9                               93A      93A       30        4       0
                text8                               7FE      7FE       52        4       0
                text7                                1A       1A      1B6        4       0
                text6                               790      790       6E        4       0
                text5                               850      850       40        4       0
                text4                               96A      96A       16        4       0
                text3                               1D0      1D0      18E        4       0
                text2                               8CA      8CA       3A        4       0
                text1                               904      904       36        4       0
                text0                               980      980       12        4       0
                cstackCOMRAM                          1        1       30        1       1
                cstackBANK0                          60       60       26       60       1
                dataCOMRAM                           3D       3D        5        1       1
                bssCOMRAM                            31       31        C        1       1
                cinit                               890      890       3A        4       0
                idataCOMRAM                         992      992        5        4       0

TOTAL           Name                               Link     Load   Length     Space
        CLASS   STACK          

        CLASS   CODE           
                end_init                             16       16        4         0
                intcode                               8        8        E         0
                reset_vec                             0        0        4         0
                text14                              64E      64E       B8         0
                text13                              35E      35E      15E         0
                text12                              58C      58C       C2         0
                text11                              4BC      4BC       D0         0
                intcode_body                        706      706       8A         0
                text9                               93A      93A       30         0
                text8                               7FE      7FE       52         0
                text7                                1A       1A      1B6         0
                text6                               790      790       6E         0
                text5                               850      850       40         0
                text4                               96A      96A       16         0
                text3                               1D0      1D0      18E         0
                text2                               8CA      8CA       3A         0
                text1                               904      904       36         0
                text0                               980      980       12         0
                cinit                               890      890       3A         0
                idataCOMRAM                         992      992        5         0

        CLASS   CONST          

        CLASS   SMALLCONST     

        CLASS   MEDIUMCONST    

        CLASS   COMRAM         
                temp                                 42       42        1         1
                cstackCOMRAM                          1        1       30         1
                dataCOMRAM                           3D       3D        5         1
                bssCOMRAM                            31       31        C         1

        CLASS   ABS1           

        CLASS   BIGRAM         

        CLASS   RAM            

        CLASS   BANK0          
                cstackBANK0                          60       60       26         1

        CLASS   BANK1          

        CLASS   BANK2          

        CLASS   BANK3          

        CLASS   BANK4          

        CLASS   BANK5          

        CLASS   BANK6          

        CLASS   BANK7          

        CLASS   BANK8          

        CLASS   BANK9          

        CLASS   BANK10         

        CLASS   BANK11         

        CLASS   BANK12         

        CLASS   SFR            

        CLASS   FARRAM         

        CLASS   CONFIG         
                config                           300000   300000        E         0

        CLASS   IDLOC          
                idloc                            200000   200000        8         0

        CLASS   EEDATA         



SEGMENTS        Name                           Load    Length   Top    Selector   Space  Class

                reset_vec                      000000  000004  000004         0       0  CODE    
                cstackCOMRAM                   000001  000042  000043         1       1  COMRAM  
                intcode                        000008  00098F  000997         4       0  CODE    
                cstackBANK0                    000060  000026  000086        60       1  BANK0   
                idloc                          200000  000008  200008    200000       0  IDLOC   
                config                         300000  00000E  30000E    300000       0  CONFIG  


UNUSED ADDRESS RANGES

        Name                Unused          Largest block    Delta
        BANK0            000086-0000FF               7A
        BANK1            000100-0001FF              100
        BANK10           000A00-000AFF              100
        BANK11           000B00-000BFF              100
        BANK12           000C00-000CFF              100
        BANK2            000200-0002FF              100
        BANK3            000300-0003FF              100
        BANK4            000400-0004FF              100
        BANK5            000500-0005FF              100
        BANK6            000600-0006FF              100
        BANK7            000700-0007FF              100
        BANK8            000800-0008FF              100
        BANK9            000900-0009FF              100
        BIGRAM           000043-00005F               1D
                         000086-000CFF              C7A
        CODE             000004-000007                4
                         000997-00BFFF             B669
        COMRAM           000043-00005F               1D
        CONST            000004-000007                4
                         000997-00BFFF             B669
        EEDATA           F00000-F003FF              400
        MEDIUMCONST      000D00-00BFFF             B300
        RAM              000086-000CFF              100
        SFR              000D00-000FFF              100
        SMALLCONST       000D00-00BFFF              100
        STACK            000086-000CFF              C7A

                                  Symbol Table

CANIDToRegs@Value             cstackBANK0  000069
CANIDToRegs@ptr               cstackBANK0  000060
CANIDToRegs@type              cstackBANK0  000066
CANIDToRegs@val               cstackBANK0  000062
CANInitialize@BRP             cstackBANK0  000073
CANInitialize@FilterConfig1   cstackBANK0  00007D
CANInitialize@FilterConfig2   cstackBANK0  00007E
CANInitialize@PHSEG1          cstackBANK0  000074
CANInitialize@PHSEG2          cstackBANK0  000075
CANInitialize@PROPSEG         cstackBANK0  000076
CANInitialize@SJW             cstackBANK0  00007C
CANInitialize@config          cstackBANK0  000077
CANSendMessage@Data           cstackCOMRAM 000010
CANSendMessage@DataLen        cstackCOMRAM 000012
CANSendMessage@MsgFlags       cstackCOMRAM 000013
CANSendMessage@i              cstackCOMRAM 000016
CANSendMessage@id             cstackCOMRAM 00000C
CANSendMessage@ptr            cstackCOMRAM 000014
CANSetBaudRate@BRP            cstackBANK0  000060
CANSetBaudRate@PHSEG1         cstackBANK0  000061
CANSetBaudRate@PHSEG2         cstackBANK0  000062
CANSetBaudRate@PROPSEG        cstackBANK0  000063
CANSetBaudRate@SJW            cstackBANK0  000065
CANSetBaudRate@flags          cstackBANK0  000064
CANSetFilter@code             cstackBANK0  000070
CANSetFilter@ptr              cstackBANK0  000071
CANSetFilter@type             cstackBANK0  00006F
CANSetFilter@val              cstackBANK0  00006B
CANSetMask@code               cstackBANK0  000070
CANSetMask@ptr                cstackBANK0  000071
CANSetMask@type               cstackBANK0  00006F
CANSetMask@val                cstackBANK0  00006B
CANSetOperationMode@mode      cstackBANK0  000060
_ADCON0                       (abs)        000FC2
_ADCON0bits                   (abs)        000FC2
_ADCON1bits                   (abs)        000FC1
_ADCON2bits                   (abs)        000FC0
_ADRESH                       (abs)        000FC4
_ADRESL                       (abs)        000FC3
_BRGCON1                      (abs)        000F70
_BRGCON2                      (abs)        000F71
_BRGCON2bits                  (abs)        000F71
_BRGCON3                      (abs)        000F72
_BRGCON3bits                  (abs)        000F72
_CANCON                       (abs)        000F6F
_CANIDToRegs                  text7        00001A
_CANInitialize                text3        0001D0
_CANSTAT                      (abs)        000F6E
_CANSendMessage               text12       00058C
_CANSetBaudRate               text8        0007FE
_CANSetFilter                 text6        000790
_CANSetMask                   text5        000850
_CANSetOperationMode          text4        00096A
_CAN_timer                    bssCOMRAM    00003B
_CIOCON                       (abs)        000F73
_COMSTATbits                  (abs)        000F74
_INTCONbits                   (abs)        000FF2
_ISR                          intcode      000008
_OSCCONbits                   (abs)        000FD3
_OSCTUNEbits                  (abs)        000F9B
_PIR3bits                     (abs)        000FA4
_PORTA                        (abs)        000F80
_RXB0CON                      (abs)        000F60
_RXB0CONbits                  (abs)        000F60
_RXB0D0                       (abs)        000F66
_RXB0DLC                      (abs)        000F65
_RXB0DLCbits                  (abs)        000F65
_RXB0SIDH                     (abs)        000F61
_RXB0SIDLbits                 (abs)        000F62
_RXB1CON                      (abs)        000F50
_RXB1CONbits                  (abs)        000F50
_RXF0SIDH                     (abs)        000F00
_RXF1SIDH                     (abs)        000F04
_RXF2SIDH                     (abs)        000F08
_RXF3SIDH                     (abs)        000F0C
_RXF4SIDH                     (abs)        000F10
_RXF5SIDH                     (abs)        000F14
_RXM0SIDH                     (abs)        000F18
_RXM1SIDH                     (abs)        000F1C
_T0CON                        (abs)        000FD5
_T0CONbits                    (abs)        000FD5
_TMR0H                        (abs)        000FD7
_TMR0L                        (abs)        000FD6
_TRISAbits                    (abs)        000F92
_TRISB                        (abs)        000F93
_TRISC                        (abs)        000F94
_TXB0CONbits                  (abs)        000F40
_TXB1CONbits                  (abs)        000F30
_TXB2CONbits                  (abs)        000F20
__CFG_OSC$IRCIO67             (abs)        000000
__CFG_PWRT$ON                 (abs)        000000
__CFG_XINST$OFF               (abs)        000000
__HRAM                        (abs)        000000
__Habs1                       abs1         000000
__Hbank0                      bank0        000000
__Hbank1                      bank1        000000
__Hbank10                     bank10       000000
__Hbank11                     bank11       000000
__Hbank12                     bank12       000000
__Hbank2                      bank2        000000
__Hbank3                      bank3        000000
__Hbank4                      bank4        000000
__Hbank5                      bank5        000000
__Hbank6                      bank6        000000
__Hbank7                      bank7        000000
__Hbank8                      bank8        000000
__Hbank9                      bank9        000000
__Hbigbss                     bigbss       000000
__Hbigdata                    bigdata      000000
__Hbigram                     bigram       000000
__Hbss                        bss          000000
__HbssCOMRAM                  bssCOMRAM    000000
__Hcinit                      cinit        000000
__Hclrtext                    clrtext      000000
__Hcomram                     comram       000000
__Hconfig                     config       30000E
__Hconst                      const        000000
__HcstackBANK0                cstackBANK0  000000
__HcstackCOMRAM               cstackCOMRAM 000000
__Hdata                       data         000000
__HdataCOMRAM                 dataCOMRAM   000000
__Heeprom_data                eeprom_data  000000
__Hend_init                   end_init     00001A
__Hfarbss                     farbss       000000
__Hfardata                    fardata      000000
__Hibigdata                   ibigdata     000000
__Hidata                      idata        000000
__HidataCOMRAM                idataCOMRAM  000000
__Hidloc                      idloc        200008
__Hifardata                   ifardata     000000
__Hinit                       init         000016
__Hintcode                    intcode      000016
__Hintcode_body               intcode_body 000000
__Hintcodelo                  intcodelo    000016
__Hintentry                   intentry     000000
__Hintret                     intret       000000
__Hintsave_regs               intsave_regs 000000
__Hirdata                     irdata       000000
__Hmediumconst                mediumconst  000000
__HnvFARRAM                   nvFARRAM     000000
__Hnvbit                      nvbit        000000
__Hnvrram                     nvrram       000000
__Hparam                      rparam       000000
__Hpowerup                    powerup      000016
__Hram                        ram          000000
__Hramtop                     ramtop       000D00
__Hrbit                       rbit         000000
__Hrbss                       rbss         000000
__Hrdata                      rdata        000000
__Hreset_vec                  reset_vec    000004
__Hrparam                     rparam       000000
__Hsfr                        sfr          000000
__Hsmallconst                 smallconst   000000
__Hspace_0                    (abs)        30000E
__Hspace_1                    (abs)        000086
__Hspace_2                    (abs)        000000
__Hstack                      stack        000000
__Hstruct                     struct       000000
__Htemp                       temp         000043
__Htext                       text         000000
__Htext0                      text0        000000
__Htext1                      text1        000000
__Htext11                     text11       000000
__Htext12                     text12       000000
__Htext13                     text13       000000
__Htext14                     text14       000000
__Htext2                      text2        000000
__Htext3                      text3        000000
__Htext4                      text4        000000
__Htext5                      text5        000000
__Htext6                      text6        000000
__Htext7                      text7        000000
__Htext8                      text8        000000
__Htext9                      text9        000000
__LRAM                        (abs)        000001
__Labs1                       abs1         000000
__Lbank0                      bank0        000000
__Lbank1                      bank1        000000
__Lbank10                     bank10       000000
__Lbank11                     bank11       000000
__Lbank12                     bank12       000000
__Lbank2                      bank2        000000
__Lbank3                      bank3        000000
__Lbank4                      bank4        000000
__Lbank5                      bank5        000000
__Lbank6                      bank6        000000
__Lbank7                      bank7        000000
__Lbank8                      bank8        000000
__Lbank9                      bank9        000000
__Lbigbss                     bigbss       000000
__Lbigdata                    bigdata      000000
__Lbigram                     bigram       000000
__Lbss                        bss          000000
__LbssCOMRAM                  bssCOMRAM    000000
__Lcinit                      cinit        000000
__Lclrtext                    clrtext      000000
__Lcomram                     comram       000000
__Lconfig                     config       300000
__Lconst                      const        000000
__LcstackBANK0                cstackBANK0  000000
__LcstackCOMRAM               cstackCOMRAM 000000
__Ldata                       data         000000
__LdataCOMRAM                 dataCOMRAM   000000
__Leeprom_data                eeprom_data  000000
__Lend_init                   end_init     000016
__Lfarbss                     farbss       000000
__Lfardata                    fardata      000000
__Libigdata                   ibigdata     000000
__Lidata                      idata        000000
__LidataCOMRAM                idataCOMRAM  000000
__Lidloc                      idloc        200000
__Lifardata                   ifardata     000000
__Linit                       init         000016
__Lintcode                    intcode      000008
__Lintcode_body               intcode_body 000000
__Lintcodelo                  intcodelo    000016
__Lintentry                   intentry     000000
__Lintret                     intret       000000
__Lintsave_regs               intsave_regs 000000
__Lirdata                     irdata       000000
__Lmediumconst                mediumconst  000000
__LnvFARRAM                   nvFARRAM     000000
__Lnvbit                      nvbit        000000
__Lnvrram                     nvrram       000000
__Lparam                      rparam       000000
__Lpowerup                    powerup      000016
__Lram                        ram          000000
__Lramtop                     ramtop       000D00
__Lrbit                       rbit         000000
__Lrbss                       rbss         000000
__Lrdata                      rdata        000000
__Lreset_vec                  reset_vec    000000
__Lrparam                     rparam       000000
__Lsfr                        sfr          000000
__Lsmallconst                 smallconst   000000
__Lspace_0                    (abs)        000000
__Lspace_1                    (abs)        000000
__Lspace_2                    (abs)        000000
__Lstack                      stack        000000
__Lstruct                     struct       000000
__Ltemp                       temp         000042
__Ltext                       text         000000
__Ltext0                      text0        000000
__Ltext1                      text1        000000
__Ltext11                     text11       000000
__Ltext12                     text12       000000
__Ltext13                     text13       000000
__Ltext14                     text14       000000
__Ltext2                      text2        000000
__Ltext3                      text3        000000
__Ltext4                      text4        000000
__Ltext5                      text5        000000
__Ltext6                      text6        000000
__Ltext7                      text7        000000
__Ltext8                      text8        000000
__Ltext9                      text9        000000
__S0                          (abs)        30000E
__S1                          (abs)        000086
__S2                          (abs)        000000
___inthi_sp                   stack        000000
___intlo_sp                   stack        000000
___param_bank                 (abs)        000010
___rparam_used                (abs)        000001
___sp                         stack        000000
__accesstop                   (abs)        000060
__activetblptr                (abs)        000002
__end_of_CANIDToRegs          text7        0001D0
__end_of_CANInitialize        text3        00035E
__end_of_CANSendMessage       text12       00064E
__end_of_CANSetBaudRate       text8        000850
__end_of_CANSetFilter         text6        0007FE
__end_of_CANSetMask           text5        000890
__end_of_CANSetOperationMode  text4        000980
__end_of_ISR                  intcode_body 000790
__end_of__initialization      cinit        0008BC
__end_of_getAnalog            text14       000706
__end_of_initAnalog           text9        00096A
__end_of_initCAN              text2        000904
__end_of_initTimers           text1        00093A
__end_of_main                 text0        000992
__end_of_sendCANMain          text11       00058C
__end_ofi2_CANIDToRegs        text13       0004BC
__initialization              cinit        000890
__mediumconst                 mediumconst  000000
__pbssCOMRAM                  bssCOMRAM    000031
__pcinit                      cinit        000890
__pcstackBANK0                cstackBANK0  000060
__pcstackCOMRAM               cstackCOMRAM 000001
__pdataCOMRAM                 dataCOMRAM   00003D
__pidataCOMRAM                idataCOMRAM  000992
__pintcode                    intcode      000008
__pintcode_body               intcode_body 000706
__ptext0                      text0        000980
__ptext1                      text1        000904
__ptext11                     text11       0004BC
__ptext12                     text12       00058C
__ptext13                     text13       00035E
__ptext14                     text14       00064E
__ptext2                      text2        0008CA
__ptext3                      text3        0001D0
__ptext4                      text4        00096A
__ptext5                      text5        000850
__ptext6                      text6        000790
__ptext7                      text7        00001A
__ptext8                      text8        0007FE
__ptext9                      text9        00093A
__ramtop                      ramtop       000D00
__size_of_CANIDToRegs         (abs)        000000
__size_of_CANInitialize       (abs)        000000
__size_of_CANSendMessage      (abs)        000000
__size_of_CANSetBaudRate      (abs)        000000
__size_of_CANSetFilter        (abs)        000000
__size_of_CANSetMask          (abs)        000000
__size_of_CANSetOperationMode (abs)        000000
__size_of_ISR                 (abs)        000000
__size_of_getAnalog           (abs)        000000
__size_of_initAnalog          (abs)        000000
__size_of_initCAN             (abs)        000000
__size_of_initTimers          (abs)        000000
__size_of_main                (abs)        000000
__size_of_sendCANMain         (abs)        000000
__size_ofi2_CANIDToRegs       (abs)        000000
__smallconst                  smallconst   000000
_getAnalog                    text14       00064E
_initAnalog                   text9        00093A
_initCAN                      text2        0008CA
_initTimers                   text1        000904
_inputs                       dataCOMRAM   00003D
_main                         text0        000980
_results                      bssCOMRAM    000031
_sendCANMain                  text11       0004BC
btemp                         temp         000042
end_of_initialization         cinit        0008BC
getAnalog@i                   cstackCOMRAM 000004
i2CANIDToRegs@Value           cstackCOMRAM 00000A
i2CANIDToRegs@ptr             cstackCOMRAM 000001
i2CANIDToRegs@type            cstackCOMRAM 000007
i2CANIDToRegs@val             cstackCOMRAM 000003
i2_CANIDToRegs                text13       00035E
initCAN@init_flag             cstackBANK0  00007F
int$flags                     temp         000042
int_func                      intcode_body 000706
intlevel0                     text         000000
intlevel1                     text         000000
intlevel2                     text         000000
intlevel3                     text         000000
sendCANMain@MessageData       cstackCOMRAM 000019
sendCANMain@i                 cstackCOMRAM 000021
stackhi                       (abs)        000CFF
stacklo                       (abs)        000086
start                         init         000016
start_initialization          cinit        000890


FUNCTION INFORMATION:

 *************** function _main *****************
 Defined at:
		line 158 in file "main.c"
 Parameters:    Size  Location     Type
  argc            2   33[BANK0 ] int 
  argv            3   35[BANK0 ] PTR PTR unsigned char 
 Auto vars:     Size  Location     Type
		None
 Return value:  Size  Location     Type
                  2   33[BANK0 ] int 
 Registers used:
		wreg, fsr1l, fsr1h, fsr2l, fsr2h, status,2, status,0, cstack
 Tracked objects:
		On entry : 
		On exit  : 
		Unchanged: 
 Data sizes:     COMRAM   BANK0   BANK1   BANK2   BANK3   BANK4   BANK5   BANK6   BANK7   BANK8   BANK9  BANK10  BANK11  BANK12
      Params:         0       5       0       0       0       0       0       0       0       0       0       0       0       0
      Locals:         0       0       0       0       0       0       0       0       0       0       0       0       0       0
      Temps:          0       0       0       0       0       0       0       0       0       0       0       0       0       0
      Totals:         0       5       0       0       0       0       0       0       0       0       0       0       0       0
Total ram usage:        5 bytes
 Hardware stack levels required when called:    8
 This function calls:
		_initAnalog
		_initCAN
		_initTimers
 This function is called by:
		Startup code after reset
 This function uses a non-reentrant model


 *************** function _initTimers *****************
 Defined at:
		line 51 in file "main.c"
 Parameters:    Size  Location     Type
		None
 Auto vars:     Size  Location     Type
		None
 Return value:  Size  Location     Type
		None               void
 Registers used:
		wreg, status,2
 Tracked objects:
		On entry : 
		On exit  : 
		Unchanged: 
 Data sizes:     COMRAM   BANK0   BANK1   BANK2   BANK3   BANK4   BANK5   BANK6   BANK7   BANK8   BANK9  BANK10  BANK11  BANK12
      Params:         0       0       0       0       0       0       0       0       0       0       0       0       0       0
      Locals:         0       0       0       0       0       0       0       0       0       0       0       0       0       0
      Temps:          0       0       0       0       0       0       0       0       0       0       0       0       0       0
      Totals:         0       0       0       0       0       0       0       0       0       0       0       0       0       0
Total ram usage:        0 bytes
 Hardware stack levels used:    1
 Hardware stack levels required when called:    4
 This function calls:
		Nothing
 This function is called by:
		_main
 This function uses a non-reentrant model


 *************** function _initCAN *****************
 Defined at:
		line 107 in file "main.c"
 Parameters:    Size  Location     Type
		None
 Auto vars:     Size  Location     Type
  init_flag       2   31[BANK0 ] short 
 Return value:  Size  Location     Type
		None               void
 Registers used:
		wreg, fsr1l, fsr1h, fsr2l, fsr2h, status,2, status,0, cstack
 Tracked objects:
		On entry : 
		On exit  : 
		Unchanged: 
 Data sizes:     COMRAM   BANK0   BANK1   BANK2   BANK3   BANK4   BANK5   BANK6   BANK7   BANK8   BANK9  BANK10  BANK11  BANK12
      Params:         0       0       0       0       0       0       0       0       0       0       0       0       0       0
      Locals:         0       2       0       0       0       0       0       0       0       0       0       0       0       0
      Temps:          0       0       0       0       0       0       0       0       0       0       0       0       0       0
      Totals:         0       2       0       0       0       0       0       0       0       0       0       0       0       0
Total ram usage:        2 bytes
 Hardware stack levels used:    1
 Hardware stack levels required when called:    7
 This function calls:
		_CANInitialize
 This function is called by:
		_main
 This function uses a non-reentrant model


 *************** function _CANInitialize *****************
 Defined at:
		line 152 in file "can18xx8.c"
 Parameters:    Size  Location     Type
  SJW             1    wreg     unsigned char 
  BRP             1   19[BANK0 ] unsigned char 
  PHSEG1          1   20[BANK0 ] unsigned char 
  PHSEG2          1   21[BANK0 ] unsigned char 
  PROPSEG         1   22[BANK0 ] unsigned char 
  config          1   23[BANK0 ] enum E454
 Auto vars:     Size  Location     Type
  SJW             1   28[BANK0 ] unsigned char 
  FilterConfig    1   30[BANK0 ] unsigned char 
  FilterConfig    1   29[BANK0 ] unsigned char 
 Return value:  Size  Location     Type
		None               void
 Registers used:
		wreg, fsr1l, fsr1h, fsr2l, fsr2h, status,2, status,0, cstack
 Tracked objects:
		On entry : 
		On exit  : 
		Unchanged: 
 Data sizes:     COMRAM   BANK0   BANK1   BANK2   BANK3   BANK4   BANK5   BANK6   BANK7   BANK8   BANK9  BANK10  BANK11  BANK12
      Params:         0       5       0       0       0       0       0       0       0       0       0       0       0       0
      Locals:         0       3       0       0       0       0       0       0       0       0       0       0       0       0
      Temps:          0       4       0       0       0       0       0       0       0       0       0       0       0       0
      Totals:         0      12       0       0       0       0       0       0       0       0       0       0       0       0
Total ram usage:       12 bytes
 Hardware stack levels used:    1
 Hardware stack levels required when called:    6
 This function calls:
		_CANSetBaudRate
		_CANSetFilter
		_CANSetMask
		_CANSetOperationMode
 This function is called by:
		_initCAN
 This function uses a non-reentrant model


 *************** function _CANSetOperationMode *****************
 Defined at:
		line 236 in file "can18xx8.c"
 Parameters:    Size  Location     Type
  mode            1    wreg     enum E447
 Auto vars:     Size  Location     Type
  mode            1    0[BANK0 ] enum E447
 Return value:  Size  Location     Type
		None               void
 Registers used:
		wreg, status,2, status,0
 Tracked objects:
		On entry : 
		On exit  : 
		Unchanged: 
 Data sizes:     COMRAM   BANK0   BANK1   BANK2   BANK3   BANK4   BANK5   BANK6   BANK7   BANK8   BANK9  BANK10  BANK11  BANK12
      Params:         0       0       0       0       0       0       0       0       0       0       0       0       0       0
      Locals:         0       1       0       0       0       0       0       0       0       0       0       0       0       0
      Temps:          0       0       0       0       0       0       0       0       0       0       0       0       0       0
      Totals:         0       1       0       0       0       0       0       0       0       0       0       0       0       0
Total ram usage:        1 bytes
 Hardware stack levels used:    1
 Hardware stack levels required when called:    4
 This function calls:
		Nothing
 This function is called by:
		_CANInitialize
 This function uses a non-reentrant model


 *************** function _CANSetMask *****************
 Defined at:
		line 454 in file "can18xx8.c"
 Parameters:    Size  Location     Type
  code            1    wreg     enum E437
  val             4   11[BANK0 ] unsigned long 
  type            1   15[BANK0 ] enum E454
 Auto vars:     Size  Location     Type
  code            1   16[BANK0 ] enum E437
  ptr             2   17[BANK0 ] PTR unsigned char 
		 -> RXM1SIDH(1), RXM0SIDH(1), 
 Return value:  Size  Location     Type
		None               void
 Registers used:
		wreg, fsr1l, fsr1h, fsr2l, fsr2h, status,2, status,0, cstack
 Tracked objects:
		On entry : 
		On exit  : 
		Unchanged: 
 Data sizes:     COMRAM   BANK0   BANK1   BANK2   BANK3   BANK4   BANK5   BANK6   BANK7   BANK8   BANK9  BANK10  BANK11  BANK12
      Params:         0       5       0       0       0       0       0       0       0       0       0       0       0       0
      Locals:         0       3       0       0       0       0       0       0       0       0       0       0       0       0
      Temps:          0       0       0       0       0       0       0       0       0       0       0       0       0       0
      Totals:         0       8       0       0       0       0       0       0       0       0       0       0       0       0
Total ram usage:        8 bytes
 Hardware stack levels used:    1
 Hardware stack levels required when called:    5
 This function calls:
		_CANIDToRegs
 This function is called by:
		_CANInitialize
 This function uses a non-reentrant model


 *************** function _CANSetFilter *****************
 Defined at:
		line 492 in file "can18xx8.c"
 Parameters:    Size  Location     Type
  code            1    wreg     enum E440
  val             4   11[BANK0 ] unsigned long 
  type            1   15[BANK0 ] enum E454
 Auto vars:     Size  Location     Type
  code            1   16[BANK0 ] enum E440
  ptr             2   17[BANK0 ] PTR unsigned char 
		 -> RXF5SIDH(1), RXF4SIDH(1), RXF3SIDH(1), RXF2SIDH(1), 
		 -> RXF1SIDH(1), RXF0SIDH(1), 
 Return value:  Size  Location     Type
		None               void
 Registers used:
		wreg, fsr1l, fsr1h, fsr2l, fsr2h, status,2, status,0, cstack
 Tracked objects:
		On entry : 
		On exit  : 
		Unchanged: 
 Data sizes:     COMRAM   BANK0   BANK1   BANK2   BANK3   BANK4   BANK5   BANK6   BANK7   BANK8   BANK9  BANK10  BANK11  BANK12
      Params:         0       5       0       0       0       0       0       0       0       0       0       0       0       0
      Locals:         0       3       0       0       0       0       0       0       0       0       0       0       0       0
      Temps:          0       0       0       0       0       0       0       0       0       0       0       0       0       0
      Totals:         0       8       0       0       0       0       0       0       0       0       0       0       0       0
Total ram usage:        8 bytes
 Hardware stack levels used:    1
 Hardware stack levels required when called:    5
 This function calls:
		_CANIDToRegs
 This function is called by:
		_CANInitialize
 This function uses a non-reentrant model


 *************** function _CANIDToRegs *****************
 Defined at:
		line 341 in file "can18xx8.c"
 Parameters:    Size  Location     Type
  ptr             2    0[BANK0 ] PTR unsigned char 
		 -> RXB0SIDH(1), RXF5SIDH(1), RXF4SIDH(1), RXF3SIDH(1), 
		 -> RXF2SIDH(1), RXF1SIDH(1), RXF0SIDH(1), RXM1SIDH(1), 
		 -> RXM0SIDH(1), 
  val             4    2[BANK0 ] unsigned long 
  type            1    6[BANK0 ] enum E454
 Auto vars:     Size  Location     Type
  Value           2    9[BANK0 ] PTR struct _CAN_MESSAGE_
		 -> CANIDToRegs@val(4), 
 Return value:  Size  Location     Type
		None               void
 Registers used:
		wreg, fsr1l, fsr1h, fsr2l, fsr2h, status,2, status,0
 Tracked objects:
		On entry : 
		On exit  : 
		Unchanged: 
 Data sizes:     COMRAM   BANK0   BANK1   BANK2   BANK3   BANK4   BANK5   BANK6   BANK7   BANK8   BANK9  BANK10  BANK11  BANK12
      Params:         0       7       0       0       0       0       0       0       0       0       0       0       0       0
      Locals:         0       2       0       0       0       0       0       0       0       0       0       0       0       0
      Temps:          0       2       0       0       0       0       0       0       0       0       0       0       0       0
      Totals:         0      11       0       0       0       0       0       0       0       0       0       0       0       0
Total ram usage:       11 bytes
 Hardware stack levels used:    1
 Hardware stack levels required when called:    4
 This function calls:
		Nothing
 This function is called by:
		_CANSetMask
		_CANSetFilter
 This function uses a non-reentrant model


 *************** function _CANSetBaudRate *****************
 Defined at:
		line 281 in file "can18xx8.c"
 Parameters:    Size  Location     Type
  SJW             1    wreg     unsigned char 
  BRP             1    0[BANK0 ] unsigned char 
  PHSEG1          1    1[BANK0 ] unsigned char 
  PHSEG2          1    2[BANK0 ] unsigned char 
  PROPSEG         1    3[BANK0 ] unsigned char 
  flags           1    4[BANK0 ] enum E454
 Auto vars:     Size  Location     Type
  SJW             1    5[BANK0 ] unsigned char 
 Return value:  Size  Location     Type
		None               void
 Registers used:
		wreg, status,2, status,0
 Tracked objects:
		On entry : 
		On exit  : 
		Unchanged: 
 Data sizes:     COMRAM   BANK0   BANK1   BANK2   BANK3   BANK4   BANK5   BANK6   BANK7   BANK8   BANK9  BANK10  BANK11  BANK12
      Params:         0       5       0       0       0       0       0       0       0       0       0       0       0       0
      Locals:         0       1       0       0       0       0       0       0       0       0       0       0       0       0
      Temps:          0       0       0       0       0       0       0       0       0       0       0       0       0       0
      Totals:         0       6       0       0       0       0       0       0       0       0       0       0       0       0
Total ram usage:        6 bytes
 Hardware stack levels used:    1
 Hardware stack levels required when called:    4
 This function calls:
		Nothing
 This function is called by:
		_CANInitialize
 This function uses a non-reentrant model


 *************** function _initAnalog *****************
 Defined at:
		line 79 in file "main.c"
 Parameters:    Size  Location     Type
		None
 Auto vars:     Size  Location     Type
		None
 Return value:  Size  Location     Type
		None               void
 Registers used:
		wreg, status,2
 Tracked objects:
		On entry : 
		On exit  : 
		Unchanged: 
 Data sizes:     COMRAM   BANK0   BANK1   BANK2   BANK3   BANK4   BANK5   BANK6   BANK7   BANK8   BANK9  BANK10  BANK11  BANK12
      Params:         0       0       0       0       0       0       0       0       0       0       0       0       0       0
      Locals:         0       0       0       0       0       0       0       0       0       0       0       0       0       0
      Temps:          0       0       0       0       0       0       0       0       0       0       0       0       0       0
      Totals:         0       0       0       0       0       0       0       0       0       0       0       0       0       0
Total ram usage:        0 bytes
 Hardware stack levels used:    1
 Hardware stack levels required when called:    4
 This function calls:
		Nothing
 This function is called by:
		_main
 This function uses a non-reentrant model


 *************** function _ISR *****************
 Defined at:
		line 171 in file "main.c"
 Parameters:    Size  Location     Type
		None
 Auto vars:     Size  Location     Type
		None
 Return value:  Size  Location     Type
		None               void
 Registers used:
		wreg, fsr1l, fsr1h, fsr2l, fsr2h, status,2, status,0, prodl, prodh, cstack
 Tracked objects:
		On entry : 
		On exit  : 
		Unchanged: 
 Data sizes:     COMRAM   BANK0   BANK1   BANK2   BANK3   BANK4   BANK5   BANK6   BANK7   BANK8   BANK9  BANK10  BANK11  BANK12
      Params:         0       0       0       0       0       0       0       0       0       0       0       0       0       0
      Locals:         0       0       0       0       0       0       0       0       0       0       0       0       0       0
      Temps:         14       0       0       0       0       0       0       0       0       0       0       0       0       0
      Totals:        14       0       0       0       0       0       0       0       0       0       0       0       0       0
Total ram usage:       14 bytes
 Hardware stack levels used:    1
 Hardware stack levels required when called:    3
 This function calls:
		_getAnalog
		_sendCANMain
 This function is called by:
		Interrupt level 2
 This function uses a non-reentrant model


 *************** function _sendCANMain *****************
 Defined at:
		line 118 in file "main.c"
 Parameters:    Size  Location     Type
		None
 Auto vars:     Size  Location     Type
  i               2   32[COMRAM] int 
  MessageData     8   24[COMRAM] unsigned char [8]
 Return value:  Size  Location     Type
		None               void
 Registers used:
		wreg, fsr1l, fsr1h, fsr2l, fsr2h, status,2, status,0, prodl, prodh, cstack
 Tracked objects:
		On entry : 
		On exit  : 
		Unchanged: 
 Data sizes:     COMRAM   BANK0   BANK1   BANK2   BANK3   BANK4   BANK5   BANK6   BANK7   BANK8   BANK9  BANK10  BANK11  BANK12
      Params:         0       0       0       0       0       0       0       0       0       0       0       0       0       0
      Locals:        10       0       0       0       0       0       0       0       0       0       0       0       0       0
      Temps:          2       0       0       0       0       0       0       0       0       0       0       0       0       0
      Totals:        12       0       0       0       0       0       0       0       0       0       0       0       0       0
Total ram usage:       12 bytes
 Hardware stack levels used:    1
 Hardware stack levels required when called:    2
 This function calls:
		_CANSendMessage
 This function is called by:
		_ISR
 This function uses a non-reentrant model


 *************** function _CANSendMessage *****************
 Defined at:
		line 558 in file "can18xx8.c"
 Parameters:    Size  Location     Type
  id              4   11[COMRAM] unsigned long 
  Data            2   15[COMRAM] PTR unsigned char 
		 -> sendCANBatt@MessageData(2), sendCANMain@MessageData(8), 
  DataLen         1   17[COMRAM] unsigned char 
  MsgFlags        1   18[COMRAM] enum E412
 Auto vars:     Size  Location     Type
  ptr             2   19[COMRAM] PTR unsigned char 
		 -> RXB0D0(1), 
  i               1   21[COMRAM] unsigned char 
 Return value:  Size  Location     Type
                  1    wreg      enum E15698
 Registers used:
		wreg, fsr1l, fsr1h, fsr2l, fsr2h, status,2, status,0, prodl, prodh, cstack
 Tracked objects:
		On entry : 
		On exit  : 
		Unchanged: 
 Data sizes:     COMRAM   BANK0   BANK1   BANK2   BANK3   BANK4   BANK5   BANK6   BANK7   BANK8   BANK9  BANK10  BANK11  BANK12
      Params:         8       0       0       0       0       0       0       0       0       0       0       0       0       0
      Locals:         3       0       0       0       0       0       0       0       0       0       0       0       0       0
      Temps:          0       0       0       0       0       0       0       0       0       0       0       0       0       0
      Totals:        11       0       0       0       0       0       0       0       0       0       0       0       0       0
Total ram usage:       11 bytes
 Hardware stack levels used:    1
 Hardware stack levels required when called:    1
 This function calls:
		i2_CANIDToRegs
 This function is called by:
		_sendCANMain
		_sendCANBatt
 This function uses a non-reentrant model


 *************** function i2_CANIDToRegs *****************
 Defined at:
		line 341 in file "can18xx8.c"
 Parameters:    Size  Location     Type
  ptr             2    0[COMRAM] PTR unsigned char 
		 -> RXB0SIDH(1), RXF5SIDH(1), RXF4SIDH(1), RXF3SIDH(1), 
		 -> RXF2SIDH(1), RXF1SIDH(1), RXF0SIDH(1), RXM1SIDH(1), 
		 -> RXM0SIDH(1), 
  val             4    2[COMRAM] unsigned long 
  type            1    6[COMRAM] enum E454
 Auto vars:     Size  Location     Type
  CANIDToRegs     2    9[COMRAM] PTR struct _CAN_MESSAGE_
		 -> CANIDToRegs@val(4), 
 Return value:  Size  Location     Type
		None               void
 Registers used:
		wreg, fsr1l, fsr1h, fsr2l, fsr2h, status,2, status,0
 Tracked objects:
		On entry : 
		On exit  : 
		Unchanged: 
 Data sizes:     COMRAM   BANK0   BANK1   BANK2   BANK3   BANK4   BANK5   BANK6   BANK7   BANK8   BANK9  BANK10  BANK11  BANK12
      Params:         7       0       0       0       0       0       0       0       0       0       0       0       0       0
      Locals:         2       0       0       0       0       0       0       0       0       0       0       0       0       0
      Temps:          2       0       0       0       0       0       0       0       0       0       0       0       0       0
      Totals:        11       0       0       0       0       0       0       0       0       0       0       0       0       0
Total ram usage:       11 bytes
 Hardware stack levels used:    1
 This function calls:
		Nothing
 This function is called by:
		_CANSendMessage
 This function uses a non-reentrant model


 *************** function _getAnalog *****************
 Defined at:
		line 144 in file "main.c"
 Parameters:    Size  Location     Type
		None
 Auto vars:     Size  Location     Type
  i               2    3[COMRAM] int 
 Return value:  Size  Location     Type
		None               void
 Registers used:
		wreg, fsr2l, fsr2h, status,2, status,0
 Tracked objects:
		On entry : 
		On exit  : 
		Unchanged: 
 Data sizes:     COMRAM   BANK0   BANK1   BANK2   BANK3   BANK4   BANK5   BANK6   BANK7   BANK8   BANK9  BANK10  BANK11  BANK12
      Params:         0       0       0       0       0       0       0       0       0       0       0       0       0       0
      Locals:         2       0       0       0       0       0       0       0       0       0       0       0       0       0
      Temps:          3       0       0       0       0       0       0       0       0       0       0       0       0       0
      Totals:         5       0       0       0       0       0       0       0       0       0       0       0       0       0
Total ram usage:        5 bytes
 Hardware stack levels used:    1
 This function calls:
		Nothing
 This function is called by:
		_ISR
 This function uses a non-reentrant model



MODULE INFORMATION

Module		Function		Class		Link	Load	Size
shared
		__initialization		CODE           	0890	0000	45
		i2_CANIDToRegs 		CODE           	035E	0000	351

shared estimated size: 396

can18xx8.c
		_CANSetFilter  		CODE           	0790	0000	111
		_CANSetBaudRate		CODE           	07FE	0000	83
		_CANInitialize 		CODE           	01D0	0000	399
		_CANIDToRegs   		CODE           	001A	0000	439
		_CANSetMask    		CODE           	0850	0000	65
		_CANSendMessage		CODE           	058C	0000	195
		_CANSetOperationMode		CODE           	096A	0000	23

can18xx8.c estimated size: 1315

main.c
		_ISR           		CODE           	0008	0000	153
		_main          		CODE           	0980	0000	19
		_sendCANMain   		CODE           	04BC	0000	209
		_getAnalog     		CODE           	064E	0000	185
		_initCAN       		CODE           	08CA	0000	59
		_initTimers    		CODE           	0904	0000	55
		_initAnalog    		CODE           	093A	0000	49

main.c estimated size: 729

